{
  "contractName": "BaseStore",
  "abi": [
    {
      "inputs": [],
      "name": "text",
      "outputs": [
        {
          "internalType": "string",
          "name": "",
          "type": "string"
        }
      ],
      "stateMutability": "view",
      "type": "function"
    },
    {
      "inputs": [],
      "name": "value",
      "outputs": [
        {
          "internalType": "uint256",
          "name": "",
          "type": "uint256"
        }
      ],
      "stateMutability": "view",
      "type": "function"
    },
    {
      "inputs": [
        {
          "internalType": "uint256",
          "name": "",
          "type": "uint256"
        }
      ],
      "name": "values",
      "outputs": [
        {
          "internalType": "uint256",
          "name": "",
          "type": "uint256"
        }
      ],
      "stateMutability": "view",
      "type": "function"
    },
    {
      "inputs": [],
      "name": "initializeNonPayable",
      "outputs": [],
      "stateMutability": "nonpayable",
      "type": "function"
    },
    {
      "inputs": [],
      "name": "initializePayable",
      "outputs": [],
      "stateMutability": "payable",
      "type": "function"
    },
    {
      "inputs": [
        {
          "internalType": "uint256",
          "name": "_value",
          "type": "uint256"
        }
      ],
      "name": "initializeNonPayableWithValue",
      "outputs": [],
      "stateMutability": "nonpayable",
      "type": "function"
    },
    {
      "inputs": [
        {
          "internalType": "uint256",
          "name": "_value",
          "type": "uint256"
        }
      ],
      "name": "initializePayableWithValue",
      "outputs": [],
      "stateMutability": "payable",
      "type": "function"
    },
    {
      "inputs": [
        {
          "internalType": "uint256",
          "name": "_value",
          "type": "uint256"
        },
        {
          "internalType": "string",
          "name": "_text",
          "type": "string"
        },
        {
          "internalType": "uint256[]",
          "name": "_values",
          "type": "uint256[]"
        }
      ],
      "name": "initialize",
      "outputs": [],
      "stateMutability": "nonpayable",
      "type": "function"
    },
    {
      "inputs": [],
      "name": "get",
      "outputs": [
        {
          "internalType": "bool",
          "name": "",
          "type": "bool"
        }
      ],
      "stateMutability": "pure",
      "type": "function"
    },
    {
      "inputs": [],
      "name": "version",
      "outputs": [
        {
          "internalType": "string",
          "name": "",
          "type": "string"
        }
      ],
      "stateMutability": "pure",
      "type": "function"
    },
    {
      "inputs": [],
      "name": "reverts",
      "outputs": [],
      "stateMutability": "pure",
      "type": "function"
    }
  ],
  "bytecode": "0x608060405234801561001057600080fd5b5061062b806100206000396000f3fe6080604052600436106100b9576000357c0100000000000000000000000000000000000000000000000000000000900480635e383d21116100815780635e383d21146101b05780636d4ce63c146101da578063763e2831146102035780639fba1f9a1461022d578063d31f8b6b14610235578063e79f5bee14610373576100b9565b80631f1bd692146100be578063227367d5146101485780633bccbbc91461015f5780633fa4f2451461017457806354fd4d501461019b575b600080fd5b3480156100ca57600080fd5b506100d3610389565b6040805160208082528351818301528351919283929083019185019080838360005b8381101561010d5781810151838201526020016100f5565b50505050905090810190601f16801561013a5780820380516001836020036101000a031916815260200191505b509250505060405180910390f35b34801561015457600080fd5b5061015d610416565b005b34801561016b57600080fd5b5061015d61041d565b34801561018057600080fd5b50610189610484565b60408051918252519081900360200190f35b3480156101a757600080fd5b506100d361048a565b3480156101bc57600080fd5b50610189600480360360208110156101d357600080fd5b50356104c2565b3480156101e657600080fd5b506101ef6104e0565b604080519115158252519081900360200190f35b34801561020f57600080fd5b5061015d6004803603602081101561022657600080fd5b50356104e5565b61015d6104ea565b34801561024157600080fd5b5061015d6004803603606081101561025857600080fd5b8135919081019060408101602082013564010000000081111561027a57600080fd5b82018360208201111561028c57600080fd5b803590602001918460018302840111640100000000831117156102ae57600080fd5b91908080601f016020809104026020016040519081016040528093929190818152602001838380828437600092019190915250929594936020810193503591505064010000000081111561030157600080fd5b82018360208201111561031357600080fd5b8035906020019184602083028401116401000000008311171561033557600080fd5b9190808060200260200160405190810160405280939291908181526020018383602002808284376000920191909152509295506104f1945050505050565b61015d6004803603602081101561022657600080fd5b60018054604080516020600284861615610100026000190190941693909304601f8101849004840282018401909252818152929183018282801561040e5780601f106103e35761010080835404028352916020019161040e565b820191906000526020600020905b8154815290600101906020018083116103f157829003601f168201915b505050505081565b600a600055565b604080517f08c379a000000000000000000000000000000000000000000000000000000000815260206004820152601c60248201527f44756d6d79496d706c656d656e746174696f6e20726576657274656400000000604482015290519081900360640190fd5b60005481565b60408051808201909152600281527f563100000000000000000000000000000000000000000000000000000000000060208201525b90565b600281815481106104cf57fe5b600091825260209091200154905081565b600190565b600055565b6064600055565b60008390558151610509906001906020850190610523565b50805161051d9060029060208401906105a1565b50505050565b828054600181600116156101000203166002900490600052602060002090601f016020900481019282601f1061056457805160ff1916838001178555610591565b82800160010185558215610591579182015b82811115610591578251825591602001919060010190610576565b5061059d9291506105db565b5090565b8280548282559060005260206000209081019282156105915791602002820182811115610591578251825591602001919060010190610576565b6104bf91905b8082111561059d57600081556001016105e156fea2646970667358221220d63e814e3e80d68f8fcb5df08e0478204208434c2332d62b92bc5ed4fa1c369d64736f6c63430006060033",
  "immutableReferences": {},
  "source": "pragma solidity ^0.6.6;\n\ncontract BaseStore {\n    uint256 public value;\n    string public text;\n    uint256[] public values;\n\n    function initializeNonPayable() public {\n        value = 10;\n    }\n\n    function initializePayable() public payable {\n        value = 100;\n    }\n\n    function initializeNonPayableWithValue(uint256 _value) public {\n        value = _value;\n    }\n\n    function initializePayableWithValue(uint256 _value) public payable {\n        value = _value;\n    }\n\n    function initialize(\n        uint256 _value,\n        string memory _text,\n        uint256[] memory _values\n    ) public {\n        value = _value;\n        text = _text;\n        values = _values;\n    }\n\n    function get() public pure returns (bool) {\n        return true;\n    }\n\n    function version() public pure virtual returns (string memory) {\n        return \"V1\";\n    }\n\n    function reverts() public pure {\n        require(false, \"DummyImplementation reverted\");\n    }\n}\n",
  "sourcePath": "/root/testnet/code/w3fs-genesis-contracts-bridge/contracts/proxytest/BaseStore.sol",
  "compiler": {
    "name": "solc",
    "version": "0.6.6+commit.6c089d02.Emscripten.clang"
  },
  "schemaVersion": "3.4.10",
  "updatedAt": "2022-11-17T02:32:22.638Z",
  "devdoc": {
    "methods": {}
  },
  "userdoc": {
    "methods": {}
  }
}