{
  "contractName": "BaseLogic",
  "abi": [
    {
      "inputs": [
        {
          "internalType": "address",
          "name": "_addr",
          "type": "address"
        }
      ],
      "name": "initialize",
      "outputs": [],
      "stateMutability": "nonpayable",
      "type": "function"
    },
    {
      "inputs": [
        {
          "internalType": "uint256",
          "name": "_value",
          "type": "uint256"
        }
      ],
      "name": "setValueByData",
      "outputs": [],
      "stateMutability": "nonpayable",
      "type": "function"
    },
    {
      "inputs": [],
      "name": "getValue",
      "outputs": [
        {
          "internalType": "uint256",
          "name": "",
          "type": "uint256"
        }
      ],
      "stateMutability": "nonpayable",
      "type": "function"
    }
  ],
  "bytecode": "0x608060405234801561001057600080fd5b5061027f806100206000396000f3fe608060405234801561001057600080fd5b506004361061005d577c01000000000000000000000000000000000000000000000000000000006000350463209652558114610062578063c4d66de81461007c578063ea1ca3fd146100b1575b600080fd5b61006a6100ce565b60408051918252519081900360200190f35b6100af6004803603602081101561009257600080fd5b503573ffffffffffffffffffffffffffffffffffffffff16610184565b005b6100af600480360360208110156100c757600080fd5b50356101c0565b60008060009054906101000a900473ffffffffffffffffffffffffffffffffffffffff1673ffffffffffffffffffffffffffffffffffffffff16633fa4f2456040518163ffffffff167c010000000000000000000000000000000000000000000000000000000002815260040160206040518083038186803b15801561015357600080fd5b505afa158015610167573d6000803e3d6000fd5b505050506040513d602081101561017d57600080fd5b5051905090565b6000805473ffffffffffffffffffffffffffffffffffffffff191673ffffffffffffffffffffffffffffffffffffffff92909216919091179055565b60008054604080517f763e283100000000000000000000000000000000000000000000000000000000815260048101859052905173ffffffffffffffffffffffffffffffffffffffff9092169263763e28319260248084019382900301818387803b15801561022e57600080fd5b505af1158015610242573d6000803e3d6000fd5b505050505056fea26469706673582212206738cad5518084b9220af3676b84283c1089a07456b00ca309ae8cd641522ccf64736f6c63430006060033",
  "immutableReferences": {},
  "source": "pragma solidity ^0.6.6;\n\nimport {BaseStore} from \"./BaseStore.sol\";\n\ncontract BaseLogic {\n    BaseStore internal _baseStore;\n\n    function initialize(address _addr) external {\n        _baseStore = BaseStore(_addr);\n    }\n\n    function setValueByData(uint256 _value) public {\n        _baseStore.initializeNonPayableWithValue(_value);\n    }\n\n    function getValue() public returns (uint256) {\n        return _baseStore.value();\n    }\n}\n",
  "sourcePath": "/root/testnet/code/w3fs-genesis-contracts-bridge/contracts/proxytest/BaseLogic.sol",
  "compiler": {
    "name": "solc",
    "version": "0.6.6+commit.6c089d02.Emscripten.clang"
  },
  "schemaVersion": "3.4.10",
  "updatedAt": "2022-11-17T02:32:22.633Z",
  "devdoc": {
    "methods": {}
  },
  "userdoc": {
    "methods": {}
  }
}