{
  "contractName": "BorValidatorSet",
  "abi": [
    {
      "inputs": [],
      "stateMutability": "nonpayable",
      "type": "constructor"
    },
    {
      "anonymous": false,
      "inputs": [
        {
          "indexed": true,
          "internalType": "uint256",
          "name": "id",
          "type": "uint256"
        },
        {
          "indexed": true,
          "internalType": "uint256",
          "name": "startBlock",
          "type": "uint256"
        },
        {
          "indexed": true,
          "internalType": "uint256",
          "name": "endBlock",
          "type": "uint256"
        }
      ],
      "name": "NewSpan",
      "type": "event"
    },
    {
      "inputs": [],
      "name": "BOR_ID",
      "outputs": [
        {
          "internalType": "bytes32",
          "name": "",
          "type": "bytes32"
        }
      ],
      "stateMutability": "view",
      "type": "function"
    },
    {
      "inputs": [],
      "name": "CHAIN",
      "outputs": [
        {
          "internalType": "bytes32",
          "name": "",
          "type": "bytes32"
        }
      ],
      "stateMutability": "view",
      "type": "function"
    },
    {
      "inputs": [],
      "name": "FIRST_END_BLOCK",
      "outputs": [
        {
          "internalType": "uint256",
          "name": "",
          "type": "uint256"
        }
      ],
      "stateMutability": "view",
      "type": "function"
    },
    {
      "inputs": [],
      "name": "ROUND_TYPE",
      "outputs": [
        {
          "internalType": "bytes32",
          "name": "",
          "type": "bytes32"
        }
      ],
      "stateMutability": "view",
      "type": "function"
    },
    {
      "inputs": [],
      "name": "SPRINT",
      "outputs": [
        {
          "internalType": "uint256",
          "name": "",
          "type": "uint256"
        }
      ],
      "stateMutability": "view",
      "type": "function"
    },
    {
      "inputs": [],
      "name": "SYSTEM_ADDRESS",
      "outputs": [
        {
          "internalType": "address",
          "name": "",
          "type": "address"
        }
      ],
      "stateMutability": "view",
      "type": "function"
    },
    {
      "inputs": [],
      "name": "VOTE_TYPE",
      "outputs": [
        {
          "internalType": "uint8",
          "name": "",
          "type": "uint8"
        }
      ],
      "stateMutability": "view",
      "type": "function"
    },
    {
      "inputs": [
        {
          "internalType": "uint256",
          "name": "",
          "type": "uint256"
        },
        {
          "internalType": "uint256",
          "name": "",
          "type": "uint256"
        }
      ],
      "name": "producers",
      "outputs": [
        {
          "internalType": "uint256",
          "name": "id",
          "type": "uint256"
        },
        {
          "internalType": "uint256",
          "name": "power",
          "type": "uint256"
        },
        {
          "internalType": "address",
          "name": "signer",
          "type": "address"
        }
      ],
      "stateMutability": "view",
      "type": "function"
    },
    {
      "inputs": [
        {
          "internalType": "uint256",
          "name": "",
          "type": "uint256"
        }
      ],
      "name": "spanNumbers",
      "outputs": [
        {
          "internalType": "uint256",
          "name": "",
          "type": "uint256"
        }
      ],
      "stateMutability": "view",
      "type": "function"
    },
    {
      "inputs": [
        {
          "internalType": "uint256",
          "name": "",
          "type": "uint256"
        }
      ],
      "name": "spans",
      "outputs": [
        {
          "internalType": "uint256",
          "name": "number",
          "type": "uint256"
        },
        {
          "internalType": "uint256",
          "name": "startBlock",
          "type": "uint256"
        },
        {
          "internalType": "uint256",
          "name": "endBlock",
          "type": "uint256"
        }
      ],
      "stateMutability": "view",
      "type": "function"
    },
    {
      "inputs": [
        {
          "internalType": "uint256",
          "name": "",
          "type": "uint256"
        },
        {
          "internalType": "uint256",
          "name": "",
          "type": "uint256"
        }
      ],
      "name": "validators",
      "outputs": [
        {
          "internalType": "uint256",
          "name": "id",
          "type": "uint256"
        },
        {
          "internalType": "uint256",
          "name": "power",
          "type": "uint256"
        },
        {
          "internalType": "address",
          "name": "signer",
          "type": "address"
        }
      ],
      "stateMutability": "view",
      "type": "function"
    },
    {
      "inputs": [],
      "name": "currentSprint",
      "outputs": [
        {
          "internalType": "uint256",
          "name": "",
          "type": "uint256"
        }
      ],
      "stateMutability": "view",
      "type": "function"
    },
    {
      "inputs": [
        {
          "internalType": "uint256",
          "name": "span",
          "type": "uint256"
        }
      ],
      "name": "getSpan",
      "outputs": [
        {
          "internalType": "uint256",
          "name": "number",
          "type": "uint256"
        },
        {
          "internalType": "uint256",
          "name": "startBlock",
          "type": "uint256"
        },
        {
          "internalType": "uint256",
          "name": "endBlock",
          "type": "uint256"
        }
      ],
      "stateMutability": "view",
      "type": "function"
    },
    {
      "inputs": [],
      "name": "getCurrentSpan",
      "outputs": [
        {
          "internalType": "uint256",
          "name": "number",
          "type": "uint256"
        },
        {
          "internalType": "uint256",
          "name": "startBlock",
          "type": "uint256"
        },
        {
          "internalType": "uint256",
          "name": "endBlock",
          "type": "uint256"
        }
      ],
      "stateMutability": "view",
      "type": "function"
    },
    {
      "inputs": [],
      "name": "getNextSpan",
      "outputs": [
        {
          "internalType": "uint256",
          "name": "number",
          "type": "uint256"
        },
        {
          "internalType": "uint256",
          "name": "startBlock",
          "type": "uint256"
        },
        {
          "internalType": "uint256",
          "name": "endBlock",
          "type": "uint256"
        }
      ],
      "stateMutability": "view",
      "type": "function"
    },
    {
      "inputs": [
        {
          "internalType": "uint256",
          "name": "number",
          "type": "uint256"
        }
      ],
      "name": "getSpanByBlock",
      "outputs": [
        {
          "internalType": "uint256",
          "name": "",
          "type": "uint256"
        }
      ],
      "stateMutability": "view",
      "type": "function"
    },
    {
      "inputs": [],
      "name": "currentSpanNumber",
      "outputs": [
        {
          "internalType": "uint256",
          "name": "",
          "type": "uint256"
        }
      ],
      "stateMutability": "view",
      "type": "function"
    },
    {
      "inputs": [
        {
          "internalType": "uint256",
          "name": "span",
          "type": "uint256"
        }
      ],
      "name": "getValidatorsTotalStakeBySpan",
      "outputs": [
        {
          "internalType": "uint256",
          "name": "",
          "type": "uint256"
        }
      ],
      "stateMutability": "view",
      "type": "function"
    },
    {
      "inputs": [
        {
          "internalType": "uint256",
          "name": "span",
          "type": "uint256"
        }
      ],
      "name": "getProducersTotalStakeBySpan",
      "outputs": [
        {
          "internalType": "uint256",
          "name": "",
          "type": "uint256"
        }
      ],
      "stateMutability": "view",
      "type": "function"
    },
    {
      "inputs": [
        {
          "internalType": "uint256",
          "name": "span",
          "type": "uint256"
        },
        {
          "internalType": "address",
          "name": "signer",
          "type": "address"
        }
      ],
      "name": "getValidatorBySigner",
      "outputs": [
        {
          "components": [
            {
              "internalType": "uint256",
              "name": "id",
              "type": "uint256"
            },
            {
              "internalType": "uint256",
              "name": "power",
              "type": "uint256"
            },
            {
              "internalType": "address",
              "name": "signer",
              "type": "address"
            }
          ],
          "internalType": "struct BorValidatorSet.Validator",
          "name": "result",
          "type": "tuple"
        }
      ],
      "stateMutability": "view",
      "type": "function"
    },
    {
      "inputs": [
        {
          "internalType": "uint256",
          "name": "span",
          "type": "uint256"
        },
        {
          "internalType": "address",
          "name": "signer",
          "type": "address"
        }
      ],
      "name": "isValidator",
      "outputs": [
        {
          "internalType": "bool",
          "name": "",
          "type": "bool"
        }
      ],
      "stateMutability": "view",
      "type": "function"
    },
    {
      "inputs": [
        {
          "internalType": "uint256",
          "name": "span",
          "type": "uint256"
        },
        {
          "internalType": "address",
          "name": "signer",
          "type": "address"
        }
      ],
      "name": "isProducer",
      "outputs": [
        {
          "internalType": "bool",
          "name": "",
          "type": "bool"
        }
      ],
      "stateMutability": "view",
      "type": "function"
    },
    {
      "inputs": [
        {
          "internalType": "address",
          "name": "signer",
          "type": "address"
        }
      ],
      "name": "isCurrentValidator",
      "outputs": [
        {
          "internalType": "bool",
          "name": "",
          "type": "bool"
        }
      ],
      "stateMutability": "view",
      "type": "function"
    },
    {
      "inputs": [
        {
          "internalType": "address",
          "name": "signer",
          "type": "address"
        }
      ],
      "name": "isCurrentProducer",
      "outputs": [
        {
          "internalType": "bool",
          "name": "",
          "type": "bool"
        }
      ],
      "stateMutability": "view",
      "type": "function"
    },
    {
      "inputs": [
        {
          "internalType": "uint256",
          "name": "number",
          "type": "uint256"
        }
      ],
      "name": "getBorValidators",
      "outputs": [
        {
          "internalType": "address[]",
          "name": "",
          "type": "address[]"
        },
        {
          "internalType": "uint256[]",
          "name": "",
          "type": "uint256[]"
        }
      ],
      "stateMutability": "view",
      "type": "function"
    },
    {
      "inputs": [],
      "name": "getInitialValidators",
      "outputs": [
        {
          "internalType": "address[]",
          "name": "",
          "type": "address[]"
        },
        {
          "internalType": "uint256[]",
          "name": "",
          "type": "uint256[]"
        }
      ],
      "stateMutability": "pure",
      "type": "function"
    },
    {
      "inputs": [],
      "name": "getValidators",
      "outputs": [
        {
          "internalType": "address[]",
          "name": "",
          "type": "address[]"
        },
        {
          "internalType": "uint256[]",
          "name": "",
          "type": "uint256[]"
        }
      ],
      "stateMutability": "view",
      "type": "function"
    },
    {
      "inputs": [
        {
          "internalType": "uint256",
          "name": "newSpan",
          "type": "uint256"
        },
        {
          "internalType": "uint256",
          "name": "startBlock",
          "type": "uint256"
        },
        {
          "internalType": "uint256",
          "name": "endBlock",
          "type": "uint256"
        },
        {
          "internalType": "bytes",
          "name": "validatorBytes",
          "type": "bytes"
        },
        {
          "internalType": "bytes",
          "name": "producerBytes",
          "type": "bytes"
        },
        {
          "internalType": "bytes32",
          "name": "stateRootHash",
          "type": "bytes32"
        }
      ],
      "name": "commitSpan",
      "outputs": [],
      "stateMutability": "nonpayable",
      "type": "function"
    },
    {
      "inputs": [
        {
          "internalType": "uint256",
          "name": "span",
          "type": "uint256"
        },
        {
          "internalType": "bytes32",
          "name": "dataHash",
          "type": "bytes32"
        },
        {
          "internalType": "bytes",
          "name": "sigs",
          "type": "bytes"
        }
      ],
      "name": "getStakePowerBySigs",
      "outputs": [
        {
          "internalType": "uint256",
          "name": "",
          "type": "uint256"
        }
      ],
      "stateMutability": "view",
      "type": "function"
    },
    {
      "inputs": [],
      "name": "getAccountRootHash",
      "outputs": [
        {
          "internalType": "bytes32",
          "name": "",
          "type": "bytes32"
        }
      ],
      "stateMutability": "view",
      "type": "function"
    },
    {
      "inputs": [
        {
          "internalType": "bytes32",
          "name": "rootHash",
          "type": "bytes32"
        },
        {
          "internalType": "bytes32",
          "name": "leaf",
          "type": "bytes32"
        },
        {
          "internalType": "bytes",
          "name": "proof",
          "type": "bytes"
        }
      ],
      "name": "checkMembership",
      "outputs": [
        {
          "internalType": "bool",
          "name": "",
          "type": "bool"
        }
      ],
      "stateMutability": "pure",
      "type": "function"
    },
    {
      "inputs": [
        {
          "internalType": "bytes32",
          "name": "d",
          "type": "bytes32"
        }
      ],
      "name": "leafNode",
      "outputs": [
        {
          "internalType": "bytes32",
          "name": "",
          "type": "bytes32"
        }
      ],
      "stateMutability": "pure",
      "type": "function"
    },
    {
      "inputs": [
        {
          "internalType": "bytes32",
          "name": "left",
          "type": "bytes32"
        },
        {
          "internalType": "bytes32",
          "name": "right",
          "type": "bytes32"
        }
      ],
      "name": "innerNode",
      "outputs": [
        {
          "internalType": "bytes32",
          "name": "",
          "type": "bytes32"
        }
      ],
      "stateMutability": "pure",
      "type": "function"
    }
  ],
  "bytecode": "0x608060405234801561001057600080fd5b506122e4806100206000396000f3fe608060405234801561001057600080fd5b5060043610610218576000357c01000000000000000000000000000000000000000000000000000000009004806365b3a1e211610137578063b71d7a69116100ca578063d5b844eb11610099578063d5b844eb14610423578063dcf2793a14610438578063e3b7c9241461044b578063e8b236ca14610453578063f59cf5651461045b57610218565b8063b71d7a69146103e0578063b7ab4db5146103f3578063b90b821d146103fb578063c1b3c9191461041057610218565b806398ab2b621161010657806398ab2b62146103b55780639d11b807146103bd578063ae756451146103d0578063af26aa96146103d857610218565b806365b3a1e2146103705780636633235414610378578063687a9bd61461038057806370ba5707146103a257610218565b806335ddfeea116101af5780634dbc959f1161017e5780634dbc959f1461033a57806355614fcc14610342578063582a8d081461035557806360c8614d1461036857610218565b806335ddfeea146102ec57806343ee8213146102ff57806344c15cb11461030757806344d6528f1461031a57610218565b80632bc06564116101eb5780632bc065641461029c5780632de3a180146102b15780632eddf352146102c45780633434735f146102d757610218565b8063047a6c5b1461021d5780630c35b1cb146102485780631270b5741461026957806323f2a73f14610289575b600080fd5b61023061022b366004611cb2565b61046e565b60405161023f9392919061228a565b60405180910390f35b61025b610256366004611cb2565b61048d565b60405161023f929190611f75565b61027c610277366004611d51565b610635565b60405161023f9190611ff6565b61027c610297366004611d51565b610719565b6102a46107f0565b60405161023f9190612001565b6102a46102bf366004611ce2565b6107f5565b6102a46102d2366004611cb2565b610876565b6102df610949565b60405161023f9190611f61565b61027c6102fa366004611d03565b610961565b6102a4610a11565b6102a4610315366004611d7d565b610a28565b61032d610328366004611d51565b610ae2565b60405161023f9190612241565b6102a4610be4565b61027c610350366004611c97565b610bf4565b6102a4610363366004611cb2565b610c07565b610230610c7f565b61025b610cc5565b6102a4610d6e565b61039361038e366004611d91565b610d73565b60405161023f9392919061226b565b61027c6103b0366004611c97565b610dbb565b6102a4610dce565b6102a46103cb366004611cb2565b610dda565b6102a4610e88565b610230610e94565b6102a46103ee366004611cb2565b610ea2565b61025b610f84565b61040e610409366004611da3565b610f98565b005b6102a461041e366004611cb2565b6113d5565b61042b6113f3565b60405161023f91906122a0565b610393610446366004611d91565b6113f8565b6102a4611411565b6102a4611418565b610230610469366004611cb2565b61141e565b6000908152600360205260409020805460018201546002909201549092565b60608060ff83116104a9576104a0610cc5565b91509150610630565b60006104b484610ea2565b60008181526002602052604090205490915060609067ffffffffffffffff811180156104df57600080fd5b50604051908082528060200260200182016040528015610509578160200160208202803683370190505b5060008381526002602052604090205490915060609067ffffffffffffffff8111801561053557600080fd5b5060405190808252806020026020018201604052801561055f578160200160208202803683370190505b50905060005b60008481526002602052604090205481101561062857600084815260026020526040902080548290811061059557fe5b906000526020600020906003020160020160009054906101000a9004600160a060020a03168382815181106105c657fe5b600160a060020a0390921660209283029190910182015260008581526002909152604090208054829081106105f757fe5b90600052602060002090600302016001015482828151811061061557fe5b6020908102919091010152600101610565565b509093509150505b915091565b60008281526002602090815260408083208054825181850281018501909352808352606093859084015b828210156106b457600084815260209081902060408051606081018252600386029092018054835260018082015484860152600290910154600160a060020a031691830191909152908352909201910161065f565b509293506000925050505b815181101561070c5783600160a060020a03168282815181106106de57fe5b602002602001015160400151600160a060020a0316141561070457600192505050610713565b6001016106bf565b5060009150505b92915050565b60008281526001602090815260408083208054825181850281018501909352808352606093859084015b8282101561079857600084815260209081902060408051606081018252600386029092018054835260018082015484860152600290910154600160a060020a0316918301919091529083529092019101610743565b509293506000925050505b815181101561070c5783600160a060020a03168282815181106107c257fe5b602002602001015160400151600160a060020a031614156107e857600192505050610713565b6001016107a3565b604081565b60006002600160f860020a02848460405160200161081593929190611e73565b60408051601f198184030181529082905261082f91611ead565b602060405180830381855afa15801561084c573d6000803e3d6000fd5b5050506040513d601f19601f8201168201806040525081019061086f9190611cca565b9392505050565b60008181526001602090815260408083208054825181850281018501909352808352606093859084015b828210156108f557600084815260209081902060408051606081018252600386029092018054835260018082015484860152600290910154600160a060020a03169183019190915290835290920191016108a0565b5092935060009250829150505b825181101561093f5761093583828151811061091a57fe5b6020026020010151602001518361143f90919063ffffffff16565b9150600101610902565b509150505b919050565b73fffffffffffffffffffffffffffffffffffffffe81565b6000806000808590506000602186518161097757fe5b04602102905060008111156109925761098f87610c07565b91505b60215b818111610a0357868101600019810151905195508060001a60f860020a0294507fff0000000000000000000000000000000000000000000000000000000000000085166109ed576109e686856107f5565b93506109fa565b6109f784876107f5565b93505b50602101610995565b505090951495945050505050565b604051610a1d90611f0f565b604051809103902081565b60008080805b84518167ffffffffffffffff161015610ad7576060610a59868367ffffffffffffffff166041611467565b90506000610a6d888363ffffffff6114e716565b9050610a77611b56565b610a818a83610ae2565b9050610a8d8a83610719565b8015610aaa575084600160a060020a031682600160a060020a0316115b15610acc57819450610ac981602001518761143f90919063ffffffff16565b95505b505050604101610a2e565b509095945050505050565b610aea611b56565b606060016000858152602001908152602001600020805480602002602001604051908101604052809291908181526020016000905b82821015610b7457600084815260209081902060408051606081018252600386029092018054835260018082015484860152600290910154600160a060020a0316918301919091529083529092019101610b1f565b509293506000925050505b8151811015610bdc5783600160a060020a0316828281518110610b9e57fe5b602002602001015160400151600160a060020a03161415610bd457818181518110610bc557fe5b60200260200101519250610bdc565b600101610b7f565b505092915050565b6000610bef43610ea2565b905090565b6000610713610c01610be4565b83610719565b60006002600060f860020a0283604051602001610c25929190611e41565b60408051601f1981840301815290829052610c3f91611ead565b602060405180830381855afa158015610c5c573d6000803e3d6000fd5b5050506040513d601f19601f820116820180604052508101906107139190611cca565b600080600080610c9e6001610c92610be4565b9063ffffffff61143f16565b60009081526003602052604090208054600182015460029092015490969195509350915050565b6040805160018082528183019092526060918291829160208083019080368337019050509050730e27299b195ce2d8d9004ece91da07a93b8499ee81600081518110610d0d57fe5b600160a060020a0392909216602092830291909101909101526040805160018082528183019092526060918160200160208202803683370190505090506103e881600081518110610d5a57fe5b602090810291909101015290925090509091565b60ff81565b60026020528160005260406000208181548110610d8c57fe5b6000918252602090912060039091020180546001820154600290920154909350909150600160a060020a031683565b6000610713610dc8610be4565b83610635565b604051610a1d90611ee6565b60008181526002602090815260408083208054825181850281018501909352808352606093859084015b82821015610e5957600084815260209081902060408051606081018252600386029092018054835260018082015484860152600290910154600160a060020a0316918301919091529083529092019101610e04565b5092935060009250829150505b825181101561093f57610e7e83828151811061091a57fe5b9150600101610e66565b604051610a1d90611f38565b600080600080610c9e610be4565b6004546000905b8015610f4f57610eb7611b80565b6003600060046001850381548110610ecb57fe5b906000526020600020015481526020019081526020016000206040518060600160405290816000820154815260200160018201548152602001600282015481525050905083816020015111158015610f265750604081015115155b8015610f36575080604001518411155b15610f45575191506109449050565b5060001901610ea9565b5060045415610f7c57600480546000198101908110610f6a57fe5b90600052602060002001549050610944565b506000919050565b606080610f904361048d565b915091509091565b3373fffffffffffffffffffffffffffffffffffffffe14610fd75760405160e560020a62461bcd028152600401610fce9061220a565b60405180910390fd5b6000610fe1610be4565b905080610ff057610ff06115be565b61100181600163ffffffff61143f16565b89146110225760405160e560020a62461bcd028152600401610fce906120bc565b8787116110445760405160e560020a62461bcd028152600401610fce906121ad565b6040600189890301061561106d5760405160e560020a62461bcd028152600401610fce9061212a565b6000818152600360205260409020600101548810156110a15760405160e560020a62461bcd028152600401610fce90612028565b600089815260036020526040902054156110d05760405160e560020a62461bcd028152600401610fce906120f3565b60408051606080820183528b825260208083018c81528385018c815260008f815260038452868120955186559151600180870191909155905160029095019490945560048054948501815590527f8a35acfbc15ff81a39ae7d344fd709f28e8600b4aa8c65c6b64bfe7fe36bd19b9092018c90558251601f8901839004830281018301909352878352916111889161118391908a908a908190840183828082843760009201919091525061182992505050565b61184e565b905060005b81518110156112965760606111b48383815181106111a757fe5b602002602001015161184e565b9050600160008d815260200190815260200160002060405180606001604052806111f1846000815181106111e457fe5b6020026020010151611936565b8152602001611206846001815181106111e457fe5b81526020016112288460028151811061121b57fe5b6020026020010151611984565b600160a060020a039081169091528254600180820185556000948552602094859020845160039093020191825593830151818501556040909201516002909201805473ffffffffffffffffffffffffffffffffffffffff19169290911691909117905591909101905061118d565b5060606112db61118387878080601f01602080910402602001604051908101604052809392919081815260200183838082843760009201919091525061182992505050565b905060005b81518110156113c25760606112fa8383815181106111a757fe5b9050600260008e8152602001908152602001600020604051806060016040528061132a846000815181106111e457fe5b815260200161133f846001815181106111e457fe5b81526020016113548460028151811061121b57fe5b600160a060020a039081169091528254600180820185556000948552602094859020845160039093020191825593830151818501556040909201516002909201805473ffffffffffffffffffffffffffffffffffffffff1916929091169190911790559190910190506112e0565b5050506000919091555050505050505050565b600481815481106113e257fe5b600091825260209091200154905081565b600281565b60016020528160005260406000208181548110610d8c57fe5b6040430490565b60005490565b60036020526000908152604090208054600182015460029092015490919083565b60008282018381101561086f5760405160e560020a62461bcd028152600401610fce90612085565b60608183018451101561147957600080fd5b606082158015611494576040519150602082016040526114de565b6040519150601f8416801560200281840101858101878315602002848b0101015b818310156114cd5780518352602092830192016114b5565b5050858452601f01601f1916604052505b50949350505050565b60008060008084516041146115025760009350505050610713565b50505060208201516040830151604184015160ff16601b81101561152457601b015b8060ff16601b1415801561153c57508060ff16601c14155b1561154d5760009350505050610713565b600060018783868660405160008152602001604052604051611572949392919061200a565b6020604051602081039080840390855afa158015611594573d6000803e3d6000fd5b5050604051601f190151915050600160a060020a0381166115b457600080fd5b9695505050505050565b6060806115c9610cc5565b604080516060810182526000808252602080830182815260ff948401948552828052600390915291517f3617319a054d772f909f7c479a2cebe5066e836a939412e32403c99029b92eff5590517f3617319a054d772f909f7c479a2cebe5066e836a939412e32403c99029b92f005590517f3617319a054d772f909f7c479a2cebe5066e836a939412e32403c99029b92f0155600480546001810182559082527f8a35acfbc15ff81a39ae7d344fd709f28e8600b4aa8c65c6b64bfe7fe36bd19b018190559193509150805b835181101561175a576001600083815260200190815260200160002060405180606001604052808381526020018584815181106116ce57fe5b602002602001015181526020018684815181106116e757fe5b602090810291909101810151600160a060020a03908116909252835460018082018655600095865294829020845160039092020190815590830151818501556040909201516002909201805473ffffffffffffffffffffffffffffffffffffffff19169290911691909117905501611695565b5060005b83518110156118235760026000838152602001908152602001600020604051806060016040528083815260200185848151811061179757fe5b602002602001015181526020018684815181106117b057fe5b602090810291909101810151600160a060020a03908116909252835460018082018655600095865294829020845160039092020190815590830151818501556040909201516002909201805473ffffffffffffffffffffffffffffffffffffffff1916929091169190911790550161175e565b50505050565b611831611ba1565b506040805180820190915281518152602082810190820152919050565b60606118598261199e565b61186257600080fd5b600061186d836119d8565b905060608167ffffffffffffffff8111801561188857600080fd5b506040519080825280602002602001820160405280156118c257816020015b6118af611ba1565b8152602001906001900390816118a75790505b50905060006118d48560200151611a34565b60208601510190506000805b8481101561192b576118f183611a97565b915060405180604001604052808381526020018481525084828151811061191457fe5b6020908102919091010152918101916001016118e0565b509195945050505050565b80516000901580159061194b57508151602110155b61195457600080fd5b60008061196084611b30565b81519193509150602082101561197c5760208290036101000a90045b949350505050565b805160009060151461199557600080fd5b61071382611936565b80516000906119af57506000610944565b6020820151805160001a9060c08210156119ce57600092505050610944565b5060019392505050565b80516000906119e957506000610944565b600080905060006119fd8460200151611a34565b602085015185519181019250015b80821015611a2b57611a1c82611a97565b60019093019290910190611a0b565b50909392505050565b8051600090811a6080811015611a4e576000915050610944565b60b8811080611a69575060c08110801590611a69575060f881105b15611a78576001915050610944565b60c0811015611a8c5760b519019050610944565b60f519019050610944565b80516000908190811a6080811015611ab25760019150611b29565b60b8811015611ac757607e1981019150611b29565b60c0811015611af45760b78103600185019450806020036101000a85510460018201810193505050611b29565b60f8811015611b095760be1981019150611b29565b60f78103600185019450806020036101000a855104600182018101935050505b5092915050565b6000806000611b428460200151611a34565b602085015194519481019594039392505050565b604051806060016040528060008152602001600081526020016000600160a060020a031681525090565b60405180606001604052806000815260200160008152602001600081525090565b604051806040016040528060008152602001600081525090565b8035600160a060020a038116811461071357600080fd5b60008083601f840112611be3578182fd5b50813567ffffffffffffffff811115611bfa578182fd5b602083019150836020828501011115611c1257600080fd5b9250929050565b600082601f830112611c29578081fd5b813567ffffffffffffffff80821115611c40578283fd5b604051601f8301601f191681016020018281118282101715611c60578485fd5b604052828152925082848301602001861015611c7b57600080fd5b8260208601602083013760006020848301015250505092915050565b600060208284031215611ca8578081fd5b61086f8383611bbb565b600060208284031215611cc3578081fd5b5035919050565b600060208284031215611cdb578081fd5b5051919050565b60008060408385031215611cf4578081fd5b50508035926020909101359150565b600080600060608486031215611d17578081fd5b8335925060208401359150604084013567ffffffffffffffff811115611d3b578182fd5b611d4786828701611c19565b9150509250925092565b60008060408385031215611d63578182fd5b82359150611d748460208501611bbb565b90509250929050565b600080600060608486031215611d17578283fd5b60008060408385031215611cf4578182fd5b60008060008060008060008060c0898b031215611dbe578384fd5b883597506020890135965060408901359550606089013567ffffffffffffffff80821115611dea578586fd5b611df68c838d01611bd2565b909750955060808b0135915080821115611e0e578485fd5b50611e1b8b828c01611bd2565b999c989b50969995989497949560a00135949350505050565b600160a060020a03169052565b7fff00000000000000000000000000000000000000000000000000000000000000929092168252600182015260210190565b7fff000000000000000000000000000000000000000000000000000000000000009390931683526001830191909152602182015260410190565b60008251815b81811015611ecd5760208186018101518583015201611eb3565b81811115611edb5782828501525b509190910192915050565b7f766f746500000000000000000000000000000000000000000000000000000000815260040190565b7f6272696467652d503572587767000000000000000000000000000000000000008152600d0190565b7f3135393939000000000000000000000000000000000000000000000000000000815260050190565b600160a060020a0391909116815260200190565b604080825283519082018190526000906020906060840190828701845b82811015611fb557611fa5848351611e34565b9284019290840190600101611f92565b50505083810382850152845180825285830191830190845b81811015611fe957835183529284019291840191600101611fcd565b5090979650505050505050565b901515815260200190565b90815260200190565b93845260ff9290921660208401526040830152606082015260800190565b6020808252602d908201527f537461727420626c6f636b206d7573742062652067726561746572207468616e60408201527f2063757272656e74207370616e00000000000000000000000000000000000000606082015260800190565b6020808252601b908201527f536166654d6174683a206164646974696f6e206f766572666c6f770000000000604082015260600190565b6020808252600f908201527f496e76616c6964207370616e2069640000000000000000000000000000000000604082015260600190565b60208082526013908201527f5370616e20616c72656164792065786973747300000000000000000000000000604082015260600190565b60208082526045908201527f446966666572656e6365206265747765656e20737461727420616e6420656e6460408201527f20626c6f636b206d75737420626520696e206d756c7469706c6573206f66207360608201527f7072696e74000000000000000000000000000000000000000000000000000000608082015260a00190565b6020808252602a908201527f456e6420626c6f636b206d7573742062652067726561746572207468616e207360408201527f7461727420626c6f636b00000000000000000000000000000000000000000000606082015260800190565b60208082526012908201527f4e6f742053797374656d20416464657373210000000000000000000000000000604082015260600190565b8151815260208083015190820152604091820151600160a060020a03169181019190915260600190565b9283526020830191909152600160a060020a0316604082015260600190565b9283526020830191909152604082015260600190565b60ff9190911681526020019056fea2646970667358221220485fc3eb618949278472bb5fa834f50427a9ec7c30e6ea7cb76e234876ed3bc364736f6c63430006060033",
  "immutableReferences": {},
  "source": "pragma solidity ^0.6.6;\npragma experimental ABIEncoderV2;\n\nimport { SafeMath } from \"@openzeppelin/contracts/math/SafeMath.sol\";\nimport { RLPReader } from \"solidity-rlp/contracts/RLPReader.sol\";\n\nimport { BytesLib } from \"./BytesLib.sol\";\nimport { System } from \"./System.sol\";\nimport { ECVerify } from \"./ECVerify.sol\";\nimport { ValidatorSet } from \"./ValidatorSet.sol\";\n\ncontract BorValidatorSet is System {\n  using SafeMath for uint256;\n  using RLPReader for bytes;\n  using RLPReader for RLPReader.RLPItem;\n  using ECVerify for bytes32;\n\n  bytes32 public constant CHAIN = keccak256(\"bridge-P5rXwg\");\n  bytes32 public constant ROUND_TYPE = keccak256(\"vote\");\n  bytes32 public constant BOR_ID = keccak256(\"15999\");\n  uint8 public constant VOTE_TYPE = 2;\n  uint256 public constant FIRST_END_BLOCK = 255;\n  uint256 public constant SPRINT = 64;\n  bytes32 internal accountRootHash;\n\n  struct Validator {\n    uint256 id;\n    uint256 power;\n    address signer;\n  }\n\n  // span details\n  struct Span {\n    uint256 number;\n    uint256 startBlock;\n    uint256 endBlock;\n  }\n\n  mapping(uint256 => Validator[]) public validators;\n  mapping(uint256 => Validator[]) public producers;\n\n  mapping (uint256 => Span) public spans; // span number => span\n  uint256[] public spanNumbers; // recent span numbers\n\n  // event\n  event NewSpan(uint256 indexed id, uint256 indexed startBlock, uint256 indexed endBlock);\n\n  constructor() public {}\n\n  modifier onlyValidator() {\n    uint256 span = currentSpanNumber();\n    require(isValidator(span, msg.sender));\n    _;\n  }\n\n  function setInitialValidators() internal {\n    address[] memory d;\n    uint256[] memory p;\n\n    // get initial validators\n    (d, p) = getInitialValidators();\n\n    // initial span\n    uint256 span = 0;\n    spans[span] = Span({\n      number: span,\n      startBlock: 0,\n      endBlock: FIRST_END_BLOCK\n    });\n    spanNumbers.push(span);\n    for (uint256 i = 0; i < d.length; i++) {\n      validators[span].push(Validator({\n          id: i,\n          power: p[i],\n          signer: d[i]\n      }));\n    }\n\n    for (uint256 i = 0; i < d.length; i++) {\n      producers[span].push(Validator({\n          id: i,\n          power: p[i],\n          signer: d[i]\n      }));\n    }\n  }\n\n  function currentSprint() public view returns (uint256) {\n    return block.number / SPRINT;\n  }\n\n  function getSpan(uint256 span) public view returns (uint256 number, uint256 startBlock, uint256 endBlock) {\n    return (spans[span].number, spans[span].startBlock, spans[span].endBlock);\n  }\n\n  function getCurrentSpan() public view returns (uint256 number, uint256 startBlock, uint256 endBlock) {\n    uint256 span = currentSpanNumber();\n    return (spans[span].number, spans[span].startBlock, spans[span].endBlock);\n  }\n\n  function getNextSpan() public view returns (uint256 number, uint256 startBlock, uint256 endBlock) {\n    uint256 span = currentSpanNumber().add(1);\n    return (spans[span].number, spans[span].startBlock, spans[span].endBlock);\n  }\n\n  function getValidatorsBySpan(uint256 span) internal view returns (Validator[] memory) {\n    return validators[span];\n  }\n\n  function getProducersBySpan(uint256 span) internal view returns (Validator[] memory) {\n    return producers[span];\n  }\n\n  // get span number by block\n  function getSpanByBlock(uint256 number) public view returns (uint256) {\n    for (uint256 i = spanNumbers.length; i > 0; i--) {\n      Span memory span = spans[spanNumbers[i - 1]];\n      if (span.startBlock <= number && span.endBlock != 0 && number <= span.endBlock) {\n        return span.number;\n      }\n    }\n\n    // if cannot find matching span, return latest span\n    if (spanNumbers.length > 0) {\n      return spanNumbers[spanNumbers.length - 1];\n    }\n\n    // return default if not found any thing\n    return 0;\n  }\n\n  function currentSpanNumber() public view returns (uint256) {\n    return getSpanByBlock(block.number);\n  }\n\n  function getValidatorsTotalStakeBySpan(uint256 span) public view returns (uint256) {\n    Validator[] memory vals = validators[span];\n    uint256 result = 0;\n    for (uint256 i = 0; i < vals.length; i++) {\n      result = result.add(vals[i].power);\n    }\n    return result;\n  }\n\n  function getProducersTotalStakeBySpan(uint256 span) public view returns (uint256) {\n    Validator[] memory vals = producers[span];\n    uint256 result = 0;\n    for (uint256 i = 0; i < vals.length; i++) {\n      result = result.add(vals[i].power);\n    }\n    return result;\n  }\n\n  function getValidatorBySigner(uint256 span, address signer) public view returns (Validator memory result) {\n    Validator[] memory vals = validators[span];\n    for (uint256 i = 0; i < vals.length; i++) {\n      if (vals[i].signer == signer) {\n        result = vals[i];\n        break;\n      }\n    }\n  }\n\n  function isValidator(uint256 span, address signer) public view returns (bool) {\n    Validator[] memory vals = validators[span];\n    for (uint256 i = 0; i < vals.length; i++) {\n      if (vals[i].signer == signer) {\n        return true;\n      }\n    }\n    return false;\n  }\n\n  function isProducer(uint256 span, address signer) public view returns (bool) {\n    Validator[] memory vals = producers[span];\n    for (uint256 i = 0; i < vals.length; i++) {\n      if (vals[i].signer == signer) {\n        return true;\n      }\n    }\n    return false;\n  }\n\n  function isCurrentValidator(address signer) public view returns (bool) {\n    return isValidator(currentSpanNumber(), signer);\n  }\n\n  function isCurrentProducer(address signer) public view returns (bool) {\n    return isProducer(currentSpanNumber(), signer);\n  }\n\n  // get bor validator\n  function getBorValidators(uint256 number) public view returns (address[] memory, uint256[] memory) {\n    if (number <= FIRST_END_BLOCK) {\n      return getInitialValidators();\n    }\n\n    // span number by block\n    uint256 span = getSpanByBlock(number);\n\n    address[] memory addrs = new address[](producers[span].length);\n    uint256[] memory powers = new uint256[](producers[span].length);\n    for (uint256 i = 0; i < producers[span].length; i++) {\n      addrs[i] = producers[span][i].signer;\n      powers[i] = producers[span][i].power;\n    }\n\n    return (addrs, powers);\n  }\n\n  /// Get current validator set (last enacted or initial if no changes ever made) with current stake.\n  function getInitialValidators() public pure returns (address[] memory, uint256[] memory) {\n    address[] memory addrs = new address[](1);\n    addrs[0] = 0x0e27299B195cE2d8D9004eCE91da07a93B8499EE;\n    uint256[] memory powers = new uint256[](1);\n    powers[0] = 1000;\n    return (addrs, powers);\n  }\n\n  /// Get current validator set (last enacted or initial if no changes ever made) with current stake.\n  function getValidators() public view returns (address[] memory, uint256[] memory) {\n    return getBorValidators(block.number);\n  }\n\n  function commitSpan(\n    uint256 newSpan,\n    uint256 startBlock,\n    uint256 endBlock,\n    bytes calldata validatorBytes,\n    bytes calldata producerBytes,\n    bytes32 stateRootHash\n  ) external onlySystem {\n    // current span\n    uint256 span = currentSpanNumber();\n    // set initial validators if current span is zero\n    if (span == 0) {\n      setInitialValidators();\n    }\n\n    // check conditions\n    require(newSpan == span.add(1), \"Invalid span id\");\n    require(endBlock > startBlock, \"End block must be greater than start block\");\n    require((endBlock - startBlock + 1) % SPRINT == 0, \"Difference between start and end block must be in multiples of sprint\");\n    require(spans[span].startBlock <= startBlock, \"Start block must be greater than current span\");\n\n    // check if already in the span\n    require(spans[newSpan].number == 0, \"Span already exists\");\n\n    // store span\n    spans[newSpan] = Span({\n      number: newSpan,\n      startBlock: startBlock,\n      endBlock: endBlock\n    });\n    spanNumbers.push(newSpan);\n    //validators[newSpan].length = 0;\n    //producers[newSpan].length = 0;\n\n    // set validators\n    RLPReader.RLPItem[] memory validatorItems = validatorBytes.toRlpItem().toList();\n    for (uint256 i = 0; i < validatorItems.length; i++) {\n      RLPReader.RLPItem[] memory v = validatorItems[i].toList();\n      validators[newSpan].push(Validator({\n          id: v[0].toUint(),\n          power: v[1].toUint(),\n          signer: v[2].toAddress()\n      }));\n    }\n\n    // set producers\n    RLPReader.RLPItem[] memory producerItems = producerBytes.toRlpItem().toList();\n    for (uint256 i = 0; i < producerItems.length; i++) {\n      RLPReader.RLPItem[] memory v = producerItems[i].toList();\n        producers[newSpan].push(Validator({\n            id: v[0].toUint(),\n            power: v[1].toUint(),\n            signer: v[2].toAddress()\n        }));\n    }\n    accountRootHash = stateRootHash;\n  }\n\n  // Get stake power by sigs and data hash\n  function getStakePowerBySigs(uint256 span, bytes32 dataHash, bytes memory sigs) public view returns (uint256) {\n    uint256 stakePower = 0;\n    address lastAdd = address(0x0); // cannot have address(0x0) as an owner\n\n    for (uint64 i = 0; i < sigs.length; i += 65) {\n      bytes memory sigElement = BytesLib.slice(sigs, i, 65);\n      address signer = dataHash.ecrecovery(sigElement);\n\n      // check if signer is stacker and not proposer\n      Validator memory validator = getValidatorBySigner(span, signer);\n      if (isValidator(span, signer) && signer > lastAdd) {\n        lastAdd = signer;\n        stakePower = stakePower.add(validator.power);\n      }\n    }\n\n    return stakePower;\n  }\n\n  function getAccountRootHash() public view returns (bytes32) {\n        return accountRootHash;\n  }\n\n\n  function checkMembership(\n    bytes32 rootHash,\n    bytes32 leaf,\n    bytes memory proof\n  ) public pure returns (bool) {\n    bytes32 proofElement;\n    byte direction;\n    bytes32 computedHash = leaf;\n\n    uint256 len = (proof.length / 33) * 33;\n    if (len > 0) {\n      computedHash = leafNode(leaf);\n    }\n\n    for (uint256 i = 33; i <= len; i += 33) {\n      bytes32 tempBytes;\n      assembly {\n        // Get a location of some free memory and store it in tempBytes as\n        // Solidity does for memory variables.\n        tempBytes := mload(add(proof, sub(i, 1)))\n        proofElement := mload(add(proof, i))\n      }\n\n      direction = tempBytes[0];\n      if (direction == 0) {\n        computedHash = innerNode(proofElement, computedHash);\n      } else {\n        computedHash = innerNode(computedHash, proofElement);\n      }\n    }\n\n    return computedHash == rootHash;\n  }\n\n  function leafNode(bytes32 d) public pure returns (bytes32) {\n    return sha256(abi.encodePacked(byte(uint8(0)), d));\n  }\n\n  function innerNode(bytes32 left, bytes32 right) public pure returns (bytes32) {\n    return sha256(abi.encodePacked(byte(uint8(1)), left, right));\n  }\n}\n",
  "sourcePath": "/root/testnet/code/w3fs-genesis-contracts-bridge/contracts/BorValidatorSet.sol",
  "compiler": {
    "name": "solc",
    "version": "0.6.6+commit.6c089d02.Emscripten.clang"
  },
  "schemaVersion": "3.4.10",
  "updatedAt": "2022-11-17T03:08:08.488Z",
  "devdoc": {
    "methods": {}
  },
  "userdoc": {
    "methods": {
      "getInitialValidators()": {
        "notice": "Get current validator set (last enacted or initial if no changes ever made) with current stake."
      },
      "getValidators()": {
        "notice": "Get current validator set (last enacted or initial if no changes ever made) with current stake."
      }
    }
  }
}