{
  "contractName": "ChainIdMixin",
  "abi": [
    {
      "inputs": [],
      "name": "CHAINID",
      "outputs": [
        {
          "internalType": "uint256",
          "name": "",
          "type": "uint256"
        }
      ],
      "stateMutability": "view",
      "type": "function"
    },
    {
      "inputs": [],
      "name": "networkId",
      "outputs": [
        {
          "internalType": "bytes",
          "name": "",
          "type": "bytes"
        }
      ],
      "stateMutability": "view",
      "type": "function"
    }
  ],
  "bytecode": "0x608060405234801561001057600080fd5b50610163806100206000396000f3fe608060405234801561001057600080fd5b5060043610610052577c010000000000000000000000000000000000000000000000000000000060003504639025e64c8114610057578063cc79f97b146100d4575b600080fd5b61005f6100ee565b6040805160208082528351818301528351919283929083019185019080838360005b83811015610099578181015183820152602001610081565b50505050905090810190601f1680156100c65780820380516001836020036101000a031916815260200191505b509250505060405180910390f35b6100dc610127565b60408051918252519081900360200190f35b6040518060400160405280600281526020017f3e7f00000000000000000000000000000000000000000000000000000000000081525081565b613e7f8156fea2646970667358221220589bfb9bd2d72e07f556dc3bf12bcd3213221c2da1ba324321ea58e5dac7766e64736f6c63430006060033",
  "immutableReferences": {},
  "source": "pragma solidity ^0.6.6;\n\ncontract ChainIdMixin {\n  bytes constant public networkId = hex\"3E7F\";\n  uint256 constant public CHAINID = 15999;\n}\n",
  "sourcePath": "/root/testnet/code/w3fs-genesis-contracts-bridge/contracts/mrc20/ChainIdMixin.sol",
  "compiler": {
    "name": "solc",
    "version": "0.6.6+commit.6c089d02.Emscripten.clang"
  },
  "schemaVersion": "3.4.10",
  "updatedAt": "2022-11-17T02:32:22.584Z",
  "devdoc": {
    "methods": {}
  },
  "userdoc": {
    "methods": {}
  }
}