{
  "contractName": "DelegateShareFactory",
  "abi": [
    {
      "inputs": [
        {
          "internalType": "uint256",
          "name": "minerId",
          "type": "uint256"
        },
        {
          "internalType": "address",
          "name": "loggerAddress",
          "type": "address"
        },
        {
          "internalType": "address",
          "name": "registry",
          "type": "address"
        },
        {
          "internalType": "address",
          "name": "storageManager",
          "type": "address"
        }
      ],
      "name": "create",
      "outputs": [
        {
          "internalType": "address",
          "name": "",
          "type": "address"
        }
      ],
      "stateMutability": "nonpayable",
      "type": "function"
    }
  ],
  "bytecode": "0x608060405234801561001057600080fd5b50610ebf806100206000396000f3fe608060405234801561001057600080fd5b5060043610610047577c01000000000000000000000000000000000000000000000000000000006000350463c125bdd7811461004c575b600080fd5b6100976004803603608081101561006257600080fd5b5080359073ffffffffffffffffffffffffffffffffffffffff60208201358116916040810135821691606090910135166100c0565b6040805173ffffffffffffffffffffffffffffffffffffffff9092168252519081900360200190f35b600080836040516100d0906103ac565b73ffffffffffffffffffffffffffffffffffffffff909116815260406020820181905260008183018190529051918290036080019190f080158015610119573d6000803e3d6000fd5b50604080517ff2fde38b000000000000000000000000000000000000000000000000000000008152336004820152905191925073ffffffffffffffffffffffffffffffffffffffff83169163f2fde38b9160248082019260009290919082900301818387803b15801561018b57600080fd5b505af115801561019f573d6000803e3d6000fd5b505050506000819050600060608273ffffffffffffffffffffffffffffffffffffffff165a60408051602481018d905273ffffffffffffffffffffffffffffffffffffffff808d166044830152336064830152808c1660848301528a1660a4808301919091528251808303909101815260c490910182526020810180517bffffffffffffffffffffffffffffffffffffffffffffffffffffffff167f3641e0830000000000000000000000000000000000000000000000000000000017815291518151919290918291908083835b6020831061028c5780518252601f19909201916020918201910161026d565b6001836020036101000a03801982511681845116808217855250505050505090500191505060006040518083038160008787f1925050503d80600081146102ef576040519150601f19603f3d011682016040523d82523d6000602084013e6102f4565b606091505b509150915081819061039e576040517f08c379a00000000000000000000000000000000000000000000000000000000081526004018080602001828103825283818151815260200191508051906020019080838360005b8381101561036357818101518382015260200161034b565b50505050905090810190601f1680156103905780820380516001836020036101000a031916815260200191505b509250505060405180910390fd5b509198975050505050505050565b610ad0806103ba8339019056fe608060405234801561001057600080fd5b50604051610ad0380380610ad08339818101604052604081101561003357600080fd5b81516020830180516040519294929383019291908464010000000082111561005a57600080fd5b90830190602082018581111561006f57600080fd5b825164010000000081118282018810171561008957600080fd5b82525081516020918201929091019080838360005b838110156100b657818101518382015260200161009e565b50505050905090810190601f1680156100e35780820380516001836020036101000a031916815260200191505b5060408181527f656970313936372e70726f78792e696d706c656d656e746174696f6e0000000082525190819003601c019020859350849250600080516020610a2d83398151915260001990910114905061013a57fe5b61014c8264010000000061018d810204565b80511561016c5761016a828264010000000061034261020a82021704565b505b50506101863361023f640100000000026401000000009004565b505061046d565b6101a38164010000000061036e61027482021704565b6101f8576040517f08c379a0000000000000000000000000000000000000000000000000000000008152600401808060200182810382526036815260200180610a746036913960400191505060405180910390fd5b600080516020610a2d83398151915255565b60606102388383604051806060016040528060278152602001610a4d6027913964010000000061027a810204565b9392505050565b604080517f6e656c612e6e6574776f726b2e70726f78792e6f776e657200000000000000008152905190819003601801902055565b3b151590565b606061028e84640100000000610274810204565b6102e3576040517f08c379a0000000000000000000000000000000000000000000000000000000008152600401808060200182810382526026815260200180610aaa6026913960400191505060405180910390fd5b6000606085600160a060020a0316856040518082805190602001908083835b602083106103215780518252601f199092019160209182019101610302565b6001836020036101000a038019825116818451168082178552505050505050905001915050600060405180830381855af49150503d8060008114610381576040519150601f19603f3d011682016040523d82523d6000602084013e610386565b606091505b50915091506103a58282866103af640100000000026401000000009004565b9695505050505050565b606083156103be575081610238565b8251156103ce5782518084602001fd5b816040517f08c379a00000000000000000000000000000000000000000000000000000000081526004018080602001828103825283818151815260200191508051906020019080838360005b8381101561043257818101518382015260200161041a565b50505050905090810190601f16801561045f5780820380516001836020036101000a031916815260200191505b509250505060405180910390fd5b6105b18061047c6000396000f3fe608060405260043610610049577c010000000000000000000000000000000000000000000000000000000060003504638da5cb5b8114610060578063f2fde38b1461009e57610058565b36610058576100566100de565b005b6100566100de565b34801561006c57600080fd5b506100756100f8565b6040805173ffffffffffffffffffffffffffffffffffffffff9092168252519081900360200190f35b3480156100aa57600080fd5b50610056600480360360208110156100c157600080fd5b503573ffffffffffffffffffffffffffffffffffffffff16610107565b6100e66100f6565b6100f66100f16101f2565b61028e565b565b60006101026102b2565b905090565b336101106102b2565b73ffffffffffffffffffffffffffffffffffffffff161461017b576040805160e560020a62461bcd02815260206004820152600960248201527f4e4f545f4f574e45520000000000000000000000000000000000000000000000604482015290519081900360640190fd5b73ffffffffffffffffffffffffffffffffffffffff81166101e6576040805160e560020a62461bcd02815260206004820152600c60248201527f5a45524f5f414444524553530000000000000000000000000000000000000000604482015290519081900360640190fd5b6101ef816102e8565b50565b60006101fc61031d565b73ffffffffffffffffffffffffffffffffffffffff16639551ab746040518163ffffffff167c010000000000000000000000000000000000000000000000000000000002815260040160206040518083038186803b15801561025d57600080fd5b505afa158015610271573d6000803e3d6000fd5b505050506040513d602081101561028757600080fd5b5051905090565b3660008037600080366000845af43d6000803e8080156102ad573d6000f35b3d6000fd5b604080517f6e656c612e6e6574776f726b2e70726f78792e6f776e65720000000000000000815290519081900360180190205490565b604080517f6e656c612e6e6574776f726b2e70726f78792e6f776e657200000000000000008152905190819003601801902055565b7f360894a13ba1a3210667c828492db98dca3e2076cc3735a920a3ca505d382bbc5490565b6060610367838360405180606001604052806027815260200161052f60279139610374565b9392505050565b3b151590565b606061037f8461036e565b6103bd5760405160e560020a62461bcd0281526004018080602001828103825260268152602001806105566026913960400191505060405180910390fd5b600060608573ffffffffffffffffffffffffffffffffffffffff16856040518082805190602001908083835b602083106104085780518252601f1990920191602091820191016103e9565b6001836020036101000a038019825116818451168082178552505050505050905001915050600060405180830381855af49150503d8060008114610468576040519150601f19603f3d011682016040523d82523d6000602084013e61046d565b606091505b509150915061047d828286610487565b9695505050505050565b60608315610496575081610367565b8251156104a65782518084602001fd5b8160405160e560020a62461bcd0281526004018080602001828103825283818151815260200191508051906020019080838360005b838110156104f35781810151838201526020016104db565b50505050905090810190601f1680156105205780820380516001836020036101000a031916815260200191505b509250505060405180910390fdfe416464726573733a206c6f772d6c6576656c2064656c65676174652063616c6c206661696c6564416464726573733a2064656c65676174652063616c6c20746f206e6f6e2d636f6e7472616374a26469706673582212209290d974a748f5ccbd2f344df16f5fd48720f0d60da9a86fb9f2c0dfcdc0963164736f6c63430006060033360894a13ba1a3210667c828492db98dca3e2076cc3735a920a3ca505d382bbc416464726573733a206c6f772d6c6576656c2064656c65676174652063616c6c206661696c65645570677261646561626c6550726f78793a206e657720696d706c656d656e746174696f6e206973206e6f74206120636f6e7472616374416464726573733a2064656c65676174652063616c6c20746f206e6f6e2d636f6e7472616374a2646970667358221220b483ffe799dcf98cf285dd4f5e2282e30f4b3ae0a27399693c9e293bfb74f0c464736f6c63430006060033",
  "immutableReferences": {},
  "source": "pragma solidity ^0.6.6;\n\nimport {DelegateShareProxy} from \"./DelegateShareProxy.sol\";\nimport {DelegateShare} from \"./DelegateShare.sol\";\n\ncontract DelegateShareFactory {\n\n    function create(uint256 minerId, address loggerAddress, address registry, address storageManager) public returns (address) {\n        DelegateShareProxy proxy = new DelegateShareProxy(registry, \"\");\n        //哪个合约调用这个create方法， 对应的msg.sender就是谁\n        proxy.transferOwnership(msg.sender);\n        address proxyAddr = address(proxy);\n        (bool success, bytes memory data) = proxyAddr.call{gas:gasleft()}(\n            abi.encodeWithSelector(\n                DelegateShare(proxyAddr).initialize.selector,\n                minerId,\n                loggerAddress,\n                msg.sender,\n                registry,\n                storageManager\n            )\n        );\n        require(success, string(data));\n        return proxyAddr;\n    }\n}\n",
  "sourcePath": "/root/testnet/code/w3fs-genesis-contracts-bridge/contracts/staking/delegateShare/DelegateShareFactory.sol",
  "compiler": {
    "name": "solc",
    "version": "0.6.6+commit.6c089d02.Emscripten.clang"
  },
  "schemaVersion": "3.4.10",
  "updatedAt": "2022-11-17T03:12:05.659Z",
  "networkType": "ethereum",
  "devdoc": {
    "methods": {}
  },
  "userdoc": {
    "methods": {}
  }
}