{
  "contractName": "DelegateShare",
  "abi": [
    {
      "anonymous": false,
      "inputs": [
        {
          "indexed": true,
          "internalType": "address",
          "name": "owner",
          "type": "address"
        },
        {
          "indexed": true,
          "internalType": "address",
          "name": "spender",
          "type": "address"
        },
        {
          "indexed": false,
          "internalType": "uint256",
          "name": "value",
          "type": "uint256"
        }
      ],
      "name": "Approval",
      "type": "event"
    },
    {
      "anonymous": false,
      "inputs": [
        {
          "indexed": true,
          "internalType": "address",
          "name": "previousOwner",
          "type": "address"
        },
        {
          "indexed": true,
          "internalType": "address",
          "name": "newOwner",
          "type": "address"
        }
      ],
      "name": "OwnershipTransferred",
      "type": "event"
    },
    {
      "anonymous": false,
      "inputs": [
        {
          "indexed": true,
          "internalType": "address",
          "name": "from",
          "type": "address"
        },
        {
          "indexed": true,
          "internalType": "address",
          "name": "to",
          "type": "address"
        },
        {
          "indexed": false,
          "internalType": "uint256",
          "name": "value",
          "type": "uint256"
        }
      ],
      "name": "Transfer",
      "type": "event"
    },
    {
      "inputs": [],
      "name": "activeAmount",
      "outputs": [
        {
          "internalType": "uint256",
          "name": "",
          "type": "uint256"
        }
      ],
      "stateMutability": "view",
      "type": "function",
      "constant": true
    },
    {
      "inputs": [
        {
          "internalType": "address",
          "name": "owner",
          "type": "address"
        },
        {
          "internalType": "address",
          "name": "spender",
          "type": "address"
        }
      ],
      "name": "allowance",
      "outputs": [
        {
          "internalType": "uint256",
          "name": "",
          "type": "uint256"
        }
      ],
      "stateMutability": "view",
      "type": "function",
      "constant": true
    },
    {
      "inputs": [
        {
          "internalType": "address",
          "name": "spender",
          "type": "address"
        },
        {
          "internalType": "uint256",
          "name": "amount",
          "type": "uint256"
        }
      ],
      "name": "approve",
      "outputs": [
        {
          "internalType": "bool",
          "name": "",
          "type": "bool"
        }
      ],
      "stateMutability": "nonpayable",
      "type": "function"
    },
    {
      "inputs": [
        {
          "internalType": "address",
          "name": "account",
          "type": "address"
        }
      ],
      "name": "balanceOf",
      "outputs": [
        {
          "internalType": "uint256",
          "name": "",
          "type": "uint256"
        }
      ],
      "stateMutability": "view",
      "type": "function",
      "constant": true
    },
    {
      "inputs": [],
      "name": "decimals",
      "outputs": [
        {
          "internalType": "uint8",
          "name": "",
          "type": "uint8"
        }
      ],
      "stateMutability": "view",
      "type": "function",
      "constant": true
    },
    {
      "inputs": [
        {
          "internalType": "address",
          "name": "spender",
          "type": "address"
        },
        {
          "internalType": "uint256",
          "name": "subtractedValue",
          "type": "uint256"
        }
      ],
      "name": "decreaseAllowance",
      "outputs": [
        {
          "internalType": "bool",
          "name": "",
          "type": "bool"
        }
      ],
      "stateMutability": "nonpayable",
      "type": "function"
    },
    {
      "inputs": [],
      "name": "delegation",
      "outputs": [
        {
          "internalType": "bool",
          "name": "",
          "type": "bool"
        }
      ],
      "stateMutability": "view",
      "type": "function",
      "constant": true
    },
    {
      "inputs": [
        {
          "internalType": "address",
          "name": "spender",
          "type": "address"
        },
        {
          "internalType": "uint256",
          "name": "addedValue",
          "type": "uint256"
        }
      ],
      "name": "increaseAllowance",
      "outputs": [
        {
          "internalType": "bool",
          "name": "",
          "type": "bool"
        }
      ],
      "stateMutability": "nonpayable",
      "type": "function"
    },
    {
      "inputs": [
        {
          "internalType": "address",
          "name": "",
          "type": "address"
        }
      ],
      "name": "initalRewardPerShare",
      "outputs": [
        {
          "internalType": "uint256",
          "name": "",
          "type": "uint256"
        }
      ],
      "stateMutability": "view",
      "type": "function",
      "constant": true
    },
    {
      "inputs": [
        {
          "internalType": "address",
          "name": "",
          "type": "address"
        }
      ],
      "name": "liquidRewardsMap",
      "outputs": [
        {
          "internalType": "uint256",
          "name": "",
          "type": "uint256"
        }
      ],
      "stateMutability": "view",
      "type": "function",
      "constant": true
    },
    {
      "inputs": [],
      "name": "lock",
      "outputs": [],
      "stateMutability": "nonpayable",
      "type": "function"
    },
    {
      "inputs": [],
      "name": "locked",
      "outputs": [
        {
          "internalType": "bool",
          "name": "",
          "type": "bool"
        }
      ],
      "stateMutability": "view",
      "type": "function",
      "constant": true
    },
    {
      "inputs": [],
      "name": "minAmount",
      "outputs": [
        {
          "internalType": "uint256",
          "name": "",
          "type": "uint256"
        }
      ],
      "stateMutability": "view",
      "type": "function",
      "constant": true
    },
    {
      "inputs": [],
      "name": "minerId",
      "outputs": [
        {
          "internalType": "uint256",
          "name": "",
          "type": "uint256"
        }
      ],
      "stateMutability": "view",
      "type": "function",
      "constant": true
    },
    {
      "inputs": [],
      "name": "name",
      "outputs": [
        {
          "internalType": "string",
          "name": "",
          "type": "string"
        }
      ],
      "stateMutability": "view",
      "type": "function",
      "constant": true
    },
    {
      "inputs": [],
      "name": "owner",
      "outputs": [
        {
          "internalType": "address",
          "name": "",
          "type": "address"
        }
      ],
      "stateMutability": "view",
      "type": "function",
      "constant": true
    },
    {
      "inputs": [],
      "name": "registry",
      "outputs": [
        {
          "internalType": "address",
          "name": "",
          "type": "address"
        }
      ],
      "stateMutability": "view",
      "type": "function",
      "constant": true
    },
    {
      "inputs": [],
      "name": "renounceOwnership",
      "outputs": [],
      "stateMutability": "nonpayable",
      "type": "function"
    },
    {
      "inputs": [],
      "name": "rewardPerShare",
      "outputs": [
        {
          "internalType": "uint256",
          "name": "",
          "type": "uint256"
        }
      ],
      "stateMutability": "view",
      "type": "function",
      "constant": true
    },
    {
      "inputs": [],
      "name": "stakeManagerAdd",
      "outputs": [
        {
          "internalType": "address",
          "name": "",
          "type": "address"
        }
      ],
      "stateMutability": "view",
      "type": "function",
      "constant": true
    },
    {
      "inputs": [],
      "name": "storageManager",
      "outputs": [
        {
          "internalType": "contract IW3fsStorageManager",
          "name": "",
          "type": "address"
        }
      ],
      "stateMutability": "view",
      "type": "function",
      "constant": true
    },
    {
      "inputs": [],
      "name": "symbol",
      "outputs": [
        {
          "internalType": "string",
          "name": "",
          "type": "string"
        }
      ],
      "stateMutability": "view",
      "type": "function",
      "constant": true
    },
    {
      "inputs": [],
      "name": "totalSupply",
      "outputs": [
        {
          "internalType": "uint256",
          "name": "",
          "type": "uint256"
        }
      ],
      "stateMutability": "view",
      "type": "function",
      "constant": true
    },
    {
      "inputs": [
        {
          "internalType": "address",
          "name": "recipient",
          "type": "address"
        },
        {
          "internalType": "uint256",
          "name": "amount",
          "type": "uint256"
        }
      ],
      "name": "transfer",
      "outputs": [
        {
          "internalType": "bool",
          "name": "",
          "type": "bool"
        }
      ],
      "stateMutability": "nonpayable",
      "type": "function"
    },
    {
      "inputs": [
        {
          "internalType": "address",
          "name": "sender",
          "type": "address"
        },
        {
          "internalType": "address",
          "name": "recipient",
          "type": "address"
        },
        {
          "internalType": "uint256",
          "name": "amount",
          "type": "uint256"
        }
      ],
      "name": "transferFrom",
      "outputs": [
        {
          "internalType": "bool",
          "name": "",
          "type": "bool"
        }
      ],
      "stateMutability": "nonpayable",
      "type": "function"
    },
    {
      "inputs": [
        {
          "internalType": "address",
          "name": "newOwner",
          "type": "address"
        }
      ],
      "name": "transferOwnership",
      "outputs": [],
      "stateMutability": "nonpayable",
      "type": "function"
    },
    {
      "inputs": [
        {
          "internalType": "address",
          "name": "",
          "type": "address"
        }
      ],
      "name": "unbondNonces",
      "outputs": [
        {
          "internalType": "uint256",
          "name": "",
          "type": "uint256"
        }
      ],
      "stateMutability": "view",
      "type": "function",
      "constant": true
    },
    {
      "inputs": [
        {
          "internalType": "address",
          "name": "",
          "type": "address"
        },
        {
          "internalType": "uint256",
          "name": "",
          "type": "uint256"
        }
      ],
      "name": "unbonds_new",
      "outputs": [
        {
          "internalType": "uint256",
          "name": "shares",
          "type": "uint256"
        },
        {
          "internalType": "uint256",
          "name": "withdrawEpoch",
          "type": "uint256"
        }
      ],
      "stateMutability": "view",
      "type": "function",
      "constant": true
    },
    {
      "inputs": [],
      "name": "unlock",
      "outputs": [],
      "stateMutability": "nonpayable",
      "type": "function"
    },
    {
      "inputs": [],
      "name": "w3fsStakeManager",
      "outputs": [
        {
          "internalType": "contract IW3fsStakeManager",
          "name": "",
          "type": "address"
        }
      ],
      "stateMutability": "view",
      "type": "function",
      "constant": true
    },
    {
      "inputs": [],
      "name": "w3fsStakingInfo",
      "outputs": [
        {
          "internalType": "contract W3fsStakingInfo",
          "name": "",
          "type": "address"
        }
      ],
      "stateMutability": "view",
      "type": "function",
      "constant": true
    },
    {
      "inputs": [],
      "name": "withdrawPool",
      "outputs": [
        {
          "internalType": "uint256",
          "name": "",
          "type": "uint256"
        }
      ],
      "stateMutability": "view",
      "type": "function",
      "constant": true
    },
    {
      "inputs": [],
      "name": "withdrawShares",
      "outputs": [
        {
          "internalType": "uint256",
          "name": "",
          "type": "uint256"
        }
      ],
      "stateMutability": "view",
      "type": "function",
      "constant": true
    },
    {
      "inputs": [
        {
          "internalType": "uint256",
          "name": "_minerId",
          "type": "uint256"
        },
        {
          "internalType": "address",
          "name": "_stakingLogger",
          "type": "address"
        },
        {
          "internalType": "address",
          "name": "_stakeManager",
          "type": "address"
        },
        {
          "internalType": "address",
          "name": "_registry",
          "type": "address"
        },
        {
          "internalType": "address",
          "name": "_storageManager",
          "type": "address"
        }
      ],
      "name": "initialize",
      "outputs": [],
      "stateMutability": "nonpayable",
      "type": "function"
    },
    {
      "inputs": [
        {
          "internalType": "uint256",
          "name": "_amount",
          "type": "uint256"
        },
        {
          "internalType": "uint256",
          "name": "_minSharesToMint",
          "type": "uint256"
        }
      ],
      "name": "buyVoucher",
      "outputs": [],
      "stateMutability": "payable",
      "type": "function",
      "payable": true
    },
    {
      "inputs": [
        {
          "internalType": "uint256",
          "name": "claimAmount",
          "type": "uint256"
        },
        {
          "internalType": "uint256",
          "name": "maximumSharesToBurn",
          "type": "uint256"
        }
      ],
      "name": "sellVoucher_new",
      "outputs": [],
      "stateMutability": "nonpayable",
      "type": "function"
    },
    {
      "inputs": [
        {
          "internalType": "uint256",
          "name": "unbondNonce",
          "type": "uint256"
        }
      ],
      "name": "unstakeClaimTokens_new",
      "outputs": [],
      "stateMutability": "nonpayable",
      "type": "function"
    },
    {
      "inputs": [],
      "name": "exchangeRate",
      "outputs": [
        {
          "internalType": "uint256",
          "name": "",
          "type": "uint256"
        }
      ],
      "stateMutability": "view",
      "type": "function",
      "constant": true
    },
    {
      "inputs": [],
      "name": "getActiveAmount",
      "outputs": [
        {
          "internalType": "uint256",
          "name": "",
          "type": "uint256"
        }
      ],
      "stateMutability": "view",
      "type": "function",
      "constant": true
    },
    {
      "inputs": [
        {
          "internalType": "address",
          "name": "user",
          "type": "address"
        }
      ],
      "name": "withdrawRewards",
      "outputs": [
        {
          "internalType": "uint256",
          "name": "",
          "type": "uint256"
        }
      ],
      "stateMutability": "nonpayable",
      "type": "function"
    },
    {
      "inputs": [],
      "name": "restake",
      "outputs": [
        {
          "internalType": "uint256",
          "name": "",
          "type": "uint256"
        },
        {
          "internalType": "uint256",
          "name": "",
          "type": "uint256"
        }
      ],
      "stateMutability": "nonpayable",
      "type": "function"
    },
    {
      "inputs": [
        {
          "internalType": "address",
          "name": "user",
          "type": "address"
        }
      ],
      "name": "getLiquidRewards",
      "outputs": [
        {
          "internalType": "uint256",
          "name": "",
          "type": "uint256"
        }
      ],
      "stateMutability": "view",
      "type": "function",
      "constant": true
    },
    {
      "inputs": [],
      "name": "unlockExpand",
      "outputs": [],
      "stateMutability": "nonpayable",
      "type": "function"
    },
    {
      "inputs": [],
      "name": "lockExpand",
      "outputs": [],
      "stateMutability": "nonpayable",
      "type": "function"
    },
    {
      "inputs": [
        {
          "internalType": "address",
          "name": "token",
          "type": "address"
        },
        {
          "internalType": "address payable",
          "name": "destination",
          "type": "address"
        },
        {
          "internalType": "uint256",
          "name": "amount",
          "type": "uint256"
        }
      ],
      "name": "drain",
      "outputs": [],
      "stateMutability": "nonpayable",
      "type": "function"
    },
    {
      "inputs": [
        {
          "internalType": "uint256",
          "name": "minerStake",
          "type": "uint256"
        },
        {
          "internalType": "uint256",
          "name": "delegatedAmount",
          "type": "uint256"
        },
        {
          "internalType": "uint256",
          "name": "totalAmountToSlash",
          "type": "uint256"
        }
      ],
      "name": "slash",
      "outputs": [
        {
          "internalType": "uint256",
          "name": "",
          "type": "uint256"
        }
      ],
      "stateMutability": "nonpayable",
      "type": "function"
    },
    {
      "inputs": [
        {
          "internalType": "bool",
          "name": "_delegation",
          "type": "bool"
        }
      ],
      "name": "updateDelegation",
      "outputs": [],
      "stateMutability": "nonpayable",
      "type": "function"
    },
    {
      "inputs": [
        {
          "internalType": "address",
          "name": "user",
          "type": "address"
        },
        {
          "internalType": "uint256",
          "name": "amount",
          "type": "uint256"
        }
      ],
      "name": "migrateOut",
      "outputs": [],
      "stateMutability": "nonpayable",
      "type": "function"
    },
    {
      "inputs": [
        {
          "internalType": "address",
          "name": "user",
          "type": "address"
        },
        {
          "internalType": "uint256",
          "name": "amount",
          "type": "uint256"
        }
      ],
      "name": "migrateIn",
      "outputs": [],
      "stateMutability": "nonpayable",
      "type": "function"
    },
    {
      "inputs": [],
      "name": "ownerExpand",
      "outputs": [
        {
          "internalType": "address",
          "name": "",
          "type": "address"
        }
      ],
      "stateMutability": "view",
      "type": "function",
      "constant": true
    },
    {
      "inputs": [],
      "name": "getRewardPerShare",
      "outputs": [
        {
          "internalType": "uint256",
          "name": "",
          "type": "uint256"
        }
      ],
      "stateMutability": "view",
      "type": "function",
      "constant": true
    },
    {
      "inputs": [
        {
          "internalType": "address",
          "name": "user",
          "type": "address"
        }
      ],
      "name": "getTotalStake",
      "outputs": [
        {
          "internalType": "uint256",
          "name": "",
          "type": "uint256"
        },
        {
          "internalType": "uint256",
          "name": "",
          "type": "uint256"
        }
      ],
      "stateMutability": "view",
      "type": "function",
      "constant": true
    },
    {
      "inputs": [],
      "name": "withdrawExchangeRate",
      "outputs": [
        {
          "internalType": "uint256",
          "name": "",
          "type": "uint256"
        }
      ],
      "stateMutability": "view",
      "type": "function",
      "constant": true
    },
    {
      "inputs": [
        {
          "internalType": "uint256",
          "name": "number",
          "type": "uint256"
        }
      ],
      "name": "getCurrentEpoch",
      "outputs": [
        {
          "internalType": "uint256",
          "name": "",
          "type": "uint256"
        }
      ],
      "stateMutability": "view",
      "type": "function",
      "constant": true
    }
  ],
  "bytecode": "0x6006805460a860020a60ff02191690556000608081815260c060405260a0828152909162000032906004908390620000ce565b50805162000048906005906020840190620000ce565b50506006805460ff191660121790555060006200006d640100000000620000c9810204565b6006805461010060a860020a031916610100600160a060020a03841690810291909117909155604051919250906000907f8be0079c531659141344cd1fd0a4f28419497f9722a3daafe3b4186f6b6457e0908290a35062000170565b335b90565b828054600181600116156101000203166002900490600052602060002090601f016020900481019282601f106200011157805160ff191683800117855562000141565b8280016001018555821562000141579182015b828111156200014157825182559160200191906001019062000124565b506200014f92915062000153565b5090565b620000cb91905b808211156200014f57600081556001016200015a565b6135ce80620001806000396000f3fe6080604052600436106103395760003560e060020a9004806374bec0c9116101af578063a457c2d7116100fb578063dd62ed3e11610099578063e6991a4c11610073578063e6991a4c14610b42578063e97fddc214610b57578063f2fde38b14610b81578063f83d08ba14610bb457610339565b8063dd62ed3e14610abf578063df5cf72314610afa578063e4cd1aec14610b0f57610339565b8063abf59fc9116100d5578063abf59fc914610a22578063bfb18f2914610a65578063c83ec04d14610a7a578063cf30901214610aaa57610339565b8063a457c2d71461099b578063a69df4b5146109d4578063a9059cbb146109e957610339565b80638da5cb5b116101685780639b2cb5d8116101425780639b2cb5d8146109235780639cf001fe14610938578063a0c1ca341461094d578063a446c2db1461098657610339565b80638da5cb5b146108e457806395d89b41146108f957806396d7b5141461090e57610339565b806374bec0c91461080d57806375e208a714610822578063795be587146108555780637b1039991461088e5780637ba8c820146108a35780638d086da4146108cf57610339565b80633ba0b9a911610289578063676e5550116102275780636cbb6050116102015780636cbb6050146107565780636e7ce5911461078c57806370a08231146107c5578063715018a6146107f857610339565b8063676e5550146106eb5780636ab150711461071e5780636c559b581461074157610339565b8063446a2ec811610263578063446a2ec8146106825780634f91440d146106975780635c42c733146106ac5780635d7035c6146106c157610339565b80633ba0b9a9146106255780633bc66d331461063a57806342d866931461064f57610339565b80632b9290c1116102f657806331910e6b116102d057806331910e6b1461056f5780633641e0831461058457806339509351146105d75780633a09bf441461061057610339565b80632b9290c1146104e05780633046c20414610511578063313ce5671461054457610339565b806306fdde031461033e578063095ea7b3146103c857806318160ddd146104155780631bf494a71461043c5780631e7ff8f61461045157806323b872dd1461049d575b600080fd5b34801561034a57600080fd5b50610353610bc9565b6040805160208082528351818301528351919283929083019185019080838360005b8381101561038d578181015183820152602001610375565b50505050905090810190601f1680156103ba5780820380516001836020036101000a031916815260200191505b509250505060405180910390f35b3480156103d457600080fd5b50610401600480360360408110156103eb57600080fd5b50600160a060020a038135169060200135610c60565b604080519115158252519081900360200190f35b34801561042157600080fd5b5061042a610c7e565b60408051918252519081900360200190f35b34801561044857600080fd5b5061042a610c84565b34801561045d57600080fd5b506104846004803603602081101561047457600080fd5b5035600160a060020a0316610d31565b6040805192835260208301919091528051918290030190f35b3480156104a957600080fd5b50610401600480360360608110156104c057600080fd5b50600160a060020a03813581169160208101359091169060400135610d91565b3480156104ec57600080fd5b506104f5610e1f565b60408051600160a060020a039092168252519081900360200190f35b34801561051d57600080fd5b5061042a6004803603602081101561053457600080fd5b5035600160a060020a0316610e2e565b34801561055057600080fd5b50610559610e40565b6040805160ff9092168252519081900360200190f35b34801561057b57600080fd5b506104f5610e49565b34801561059057600080fd5b506105d5600480360360a08110156105a757600080fd5b50803590600160a060020a036020820135811691604081013582169160608201358116916080013516610e58565b005b3480156105e357600080fd5b50610401600480360360408110156105fa57600080fd5b50600160a060020a038135169060200135610faa565b34801561061c57600080fd5b5061042a610ffe565b34801561063157600080fd5b5061042a611004565b34801561064657600080fd5b506104f56110e2565b34801561065b57600080fd5b5061042a6004803603602081101561067257600080fd5b5035600160a060020a03166110f1565b34801561068e57600080fd5b5061042a611260565b3480156106a357600080fd5b50610484611266565b3480156106b857600080fd5b5061042a611425565b3480156106cd57600080fd5b5061042a600480360360208110156106e457600080fd5b503561142b565b3480156106f757600080fd5b5061042a6004803603602081101561070e57600080fd5b5035600160a060020a03166114c2565b6105d56004803603604081101561073457600080fd5b50803590602001356114d5565b34801561074d57600080fd5b506105d56115f6565b34801561076257600080fd5b5061042a6004803603606081101561077957600080fd5b5080359060208101359060400135611600565b34801561079857600080fd5b506105d5600480360360408110156107af57600080fd5b50600160a060020a038135169060200135611789565b3480156107d157600080fd5b5061042a600480360360208110156107e857600080fd5b5035600160a060020a0316611ad8565b34801561080457600080fd5b506105d5611af3565b34801561081957600080fd5b506105d5611bb0565b34801561082e57600080fd5b5061042a6004803603602081101561084557600080fd5b5035600160a060020a0316611bb8565b34801561086157600080fd5b506104846004803603604081101561087857600080fd5b50600160a060020a038135169060200135611bca565b34801561089a57600080fd5b506104f5611bee565b3480156108af57600080fd5b506105d5600480360360208110156108c657600080fd5b50351515611bfd565b3480156108db57600080fd5b5061042a611c8e565b3480156108f057600080fd5b506104f5611c94565b34801561090557600080fd5b50610353611ca8565b34801561091a57600080fd5b5061042a611d09565b34801561092f57600080fd5b5061042a611d0f565b34801561094457600080fd5b506104f5611d15565b34801561095957600080fd5b506105d56004803603604081101561097057600080fd5b50600160a060020a038135169060200135611d24565b34801561099257600080fd5b5061042a611d9f565b3480156109a757600080fd5b50610401600480360360408110156109be57600080fd5b50600160a060020a038135169060200135611da5565b3480156109e057600080fd5b506105d5611e13565b3480156109f557600080fd5b5061040160048036036040811015610a0c57600080fd5b50600160a060020a038135169060200135611e7b565b348015610a2e57600080fd5b506105d560048036036060811015610a4557600080fd5b50600160a060020a03813581169160208101359091169060400135611e8f565b348015610a7157600080fd5b5061042a611eef565b348015610a8657600080fd5b506105d560048036036040811015610a9d57600080fd5b5080359060200135611f2d565b348015610ab657600080fd5b50610401612047565b348015610acb57600080fd5b5061042a60048036036040811015610ae257600080fd5b50600160a060020a0381358116916020013516612050565b348015610b0657600080fd5b5061040161207b565b348015610b1b57600080fd5b5061042a60048036036020811015610b3257600080fd5b5035600160a060020a031661208b565b348015610b4e57600080fd5b506104f561209d565b348015610b6357600080fd5b506105d560048036036020811015610b7a57600080fd5b50356120ac565b348015610b8d57600080fd5b506105d560048036036020811015610ba457600080fd5b5035600160a060020a03166121ac565b348015610bc057600080fd5b506105d56122c8565b60048054604080516020601f6002600019610100600188161502019095169490940493840181900481028201810190925282815260609390929091830182828015610c555780601f10610c2a57610100808354040283529160200191610c55565b820191906000526020600020905b815481529060010190602001808311610c3857829003601f168201915b505050505090505b90565b6000610c74610c6d612330565b8484612334565b5060015b92915050565b60035490565b600e54600754604080517f14e4e15e0000000000000000000000000000000000000000000000000000000081526004810192909252516000928392600160a060020a03909116916314e4e15e9160248082019260c092909190829003018186803b158015610cf157600080fd5b505afa158015610d05573d6000803e3d6000fd5b505050506040513d60c0811015610d1b57600080fd5b5060a001519050610d2b81612384565b91505090565b6000806000610d3f84611ad8565b90506000610d4b611004565b905081610d5f57600093509150610d8c9050565b610d86610d6a6123db565b610d7a838563ffffffff6123e016565b9063ffffffff61243c16565b93509150505b915091565b6000610d9e8484846124a6565b610e1484610daa612330565b610e0f856040518060600160405280602881526020016134c160289139600160a060020a038a16600090815260026020526040812090610de8612330565b600160a060020a03168152602081019190915260400160002054919063ffffffff61261516565b612334565b5060015b9392505050565b600e54600160a060020a031681565b60126020526000908152604090205481565b60065460ff1690565b600b54600160a060020a031681565b6006547501000000000000000000000000000000000000000000900460ff1615610ecc576040805160e560020a62461bcd02815260206004820152600e60248201527f616c726561647920696e69746564000000000000000000000000000000000000604482015290519081900360640190fd5b60068054600787905576ff000000000000000000000000000000000000000000001975ff000000000000000000000000000000000000000000199091167501000000000000000000000000000000000000000000171660b060020a179055670de0b6b3a7640000600855600b8054600160a060020a0380861673ffffffffffffffffffffffffffffffffffffffff199283168117909355600e80548316909317909255600f8054878416908316179055601080548584169083161790556011805492841692909116919091179055610fa3836126af565b5050505050565b6000610c74610fb7612330565b84610e0f8560026000610fc8612330565b600160a060020a03908116825260208083019390935260409182016000908120918c16815292529020549063ffffffff61271616565b60095481565b60008061100f610c7e565b9050600061101b6123db565b90508161102b579150610c5d9050565b600e54600754604080517f14e4e15e000000000000000000000000000000000000000000000000000000008152600481019290925251600092600160a060020a0316916314e4e15e9160248083019260c0929190829003018186803b15801561109357600080fd5b505afa1580156110a7573d6000803e3d6000fd5b505050506040513d60c08110156110bd57600080fd5b506020015190506110d883610d7a838563ffffffff6123e016565b9350505050610c5d565b60006110ec611c94565b905090565b600033600160a060020a0316601060009054906101000a9004600160a060020a0316600160a060020a0316634aa1a09f6040518163ffffffff1660e060020a02815260040160206040518083038186803b15801561114e57600080fd5b505afa158015611162573d6000803e3d6000fd5b505050506040513d602081101561117857600080fd5b5051600160a060020a0316146111d8576040805160e560020a62461bcd02815260206004820152601260248201527f6f6e2073797374656d20636f6e74726163740000000000000000000000000000604482015290519081900360640190fd5b60006111e383612773565b905060085481101561123f576040805160e560020a62461bcd02815260206004820152601860248201527f546f6f20736d616c6c207265776172647320616d6f756e740000000000000000604482015290519081900360640190fd5b5050600160a060020a03166000908152601560205260408120805491905590565b600a5481565b6000803381611274826127d0565b90506008548110156112d0576040805160e560020a62461bcd02815260206004820152601c60248201527f546f6f20736d616c6c207265776172647320746f2072657374616b6500000000604482015290519081900360640190fd5b600160a060020a0382166000908152601560205260408120546112fa90839063ffffffff61271616565b600160a060020a0384166000908152601560205260408120819055909150811561141b5761132a8260008661289e565b90508082111561137957600160a060020a03841660009081526015602052604090205461135f9082840363ffffffff61271616565b600160a060020a0385166000908152601560205260409020555b600061138485610d31565b50600f54600754604080517f7f88a9570000000000000000000000000000000000000000000000000000000081526004810192909252600160a060020a03898116602484015260448301859052905193945090911691637f88a9579160648082019260009290919082900301818387803b15801561140157600080fd5b505af1158015611415573d6000803e3d6000fd5b50505050505b9450925050509091565b600c5481565b600e54604080517f5d7035c6000000000000000000000000000000000000000000000000000000008152600481018490529051600092600160a060020a031691635d7035c6916024808301926020929190829003018186803b15801561149057600080fd5b505afa1580156114a4573d6000803e3d6000fd5b505050506040513d60208110156114ba57600080fd5b505192915050565b6000610c78826114d0610c84565b612c9f565b6114de33612773565b5060006114ec83833361289e565b9050348314611545576040805160e560020a62461bcd02815260206004820152601160248201527f616374697665416d6f756e74207a65726f000000000000000000000000000000604482015290519081900360640190fd5b600b54604051600091600160a060020a03169085908381818185875af1925050503d8060008114611592576040519150601f19603f3d011682016040523d82523d6000602084013e611597565b606091505b50509050806115f0576040805160e560020a62461bcd02815260206004820152601460248201527f4661696c656420746f207374616b65204e656c61000000000000000000000000604482015290519081900360640190fd5b50505050565b6115fe611e13565b565b600061160a612330565b6006546101009004600160a060020a03908116911614611662576040805160e560020a62461bcd02815260206004820181905260248201526000805160206134e9833981519152604482015290519081900360640190fd5b600c546000611677858363ffffffff61271616565b90508061168957600092505050610e18565b60006116ae61169e888463ffffffff61271616565b610d7a848863ffffffff6123e016565b905060006116c683610d7a868563ffffffff6123e016565b905060006116da838363ffffffff612d2016565b600e54600754604080517fd846c31600000000000000000000000000000000000000000000000000000000815260048101929092526024820184905251929350600160a060020a039091169163d846c3169160448082019260009290919082900301818387803b15801561174d57600080fd5b505af1158015611761573d6000803e3d6000fd5b5050600c54611779925090508363ffffffff612d2016565b600c555090979650505050505050565b611791612330565b6006546101009004600160a060020a039081169116146117e9576040805160e560020a62461bcd02815260206004820181905260248201526000805160206134e9833981519152604482015290519081900360640190fd5b6117f282612773565b506000806117ff84610d31565b915091508282101561185b576040805160e560020a62461bcd02815260206004820152601260248201527f4d6967726174696e6720746f6f206d7563680000000000000000000000000000604482015290519081900360640190fd5b60006118656123db565b9050600061187d83610d7a878563ffffffff6123e016565b90506118898682612d80565b600e54600754604080517fd4e31b980000000000000000000000000000000000000000000000000000000081526004810192909252600088810360248401529051600160a060020a039093169263d4e31b9892604480820193929182900301818387803b1580156118f957600080fd5b505af115801561190d573d6000803e3d6000fd5b5050600954611925925090508663ffffffff612d2016565b600955600f54600754604080517ff1382b530000000000000000000000000000000000000000000000000000000081526004810192909252600160a060020a0389811660248401526044830189905260648301859052905192169163f1382b539160848082019260009290919082900301818387803b1580156119a757600080fd5b505af11580156119bb573d6000803e3d6000fd5b5050600f54600754604080517f532e19a9000000000000000000000000000000000000000000000000000000008152600481019290925251600160a060020a03909216935063532e19a9925060248082019260009290919082900301818387803b158015611a2857600080fd5b505af1158015611a3c573d6000803e3d6000fd5b5050600f54600754604080517f605be9be0000000000000000000000000000000000000000000000000000000081526004810192909252600160a060020a038b81166024840152604483018b905290519216935063605be9be925060648082019260009290919082900301818387803b158015611ab857600080fd5b505af1158015611acc573d6000803e3d6000fd5b50505050505050505050565b600160a060020a031660009081526001602052604090205490565b611afb612330565b6006546101009004600160a060020a03908116911614611b53576040805160e560020a62461bcd02815260206004820181905260248201526000805160206134e9833981519152604482015290519081900360640190fd5b6006546040516000916101009004600160a060020a0316907f8be0079c531659141344cd1fd0a4f28419497f9722a3daafe3b4186f6b6457e0908390a36006805474ffffffffffffffffffffffffffffffffffffffff0019169055565b6115fe6122c8565b60156020526000908152604090205481565b60136020908152600092835260408084209091529082529020805460019091015482565b601054600160a060020a031681565b611c05612330565b6006546101009004600160a060020a03908116911614611c5d576040805160e560020a62461bcd02815260206004820181905260248201526000805160206134e9833981519152604482015290519081900360640190fd5b6006805491151560b060020a0276ff0000000000000000000000000000000000000000000019909216919091179055565b600d5481565b6006546101009004600160a060020a031690565b60058054604080516020601f6002600019610100600188161502019095169490940493840181900481028201810190925282815260609390929091830182828015610c555780601f10610c2a57610100808354040283529160200191610c55565b60075481565b60085481565b601154600160a060020a031681565b611d2c612330565b6006546101009004600160a060020a03908116911614611d84576040805160e560020a62461bcd02815260206004820181905260248201526000805160206134e9833981519152604482015290519081900360640190fd5b611d8d82612773565b50611d9a8160008461289e565b505050565b60095490565b6000610c74611db2612330565b84610e0f856040518060600160405280602581526020016135746025913960026000611ddc612330565b600160a060020a03908116825260208083019390935260409182016000908120918d1681529252902054919063ffffffff61261516565b611e1b612330565b6006546101009004600160a060020a03908116911614611e73576040805160e560020a62461bcd02815260206004820181905260248201526000805160206134e9833981519152604482015290519081900360640190fd5b6115fe612e8b565b6000610c74611e88612330565b84846124a6565b611e97612330565b6006546101009004600160a060020a03908116911614611d9a576040805160e560020a62461bcd02815260206004820181905260248201526000805160206134e9833981519152604482015290519081900360640190fd5b600080611efa6123db565b600d549091508015611f2457611f1f81610d7a84600c546123e090919063ffffffff16565b611f26565b815b9250505090565b600080611f3a8484612e97565b3360009081526012602052604081205492945090925090611f6290600163ffffffff61271616565b90506000611f6f4361142b565b9050611f796133f4565b50604080518082018252848152602080820184815233600081815260138452858120888252845285812085518155925160019093019290925581526012909152828120859055600f5460075484517f532e19a9000000000000000000000000000000000000000000000000000000008152600481019190915293519293600160a060020a039091169263532e19a99260248084019391929182900301818387803b15801561202657600080fd5b505af115801561203a573d6000803e3d6000fd5b5050505050505050505050565b60005460ff1681565b600160a060020a03918216600090815260026020908152604080832093909416825291909152205490565b60065460b060020a900460ff1681565b60146020526000908152604090205481565b600f54600160a060020a031681565b6120b46133f4565b5033600090815260136020908152604080832084845282528083208151808301909252805482526001015491810191909152906120f082613098565b336000818152601360209081526040808320888452909152808220828155600101829055600f5460075482517f6e699d870000000000000000000000000000000000000000000000000000000081526004810191909152602481019490945260448401859052606484018890529051939450600160a060020a031692636e699d8792608480820193929182900301818387803b15801561218f57600080fd5b505af11580156121a3573d6000803e3d6000fd5b50505050505050565b6121b4612330565b6006546101009004600160a060020a0390811691161461220c576040805160e560020a62461bcd02815260206004820181905260248201526000805160206134e9833981519152604482015290519081900360640190fd5b600160a060020a0381166122545760405160e560020a62461bcd0281526004018080602001828103825260268152602001806134546026913960400191505060405180910390fd5b600654604051600160a060020a0380841692610100900416907f8be0079c531659141344cd1fd0a4f28419497f9722a3daafe3b4186f6b6457e090600090a360068054600160a060020a039092166101000274ffffffffffffffffffffffffffffffffffffffff0019909216919091179055565b6122d0612330565b6006546101009004600160a060020a03908116911614612328576040805160e560020a62461bcd02815260206004820181905260248201526000805160206134e9833981519152604482015290519081900360640190fd5b6115fe6132e4565b3390565b6040805160e560020a62461bcd02815260206004820152600860248201527f64697361626c6564000000000000000000000000000000000000000000000000604482015290519081900360640190fd5b600a546000908215610c7857600061239a610c7e565b905080156123d4576123d16123c482610d7a876a084595161401484a00000063ffffffff6123e016565b839063ffffffff61271616565b91505b5092915050565b606490565b6000826123ef57506000610c78565b828202828482816123fc57fe5b0414610e185760405160e560020a62461bcd0281526004018080602001828103825260218152602001806134a06021913960400191505060405180910390fd5b6000808211612495576040805160e560020a62461bcd02815260206004820152601a60248201527f536166654d6174683a206469766973696f6e206279207a65726f000000000000604482015290519081900360640190fd5b81838161249e57fe5b049392505050565b600160a060020a0383166124ee5760405160e560020a62461bcd02815260040180806020018281038252602581526020018061354f6025913960400191505060405180910390fd5b600160a060020a0382166125365760405160e560020a62461bcd02815260040180806020018281038252602381526020018061340f6023913960400191505060405180910390fd5b612541838383611d9a565b6125848160405180606001604052806026815260200161347a60269139600160a060020a038616600090815260016020526040902054919063ffffffff61261516565b600160a060020a0380851660009081526001602052604080822093909355908416815220546125b9908263ffffffff61271616565b600160a060020a0380841660008181526001602090815260409182902094909455805185815290519193928716927fddf252ad1be2c89b69c2b068fc378daa952ba7f163c4a11628f55a4df523b3ef92918290030190a3505050565b600081848411156126a75760405160e560020a62461bcd0281526004018080602001828103825283818151815260200191508051906020019080838360005b8381101561266c578181015183820152602001612654565b50505050905090810190601f1680156126995780820380516001836020036101000a031916815260200191505b509250505060405180910390fd5b505050900390565b60068054600160a060020a0383811661010081810274ffffffffffffffffffffffffffffffffffffffff001985161790945560405193909204169182907f8be0079c531659141344cd1fd0a4f28419497f9722a3daafe3b4186f6b6457e090600090a35050565b600082820183811015610e18576040805160e560020a62461bcd02815260206004820152601b60248201527f536166654d6174683a206164646974696f6e206f766572666c6f770000000000604482015290519081900360640190fd5b60008061277f836127d0565b90508015610c7857600160a060020a0383166000908152601560205260409020546127b0908263ffffffff61271616565b600160a060020a0384166000908152601560205260409020559050919050565b600080612867600e60009054906101000a9004600160a060020a0316600160a060020a0316637ed4b27c6007546040518263ffffffff1660e060020a02815260040180828152602001915050602060405180830381600087803b15801561283657600080fd5b505af115801561284a573d6000803e3d6000fd5b505050506040513d602081101561286057600080fd5b5051612384565b905060006128758483612c9f565b600a839055600160a060020a038516600090815260146020526040902092909255509050919050565b6000805460ff16156128fa576040805160e560020a62461bcd02815260206004820152600660248201527f6c6f636b65640000000000000000000000000000000000000000000000000000604482015290519081900360640190fd5b60065460b060020a900460ff1661295b576040805160e560020a62461bcd02815260206004820152601660248201527f44656c65676174696f6e2069732064697361626c656400000000000000000000604482015290519081900360640190fd5b6000612965611004565b905060006129716123db565b9050600061298983610d7a898563ffffffff6123e016565b9050858110156129e3576040805160e560020a62461bcd02815260206004820152601160248201527f546f6f206d75636820736c697070616765000000000000000000000000000000604482015290519081900360640190fd5b6129ed85826132f3565b612a0182610d7a858463ffffffff6123e016565b601154600754604080517fe70c935700000000000000000000000000000000000000000000000000000000815260048101929092526024820184905251929950600160a060020a039091169163e70c935791604480820192602092909190829003018186803b158015612a7357600080fd5b505afa158015612a87573d6000803e3d6000fd5b505050506040513d6020811015612a9d57600080fd5b5051612add5760405160e560020a62461bcd02815260040180806020018281038252602581526020018061352a6025913960400191505060405180910390fd5b600e54600754604080517fd4e31b980000000000000000000000000000000000000000000000000000000081526004810192909252602482018a905251600160a060020a039092169163d4e31b989160448082019260009290919082900301818387803b158015612b4d57600080fd5b505af1158015612b61573d6000803e3d6000fd5b5050600954612b79925090508863ffffffff61271616565b600955600f54600754604080517fc69d05730000000000000000000000000000000000000000000000000000000081526004810192909252600160a060020a038881166024840152604483018b905260648301859052905192169163c69d05739160848082019260009290919082900301818387803b158015612bfb57600080fd5b505af1158015612c0f573d6000803e3d6000fd5b5050600f54600754604080517f532e19a9000000000000000000000000000000000000000000000000000000008152600481019290925251600160a060020a03909216935063532e19a9925060248082019260009290919082900301818387803b158015612c7c57600080fd5b505af1158015612c90573d6000803e3d6000fd5b50989998505050505050505050565b600080612cab84611ad8565b905080612cbc576000915050610c78565b600160a060020a03841660009081526014602052604090205483811415612ce857600092505050610c78565b612d176a084595161401484a000000610d7a84612d0b888663ffffffff612d2016565b9063ffffffff6123e016565b95945050505050565b600082821115612d7a576040805160e560020a62461bcd02815260206004820152601e60248201527f536166654d6174683a207375627472616374696f6e206f766572666c6f770000604482015290519081900360640190fd5b50900390565b600160a060020a038216612dc85760405160e560020a62461bcd0281526004018080602001828103825260218152602001806135096021913960400191505060405180910390fd5b612dd482600083611d9a565b612e178160405180606001604052806022815260200161343260229139600160a060020a038516600090815260016020526040902054919063ffffffff61261516565b600160a060020a038316600090815260016020526040902055600354612e43908263ffffffff612d2016565b600355604080518281529051600091600160a060020a038516917fddf252ad1be2c89b69c2b068fc378daa952ba7f163c4a11628f55a4df523b3ef9181900360200190a35050565b6000805460ff19169055565b600080600080612ea633610d31565b9150915081600014158015612ebb5750858210155b612f0f576040805160e560020a62461bcd02815260206004820152601260248201527f546f6f206d756368207265717565737465640000000000000000000000000000604482015290519081900360640190fd5b6000612f196123db565b90506000612f3183610d7a8a8563ffffffff6123e016565b905086811115612f8b576040805160e560020a62461bcd02815260206004820152601160248201527f746f6f206d75636820736c697070616765000000000000000000000000000000604482015290519081900360640190fd5b612f9433612773565b50612f9f3382612d80565b600e54600754604080517fd4e31b98000000000000000000000000000000000000000000000000000000008152600481019290925260008b810360248401529051600160a060020a039093169263d4e31b9892604480820193929182900301818387803b15801561300f57600080fd5b505af1158015613023573d6000803e3d6000fd5b505060095461303b925090508963ffffffff612d2016565b600955600061305b61304b611eef565b610d7a8b8663ffffffff6123e016565b600c54909150613071908a63ffffffff61271616565b600c55600d54613087908263ffffffff61271616565b600d55909890975095505050505050565b8051600090816130a74361142b565b90508061313b600e60009054906101000a9004600160a060020a0316600160a060020a031663a7ab69616040518163ffffffff1660e060020a02815260040160206040518083038186803b1580156130fe57600080fd5b505afa158015613112573d6000803e3d6000fd5b505050506040513d602081101561312857600080fd5b505160208701519063ffffffff61271616565b111580156131495750600082115b61319d576040805160e560020a62461bcd02815260206004820152601c60248201527f496e636f6d706c657465207769746864726177616c20706572696f6400000000604482015290519081900360640190fd5b60006131b66131aa6123db565b610d7a85612d0b611eef565b600d549091506131cc908463ffffffff612d2016565b600d55600c546131e2908263ffffffff612d2016565b600c55600e54600754604080517fbc8756a900000000000000000000000000000000000000000000000000000000815260048101929092526024820184905233604483015251600160a060020a039092169163bc8756a9916064808201926020929091908290030181600087803b15801561325c57600080fd5b505af1158015613270573d6000803e3d6000fd5b505050506040513d602081101561328657600080fd5b50516132dc576040805160e560020a62461bcd02815260206004820152601360248201527f496e737566666963656e74207265776172647300000000000000000000000000604482015290519081900360640190fd5b949350505050565b6000805460ff19166001179055565b600160a060020a038216613351576040805160e560020a62461bcd02815260206004820152601f60248201527f45524332303a206d696e7420746f20746865207a65726f206164647265737300604482015290519081900360640190fd5b61335d60008383611d9a565b600354613370908263ffffffff61271616565b600355600160a060020a03821660009081526001602052604090205461339c908263ffffffff61271616565b600160a060020a03831660008181526001602090815260408083209490945583518581529351929391927fddf252ad1be2c89b69c2b068fc378daa952ba7f163c4a11628f55a4df523b3ef9281900390910190a35050565b60405180604001604052806000815260200160008152509056fe45524332303a207472616e7366657220746f20746865207a65726f206164647265737345524332303a206275726e20616d6f756e7420657863656564732062616c616e63654f776e61626c653a206e6577206f776e657220697320746865207a65726f206164647265737345524332303a207472616e7366657220616d6f756e7420657863656564732062616c616e6365536166654d6174683a206d756c7469706c69636174696f6e206f766572666c6f7745524332303a207472616e7366657220616d6f756e74206578636565647320616c6c6f77616e63654f776e61626c653a2063616c6c6572206973206e6f7420746865206f776e657245524332303a206275726e2066726f6d20746865207a65726f2061646472657373746865206d696e6572206e6f20656e6f756768207374616b6520656c69676962696c69747945524332303a207472616e736665722066726f6d20746865207a65726f206164647265737345524332303a2064656372656173656420616c6c6f77616e63652062656c6f77207a65726fa26469706673582212201c6e0081f35d4b372da3dac558619af41a489df1b0ed4ad1c03af81457d62a9e64736f6c63430006060033",
  "immutableReferences": {},
  "source": "pragma solidity ^0.6.6;\n\nimport {IDelegateShare} from \"./IDelegateShare.sol\";\nimport {OwnableLockable} from \"../../common/utils/OwnableLockable.sol\";\nimport {Initializable} from \"../../common/utils/Initializable.sol\";\nimport {IW3fsStakeManager} from \"../stakeManager/IW3fsStakeManager.sol\";\nimport {W3fsStakingInfo} from \"../W3fsStakingInfo.sol\";\nimport {ERC20NonTradable} from \"./ERC20NonTradable.sol\";\nimport {Registry} from \"../../common/misc/Registry.sol\";\nimport {IW3fsStorageManager} from \"../../storage/IW3fsStorageManager.sol\";\n\ncontract DelegateShare is IDelegateShare, ERC20NonTradable, OwnableLockable, Initializable {\n\n    uint256 constant EXCHANGE_RATE_PRECISION = 100;\n    uint256 constant REWARD_PRECISION = 10 ** 25;\n    bool public delegation;\n    uint256 public minerId;\n    uint256 public minAmount;\n    uint256 public activeAmount;\n    uint256 public rewardPerShare;\n    address public stakeManagerAdd;\n\n    uint256 public withdrawPool;\n    uint256 public withdrawShares;\n\n    struct DelegatorUnbond {\n        uint256 shares;\n        uint256 withdrawEpoch;\n    }\n\n    IW3fsStakeManager public w3fsStakeManager;\n    W3fsStakingInfo public w3fsStakingInfo;\n    address public registry;\n    IW3fsStorageManager public storageManager;\n\n    mapping(address => uint256) public unbondNonces;\n    mapping(address => mapping(uint256 => DelegatorUnbond)) public unbonds_new;\n    mapping(address => uint256) public initalRewardPerShare;\n    mapping(address => uint256) public liquidRewardsMap;\n\n    modifier onlySystemReward(){\n        require(Registry(registry).getSystemRewardAddress() == msg.sender, \"on system contract\");\n        _;\n    }\n\n\n    function initialize(uint256 _minerId, address _stakingLogger, address _stakeManager, address _registry, address _storageManager) external initializer {\n        minerId = _minerId;\n        delegation = true;\n        minAmount = 10**18;\n        stakeManagerAdd = _stakeManager;\n        w3fsStakeManager = IW3fsStakeManager(_stakeManager);\n        w3fsStakingInfo = W3fsStakingInfo(_stakingLogger);\n        registry = _registry;\n        storageManager = IW3fsStorageManager(_storageManager);\n        _transferOwnership(_stakeManager);\n    }\n\n\n    // \n    function buyVoucher(uint256 _amount, uint256 _minSharesToMint) public payable {\n        _withdrawAndTransferReward(msg.sender); //\n        uint256 amountToDeposit = _buyShares(_amount, _minSharesToMint, msg.sender);\n        require(_amount == msg.value, \"activeAmount zero\");\n        (bool success,) = payable(stakeManagerAdd).call{value : _amount}(\"\");\n        require(success, \"Failed to stake Nela\");\n    }\n\n    // \n    function _withdrawAndTransferReward(address user) private returns (uint256) {\n        uint256 liquidRewards = _withdrawReward(user);  //\n        if (liquidRewards != 0) {\n            // systemReward\n            liquidRewardsMap[user] = liquidRewardsMap[user].add(liquidRewards);\n            // \n            //nelaStakingInfo.logDelegatorClaimRewards(minerId, user, liquidRewards);\n        }\n        return liquidRewards;\n    }\n\n    function _withdrawReward(address user) private returns (uint256) {\n        uint256 _rewardPerShare = _calculateRewardPerShareWithRewards(\n            // DelegatorsReward\n            w3fsStakeManager.withdrawDelegatorsReward(minerId)\n        );\n        uint256 liquidRewards = _calculateReward(user, _rewardPerShare);\n        rewardPerShare = _rewardPerShare;\n        initalRewardPerShare[user] = _rewardPerShare;\n        return liquidRewards;\n    }\n\n    // accumulatedReward \n    function _calculateRewardPerShareWithRewards(uint256 accumulatedReward) private view returns (uint256) {\n        uint256 _rewardPerShare = rewardPerShare;\n        if (accumulatedReward != 0) {\n            uint256 totalShares = totalSupply();\n            if (totalShares != 0) {\n                // _rewardPerShare +  [ * (10 ** 7) ] / \n                _rewardPerShare = _rewardPerShare.add(accumulatedReward.mul(REWARD_PRECISION).div(totalShares));\n            }\n        }\n        return _rewardPerShare;\n    }\n\n\n    // \n    function _calculateReward(address user, uint256 _rewardPerShare) private view returns (uint256) {\n        uint256 shares = balanceOf(user);\n        if (shares == 0) {\n            return 0;\n        }\n        uint256 _initialRewardPerShare = initalRewardPerShare[user];\n        if (_initialRewardPerShare == _rewardPerShare) {\n            return 0;\n        }\n        return _rewardPerShare.sub(_initialRewardPerShare).mul(shares).div(REWARD_PRECISION);\n    }\n\n\n    function _buyShares(uint256 _amount, uint256 _minSharesToMint, address user) private onlyWhenUnlocked returns (uint256) {\n        require(delegation, \"Delegation is disabled\");\n        uint256 rate = exchangeRate();\n        // totalShares == 0 ? precision : stakeManager.delegatedAmount(validatorId).mul(precision).div(totalShares)\n        uint256 precision = _getRatePrecision();\n        uint256 shares = _amount.mul(precision).div(rate);\n        require(shares >= _minSharesToMint, \"Too much slippage\");\n        // rate100%shares\n        _mint(user, shares);\n        _amount = rate.mul(shares).div(precision);\n        require(storageManager.checkCandelegatorsMore(minerId, _amount), \"the miner no enough stake eligibility\");\n        // \n        w3fsStakeManager.updateMinerState(minerId, int256(_amount));\n        activeAmount = activeAmount.add(_amount);\n        w3fsStakingInfo.logShareMinted(minerId, user, _amount, shares);\n        w3fsStakingInfo.logStakeUpdate(minerId);\n        return _amount;\n    }\n\n    // \n    function sellVoucher_new(uint256 claimAmount, uint256 maximumSharesToBurn) public {\n        (uint256 shares, uint256 _withdrawPoolShare) = _sellVoucher(claimAmount, maximumSharesToBurn);\n        uint256 unbondNonce = unbondNonces[msg.sender].add(1);\n        uint256 cureentEpoch = getCurrentEpoch(block.number);\n        // \n        DelegatorUnbond memory unbond = DelegatorUnbond({\n            shares: _withdrawPoolShare,\n            withdrawEpoch: cureentEpoch\n        });\n        unbonds_new[msg.sender][unbondNonce] = unbond;\n        unbondNonces[msg.sender] = unbondNonce;\n        // \n        w3fsStakingInfo.logStakeUpdate(minerId);\n    }\n\n    /**\n        claimAmount \n    */\n    function _sellVoucher(uint256 claimAmount, uint256 maximumSharesToBurn) private returns(uint256, uint256) {\n        // \n        (uint256 totalStaked, uint256 rate) = getTotalStake(msg.sender);\n        require(totalStaked != 0 && totalStaked >= claimAmount, \"Too much requested\");\n        uint256 precision = _getRatePrecision();\n        uint256 shares = claimAmount.mul(precision).div(rate);\n        require(shares <= maximumSharesToBurn, \"too much slippage\");\n        _withdrawAndTransferReward(msg.sender); // \n        _burn(msg.sender, shares);  // \n        w3fsStakeManager.updateMinerState(minerId, -int256(claimAmount)); //\n        activeAmount = activeAmount.sub(claimAmount);\n        uint256 _withdrawPoolShare = claimAmount.mul(precision).div(withdrawExchangeRate());\n        withdrawPool = withdrawPool.add(claimAmount);\n        withdrawShares = withdrawShares.add(_withdrawPoolShare);\n        return (shares, _withdrawPoolShare);\n    }\n\n\n    // \n    function unstakeClaimTokens_new(uint256 unbondNonce) public {\n        DelegatorUnbond memory unbond = unbonds_new[msg.sender][unbondNonce];\n        uint256 amount = _unstakeClaimTokens(unbond);\n        delete unbonds_new[msg.sender][unbondNonce];\n        w3fsStakingInfo.logDelegatorUnstakedWithId(minerId, msg.sender, amount, unbondNonce);\n    }\n\n    function _unstakeClaimTokens(DelegatorUnbond memory unbond) private returns(uint256) {\n        uint256 shares = unbond.shares;\n        // \n        uint256 currentEpoch = getCurrentEpoch(block.number);\n        require(unbond.withdrawEpoch.add(w3fsStakeManager.withdrawalDelay()) <= currentEpoch && shares > 0 , \"Incomplete withdrawal period\");\n        uint256 _amount = withdrawExchangeRate().mul(shares).div(_getRatePrecision());\n        withdrawShares = withdrawShares.sub(shares);\n        withdrawPool = withdrawPool.sub(_amount);\n        // stakeManager.sol\n        require(w3fsStakeManager.transferFunds(minerId, _amount, msg.sender), \"Insufficent rewards\");\n        return _amount;\n    }\n\n\n    // \n    function exchangeRate() public view returns (uint256) {\n        uint256 totalShares = totalSupply();\n        uint256 precision = _getRatePrecision();\n        if (totalShares == 0) {\n            return precision;\n        } else {\n            uint256 delegatedAmount;\n            (, delegatedAmount, , , ,) = w3fsStakeManager.getMinerBaseInfo(minerId);\n            //  * 100 / \n            return delegatedAmount.mul(precision).div(totalShares);\n        }\n    }\n\n\n    function getActiveAmount() external override view returns (uint256) {\n        return activeAmount;\n    }\n\n    //  --  systemReward.sol\n    function withdrawRewards(address user) public onlySystemReward override returns(uint256){\n        uint256 rewards = _withdrawAndTransferReward(user);\n        require(rewards >= minAmount, \"Too small rewards amount\");\n        uint256 backReward = liquidRewardsMap[user];\n        liquidRewardsMap[user] = 0;\n        return backReward;\n    }\n\n\n    function restake() public override returns (uint256, uint256) {\n        address user =msg.sender;\n        // \n        uint256 liquidReward = _withdrawReward(user);\n        require(liquidReward >= minAmount, \"Too small rewards to restake\");\n        //  +  \n        uint256 newAmountRestaked = liquidReward.add(liquidRewardsMap[user]);\n        // \n        liquidRewardsMap[user] = 0;\n        uint256 amountRestaked;\n        if(newAmountRestaked != 0) {\n            // \n            amountRestaked = _buyShares(newAmountRestaked, 0, user);\n            if(newAmountRestaked > amountRestaked) {\n                // \n                liquidRewardsMap[user] = liquidRewardsMap[user].add(newAmountRestaked - amountRestaked);\n                // TODO ?\n            }\n            (uint256 totalStaked, ) = getTotalStake(user);\n            w3fsStakingInfo.logDelegatorRestaked(minerId, user, totalStaked);\n        }\n        return (amountRestaked, newAmountRestaked);\n    }\n\n\n    function getLiquidRewards(address user) public override view returns (uint256) {\n        return _calculateReward(user, getRewardPerShare());\n    }\n\n\n    function unlockExpand() external override {\n        super.unlock();\n    }\n\n    function lockExpand() external override {\n        super.lock();\n    }\n\n    function drain(\n        address token,\n        address payable destination,\n        uint256 amount\n    ) external override onlyOwner {\n\n    }\n\n    // minerStake - miner stake amount\n    // delegatedAmount - delegator stake amount\n    // totalAmountToSlash - slash amount\n    function slash(\n        uint256 minerStake,\n        uint256 delegatedAmount,\n        uint256 totalAmountToSlash\n    ) external override onlyOwner returns (uint256) {\n        uint256 _withdrawPool = withdrawPool;\n        uint256 delegationAmount = delegatedAmount.add(_withdrawPool);\n        if (delegationAmount == 0) {\n            return 0;\n        }\n        // amountToSlash = totalAmountToSlash * (delegationAmount / all stake amount)\n        uint256 _amountToSlash = delegationAmount.mul(totalAmountToSlash).div(minerStake.add(delegationAmount));\n        uint256 _amountToSlashWithdrawalPool = _withdrawPool.mul(_amountToSlash).div(delegationAmount);\n        uint256 stakeSlashed = _amountToSlash.sub(_amountToSlashWithdrawalPool);\n        w3fsStakeManager.decreaseMinerDelegatedAmount(minerId, stakeSlashed);\n        withdrawPool = withdrawPool.sub(_amountToSlashWithdrawalPool);\n        return _amountToSlash;\n    }\n\n    function updateDelegation(bool _delegation) external override onlyOwner {\n        delegation = _delegation;\n    }\n\n    //  migrateIn\n    function migrateOut(address user, uint256 amount) external override onlyOwner {\n        _withdrawAndTransferReward(user);\n        (uint256 totalStaked, uint256 rate) = getTotalStake(user);\n        require(totalStaked >= amount, \"Migrating too much\");\n        uint256 precision = _getRatePrecision();\n        uint256 shares = amount.mul(precision).div(rate);   // \n        _burn(user, shares);\n        w3fsStakeManager.updateMinerState(minerId, -int256(amount));\n        activeAmount = activeAmount.sub(amount);\n        w3fsStakingInfo.logShareBurned(minerId, user, amount, shares);\n        w3fsStakingInfo.logStakeUpdate(minerId);\n        w3fsStakingInfo.logDelegatorUnstaked(minerId, user, amount);\n    }\n\n    function migrateIn(address user, uint256 amount) external override onlyOwner {\n        _withdrawAndTransferReward(user);\n        _buyShares(amount, 0, user);\n    }\n\n    function ownerExpand() external override view returns (address) {\n        return super.owner();\n    }\n\n    function _getRatePrecision() private view returns (uint256) {\n        return EXCHANGE_RATE_PRECISION;\n    }\n\n    function getRewardPerShare() public view returns (uint256) {\n        (, , , , , uint256 delegatorsReward) = w3fsStakeManager.getMinerBaseInfo(minerId);\n        return _calculateRewardPerShareWithRewards(delegatorsReward);\n    }\n\n\n\n    function getTotalStake(address user) public view returns (uint256, uint256) {\n        uint256 shares = balanceOf(user);\n        uint256 rate = exchangeRate();\n        if(shares == 0) {\n            return (0, rate);\n        }\n        return (rate.mul(shares).div(_getRatePrecision()), rate);\n    }\n\n    // \n    function withdrawExchangeRate() public view returns(uint256){\n        uint256 precision = _getRatePrecision();\n        uint256 _withdrawShares = withdrawShares;\n        return _withdrawShares == 0 ? precision : withdrawPool.mul(precision).div(_withdrawShares);\n    }\n\n    function getCurrentEpoch(uint256 number) public view returns (uint256) {\n        return w3fsStakeManager.getCurrentEpoch(number);\n    }\n\n}\n\n\n",
  "sourcePath": "/root/testnet/code/w3fs-genesis-contracts-bridge/contracts/staking/delegateShare/DelegateShare.sol",
  "compiler": {
    "name": "solc",
    "version": "0.6.6+commit.6c089d02.Emscripten.clang"
  },
  "schemaVersion": "3.4.10",
  "updatedAt": "2022-11-17T03:12:05.696Z",
  "networkType": "ethereum",
  "devdoc": {
    "methods": {
      "allowance(address,address)": {
        "details": "See {IERC20-allowance}."
      },
      "approve(address,uint256)": {
        "details": "See {IERC20-approve}.     * Requirements:     * - `spender` cannot be the zero address."
      },
      "balanceOf(address)": {
        "details": "See {IERC20-balanceOf}."
      },
      "decimals()": {
        "details": "Returns the number of decimals used to get its user representation. For example, if `decimals` equals `2`, a balance of `505` tokens should be displayed to a user as `5,05` (`505 / 10 ** 2`).     * Tokens usually opt for a value of 18, imitating the relationship between Ether and Wei. This is the value {ERC20} uses, unless {_setupDecimals} is called.     * NOTE: This information is only used for _display_ purposes: it in no way affects any of the arithmetic of the contract, including {IERC20-balanceOf} and {IERC20-transfer}."
      },
      "decreaseAllowance(address,uint256)": {
        "details": "Atomically decreases the allowance granted to `spender` by the caller.     * This is an alternative to {approve} that can be used as a mitigation for problems described in {IERC20-approve}.     * Emits an {Approval} event indicating the updated allowance.     * Requirements:     * - `spender` cannot be the zero address. - `spender` must have allowance for the caller of at least `subtractedValue`."
      },
      "increaseAllowance(address,uint256)": {
        "details": "Atomically increases the allowance granted to `spender` by the caller.     * This is an alternative to {approve} that can be used as a mitigation for problems described in {IERC20-approve}.     * Emits an {Approval} event indicating the updated allowance.     * Requirements:     * - `spender` cannot be the zero address."
      },
      "name()": {
        "details": "Returns the name of the token."
      },
      "owner()": {
        "details": "Returns the address of the current owner."
      },
      "renounceOwnership()": {
        "details": "Leaves the contract without owner. It will not be possible to call `onlyOwner` functions anymore. Can only be called by the current owner.     * NOTE: Renouncing ownership will leave the contract without an owner, thereby removing any functionality that is only available to the owner."
      },
      "symbol()": {
        "details": "Returns the symbol of the token, usually a shorter version of the name."
      },
      "totalSupply()": {
        "details": "See {IERC20-totalSupply}."
      },
      "transfer(address,uint256)": {
        "details": "See {IERC20-transfer}.     * Requirements:     * - `recipient` cannot be the zero address. - the caller must have a balance of at least `amount`."
      },
      "transferFrom(address,address,uint256)": {
        "details": "See {IERC20-transferFrom}.     * Emits an {Approval} event indicating the updated allowance. This is not required by the EIP. See the note at the beginning of {ERC20}.     * Requirements:     * - `sender` and `recipient` cannot be the zero address. - `sender` must have a balance of at least `amount`. - the caller must have allowance for ``sender``'s tokens of at least `amount`."
      },
      "transferOwnership(address)": {
        "details": "Transfers ownership of the contract to a new account (`newOwner`). Can only be called by the current owner."
      }
    }
  },
  "userdoc": {
    "methods": {}
  }
}