{
  "contractName": "FileStoreStorage",
  "abi": [
    {
      "inputs": [],
      "stateMutability": "nonpayable",
      "type": "constructor"
    },
    {
      "anonymous": false,
      "inputs": [
        {
          "indexed": false,
          "internalType": "address",
          "name": "account",
          "type": "address"
        }
      ],
      "name": "Paused",
      "type": "event"
    },
    {
      "anonymous": false,
      "inputs": [
        {
          "indexed": true,
          "internalType": "bytes32",
          "name": "role",
          "type": "bytes32"
        },
        {
          "indexed": true,
          "internalType": "bytes32",
          "name": "previousAdminRole",
          "type": "bytes32"
        },
        {
          "indexed": true,
          "internalType": "bytes32",
          "name": "newAdminRole",
          "type": "bytes32"
        }
      ],
      "name": "RoleAdminChanged",
      "type": "event"
    },
    {
      "anonymous": false,
      "inputs": [
        {
          "indexed": true,
          "internalType": "bytes32",
          "name": "role",
          "type": "bytes32"
        },
        {
          "indexed": true,
          "internalType": "address",
          "name": "account",
          "type": "address"
        },
        {
          "indexed": true,
          "internalType": "address",
          "name": "sender",
          "type": "address"
        }
      ],
      "name": "RoleGranted",
      "type": "event"
    },
    {
      "anonymous": false,
      "inputs": [
        {
          "indexed": true,
          "internalType": "bytes32",
          "name": "role",
          "type": "bytes32"
        },
        {
          "indexed": true,
          "internalType": "address",
          "name": "account",
          "type": "address"
        },
        {
          "indexed": true,
          "internalType": "address",
          "name": "sender",
          "type": "address"
        }
      ],
      "name": "RoleRevoked",
      "type": "event"
    },
    {
      "anonymous": false,
      "inputs": [
        {
          "indexed": false,
          "internalType": "address",
          "name": "account",
          "type": "address"
        }
      ],
      "name": "Unpaused",
      "type": "event"
    },
    {
      "inputs": [],
      "name": "DEFAULT_ADMIN_ROLE",
      "outputs": [
        {
          "internalType": "bytes32",
          "name": "",
          "type": "bytes32"
        }
      ],
      "stateMutability": "view",
      "type": "function",
      "constant": true
    },
    {
      "inputs": [],
      "name": "PAUSER_ROLE",
      "outputs": [
        {
          "internalType": "bytes32",
          "name": "",
          "type": "bytes32"
        }
      ],
      "stateMutability": "view",
      "type": "function",
      "constant": true
    },
    {
      "inputs": [
        {
          "internalType": "bytes32",
          "name": "role",
          "type": "bytes32"
        }
      ],
      "name": "getRoleAdmin",
      "outputs": [
        {
          "internalType": "bytes32",
          "name": "",
          "type": "bytes32"
        }
      ],
      "stateMutability": "view",
      "type": "function",
      "constant": true
    },
    {
      "inputs": [
        {
          "internalType": "bytes32",
          "name": "role",
          "type": "bytes32"
        },
        {
          "internalType": "uint256",
          "name": "index",
          "type": "uint256"
        }
      ],
      "name": "getRoleMember",
      "outputs": [
        {
          "internalType": "address",
          "name": "",
          "type": "address"
        }
      ],
      "stateMutability": "view",
      "type": "function",
      "constant": true
    },
    {
      "inputs": [
        {
          "internalType": "bytes32",
          "name": "role",
          "type": "bytes32"
        }
      ],
      "name": "getRoleMemberCount",
      "outputs": [
        {
          "internalType": "uint256",
          "name": "",
          "type": "uint256"
        }
      ],
      "stateMutability": "view",
      "type": "function",
      "constant": true
    },
    {
      "inputs": [
        {
          "internalType": "bytes32",
          "name": "role",
          "type": "bytes32"
        },
        {
          "internalType": "address",
          "name": "account",
          "type": "address"
        }
      ],
      "name": "grantRole",
      "outputs": [],
      "stateMutability": "nonpayable",
      "type": "function"
    },
    {
      "inputs": [
        {
          "internalType": "bytes32",
          "name": "role",
          "type": "bytes32"
        },
        {
          "internalType": "address",
          "name": "account",
          "type": "address"
        }
      ],
      "name": "hasRole",
      "outputs": [
        {
          "internalType": "bool",
          "name": "",
          "type": "bool"
        }
      ],
      "stateMutability": "view",
      "type": "function",
      "constant": true
    },
    {
      "inputs": [],
      "name": "paused",
      "outputs": [
        {
          "internalType": "bool",
          "name": "",
          "type": "bool"
        }
      ],
      "stateMutability": "view",
      "type": "function",
      "constant": true
    },
    {
      "inputs": [
        {
          "internalType": "bytes32",
          "name": "role",
          "type": "bytes32"
        },
        {
          "internalType": "address",
          "name": "account",
          "type": "address"
        }
      ],
      "name": "renounceRole",
      "outputs": [],
      "stateMutability": "nonpayable",
      "type": "function"
    },
    {
      "inputs": [
        {
          "internalType": "bytes32",
          "name": "role",
          "type": "bytes32"
        },
        {
          "internalType": "address",
          "name": "account",
          "type": "address"
        }
      ],
      "name": "revokeRole",
      "outputs": [],
      "stateMutability": "nonpayable",
      "type": "function"
    },
    {
      "inputs": [],
      "name": "pause",
      "outputs": [],
      "stateMutability": "nonpayable",
      "type": "function"
    },
    {
      "inputs": [],
      "name": "unpause",
      "outputs": [],
      "stateMutability": "nonpayable",
      "type": "function"
    },
    {
      "inputs": [
        {
          "internalType": "bytes32",
          "name": "storeKeyHash",
          "type": "bytes32"
        },
        {
          "internalType": "address",
          "name": "ownerAddr",
          "type": "address"
        },
        {
          "internalType": "uint256",
          "name": "fileSize",
          "type": "uint256"
        },
        {
          "internalType": "string",
          "name": "fileExt",
          "type": "string"
        },
        {
          "internalType": "bytes32",
          "name": "minerId",
          "type": "bytes32"
        },
        {
          "internalType": "bytes32",
          "name": "headHash",
          "type": "bytes32"
        },
        {
          "internalType": "bytes32",
          "name": "bodyHash",
          "type": "bytes32"
        },
        {
          "internalType": "uint256",
          "name": "operTime",
          "type": "uint256"
        },
        {
          "internalType": "uint256",
          "name": "fileCost",
          "type": "uint256"
        }
      ],
      "name": "createFileStoreInfo4Entire",
      "outputs": [],
      "stateMutability": "nonpayable",
      "type": "function"
    },
    {
      "inputs": [
        {
          "internalType": "bytes32",
          "name": "oriHash",
          "type": "bytes32"
        },
        {
          "internalType": "address",
          "name": "ownerAddr",
          "type": "address"
        },
        {
          "internalType": "uint256",
          "name": "fileSize",
          "type": "uint256"
        },
        {
          "internalType": "string",
          "name": "fileExt",
          "type": "string"
        },
        {
          "internalType": "bytes32",
          "name": "minerId",
          "type": "bytes32"
        },
        {
          "internalType": "bytes32",
          "name": "headHash",
          "type": "bytes32"
        },
        {
          "internalType": "bytes32",
          "name": "bodyHash",
          "type": "bytes32"
        },
        {
          "internalType": "uint256",
          "name": "operTime",
          "type": "uint256"
        },
        {
          "internalType": "uint256",
          "name": "fileCost",
          "type": "uint256"
        }
      ],
      "name": "createFileStoreInfo",
      "outputs": [],
      "stateMutability": "nonpayable",
      "type": "function"
    },
    {
      "inputs": [
        {
          "internalType": "bytes32",
          "name": "storeKeyHash",
          "type": "bytes32"
        },
        {
          "internalType": "address",
          "name": "minerAddr",
          "type": "address"
        },
        {
          "internalType": "bool",
          "name": "headFlag",
          "type": "bool"
        },
        {
          "internalType": "string",
          "name": "cid",
          "type": "string"
        },
        {
          "internalType": "uint8",
          "name": "status",
          "type": "uint8"
        },
        {
          "internalType": "uint256",
          "name": "operTime",
          "type": "uint256"
        }
      ],
      "name": "updateFileStoreInfo4Entire",
      "outputs": [],
      "stateMutability": "nonpayable",
      "type": "function"
    },
    {
      "inputs": [
        {
          "internalType": "bytes32",
          "name": "oriHash",
          "type": "bytes32"
        },
        {
          "internalType": "address",
          "name": "minerAddr",
          "type": "address"
        },
        {
          "internalType": "bool",
          "name": "headFlag",
          "type": "bool"
        },
        {
          "internalType": "string",
          "name": "cid",
          "type": "string"
        },
        {
          "internalType": "uint8",
          "name": "status",
          "type": "uint8"
        },
        {
          "internalType": "uint256",
          "name": "operTime",
          "type": "uint256"
        }
      ],
      "name": "updateFileStoreInfo",
      "outputs": [],
      "stateMutability": "nonpayable",
      "type": "function"
    },
    {
      "inputs": [
        {
          "internalType": "bytes32",
          "name": "storeKeyHash",
          "type": "bytes32"
        },
        {
          "internalType": "address",
          "name": "minerAddr",
          "type": "address"
        }
      ],
      "name": "updateFileCostStatus4Entire",
      "outputs": [],
      "stateMutability": "nonpayable",
      "type": "function"
    },
    {
      "inputs": [
        {
          "internalType": "bytes32",
          "name": "oriHash",
          "type": "bytes32"
        },
        {
          "internalType": "address",
          "name": "minerAddr",
          "type": "address"
        }
      ],
      "name": "updateFileCostStatus",
      "outputs": [],
      "stateMutability": "nonpayable",
      "type": "function"
    },
    {
      "inputs": [
        {
          "internalType": "bytes32",
          "name": "oriHash",
          "type": "bytes32"
        },
        {
          "internalType": "bytes32",
          "name": "minerId",
          "type": "bytes32"
        },
        {
          "internalType": "bool",
          "name": "isLocked",
          "type": "bool"
        },
        {
          "internalType": "bool",
          "name": "isEntireFile",
          "type": "bool"
        }
      ],
      "name": "lockOrUnlock",
      "outputs": [],
      "stateMutability": "nonpayable",
      "type": "function"
    },
    {
      "inputs": [
        {
          "internalType": "bytes32",
          "name": "oriHash",
          "type": "bytes32"
        },
        {
          "internalType": "bytes32",
          "name": "minerId",
          "type": "bytes32"
        },
        {
          "internalType": "enum FileStoreStruct.StorageType",
          "name": "storageType",
          "type": "uint8"
        }
      ],
      "name": "commonCalcStorageFileCost",
      "outputs": [
        {
          "internalType": "uint256",
          "name": "",
          "type": "uint256"
        }
      ],
      "stateMutability": "view",
      "type": "function",
      "constant": true
    },
    {
      "inputs": [
        {
          "internalType": "address",
          "name": "minerAddr",
          "type": "address"
        }
      ],
      "name": "getExpireFile",
      "outputs": [
        {
          "components": [
            {
              "internalType": "bytes32",
              "name": "oriHash",
              "type": "bytes32"
            },
            {
              "internalType": "uint256",
              "name": "index",
              "type": "uint256"
            },
            {
              "internalType": "enum FileStoreStruct.StorageType",
              "name": "storageType",
              "type": "uint8"
            }
          ],
          "internalType": "struct FileStoreStruct.ExpireFile",
          "name": "",
          "type": "tuple"
        }
      ],
      "stateMutability": "view",
      "type": "function",
      "constant": true
    },
    {
      "inputs": [
        {
          "internalType": "address",
          "name": "minerAddr",
          "type": "address"
        }
      ],
      "name": "getExpireFileEntire",
      "outputs": [
        {
          "components": [
            {
              "internalType": "bytes32",
              "name": "oriHash",
              "type": "bytes32"
            },
            {
              "internalType": "uint256",
              "name": "index",
              "type": "uint256"
            },
            {
              "internalType": "enum FileStoreStruct.StorageType",
              "name": "storageType",
              "type": "uint8"
            }
          ],
          "internalType": "struct FileStoreStruct.ExpireFile",
          "name": "",
          "type": "tuple"
        }
      ],
      "stateMutability": "view",
      "type": "function",
      "constant": true
    },
    {
      "inputs": [
        {
          "internalType": "address",
          "name": "minerAddr",
          "type": "address"
        },
        {
          "internalType": "bytes32",
          "name": "oriHash",
          "type": "bytes32"
        },
        {
          "internalType": "uint256",
          "name": "index",
          "type": "uint256"
        },
        {
          "internalType": "enum FileStoreStruct.StorageType",
          "name": "storageType",
          "type": "uint8"
        }
      ],
      "name": "updateRemainingFileCost",
      "outputs": [
        {
          "internalType": "uint256",
          "name": "",
          "type": "uint256"
        }
      ],
      "stateMutability": "nonpayable",
      "type": "function"
    },
    {
      "inputs": [
        {
          "internalType": "bytes32",
          "name": "storeKeyHash",
          "type": "bytes32"
        },
        {
          "internalType": "bytes32",
          "name": "minerId",
          "type": "bytes32"
        },
        {
          "internalType": "uint256",
          "name": "fileCost",
          "type": "uint256"
        },
        {
          "internalType": "uint256",
          "name": "fileSize",
          "type": "uint256"
        }
      ],
      "name": "extendFileDeadlineEntire",
      "outputs": [],
      "stateMutability": "nonpayable",
      "type": "function"
    },
    {
      "inputs": [
        {
          "internalType": "bytes32",
          "name": "oriHash",
          "type": "bytes32"
        },
        {
          "internalType": "bytes32",
          "name": "minerId",
          "type": "bytes32"
        },
        {
          "internalType": "uint256",
          "name": "fileCost",
          "type": "uint256"
        },
        {
          "internalType": "uint256",
          "name": "fileSize",
          "type": "uint256"
        }
      ],
      "name": "extendFileDeadline",
      "outputs": [],
      "stateMutability": "nonpayable",
      "type": "function"
    },
    {
      "inputs": [
        {
          "internalType": "uint256",
          "name": "threshold",
          "type": "uint256"
        }
      ],
      "name": "updateWithdrawThreshold",
      "outputs": [],
      "stateMutability": "nonpayable",
      "type": "function"
    },
    {
      "inputs": [
        {
          "internalType": "bytes32",
          "name": "oriHash",
          "type": "bytes32"
        },
        {
          "internalType": "address",
          "name": "ownerAddr",
          "type": "address"
        },
        {
          "internalType": "address",
          "name": "dappContractAddr",
          "type": "address"
        },
        {
          "internalType": "uint256",
          "name": "operTime",
          "type": "uint256"
        }
      ],
      "name": "regDappContractAddr",
      "outputs": [],
      "stateMutability": "nonpayable",
      "type": "function"
    },
    {
      "inputs": [
        {
          "internalType": "bytes32",
          "name": "oriHash",
          "type": "bytes32"
        },
        {
          "internalType": "address",
          "name": "ownerAddr",
          "type": "address"
        },
        {
          "internalType": "uint256",
          "name": "operTime",
          "type": "uint256"
        }
      ],
      "name": "transferFileOwner",
      "outputs": [],
      "stateMutability": "nonpayable",
      "type": "function"
    },
    {
      "inputs": [
        {
          "internalType": "bytes32",
          "name": "minerId",
          "type": "bytes32"
        },
        {
          "internalType": "address",
          "name": "minerAddr",
          "type": "address"
        },
        {
          "internalType": "string",
          "name": "publicKey",
          "type": "string"
        },
        {
          "internalType": "string",
          "name": "peerId",
          "type": "string"
        },
        {
          "internalType": "string",
          "name": "peerAddr",
          "type": "string"
        },
        {
          "internalType": "string",
          "name": "proxyAddr",
          "type": "string"
        }
      ],
      "name": "setMinerInfo",
      "outputs": [],
      "stateMutability": "nonpayable",
      "type": "function"
    },
    {
      "inputs": [
        {
          "internalType": "bytes32",
          "name": "oriHash",
          "type": "bytes32"
        },
        {
          "internalType": "bytes32",
          "name": "minerId",
          "type": "bytes32"
        }
      ],
      "name": "isMinerExist",
      "outputs": [
        {
          "internalType": "bool",
          "name": "",
          "type": "bool"
        }
      ],
      "stateMutability": "view",
      "type": "function",
      "constant": true
    },
    {
      "inputs": [
        {
          "internalType": "bytes32",
          "name": "storeKeyHash",
          "type": "bytes32"
        },
        {
          "internalType": "bytes32",
          "name": "minerId",
          "type": "bytes32"
        }
      ],
      "name": "isMinerExist4Entire",
      "outputs": [
        {
          "internalType": "bool",
          "name": "",
          "type": "bool"
        }
      ],
      "stateMutability": "view",
      "type": "function",
      "constant": true
    },
    {
      "inputs": [
        {
          "internalType": "bytes32",
          "name": "storeKeyHash",
          "type": "bytes32"
        }
      ],
      "name": "getBaseInfo4Entire",
      "outputs": [
        {
          "components": [
            {
              "internalType": "bytes32",
              "name": "oriHash",
              "type": "bytes32"
            },
            {
              "internalType": "address",
              "name": "ownerAddr",
              "type": "address"
            },
            {
              "internalType": "uint256",
              "name": "fileSize",
              "type": "uint256"
            },
            {
              "internalType": "string",
              "name": "fileExt",
              "type": "string"
            },
            {
              "internalType": "bytes32[]",
              "name": "miners",
              "type": "bytes32[]"
            },
            {
              "internalType": "address[]",
              "name": "dappContractAddrs",
              "type": "address[]"
            },
            {
              "internalType": "uint256",
              "name": "cDate",
              "type": "uint256"
            },
            {
              "internalType": "uint256",
              "name": "mDate",
              "type": "uint256"
            }
          ],
          "internalType": "struct FileStoreStruct.BaseInfo",
          "name": "",
          "type": "tuple"
        }
      ],
      "stateMutability": "view",
      "type": "function",
      "constant": true
    },
    {
      "inputs": [
        {
          "internalType": "bytes32",
          "name": "oriHash",
          "type": "bytes32"
        }
      ],
      "name": "getBaseInfo",
      "outputs": [
        {
          "components": [
            {
              "internalType": "bytes32",
              "name": "oriHash",
              "type": "bytes32"
            },
            {
              "internalType": "address",
              "name": "ownerAddr",
              "type": "address"
            },
            {
              "internalType": "uint256",
              "name": "fileSize",
              "type": "uint256"
            },
            {
              "internalType": "string",
              "name": "fileExt",
              "type": "string"
            },
            {
              "internalType": "bytes32[]",
              "name": "miners",
              "type": "bytes32[]"
            },
            {
              "internalType": "address[]",
              "name": "dappContractAddrs",
              "type": "address[]"
            },
            {
              "internalType": "uint256",
              "name": "cDate",
              "type": "uint256"
            },
            {
              "internalType": "uint256",
              "name": "mDate",
              "type": "uint256"
            }
          ],
          "internalType": "struct FileStoreStruct.BaseInfo",
          "name": "",
          "type": "tuple"
        }
      ],
      "stateMutability": "view",
      "type": "function",
      "constant": true
    },
    {
      "inputs": [
        {
          "internalType": "bytes32",
          "name": "storeKeyHash",
          "type": "bytes32"
        },
        {
          "internalType": "bytes32",
          "name": "minerId",
          "type": "bytes32"
        }
      ],
      "name": "getFileInfo4Entire",
      "outputs": [
        {
          "components": [
            {
              "internalType": "uint256",
              "name": "headStatus",
              "type": "uint256"
            },
            {
              "internalType": "bytes32",
              "name": "headHash",
              "type": "bytes32"
            },
            {
              "internalType": "string",
              "name": "headCid",
              "type": "string"
            },
            {
              "internalType": "uint256",
              "name": "bodyStatus",
              "type": "uint256"
            },
            {
              "internalType": "bytes32",
              "name": "bodyHash",
              "type": "bytes32"
            },
            {
              "internalType": "string",
              "name": "bodyCid",
              "type": "string"
            },
            {
              "internalType": "uint256",
              "name": "fileCost",
              "type": "uint256"
            },
            {
              "internalType": "enum FileStoreStruct.Status",
              "name": "fileCostStatus",
              "type": "uint8"
            },
            {
              "internalType": "uint256",
              "name": "cDate",
              "type": "uint256"
            },
            {
              "internalType": "uint256",
              "name": "mDate",
              "type": "uint256"
            },
            {
              "internalType": "uint256",
              "name": "eDate",
              "type": "uint256"
            }
          ],
          "internalType": "struct FileStoreStruct.FileInfo",
          "name": "",
          "type": "tuple"
        }
      ],
      "stateMutability": "view",
      "type": "function",
      "constant": true
    },
    {
      "inputs": [
        {
          "internalType": "bytes32",
          "name": "oriHash",
          "type": "bytes32"
        },
        {
          "internalType": "bytes32",
          "name": "minerId",
          "type": "bytes32"
        }
      ],
      "name": "getFileInfo",
      "outputs": [
        {
          "components": [
            {
              "internalType": "uint256",
              "name": "headStatus",
              "type": "uint256"
            },
            {
              "internalType": "bytes32",
              "name": "headHash",
              "type": "bytes32"
            },
            {
              "internalType": "string",
              "name": "headCid",
              "type": "string"
            },
            {
              "internalType": "uint256",
              "name": "bodyStatus",
              "type": "uint256"
            },
            {
              "internalType": "bytes32",
              "name": "bodyHash",
              "type": "bytes32"
            },
            {
              "internalType": "string",
              "name": "bodyCid",
              "type": "string"
            },
            {
              "internalType": "uint256",
              "name": "fileCost",
              "type": "uint256"
            },
            {
              "internalType": "enum FileStoreStruct.Status",
              "name": "fileCostStatus",
              "type": "uint8"
            },
            {
              "internalType": "uint256",
              "name": "cDate",
              "type": "uint256"
            },
            {
              "internalType": "uint256",
              "name": "mDate",
              "type": "uint256"
            },
            {
              "internalType": "uint256",
              "name": "eDate",
              "type": "uint256"
            }
          ],
          "internalType": "struct FileStoreStruct.FileInfo",
          "name": "",
          "type": "tuple"
        }
      ],
      "stateMutability": "view",
      "type": "function",
      "constant": true
    },
    {
      "inputs": [
        {
          "internalType": "bytes32",
          "name": "minerId",
          "type": "bytes32"
        }
      ],
      "name": "getMinerInfoByMinerId",
      "outputs": [
        {
          "components": [
            {
              "internalType": "address",
              "name": "minerAddr",
              "type": "address"
            },
            {
              "internalType": "string",
              "name": "publicKey",
              "type": "string"
            },
            {
              "internalType": "string",
              "name": "peerId",
              "type": "string"
            },
            {
              "internalType": "string",
              "name": "peerAddr",
              "type": "string"
            },
            {
              "internalType": "string",
              "name": "proxyAddr",
              "type": "string"
            }
          ],
          "internalType": "struct FileStoreStruct.MinerInfo",
          "name": "",
          "type": "tuple"
        }
      ],
      "stateMutability": "view",
      "type": "function",
      "constant": true
    },
    {
      "inputs": [
        {
          "internalType": "address",
          "name": "minerAddr",
          "type": "address"
        }
      ],
      "name": "getMinerId",
      "outputs": [
        {
          "internalType": "bytes32",
          "name": "",
          "type": "bytes32"
        }
      ],
      "stateMutability": "view",
      "type": "function",
      "constant": true
    },
    {
      "inputs": [
        {
          "internalType": "address",
          "name": "minerAddr",
          "type": "address"
        }
      ],
      "name": "getMinerInfoByMinerAddr",
      "outputs": [
        {
          "components": [
            {
              "internalType": "address",
              "name": "minerAddr",
              "type": "address"
            },
            {
              "internalType": "string",
              "name": "publicKey",
              "type": "string"
            },
            {
              "internalType": "string",
              "name": "peerId",
              "type": "string"
            },
            {
              "internalType": "string",
              "name": "peerAddr",
              "type": "string"
            },
            {
              "internalType": "string",
              "name": "proxyAddr",
              "type": "string"
            }
          ],
          "internalType": "struct FileStoreStruct.MinerInfo",
          "name": "",
          "type": "tuple"
        }
      ],
      "stateMutability": "view",
      "type": "function",
      "constant": true
    },
    {
      "inputs": [
        {
          "internalType": "bytes32",
          "name": "storeKeyHash",
          "type": "bytes32"
        }
      ],
      "name": "getStoreMiners4Entire",
      "outputs": [
        {
          "internalType": "bytes32[]",
          "name": "",
          "type": "bytes32[]"
        }
      ],
      "stateMutability": "view",
      "type": "function",
      "constant": true
    },
    {
      "inputs": [
        {
          "internalType": "bytes32",
          "name": "oriHash",
          "type": "bytes32"
        }
      ],
      "name": "getStoreMiners",
      "outputs": [
        {
          "internalType": "bytes32[]",
          "name": "",
          "type": "bytes32[]"
        }
      ],
      "stateMutability": "view",
      "type": "function",
      "constant": true
    }
  ],
  "bytecode": "0x608060405260038054600160a060020a0319166130021790553480156200002557600080fd5b506000805460ff1916905560405162000073906200004390620001d2565b60405180910390206200006462000097640100000000026401000000009004565b6401000000006200009b810204565b6200008c60006200006464010000000062000097810204565b601e600255620001fb565b3390565b620000b08282640100000000620000b4810204565b5050565b6000828152600160205260409020620000dc9082640100000000620038206200013982021704565b15620000b057620000f564010000000062000097810204565b600160a060020a031681600160a060020a0316837f2f8788117e7eff1d82e926ec794901d17c78024a50270940304540a733656f0d60405160405180910390a45050565b60006200015983600160a060020a03841664010000000062000162810204565b90505b92915050565b6000620001798383640100000000620001ba810204565b620001b1575081546001818101845560008481526020808220909301849055845484825282860190935260409020919091556200015c565b5060006200015c565b60009081526001919091016020526040902054151590565b7f5041555345525f524f4c450000000000000000000000000000000000000000008152600b0190565b61508b806200020b6000396000f3fe608060405234801561001057600080fd5b5060043610610264576000357c010000000000000000000000000000000000000000000000000000000090048063802af5f011610158578063b603c7d2116100d5578063d547741f11610099578063d547741f14610549578063dee93d451461055c578063e20b62381461056f578063e2dea71514610582578063e63ab1e91461059557610264565b8063b603c7d2146104ea578063bd816ace146104fd578063bfb358e014610510578063ca15c87314610523578063d1ba31511461053657610264565b806390b4b2bd1161011c57806390b4b2bd1461049657806391d14854146104a957806398b05cb2146104bc578063a1202096146104cf578063a217fddf146104e257610264565b8063802af5f0146104285780638456cb591461044857806385d05864146104505780638608301d146104635780639010d07c1461047657610264565b80633f4ba83a116101e657806368d88056116101aa57806368d88056146103bc5780637015d393146103cf5780637733d418146103e257806378f86fe8146104025780637d7a51fb1461041557610264565b80633f4ba83a14610373578063497b5a181461037b5780634dd5e92a1461038e57806357e2c3e2146103a15780635c975abb146103b457610264565b8063248a9ca31161022d578063248a9ca3146103075780632f2ff15d1461032757806336568abe1461033a578063397a10a91461034d5780633efb514b1461036057610264565b806242088514610269578063028092cb1461027e5780631963f43e146102a75780631cbfefe6146102c757806323847afb146102e7575b600080fd5b61027c610277366004613ea1565b61059d565b005b61029161028c366004613c72565b61069c565b60405161029e9190614fab565b60405180910390f35b6102ba6102b5366004613f33565b610927565b60405161029e919061412b565b6102da6102d5366004613c10565b610af3565b60405161029e9190614eca565b6102fa6102f5366004613c72565b610bb1565b60405161029e9190614e28565b61031a610315366004613c72565b610d75565b60405161029e9190614136565b61027c610335366004613c8a565b610d8a565b61027c610348366004613c8a565b610dd5565b6102ba61035b366004613f33565b610e1a565b61027c61036e366004613c8a565b610eca565b61027c610f67565b61027c610389366004613cfe565b610faf565b61027c61039c366004613ea1565b61105f565b61031a6103af366004613f9d565b61112a565b6102ba6112a6565b61027c6103ca366004613fd2565b6112b0565b6102da6103dd366004613c10565b611464565b6103f56103f0366004613f33565b61151b565b60405161029e9190614ef9565b610291610410366004613c10565b6116f6565b6103f5610423366004613f33565b611a20565b61043b610436366004613c72565b611aba565b60405161029e9190614118565b61027c611ca7565b61027c61045e366004613cfe565b611cdd565b61027c610471366004613c72565b611d83565b610489610484366004613f33565b611db0565b60405161029e9190614104565b61027c6104a4366004613e6c565b611dce565b6102ba6104b7366004613c8a565b611eb7565b6102fa6104ca366004613c72565b611ed5565b61027c6104dd366004613c8a565b611f8b565b61031a612022565b61027c6104f8366004613f54565b612027565b61043b61050b366004613c72565b6121ae565b61031a61051e366004613c2b565b6121e6565b61031a610531366004613c72565b6124a6565b61027c610544366004613d90565b6124bd565b61027c610557366004613c8a565b612781565b61027c61056a366004613fd2565b6127be565b61027c61057d366004613cb9565b61294a565b61031a610590366004613c10565b612a66565b61031a612aad565b6105a56112a6565b156105ce5760405160e560020a62461bcd0281526004016105c590614879565b60405180910390fd5b896105ee5760405160e560020a62461bcd0281526004016105c590614ca3565b8361060e5760405160e560020a62461bcd0281526004016105c5906149d8565b8261062e5760405160e560020a62461bcd0281526004016105c590614605565b6000600460008c8152602001908152602001600020905061068f818c8c8c8c8c8080601f0160208091040260200160405190810160405280939291908181526020018383808284376000920191909152508e92508d91508c90508b8b612ac4565b5050505050505050505050565b6106a46139be565b600082815260066020908152604091829020825160a0810184528154600160a060020a03168152600180830180548651600261010094831615949094026000190190911692909204601f810186900486028301860190965285825291949293858101939192919083018282801561075c5780601f106107315761010080835404028352916020019161075c565b820191906000526020600020905b81548152906001019060200180831161073f57829003601f168201915b5050509183525050600282810180546040805160206001841615610100026000190190931694909404601f810183900483028501830190915280845293810193908301828280156107ee5780601f106107c3576101008083540402835291602001916107ee565b820191906000526020600020905b8154815290600101906020018083116107d157829003601f168201915b505050918352505060038201805460408051602060026001851615610100026000190190941693909304601f81018490048402820184019092528181529382019392918301828280156108825780601f1061085757610100808354040283529160200191610882565b820191906000526020600020905b81548152906001019060200180831161086557829003601f168201915b505050918352505060048201805460408051602060026001851615610100026000190190941693909304601f81018490048402820184019092528181529382019392918301828280156109165780601f106108eb57610100808354040283529160200191610916565b820191906000526020600020905b8154815290600101906020018083116108f957829003601f168201915b50505050508152505090505b919050565b60006109316139f6565b6000848152600460209081526040918290208251610120810184528154818401908152600180840154600160a060020a031683870152600280850154606085015260038501805488516101009482161594909402600019011691909104601f810187900487028301870190975286825292959394869492938693608087019392830182828015610a025780601f106109d757610100808354040283529160200191610a02565b820191906000526020600020905b8154815290600101906020018083116109e557829003601f168201915b5050505050815260200160048201805480602002602001604051908101604052809291908181526020018280548015610a5a57602002820191906000526020600020905b815481526020019060010190808311610a46575b5050505050815260200160058201805480602002602001604051908101604052809291908181526020018280548015610abc57602002820191906000526020600020905b8154600160a060020a03168152600190910190602001808311610a9e575b5050505050815260200160068201548152602001600782015481525050815250509050610ae98184612ffa565b9150505b92915050565b610afb613a0e565b610b036112a6565b15610b235760405160e560020a62461bcd0281526004016105c590614879565b600160a060020a038216610b4c5760405160e560020a62461bcd0281526004016105c590614a6c565b600160a060020a03821660009081526007602052604090205480610b855760405160e560020a62461bcd0281526004016105c590614671565b600160a060020a0383166000908152600960205260409020610baa9082906001613060565b9392505050565b610bb9613a2e565b610bc16139f6565b6000838152600460209081526040918290208251610120810184528154818401908152600180840154600160a060020a031683870152600280850154606085015260038501805488516101009482161594909402600019011691909104601f810187900487028301870190975286825292959394869492938693608087019392830182828015610c925780601f10610c6757610100808354040283529160200191610c92565b820191906000526020600020905b815481529060010190602001808311610c7557829003601f168201915b5050505050815260200160048201805480602002602001604051908101604052809291908181526020018280548015610cea57602002820191906000526020600020905b815481526020019060010190808311610cd6575b5050505050815260200160058201805480602002602001604051908101604052809291908181526020018280548015610d4c57602002820191906000526020600020905b8154600160a060020a03168152600190910190602001808311610d2e575b505050918352505060068201546020820152600790910154604090910152905250519392505050565b60009081526001602052604090206002015490565b600082815260016020526040902060020154610da8906104b76131bc565b610dc75760405160e560020a62461bcd0281526004016105c590614256565b610dd182826131c0565b5050565b610ddd6131bc565b600160a060020a031681600160a060020a031614610e105760405160e560020a62461bcd0281526004016105c590614dcb565b610dd1828261322f565b6000610e246139f6565b6000848152600560209081526040918290208251610120810184528154818401908152600180840154600160a060020a031683870152600280850154606085015260038501805488516101009482161594909402600019011691909104601f810187900487028301870190975286825292959394869492938693608087019392830182828015610a025780601f106109d757610100808354040283529160200191610a02565b610ed26112a6565b15610ef25760405160e560020a62461bcd0281526004016105c590614879565b81610f125760405160e560020a62461bcd0281526004016105c590614ca3565b600082815260046020526040812090610f2d8284600261329e565b90508015610f6157600160a060020a0383166000908152600860209081526040822080546001810182559083529120018490555b50505050565b610f86604051610f76906140db565b60405180910390206104b76131bc565b610fa55760405160e560020a62461bcd0281526004016105c5906142ea565b610fad613438565b565b610fb76112a6565b15610fd75760405160e560020a62461bcd0281526004016105c590614879565b86610ff75760405160e560020a62461bcd0281526004016105c590614438565b60006005600089815260200190815260200160002090506110558189898989898080601f0160208091040260200160405190810160405280939291908181526020018383808284376000920191909152508b92508a91506134a99050565b5050505050505050565b6110676112a6565b156110875760405160e560020a62461bcd0281526004016105c590614879565b896110a75760405160e560020a62461bcd0281526004016105c590614438565b8383146110c95760405160e560020a62461bcd0281526004016105c590614c6c565b6000600560008c8152602001908152602001600020905061068f818c8c8c8c8c8080601f0160208091040260200160405190810160405280939291908181526020018383808284376000920191909152508e92508d91508c90508b8b612ac4565b60006111346112a6565b156111545760405160e560020a62461bcd0281526004016105c590614879565b836111745760405160e560020a62461bcd0281526004016105c590614ca3565b826111945760405160e560020a62461bcd0281526004016105c590614c00565b60008060028460028111156111a557fe5b14156111ce576000868152600460209081526040808320888452600801909152902091506111ed565b6000868152600560209081526040808320888452600801909152902091505b60008260060154116112145760405160e560020a62461bcd0281526004016105c59061463c565b6000600783015460ff16600481111561122957fe5b148015611282575081546001148015611246575081600301546001145b801561125d5750600284600281111561125b57fe5b145b806112825750600184600281111561127157fe5b148015611282575081600301546001145b1561129d5760646002548360060154028161129957fe5b0490505b95945050505050565b60005460ff165b90565b6112b86112a6565b156112d85760405160e560020a62461bcd0281526004016105c590614879565b836112f85760405160e560020a62461bcd0281526004016105c590614438565b600083815260066020908152604091829020600180820180548551600293821615610100026000190190911692909204601f810185900485028301850190955284825291936060939192918301828280156113945780601f1061136957610100808354040283529160200191611394565b820191906000526020600020905b81548152906001019060200180831161137757829003601f168201915b5050505050905060008151116113bf5760405160e560020a62461bcd0281526004016105c590614503565b81546000878152600560205260409020600160a060020a03909116906113e9818860018989613625565b600160a060020a038216600090815260096020526040812090805b825481101561143c5782818154811061141957fe5b90600052602060002001548b1415611434576001915061143c565b600101611404565b5080611458578154600181018355600083815260209020018a90555b50505050505050505050565b61146c613a0e565b6114746112a6565b156114945760405160e560020a62461bcd0281526004016105c590614879565b600160a060020a0382166114bd5760405160e560020a62461bcd0281526004016105c590614a6c565b600160a060020a038216600090815260076020526040902054806114f65760405160e560020a62461bcd0281526004016105c590614671565b600160a060020a0383166000908152600860205260409020610baa9082906002613060565b611523613a7f565b60008381526004602090815260408083208584526008810183529281902081516101608101835281548152600180830154828601526002808401805486519381161561010002600019011691909104601f8101879004870283018701865280835292959394860193919290918301828280156115e05780601f106115b5576101008083540402835291602001916115e0565b820191906000526020600020905b8154815290600101906020018083116115c357829003601f168201915b505050505081526020016003820154815260200160048201548152602001600582018054600181600116156101000203166002900480601f0160208091040260200160405190810160405280929190818152602001828054600181600116156101000203166002900480156116965780601f1061166b57610100808354040283529160200191611696565b820191906000526020600020905b81548152906001019060200180831161167957829003601f168201915b505050918352505060068201546020820152600782015460409091019060ff1660048111156116c157fe5b60048111156116cc57fe5b81526008820154602082015260098201546040820152600a90910154606090910152949350505050565b6116fe6139be565b600160a060020a0382166117275760405160e560020a62461bcd0281526004016105c590614a6c565b600160a060020a0382166000908152600760205260409020548061179d5750506040805160a0810182526000808252825160208181018552828252808401919091528351808201855282815283850152835180820185528281526060840152835190810190935282526080810191909152610922565b600081815260066020908152604091829020825160a0810184528154600160a060020a03168152600180830180548651600261010094831615949094026000190190911692909204601f81018690048602830186019096528582529194929385810193919291908301828280156118555780601f1061182a57610100808354040283529160200191611855565b820191906000526020600020905b81548152906001019060200180831161183857829003601f168201915b5050509183525050600282810180546040805160206001841615610100026000190190931694909404601f810183900483028501830190915280845293810193908301828280156118e75780601f106118bc576101008083540402835291602001916118e7565b820191906000526020600020905b8154815290600101906020018083116118ca57829003601f168201915b505050918352505060038201805460408051602060026001851615610100026000190190941693909304601f810184900484028201840190925281815293820193929183018282801561197b5780601f106119505761010080835404028352916020019161197b565b820191906000526020600020905b81548152906001019060200180831161195e57829003601f168201915b505050918352505060048201805460408051602060026001851615610100026000190190941693909304601f8101849004840282018401909252818152938201939291830182828015611a0f5780601f106119e457610100808354040283529160200191611a0f565b820191906000526020600020905b8154815290600101906020018083116119f257829003601f168201915b505050505081525050915050919050565b611a28613a7f565b60008381526005602090815260408083208584526008810183529281902081516101608101835281548152600180830154828601526002808401805486519381161561010002600019011691909104601f8101879004870283018701865280835292959394860193919290918301828280156115e05780601f106115b5576101008083540402835291602001916115e0565b606081611adc5760405160e560020a62461bcd0281526004016105c590614ca3565b6000828152600460205260409020611af2613a2e565b60408051610100808201835284548252600180860154600160a060020a0316602080850191909152600280880154858701526003880180548751948116159095026000190190941604601f81018290048202830182019095528482529293869360608601939190830182828015611baa5780601f10611b7f57610100808354040283529160200191611baa565b820191906000526020600020905b815481529060010190602001808311611b8d57829003601f168201915b5050505050815260200160048201805480602002602001604051908101604052809291908181526020018280548015611c0257602002820191906000526020600020905b815481526020019060010190808311611bee575b5050505050815260200160058201805480602002602001604051908101604052809291908181526020018280548015611c6457602002820191906000526020600020905b8154600160a060020a03168152600190910190602001808311611c46575b505050505081526020016006820154815260200160078201548152505090508060c0015160001415611c9c5750606091506109229050565b608001519392505050565b611cb6604051610f76906140db565b611cd55760405160e560020a62461bcd0281526004016105c590614a0f565b610fad613796565b611ce56112a6565b15611d055760405160e560020a62461bcd0281526004016105c590614879565b86611d255760405160e560020a62461bcd0281526004016105c590614ca3565b60006004600089815260200190815260200160002090506110558189898989898080601f0160208091040260200160405190810160405280939291908181526020018383808284376000920191909152508b92508a91506134a99050565b611d8b6112a6565b15611dab5760405160e560020a62461bcd0281526004016105c590614879565b600255565b6000828152600160205260408120610baa908363ffffffff6137f416565b611dd66112a6565b15611df65760405160e560020a62461bcd0281526004016105c590614879565b82611e165760405160e560020a62461bcd0281526004016105c590614ca3565b600160a060020a038216611e3f5760405160e560020a62461bcd0281526004016105c590614b6c565b600083815260046020526040902060068101548190611e735760405160e560020a62461bcd0281526004016105c590614c37565b60018101805473ffffffffffffffffffffffffffffffffffffffff1916600160a060020a038616179055611eab600582016000613aea565b60070191909155505050565b6000828152600160205260408120610baa908363ffffffff61380016565b611edd613a2e565b611ee56139f6565b6000838152600560209081526040918290208251610120810184528154818401908152600180840154600160a060020a031683870152600280850154606085015260038501805488516101009482161594909402600019011691909104601f810187900487028301870190975286825292959394869492938693608087019392830182828015610c925780601f10610c6757610100808354040283529160200191610c92565b611f936112a6565b15611fb35760405160e560020a62461bcd0281526004016105c590614879565b81611fd35760405160e560020a62461bcd0281526004016105c590614438565b600082815260056020526040812090611fee8284600161329e565b90508015610f61575050600160a060020a031660009081526009602090815260408220805460018101825590835291200155565b600081565b61202f6112a6565b1561204f5760405160e560020a62461bcd0281526004016105c590614879565b8361206f5760405160e560020a62461bcd0281526004016105c5906145ce565b8261208f5760405160e560020a62461bcd0281526004016105c590614c00565b6000816120b85750600084815260046020908152604080832086845260080190915290206120d6565b50600084815260056020908152604080832086845260080190915290205b811580156120e5575080546001145b80156120f5575080600301546001145b8061210c575081801561210c575080600301546001145b61212b5760405160e560020a62461bcd0281526004016105c590614347565b6003600782015460ff16600481111561214057fe5b148061215e57506001600782015460ff16600481111561215c57fe5b145b61217d5760405160e560020a62461bcd0281526004016105c5906144a6565b82156121975760078101805460ff191660031790556121a7565b60078101805460ff191660011790555b5050505050565b6060816121d05760405160e560020a62461bcd0281526004016105c590614438565b6000828152600560205260409020611af2613a2e565b60006121f06112a6565b156122105760405160e560020a62461bcd0281526004016105c590614879565b600160a060020a0385166122395760405160e560020a62461bcd0281526004016105c590614a6c565b600182600281111561224757fe5b148061225e5750600282600281111561225c57fe5b145b61227d5760405160e560020a62461bcd0281526004016105c590614788565b600160a060020a038516600090815260076020526040902054806122b65760405160e560020a62461bcd0281526004016105c590614671565b600060028460028111156122c657fe5b14156122ea5750600160a060020a0386166000908152600860205260409020612304565b50600160a060020a03861660009081526009602052604090205b805485106123275760405160e560020a62461bcd0281526004016105c590614933565b80858154811061233357fe5b9060005260206000200154861461235f5760405160e560020a62461bcd0281526004016105c59061472b565b6000600285600281111561236f57fe5b14156123a5576004600083888154811061238557fe5b9060005260206000200154815260200190815260200160002090506123d1565b600560008388815481106123b557fe5b9060005260206000200154815260200190815260200160002090505b600083815260088201602052604090206001600782015460ff1660048111156123f657fe5b148015612406575080600a015442115b6124255760405160e560020a62461bcd0281526004016105c590614d6e565b600681018054600090915560078201805460ff1916600217905583548490600019810190811061245157fe5b906000526020600020015484898154811061246857fe5b90600052602060002001819055508380548061248057fe5b600190038181906000526020600020016000905590558095505050505050949350505050565b6000818152600160205260408120610aed90613815565b6124c56112a6565b156124e55760405160e560020a62461bcd0281526004016105c590614879565b896125055760405160e560020a62461bcd0281526004016105c590614c00565b600160a060020a03891661252e5760405160e560020a62461bcd0281526004016105c590614a6c565b8661254e5760405160e560020a62461bcd0281526004016105c5906146f4565b8461256e5760405160e560020a62461bcd0281526004016105c590614560565b8261258e5760405160e560020a62461bcd0281526004016105c590614597565b806125ae5760405160e560020a62461bcd0281526004016105c590614401565b6040518060a001604052808a600160a060020a0316815260200189898080601f016020809104026020016040519081016040528093929190818152602001838380828437600092019190915250505090825250604080516020601f8a0181900481028201810190925288815291810191908990899081908401838280828437600092019190915250505090825250604080516020601f880181900481028201810190925286815291810191908790879081908401838280828437600092019190915250505090825250604080516020601f86018190048102820181019092528481529181019190859085908190840183828082843760009201829052509390945250508c81526006602090815260409091208351815473ffffffffffffffffffffffffffffffffffffffff1916600160a060020a03909116178155838201518051919350612703926001850192910190613b0b565b506040820151805161271f916002840191602090910190613b0b565b506060820151805161273b916003840191602090910190613b0b565b5060808201518051612757916004840191602090910190613b0b565b505050600160a060020a039098166000908152600760205260409020989098555050505050505050565b60008281526001602052604090206002015461279f906104b76131bc565b610e105760405160e560020a62461bcd0281526004016105c5906147bf565b6127c66112a6565b156127e65760405160e560020a62461bcd0281526004016105c590614879565b836128065760405160e560020a62461bcd0281526004016105c590614ca3565b600083815260066020908152604091829020600180820180548551600293821615610100026000190190911692909204601f810185900485028301850190955284825291936060939192918301828280156128a25780601f10612877576101008083540402835291602001916128a2565b820191906000526020600020905b81548152906001019060200180831161288557829003601f168201915b5050505050905060008151116128cd5760405160e560020a62461bcd0281526004016105c590614503565b81546000878152600460205260409020600160a060020a03909116906128f7818860028989613625565b600160a060020a038216600090815260086020526040812090805b825481101561143c5782818154811061292757fe5b90600052602060002001548b1415612942576001915061143c565b600101612912565b6129526112a6565b156129725760405160e560020a62461bcd0281526004016105c590614879565b836129925760405160e560020a62461bcd0281526004016105c590614ca3565b600160a060020a0383166129bb5760405160e560020a62461bcd0281526004016105c590614cda565b600160a060020a0382166129e45760405160e560020a62461bcd0281526004016105c590614aa3565b600084815260046020526040902060068101548190612a185760405160e560020a62461bcd0281526004016105c590614c37565b6005810180546001810182556000918252602090912001805473ffffffffffffffffffffffffffffffffffffffff1916600160a060020a039590951694909417909355506007909101555050565b6000600160a060020a038216612a915760405160e560020a62461bcd0281526004016105c590614a6c565b50600160a060020a031660009081526007602052604090205490565b604051612ab9906140db565b604051809103902081565b60008711612ae75760405160e560020a62461bcd0281526004016105c5906149a1565b84612b075760405160e560020a62461bcd0281526004016105c590614c00565b60008211612b2a5760405160e560020a62461bcd0281526004016105c590614b35565b600160a060020a038816612b535760405160e560020a62461bcd0281526004016105c590614cda565b60008111612b765760405160e560020a62461bcd0281526004016105c590614bc9565b89612b7f613a7f565b600182015461012c850190600160a060020a0316612c77578b835560018301805473ffffffffffffffffffffffffffffffffffffffff1916600160a060020a038d16179055600283018a90558851612be090600385019060208c0190613b0b565b506006830185905560078301859055600483018054600181018255600091825260208083209091018a905560408051610160810182528381528083018b9052815180840183528481528183015260608101849052608081018a9052815192830190915282825260a081019190915260c081018690529060e08201908152602001868152602001868152602001828152509150612f30565b6001830154600160a060020a038c8116911614612ca95760405160e560020a62461bcd0281526004016105c5906143a4565b6000612e888e6040518060200160405290816000820160405180610100016040529081600082015481526020016001820160009054906101000a9004600160a060020a0316600160a060020a0316600160a060020a0316815260200160028201548152602001600382018054600181600116156101000203166002900480601f016020809104026020016040519081016040528092919081815260200182805460018160011615610100020316600290048015612da75780601f10612d7c57610100808354040283529160200191612da7565b820191906000526020600020905b815481529060010190602001808311612d8a57829003601f168201915b5050505050815260200160048201805480602002602001604051908101604052809291908181526020018280548015612dff57602002820191906000526020600020905b815481526020019060010190808311612deb575b5050505050815260200160058201805480602002602001604051908101604052809291908181526020018280548015612e6157602002820191906000526020600020905b8154600160a060020a03168152600190910190602001808311612e43575b5050505050815260200160068201548152602001600782015481525050815250508a612ffa565b90508015612eab5760405160e560020a62461bcd0281526004016105c59061419c565b600484018054600181018255600091825260208083209091018b905560408051610160810182528381528083018c9052815180840183528481528183015260608101849052608081018b9052815192830190915282825260a081019190915260c081018790529060e08201908152602001878152602001878152602001838152509250505b600088815260088e01602090815260409182902084518155818501516001820155918401518051859392612f6b926002850192910190613b0b565b50606082015160038201556080820151600482015560a08201518051612f9b916005840191602090910190613b0b565b5060c0820151600682015560e082015160078201805460ff19166001836004811115612fc357fe5b02179055506101008201516008820155610120820151600982015561014090910151600a9091015550505050505050505050505050565b6000613004613a2e565b50825160c081015161301a576000915050610aed565b6000805b82608001515181101561305757848360800151828151811061303c57fe5b6020026020010151141561304f57600191505b60010161301e565b50949350505050565b613068613a0e565b6130706112a6565b156130905760405160e560020a62461bcd0281526004016105c590614879565b60005b835481101561319857600060028460028111156130ac57fe5b14156130e257600460008684815481106130c257fe5b90600052602060002001548152602001908152602001600020905061310e565b600560008684815481106130f257fe5b9060005260206000200154815260200190815260200160002090505b600086815260088201602052604090206001600782015460ff16600481111561313357fe5b148015613143575080600a015442115b1561318e57604051806060016040528087858154811061315f57fe5b9060005260206000200154815260200184815260200186600281111561318157fe5b8152509350505050610baa565b5050600101613093565b50604080516060810182526000808252602082018190529091820152949350505050565b3390565b60008281526001602052604090206131de908263ffffffff61382016565b15610dd1576131eb6131bc565b600160a060020a031681600160a060020a0316837f2f8788117e7eff1d82e926ec794901d17c78024a50270940304540a733656f0d60405160405180910390a45050565b600082815260016020526040902061324d908263ffffffff61383516565b15610dd15761325a6131bc565b600160a060020a031681600160a060020a0316837ff6391f5c32d9c69d2a47ea670b442974b53935d1edc7fd64eb21e047a839171b60405160405180910390a45050565b6000600160a060020a0383166132c95760405160e560020a62461bcd0281526004016105c590614a6c565b600160a060020a038316600090815260076020526040902054806133025760405160e560020a62461bcd0281526004016105c5906148b0565b600081815260088087016020526040909120908101546133375760405160e560020a62461bcd0281526004016105c590614d11565b6003600782015460ff16600481111561334c57fe5b141561336d5760405160e560020a62461bcd0281526004016105c59061481c565b6000600782015460ff16600481111561338257fe5b146133a25760405160e560020a62461bcd0281526004016105c590614ad8565b60028460028111156133b057fe5b1480156133be575080546001145b80156133ce575080600301546001145b806133f3575060018460028111156133e257fe5b1480156133f3575080600301546001145b1561342c5760078101805460ff191660011790556002546006820154606491026006909201805491909204900390555060019050610baa565b50600095945050505050565b6134406112a6565b61345f5760405160e560020a62461bcd0281526004016105c5906142b3565b6000805460ff191690557f5db9ee0a495bf2e6ff9c91a7834c1ba4fdd244a5e8aa4e537bd38aeae4b073aa6134926131bc565b60405161349f9190614104565b60405180910390a1565b856134c95760405160e560020a62461bcd0281526004016105c590614ca3565b600160a060020a0385166134f25760405160e560020a62461bcd0281526004016105c590614a6c565b60008351116135165760405160e560020a62461bcd0281526004016105c59061496a565b60008260ff161161353c5760405160e560020a62461bcd0281526004016105c59061446f565b600687015487906135625760405160e560020a62461bcd0281526004016105c590614c37565b6007808201839055600160a060020a03871660009081526020919091526040902054806135a45760405160e560020a62461bcd0281526004016105c5906148b0565b60008181526008808b016020526040909120908101546135d95760405160e560020a62461bcd0281526004016105c590614d11565b6009810184905586156136075760ff8516815585516136019060028301906020890190613b0b565b50611458565b60ff85166003820155855161068f9060058301906020890190613b0b565b6006850154859061364b5760405160e560020a62461bcd0281526004016105c590614c37565b806002015482146136715760405160e560020a62461bcd0281526004016105c5906141f9565b600085815260088088016020526040909120908101546136a65760405160e560020a62461bcd0281526004016105c590614d11565b6003600782015460ff1660048111156136bb57fe5b14156136dc5760405160e560020a62461bcd0281526004016105c59061481c565b60028560028111156136ea57fe5b1480156136f8575080546001145b8015613708575080600301546001145b8061372d5750600185600281111561371c57fe5b14801561372d575080600301546001145b61374c5760405160e560020a62461bcd0281526004016105c590614ad8565b60078101805460ff1916600117905560068101805485019055600a81015442101561378257600a8101805461012c01905561378d565b4261012c01600a8201555b50505050505050565b61379e6112a6565b156137be5760405160e560020a62461bcd0281526004016105c590614879565b6000805460ff191660011790557f62e78cea01bee320cd4e420270b5ea74000d11b0c9f74754ebdbfc544b05a2586134926131bc565b6000610baa838361384a565b6000610baa83600160a060020a038416613892565b6000610aed826138aa565b6000610baa83600160a060020a0384166138ae565b6000610baa83600160a060020a0384166138f8565b815460009082106138705760405160e560020a62461bcd0281526004016105c59061413f565b82600001828154811061387f57fe5b9060005260206000200154905092915050565b60009081526001919091016020526040902054151590565b5490565b60006138ba8383613892565b6138f057508154600181810184556000848152602080822090930184905584548482528286019093526040902091909155610aed565b506000610aed565b600081815260018301602052604081205480156139b4578354600019808301919081019060009087908390811061392b57fe5b906000526020600020015490508087600001848154811061394857fe5b60009182526020808320909101929092558281526001898101909252604090209084019055865487908061397857fe5b60019003818190600052602060002001600090559055866001016000878152602001908152602001600020600090556001945050505050610aed565b6000915050610aed565b6040518060a001604052806000600160a060020a03168152602001606081526020016060815260200160608152602001606081525090565b6040518060200160405280613a09613a2e565b905290565b604080516060810182526000808252602082018190529091820190613a09565b604051806101000160405280600080191681526020016000600160a060020a031681526020016000815260200160608152602001606081526020016060815260200160008152602001600081525090565b6040518061016001604052806000815260200160008019168152602001606081526020016000815260200160008019168152602001606081526020016000815260200160006004811115613acf57fe5b81526020016000815260200160008152602001600081525090565b5080546000825590600052602060002090810190613b089190613b89565b50565b828054600181600116156101000203166002900490600052602060002090601f016020900481019282601f10613b4c57805160ff1916838001178555613b79565b82800160010185558215613b79579182015b82811115613b79578251825591602001919060010190613b5e565b50613b85929150613b89565b5090565b6112ad91905b80821115613b855760008155600101613b8f565b8035600160a060020a0381168114610aed57600080fd5b803560038110610aed57600080fd5b60008083601f840112613bda578182fd5b50813567ffffffffffffffff811115613bf1578182fd5b602083019150836020828501011115613c0957600080fd5b9250929050565b600060208284031215613c21578081fd5b610baa8383613ba3565b60008060008060808587031215613c40578283fd5b613c4a8686613ba3565b93506020850135925060408501359150613c678660608701613bba565b905092959194509250565b600060208284031215613c83578081fd5b5035919050565b60008060408385031215613c9c578182fd5b823591506020830135613cae81615032565b809150509250929050565b60008060008060808587031215613cce578384fd5b84359350613cdf8660208701613ba3565b9250613cee8660408701613ba3565b9396929550929360600135925050565b600080600080600080600060c0888a031215613d18578283fd5b87359650613d298960208a01613ba3565b95506040880135613d3981615047565b9450606088013567ffffffffffffffff811115613d54578384fd5b613d608a828b01613bc9565b909550935050608088013560ff81168114613d79578283fd5b8092505060a0880135905092959891949750929550565b60008060008060008060008060008060c08b8d031215613dae578283fd5b8a359950613dbf8c60208d01613ba3565b985060408b013567ffffffffffffffff80821115613ddb578485fd5b613de78e838f01613bc9565b909a50985060608d0135915080821115613dff578485fd5b613e0b8e838f01613bc9565b909850965060808d0135915080821115613e23578485fd5b613e2f8e838f01613bc9565b909650945060a08d0135915080821115613e47578384fd5b50613e548d828e01613bc9565b8194508093505050509295989b9194979a5092959850565b600080600060608486031215613e80578283fd5b83359250613e918560208601613ba3565b9150604084013590509250925092565b6000806000806000806000806000806101208b8d031215613ec0578586fd5b8a35995060208b0135613ed281615032565b985060408b0135975060608b013567ffffffffffffffff811115613ef4578687fd5b613f008d828e01613bc9565b9b9e9a9d50989b989a9960808a01359960a0810135995060c0810135985060e08101359750610100013595509350505050565b60008060408385031215613f45578182fd5b50508035926020909101359150565b60008060008060808587031215613f69578182fd5b84359350602085013592506040850135613f8281615047565b91506060850135613f9281615047565b939692955090935050565b600080600060608486031215613fb1578081fd5b8335925060208401359150613fc98560408601613bba565b90509250925092565b60008060008060808587031215613fe7578182fd5b5050823594602084013594506040840135936060013592509050565b600160a060020a03169052565b6000815180845260208085019450808401835b83811015614048578151600160a060020a031687529582019590820190600101614023565b509495945050505050565b6000815180845260208085019450808401835b8381101561404857815187529582019590820190600101614066565b6005811061408c57fe5b9052565b60008151808452815b818110156140b557602081850181015186830182015201614099565b818111156140c65782602083870101525b50601f01601f19169290920160200192915050565b7f5041555345525f524f4c450000000000000000000000000000000000000000008152600b0190565b600160a060020a0391909116815260200190565b600060208252610baa6020830184614053565b901515815260200190565b90815260200190565b60208082526022908201527f456e756d657261626c655365743a20696e646578206f7574206f6620626f756e60408201527f6473000000000000000000000000000000000000000000000000000000000000606082015260800190565b60208082526031908201527f746865206d696e6572207761732073656c6563746564206265666f72652c207060408201527f6c65617365206368616e6765206f6e6521000000000000000000000000000000606082015260800190565b60208082526034908201527f7468652066696c6553697a65206973206e6f7420657175616c20746f2074686560408201527f2070726576696f75732073746f72652066696c65000000000000000000000000606082015260800190565b6020808252602f908201527f416363657373436f6e74726f6c3a2073656e646572206d75737420626520616e60408201527f2061646d696e20746f206772616e740000000000000000000000000000000000606082015260800190565b60208082526014908201527f5061757361626c653a206e6f7420706175736564000000000000000000000000604082015260600190565b60208082526032908201527f46696c6553746f726553746f726167653a206d7573742068617665207061757360408201527f657220726f6c6520746f20756e70617573650000000000000000000000000000606082015260800190565b60208082526035908201527f746865206f7065726174696f6e206973206e6f7420616c6c6f772c2066696c6560408201527f2073746f726520697320696e2070726f67726573730000000000000000000000606082015260800190565b60208082526031908201527f5468652073616d65206f72694861736820697320616c7265616479207573656460408201527f20627920616e6f7468657220757365722e000000000000000000000000000000606082015260800190565b60208082526019908201527f70726f7879416464722063616e6e6f7420626520656d70747900000000000000604082015260600190565b6020808252601d908201527f73746f72654b657948617368202063616e6e6f7420626520656d707479000000604082015260600190565b6020808252601e908201527f737461747573206d7573742062652067726561746572207468616e20302e0000604082015260600190565b60208082526035908201527f63616e2774206c6f636b206f7220756e6c6f636b2c207468652063757272656e60408201527f7420737461747573206973206e6f7420616c6c6f770000000000000000000000606082015260800190565b60208082526025908201527f546865206d696e657220796f752073656c656374656420646f6573206e6f742060408201527f6578697374000000000000000000000000000000000000000000000000000000606082015260800190565b60208082526016908201527f7065657249642063616e6e6f7420626520656d70747900000000000000000000604082015260600190565b60208082526018908201527f70656572416464722063616e6e6f7420626520656d7074790000000000000000604082015260600190565b60208082526017908201527f6f7269486173682063616e6e6f7420626520656d707479000000000000000000604082015260600190565b60208082526018908201527f626f6479486173682063616e6e6f7420626520656d7074790000000000000000604082015260600190565b6020808252818101527f66696c6520636f7374206d7573742067726561746572207468616e207a65726f604082015260600190565b60208082526043908201527f746865206f7065726174696f6e206973206e6f7420616c6c6f772c207468652060408201527f6d696e657220646f65736e277420726567697374657220696e2074686520636860608201527f61696e0000000000000000000000000000000000000000000000000000000000608082015260a00190565b60208082526019908201527f7075626c69634b65792063616e6e6f7420626520656d70747900000000000000604082015260600190565b6020808252602d908201527f746865206f726948617368206973206e6f7420657175616c20746f207468652060408201527f417272617920496e646578277300000000000000000000000000000000000000606082015260800190565b60208082526016908201527f73746f726167655479706520697320696e76616c696400000000000000000000604082015260600190565b60208082526030908201527f416363657373436f6e74726f6c3a2073656e646572206d75737420626520616e60408201527f2061646d696e20746f207265766f6b6500000000000000000000000000000000606082015260800190565b60208082526027908201527f66696c65206c6f636b65642c20746865206f7065726174696f6e206973206e6f60408201527f7420616c6c6f7700000000000000000000000000000000000000000000000000606082015260800190565b60208082526010908201527f5061757361626c653a2070617573656400000000000000000000000000000000604082015260600190565b60208082526058908201527f596f752068617665206e6f74207265676973746572656420696e666f726d617460408201527f696f6e20746f2074686520636861696e204f5220596f7520646f206e6f74206860608201527f617665207065726d697373696f6e20746f207570646174650000000000000000608082015260a00190565b6020808252600c908201527f6f7574206f662061727261790000000000000000000000000000000000000000604082015260600190565b60208082526014908201527f636964202063616e6e6f7420626520656d707479000000000000000000000000604082015260600190565b6020808252601d908201527f66696c6553697a65206d7573742067726561746572207468616e20302e000000604082015260600190565b60208082526018908201527f68656164486173682063616e6e6f7420626520656d7074790000000000000000604082015260600190565b60208082526030908201527f46696c6553746f726553746f726167653a206d7573742068617665207061757360408201527f657220726f6c6520746f20706175736500000000000000000000000000000000606082015260800190565b60208082526019908201527f6d696e6572416464722063616e6e6f7420626520656d70747900000000000000604082015260600190565b6020808252818101527f64617070436f6e7472616374416464722063616e6e6f7420626520656d707479604082015260600190565b6020808252602c908201527f746865206f7065726174696f6e206973206e6f7420616c6c6f7720696e20637560408201527f7272656e74207374617475730000000000000000000000000000000000000000606082015260800190565b60208082526018908201527f6f70657254696d652063616e6e6f7420626520656d7074790000000000000000604082015260600190565b60208082526021908201527f746865206e6577206f776e6572416464722063616e6e6f7420626520656d707460408201527f7900000000000000000000000000000000000000000000000000000000000000606082015260800190565b6020808252601d908201527f66696c65436f7374206d7573742067726561746572207468616e20302e000000604082015260600190565b60208082526017908201527f6d696e657249642063616e6e6f7420626520656d707479000000000000000000604082015260600190565b6020808252818101527f5468652066696c652073746f7261676520696e666f206e6f7420666f756e642e604082015260600190565b6020808252601d908201527f626f647948617368206d75737420657175616c73206865616448617368000000604082015260600190565b60208082526018908201527f6f726948617368202063616e6e6f7420626520656d7074790000000000000000604082015260600190565b60208082526019908201527f6f776e6572416464722063616e6e6f7420626520656d70747900000000000000604082015260600190565b6020808252602e908201527f546865206d696e6572206973206e6f7420746869732066696c6527732073746f60408201527f726167652070726f76696465722e000000000000000000000000000000000000606082015260800190565b60208082526034908201527f696e636f727265637420737461747573206f72207468652066696c652064656160408201527f646c696e6520646f65736e277420617272697665000000000000000000000000606082015260800190565b6020808252602f908201527f416363657373436f6e74726f6c3a2063616e206f6e6c792072656e6f756e636560408201527f20726f6c657320666f722073656c660000000000000000000000000000000000606082015260800190565b600060208252825160208301526020830151614e476040840182614003565b50604083015160608301526060830151610100806080850152614e6e610120850183614090565b60808601519250601f19808683030160a0870152614e8c8285614053565b60a08801519450818782030160c0880152614ea78186614010565b9250505060c086015160e086015260e08601518286015280935050505092915050565b81518152602080830151908201526040820151606082019060038110614eec57fe5b8060408401525092915050565b60006020825282516020830152602083015160408301526040830151610160806060850152614f2c610180850183614090565b60608601516080860152608086015160a086015260a08601519250601f198582030160c0860152614f5d8184614090565b60c087015160e087015260e087015193506101009150614f7f82870185614082565b908601516101208681019190915286015161014080870191909152909501519301929092525090919050565b600060208252600160a060020a038351166020830152602083015160a06040840152614fda60c0840182614090565b60408501519150601f1980858303016060860152614ff88284614090565b60608701519350818682030160808701526150138185614090565b92505060808601519250808583030160a08601525061129d8183614090565b600160a060020a0381168114613b0857600080fd5b8015158114613b0857600080fdfea26469706673582212209ab0028d11b0ca806cf50d8fa72be461c2ba0d0574161da19e46ed739b9f0df364736f6c63430006060033",
  "immutableReferences": {},
  "source": "//SPDX-License-Identifier: SimPL-2.0\npragma solidity ^0.6.6;\npragma experimental ABIEncoderV2;\n\nimport {FileStoreStruct} from \"./UtilsContract.sol\";\nimport \"@openzeppelin/contracts/utils/Context.sol\";\nimport \"@openzeppelin/contracts/access/AccessControl.sol\";\n// import \"@openzeppelin/contracts/access/Ownable.sol\";\nimport \"@openzeppelin/contracts/utils/Pausable.sol\";\n\ncontract FileStoreStorage is Context, Pausable, AccessControl, FileStoreStruct {\n\t// proxy address\n\taddress private FILE_STORE_PROXY_ADDR = 0x0000000000000000000000000000000000003002;\n\t// oriHash as key.\n\tmapping(bytes32 => FileStoreInfo) private fileStoreMapping;\n\t// entire file storage 's map, storeKeyHash is sha256(file hash + user address)\n\tmapping(bytes32 => FileStoreInfo) private entireFileStoreMapping;\n\t// store miner's ip and port. key is minerId\n\tmapping(bytes32 => MinerInfo) private minerInfoMapping;\n\t// store relation between address and minerId\n\tmapping(address => bytes32) private minerAddrIdMapping;\n\t// store relation between minerId and oriHash\n\tmapping(address => bytes32[]) private minerFileMapping;\n\tmapping(address => bytes32[]) private minerEntireFileMapping;\n\n\tbytes32 public constant PAUSER_ROLE = keccak256(\"PAUSER_ROLE\");\n\n\t//540 days\n\t//uint256 private constant fileDuration = 4665600;\n\tuint256 private constant fileDuration = 300;\n\n\tconstructor() public {\n\t\t_setupRole(PAUSER_ROLE, _msgSender());\n\t\t_setupRole(DEFAULT_ADMIN_ROLE, _msgSender());\n\t\twithdrawThreshold = 30;\n\t}\n\n\t/**\n     * @dev Pauses all transfers.\n     *\n     *\n     * Requirements:\n     *\n     * - the caller must have the `PAUSER_ROLE`.\n     */\n\tfunction pause() external virtual {\n\t\trequire(hasRole(PAUSER_ROLE, _msgSender()), \"FileStoreStorage: must have pauser role to pause\");\n\t\t_pause();\n\t}\n\n\t/**\n     * @dev Unpauses all  transfers.\n     *\n     * Requirements:\n     *\n     * - the caller must have the `PAUSER_ROLE`.\n     */\n\tfunction unpause() external virtual {\n\t\trequire(hasRole(PAUSER_ROLE, _msgSender()), \"FileStoreStorage: must have pauser role to unpause\");\n\t\t_unpause();\n\t}\n\n\tmodifier onlyProxyInvoke {\n\t\t//require(msg.sender == FILE_STORE_PROXY_ADDR, \"FileStoreStorage: only Proxy can invoke\");\n\t\t_;\n\t}\n\n\tfunction createFileStoreInfo4Entire(\n\t\tbytes32 storeKeyHash,\n\t\taddress ownerAddr,\n\t\tuint256 fileSize,\n\t\tstring calldata fileExt,\n\t\tbytes32 minerId,\n\t\tbytes32 headHash,\n\t\tbytes32 bodyHash,\n\t\tuint256 operTime,\n\t\tuint256 fileCost) external onlyProxyInvoke whenNotPaused(){\n\t\trequire(storeKeyHash > 0, \"storeKeyHash  cannot be empty\");\n\t\trequire(bodyHash == headHash, \"bodyHash must equals headHash\");\n\t\tFileStoreInfo storage fsi = entireFileStoreMapping[storeKeyHash];\n\t\tcommonCreateFileStore(fsi,storeKeyHash,ownerAddr,fileSize,fileExt,minerId,headHash,bodyHash,operTime,fileCost);\n\t}\n\n\tfunction createFileStoreInfo(\n\t\tbytes32 oriHash,\n\t\taddress ownerAddr,\n\t\tuint256 fileSize,\n\t\tstring calldata fileExt,\n\t\tbytes32 minerId,\n\t\tbytes32 headHash,\n\t\tbytes32 bodyHash,\n\t\tuint256 operTime,\n\t\tuint256 fileCost) external onlyProxyInvoke whenNotPaused(){\n\t\trequire(oriHash > 0, \"oriHash  cannot be empty\");\n\t\trequire(headHash > 0, \"headHash cannot be empty\");\n\t\trequire(bodyHash > 0, \"bodyHash cannot be empty\");\n\t\tFileStoreInfo storage fsi = fileStoreMapping[oriHash];\n\t\tcommonCreateFileStore(fsi,oriHash,ownerAddr,fileSize,fileExt,minerId,headHash,bodyHash,operTime,fileCost);\n\t}\n\n\tfunction commonCreateFileStore(FileStoreInfo storage fsi,\n\t\tbytes32 oriHash,\n\t\taddress ownerAddr,\n\t\tuint256 fileSize,\n\t\tstring memory fileExt,\n\t\tbytes32 minerId,\n\t\tbytes32 headHash,\n\t\tbytes32 bodyHash,\n\t\tuint256 operTime,\n\t\tuint256 fileCost) internal {\n\t\trequire(fileSize > 0, \"fileSize must greater than 0.\");\n\t\trequire(minerId > 0, \"minerId cannot be empty\");\n\t\trequire(operTime > 0, \"operTime cannot be empty\");\n\t\trequire(ownerAddr != address(0), \"ownerAddr cannot be empty\");\n\t\trequire(fileCost > 0, \"fileCost must greater than 0.\");\n\t\tBaseInfo storage tmp = fsi.baseInfo;\n\t\tFileInfo memory fi;\n\t\tuint256 expireTime = operTime + fileDuration;\n\t\tif (tmp.ownerAddr == address(0)) {\n\t\t\t// first time to create\n\t\t\ttmp.oriHash = oriHash;\n\t\t\ttmp.ownerAddr = ownerAddr;\n\t\t\ttmp.fileSize = fileSize;\n\t\t\ttmp.fileExt = fileExt;\n\t\t\ttmp.cDate = operTime;\n\t\t\ttmp.mDate = operTime;\n\t\t\t// add a miner\n\t\t\ttmp.miners.push(minerId);\n\t\t\tfi = FileInfo(0,headHash,\"\",0,bodyHash,\"\",fileCost,Status.Transfer,operTime,operTime, expireTime);\n\t\t} else {\n\t\t\trequire(tmp.ownerAddr == ownerAddr, \"The same oriHash is already used by another user.\");\n\t\t\t// Check to see if miners exist\n\t\t\tbool minerExistFlag = _isMinerExist(fsi, minerId);\n\t\t\trequire(!minerExistFlag, \"the miner was selected before, please change one!\");\n\t\t\t// we don't find it,add it.\n\t\t\ttmp.miners.push(minerId);\n\t\t\tfi = FileInfo(0,headHash,\"\",0,bodyHash,\"\",fileCost,Status.Transfer,operTime,operTime, expireTime);\n\t\t}\n        fsi.fileMap[minerId] = fi;\n\t}\n\n\t// for whole file storage\n\tfunction updateFileStoreInfo4Entire(\n\t\tbytes32 storeKeyHash,\n\t\taddress minerAddr,\n\t\tbool  headFlag,\n\t\tstring calldata cid,\n\t\tuint8 status,\n\t\tuint256 operTime\n\t)\n\texternal onlyProxyInvoke whenNotPaused(){\n\t\trequire(storeKeyHash > 0, \"storeKeyHash  cannot be empty\");\n\t\t// get info\n\t\tFileStoreInfo storage fsi = entireFileStoreMapping[storeKeyHash];\n\t\tcommonUpdateFileStoreInfo(fsi,storeKeyHash,minerAddr,headFlag,cid,status,operTime);\n\t}\n\n\t// for seperate file storage, include head and body file.\n\tfunction updateFileStoreInfo(\n\t\tbytes32 oriHash,\n\t\taddress minerAddr,\n\t\tbool  headFlag,\n\t\tstring calldata cid,\n\t\tuint8 status,\n\t\tuint256 operTime\n\t)\n\texternal onlyProxyInvoke whenNotPaused(){\n\t\trequire(oriHash > 0, \"oriHash  cannot be empty\");\n\t\t// get info\n\t\tFileStoreInfo storage fsi = fileStoreMapping[oriHash];\n\t\tcommonUpdateFileStoreInfo(fsi,oriHash,minerAddr,headFlag,cid,status,operTime);\n\t}\n\n\tfunction commonUpdateFileStoreInfo(\n\t\tFileStoreInfo storage fsi,\n\t\tbytes32 oriHash,\n\t\taddress minerAddr,\n\t\tbool  headFlag,\n\t\tstring memory cid,\n\t\tuint8 status,\n\t\tuint256 operTime\n\t) internal {\n\t\trequire(oriHash > 0, \"oriHash  cannot be empty\");\n\t\trequire(minerAddr != address(0), \"minerAddr cannot be empty\");\n\t\trequire(bytes(cid).length > 0,\"cid  cannot be empty\");\n\t\trequire(status > 0, \"status must be greater than 0.\");\n\t\tBaseInfo storage info = fsi.baseInfo;\n\t\trequire(info.cDate > 0, \"The file storage info not found.\");\n\t\tinfo.mDate = operTime;\n\t\t// check miner address is correct?\n\t\tbytes32 minerId = minerAddrIdMapping[minerAddr];\n\t\trequire(minerId > 0, \"You have not registered information to the chain OR You do not have permission to update\");\n\t\tFileInfo storage fileInfo = fsi.fileMap[minerId];\n\t\trequire(fileInfo.cDate > 0, \"The miner is not this file's storage provider.\");\n\t\tfileInfo.mDate = operTime;\n\t\tif (headFlag) {\n\t\t\t// update info about the head\n\t\t\tfileInfo.headStatus = status;\n\t\t\tfileInfo.headCid = cid;\n\t\t} else {\n\t\t\t// update info about the body\n\t\t\tfileInfo.bodyStatus = status;\n\t\t\tfileInfo.bodyCid = cid;\n\t\t}\n\t}\n\n    // for entire file storage\n\tfunction updateFileCostStatus4Entire(\n\t\tbytes32 storeKeyHash,\n\t\taddress minerAddr\n\t)\n\texternal onlyProxyInvoke whenNotPaused(){\n\t\trequire(storeKeyHash > 0, \"storeKeyHash  cannot be empty\");\n\t\t// get info\n\t\tFileStoreInfo storage fsi = entireFileStoreMapping[storeKeyHash];\n\t\tbool ret = commonUpdateFileCostStatus(fsi,minerAddr,StorageType.EntireFile);\n\t\tif (ret) {\n\t\t\tminerEntireFileMapping[minerAddr].push(storeKeyHash);\n\t\t}\n\t}\n\n\t// for seperate file storage, include head and body file.\n\tfunction updateFileCostStatus(\n\t\tbytes32 oriHash,\n\t\taddress minerAddr\n\t)\n\texternal onlyProxyInvoke whenNotPaused(){\n\t\trequire(oriHash > 0, \"oriHash  cannot be empty\");\n\t\t// get info\n\t\tFileStoreInfo storage fsi = fileStoreMapping[oriHash];\n\t\tbool ret = commonUpdateFileCostStatus(fsi,minerAddr,StorageType.SeperateFile);\n\t\tif (ret) {\n\t\t\tminerFileMapping[minerAddr].push(oriHash);\n\t\t}\n\t}\n\n\tfunction commonUpdateFileCostStatus(\n\t\tFileStoreInfo storage fsi,\n\t\taddress minerAddr,\n\t\tStorageType storageType\n\t) internal returns(bool) {\n\t\trequire(minerAddr != address(0), \"minerAddr cannot be empty\");\n\t\t// check miner address is correct?\n\t\tbytes32 minerId = minerAddrIdMapping[minerAddr];\n\t\trequire(minerId > 0, \"You have not registered information to the chain OR You do not have permission to update\");\n\t\tFileInfo storage fileInfo = fsi.fileMap[minerId];\n\t\trequire(fileInfo.cDate > 0, \"The miner is not this file's storage provider.\");\n\t\trequire(fileInfo.fileCostStatus != Status.Locked, \"file locked, the operation is not allow\");\n\t\trequire(fileInfo.fileCostStatus == Status.Transfer, \"the operation is not allow in current status\");\n\t\tif (storageType == StorageType.SeperateFile && fileInfo.headStatus == 1 && fileInfo.bodyStatus == 1 ||\n\t\t\t storageType == StorageType.EntireFile && fileInfo.bodyStatus == 1) {\n\t\t\tfileInfo.fileCostStatus = Status.Withdraw30;\n\t\t\tfileInfo.fileCost -= fileInfo.fileCost * withdrawThreshold / 100;\n\t\t\treturn true;\n\t\t}\n\t\treturn false;\n\t}\n\n\tfunction lockOrUnlock(bytes32 oriHash,\n\t\tbytes32 minerId,\n\t\tbool isLocked,\n\t\tbool isEntireFile\n\t) external onlyProxyInvoke whenNotPaused(){\n\t\t// valid parameters\n\t\trequire(oriHash > 0, \"oriHash cannot be empty\");\n\t\trequire(minerId > 0, \"minerId cannot be empty\");\n        FileInfo storage fileInfo;\n\t\tif (!isEntireFile) {\n\t\t\tFileStoreInfo storage fsi = fileStoreMapping[oriHash];\n\t\t\tfileInfo = fsi.fileMap[minerId];\n\t\t} else {\n\t\t\tFileStoreInfo storage fsi = entireFileStoreMapping[oriHash];\n\t\t    fileInfo = fsi.fileMap[minerId];\n\t\t}\n\t\trequire(!isEntireFile && fileInfo.headStatus == 1 && fileInfo.bodyStatus == 1 ||\n\t\t\tisEntireFile && fileInfo.bodyStatus == 1, \"the operation is not allow, file store is in progress\");\n\n\t\trequire(fileInfo.fileCostStatus == Status.Locked || fileInfo.fileCostStatus == Status.Withdraw30,\n\t    \t\"can't lock or unlock, the current status is not allow\");\n\n\t\tif (isLocked) {\n\t\t\tfileInfo.fileCostStatus = Status.Locked;\n\t\t} else {\n\t\t\tfileInfo.fileCostStatus = Status.Withdraw30;\n\t\t}\n\t}\n\n\t// withdraw the balance\n    function commonCalcStorageFileCost(bytes32 oriHash,\n\t\t\tbytes32 minerId,\n\t\t\tStorageType storageType\n\t) external view onlyProxyInvoke whenNotPaused() returns(uint256) {\n\t\trequire(oriHash > 0, \"oriHash  cannot be empty\");\n\t\trequire(minerId > 0, \"minerId cannot be empty\");\n\t\tFileInfo storage fileInfo;\n\t\tuint256 fileCost = 0;\n\t\tif (storageType == StorageType.SeperateFile) {\n\t\t\tFileStoreInfo storage fsi = fileStoreMapping[oriHash];\n\t\t\tfileInfo = fsi.fileMap[minerId];\n\t\t} else {\n\t\t\tFileStoreInfo storage fsi = entireFileStoreMapping[oriHash];\n\t\t    fileInfo = fsi.fileMap[minerId];\n\t\t}\n\t\trequire(fileInfo.fileCost > 0, \"file cost must greater than zero\");\n\t\tif (fileInfo.fileCostStatus == Status.Transfer &&\n\t\t\t(fileInfo.headStatus == 1 && fileInfo.bodyStatus == 1 && storageType == StorageType.SeperateFile\n\t\t\t || storageType == StorageType.EntireFile && fileInfo.bodyStatus == 1)) {\n\t\t\tfileCost = fileInfo.fileCost * withdrawThreshold / 100;\n\t\t}\n\t\treturn fileCost;\n\t}\n\n\tfunction getExpireFile(address minerAddr) \n\t\texternal onlyProxyInvoke whenNotPaused() view returns(ExpireFile memory) {\n\t\t//the file in minerFileMapping, must be headStatus==1, bodyStatus==1, fileCostStatus == Status.Withdraw30\n\t\trequire(minerAddr != address(0), \"minerAddr cannot be empty\");\n\t\tbytes32 minerId = minerAddrIdMapping[minerAddr];\n\t\trequire(minerId > 0, \"the operation is not allow, the miner doesn't register in the chain\");\n\t\treturn commonGetExpireFile(minerId, minerFileMapping[minerAddr], StorageType.SeperateFile);\n\t}\n\n\tfunction getExpireFileEntire(address minerAddr) \n\t\texternal onlyProxyInvoke whenNotPaused() view returns(ExpireFile memory) {\n\t\t//the file in minerFileMapping, must be headStatus==1, bodyStatus==1, fileCostStatus == Status.Withdraw30\n\t\trequire(minerAddr != address(0), \"minerAddr cannot be empty\");\n\t\tbytes32 minerId = minerAddrIdMapping[minerAddr];\n\t\trequire(minerId > 0, \"the operation is not allow, the miner doesn't register in the chain\");\n\t\treturn commonGetExpireFile(minerId, minerEntireFileMapping[minerAddr], StorageType.EntireFile);\n\t}\n\n\tfunction commonGetExpireFile(bytes32 minerId, bytes32[] storage allFiles, StorageType storageType)\n\t\tinternal onlyProxyInvoke whenNotPaused() view returns(ExpireFile memory) {\n\t\tfor (uint i = 0; i < allFiles.length; i++) {\n\t\t\tFileStoreInfo storage fsi;\n\t\t\tif (storageType == StorageType.SeperateFile) {\n\t\t\t\tfsi = fileStoreMapping[allFiles[i]];\n\t\t\t} else {\n\t\t\t\tfsi = entireFileStoreMapping[allFiles[i]];\n\t\t\t}\n\t\t\tFileInfo storage fileInfo = fsi.fileMap[minerId];\n\t\t\tif (fileInfo.fileCostStatus == Status.Withdraw30 && block.timestamp > fileInfo.eDate) {\n\t\t\t\treturn ExpireFile(allFiles[i], i, storageType);\n\t\t\t}\n\t\t}\n\t\treturn ExpireFile(0, 0, StorageType.Unknown);\n\t}\n\n\t// withdraw the balance\n    function updateRemainingFileCost(address minerAddr, bytes32 oriHash, uint256 index, StorageType storageType)\n\t\texternal onlyProxyInvoke whenNotPaused() returns(uint256) {\n\t\trequire(minerAddr != address(0), \"minerAddr cannot be empty\");\n\t\trequire(storageType == StorageType.EntireFile || storageType == StorageType.SeperateFile,\n\t\t\t\"storageType is invalid\");\n\t\tbytes32 minerId = minerAddrIdMapping[minerAddr];\n\t\trequire(minerId > 0, \"the operation is not allow, the miner doesn't register in the chain\");\n    \tbytes32[] storage allFiles;\n\t\tif (storageType == StorageType.SeperateFile) {\n\t\t\tallFiles = minerFileMapping[minerAddr];\n\t\t} else {\n\t\t\tallFiles = minerEntireFileMapping[minerAddr];\n\t\t}\n\t\trequire(index < allFiles.length, \"out of array\");\n\t\trequire(oriHash == allFiles[index], \"the oriHash is not equal to the Array Index's\");\n\t\tFileStoreInfo storage fsi;\n\t\tif (storageType == StorageType.SeperateFile) {\n\t\t\tfsi = fileStoreMapping[allFiles[index]];\n\t\t} else {\n\t\t\tfsi = entireFileStoreMapping[allFiles[index]];\n\t\t}\n\t\tFileInfo storage fileInfo = fsi.fileMap[minerId];\n\t\trequire(fileInfo.fileCostStatus == Status.Withdraw30 && block.timestamp > fileInfo.eDate,\n\t\t\t\"incorrect status or the file deadline doesn't arrive\");\n\t\tuint256 fileCost = fileInfo.fileCost;\n\t\tfileInfo.fileCost = 0;\n\t\tfileInfo.fileCostStatus = Status.Withdraw70;\n\t\tallFiles[index] = allFiles[allFiles.length - 1];\n\t\tallFiles.pop();\n\n\t\treturn fileCost;\n\t}\n\t\n\t// for entire file storage\n\tfunction extendFileDeadlineEntire(\n\t\tbytes32 storeKeyHash,\n\t\tbytes32 minerId,\n\t\tuint256 fileCost,\n\t\tuint256 fileSize\n\t)\n\texternal onlyProxyInvoke whenNotPaused() {\n\t\trequire(storeKeyHash > 0, \"storeKeyHash  cannot be empty\");\n\t\tMinerInfo storage minerInfo = minerInfoMapping[minerId];\n\t\tstring memory publicKey = minerInfo.publicKey;\n\t\trequire(bytes(publicKey).length > 0,\"The miner you selected does not exist\");\n\t\taddress minerAddr = minerInfo.minerAddr;\n\t\t// get info\n\t\tFileStoreInfo storage fsi = entireFileStoreMapping[storeKeyHash];\n\t\tcommonExtendFileDeadline(fsi, minerId, StorageType.EntireFile, fileCost, fileSize);\n\t\tbytes32[] storage allEntireFiles = minerEntireFileMapping[minerAddr];\n\t\tbool found = false;\n\t\tfor (uint i = 0; i < allEntireFiles.length; i++) {\n\t\t\tif (storeKeyHash == allEntireFiles[i]) {\n\t\t\t\tfound = true;\n\t\t\t\tbreak;\n\t\t\t}\n\t\t}\n\t\tif (!found) {\n\t\t\tallEntireFiles.push(storeKeyHash);\n\t\t}\n\t}\n\n\t// for seperate file storage, include head and body file.\n\tfunction extendFileDeadline(\n\t\tbytes32 oriHash,\n\t\tbytes32 minerId,\n\t\tuint256 fileCost,\n\t\tuint256 fileSize\n\t)\n\texternal onlyProxyInvoke whenNotPaused(){\n\t\trequire(oriHash > 0, \"oriHash  cannot be empty\");\n\t\tMinerInfo storage minerInfo = minerInfoMapping[minerId];\n\t\tstring memory publicKey = minerInfo.publicKey;\n\t\trequire(bytes(publicKey).length > 0,\"The miner you selected does not exist\");\n\t\taddress minerAddr = minerInfo.minerAddr;\n\t\t// get info\n\t\tFileStoreInfo storage fsi = fileStoreMapping[oriHash];\n\t\tcommonExtendFileDeadline(fsi, minerId, StorageType.SeperateFile, fileCost, fileSize);\n\t\tbytes32[] storage allFiles = minerFileMapping[minerAddr];\n\t\tbool found = false;\n\t\tfor (uint i = 0; i < allFiles.length; i++) {\n\t\t\tif (oriHash == allFiles[i]) {\n\t\t\t\tfound = true;\n\t\t\t\tbreak;\n\t\t\t}\n\t\t}\n\t\tif (!found) {\n\t\t\tallFiles.push(oriHash);\n\t\t}\n\t}\n\n\tfunction commonExtendFileDeadline(\n\t\tFileStoreInfo storage fsi,\n\t\tbytes32 minerId,\n\t\tStorageType storageType,\n\t\tuint256 fileCost,\n\t\tuint256 fileSize\n\t) internal {\n\t\tBaseInfo storage info = fsi.baseInfo;\n\t\trequire(info.cDate > 0, \"The file storage info not found.\");\n\t\trequire(fileSize == info.fileSize, \"the fileSize is not equal to the previous store file\");\n\t\tFileInfo storage fileInfo = fsi.fileMap[minerId];\n\t\trequire(fileInfo.cDate > 0, \"The miner is not this file's storage provider.\");\n\t\trequire(fileInfo.fileCostStatus != Status.Locked, \"file locked, the operation is not allow\");\n\t\trequire(storageType == StorageType.SeperateFile && fileInfo.headStatus == 1 && fileInfo.bodyStatus == 1 ||\n\t\t\t storageType == StorageType.EntireFile && fileInfo.bodyStatus == 1, \"the operation is not allow in current status\");\n\t\tfileInfo.fileCostStatus = Status.Withdraw30;\n\t\tfileInfo.fileCost += fileCost;\n\t\t////the file deadline doesn't arrived\n\t\tif (fileInfo.eDate > block.timestamp) {\n\t\t\tfileInfo.eDate += fileDuration;\n\t\t} else {\n\t\t\tfileInfo.eDate = block.timestamp + fileDuration;\n\t\t}\n\t}\n\n\tfunction updateWithdrawThreshold(uint256 threshold)\n\t external onlyProxyInvoke whenNotPaused(){\n\t\twithdrawThreshold = threshold;\n\t}\n\n\t// register dapp contract's Addrress for file when publish order on dapp. only for seperate file storage.\n\tfunction regDappContractAddr(\n\t\tbytes32 oriHash,\n\t\taddress ownerAddr,\n\t\taddress dappContractAddr,\n\t\tuint256 operTime\n\t) external onlyProxyInvoke whenNotPaused(){\n\t\trequire(oriHash > 0, \"oriHash  cannot be empty\");\n\t\trequire(ownerAddr != address(0), \"ownerAddr cannot be empty\");\n\t\trequire(dappContractAddr != address(0), \"dappContractAddr cannot be empty\");\n\t\t// get info\n\t\tFileStoreInfo storage fsi = fileStoreMapping[oriHash];\n\t\tBaseInfo storage info = fsi.baseInfo;\n\t\trequire(info.cDate > 0, \"The file storage info not found.\");\n\t\tinfo.dappContractAddrs.push(dappContractAddr);\n\t\tinfo.mDate = operTime;\n\t}\n\n\t// transfer owner for file when file's ownership has changed. only for seperate file storage.\n\tfunction transferFileOwner(\n\t\tbytes32 oriHash,\n\t\taddress ownerAddr,\n\t\tuint256 operTime\n\t) external onlyProxyInvoke whenNotPaused(){\n\t\trequire(oriHash > 0, \"oriHash  cannot be empty\");\n\t\trequire(ownerAddr != address(0), \"the new ownerAddr cannot be empty\");\n\t\t// get info\n\t\tFileStoreInfo storage fsi = fileStoreMapping[oriHash];\n\t\tBaseInfo storage info = fsi.baseInfo;\n\t\trequire(info.cDate > 0, \"The file storage info not found.\");\n\t\t// change the owner to new owner\n\t\tinfo.ownerAddr = ownerAddr;\n\t\t// clear all dapp contract addresses.\n\t\tdelete info.dappContractAddrs;\n\t\t// set the mDate to the lastst time.\n\t\tinfo.mDate = operTime;\n\t}\n\n\t// set miner address and ip/port/publicKey etc.\n\tfunction setMinerInfo(bytes32 minerId,address minerAddr, string calldata publicKey\n\t\t,string calldata peerId,string calldata peerAddr,string calldata proxyAddr)\n\t    external onlyProxyInvoke whenNotPaused() {\n\t\trequire(minerId > 0, \"minerId cannot be empty\");\n\t\trequire(minerAddr != address(0), \"minerAddr cannot be empty\");\n\t\trequire(bytes(publicKey).length > 0,\"publicKey cannot be empty\");\n\t\trequire(bytes(peerId).length > 0,\"peerId cannot be empty\");\n\t\trequire(bytes(peerAddr).length > 0,\"peerAddr cannot be empty\");\n\t\trequire(bytes(proxyAddr).length > 0,\"proxyAddr cannot be empty\");\n\t\tminerInfoMapping[minerId] = MinerInfo(minerAddr,publicKey,peerId,peerAddr,proxyAddr);\n\t\tminerAddrIdMapping[minerAddr] = minerId;\n\t}\n\n\t/**\n      Check to see if miners exist\n     */\n\tfunction isMinerExist(bytes32 oriHash, bytes32 minerId) external view returns(bool) {\n\t\tFileStoreInfo memory fsi = fileStoreMapping[oriHash];\n\t\treturn _isMinerExist(fsi, minerId);\n\t}\n\n\t/**\n      Check to see if miners exist for entire file storage\n     */\n\tfunction isMinerExist4Entire(bytes32 storeKeyHash, bytes32 minerId) external view returns(bool) {\n\t\tFileStoreInfo memory fsi = entireFileStoreMapping[storeKeyHash];\n\t\treturn _isMinerExist(fsi, minerId);\n\t}\n\n\t/**\n      Check to see if miners exist\n     */\n\tfunction _isMinerExist(FileStoreInfo memory fsi, bytes32 minerId) internal pure returns(bool) {\n\t\tBaseInfo memory tmp = fsi.baseInfo;\n\t\tif (tmp.cDate ==0) {\n\t\t\treturn false;\n\t\t}\n\t\tbool existFlag = false;\n\t\tfor(uint i = 0; i < tmp.miners.length; i++){\n\t\t\tif (tmp.miners[i] == minerId) {\n\t\t\t\texistFlag = true;\n\t\t\t}\n\t\t}\n\t\treturn existFlag;\n\t}\n\n\t// get file info for entire file storage\n\tfunction getBaseInfo4Entire(bytes32 storeKeyHash) external view returns(BaseInfo memory) {\n\t\tFileStoreInfo memory tmp = entireFileStoreMapping[storeKeyHash];\n\t\treturn tmp.baseInfo;\n\t}\n\n\tfunction getBaseInfo(bytes32 oriHash) external view returns(BaseInfo memory) {\n\t\tFileStoreInfo memory tmp = fileStoreMapping[oriHash];\n\t\treturn tmp.baseInfo;\n\t}\n\n\t// get file info for entire file storage \n\tfunction getFileInfo4Entire(bytes32 storeKeyHash,bytes32 minerId) external view returns(FileInfo memory) {\n\t\tFileStoreInfo storage fsi = entireFileStoreMapping[storeKeyHash];\n\t\treturn fsi.fileMap[minerId];\n\t}\n\n\tfunction getFileInfo(bytes32 oriHash,bytes32 minerId) external view returns(FileInfo memory) {\n\t\tFileStoreInfo storage fsi = fileStoreMapping[oriHash];\n\t\treturn fsi.fileMap[minerId];\n\t}\n\n\tfunction getMinerInfoByMinerId(bytes32 minerId) external view returns(MinerInfo memory) {\n\t\treturn minerInfoMapping[minerId];\n\t}\n\n\tfunction getMinerId(address minerAddr) external view returns(bytes32) {\n\t\trequire(minerAddr != address(0), \"minerAddr cannot be empty\");\n\t\treturn minerAddrIdMapping[minerAddr];\n\t}\n\n\tfunction getMinerInfoByMinerAddr(address minerAddr) external view returns(MinerInfo memory) {\n\t\trequire(minerAddr != address(0), \"minerAddr cannot be empty\");\n\t\tbytes32 minerId = minerAddrIdMapping[minerAddr];\n\t\tif (minerId == 0) {\n\t\t\treturn MinerInfo(address(0),\"\",\"\",\"\",\"\");\n\t\t}\n\t\treturn minerInfoMapping[minerId];\n\t}\n\n\t// get miner's ids who store the given storeKeyHash\n\tfunction getStoreMiners4Entire(bytes32 storeKeyHash) external view returns(bytes32[] memory) {\n\t\t// valid parameters\n\t\trequire(storeKeyHash > 0, \"storeKeyHash  cannot be empty\");\n\t\t// get info\n\t\tFileStoreInfo storage info = entireFileStoreMapping[storeKeyHash];\n\t\tBaseInfo memory baseInfo = info.baseInfo;\n\t\tif (baseInfo.cDate ==0) {\n\t\t\tbytes32[] memory empty;\n\t\t\treturn empty;\n\t\t}\n\t\treturn baseInfo.miners;\n\t}\n\n\t// get miner's ids who store the given oriHash\n\tfunction getStoreMiners(bytes32 oriHash) external view returns(bytes32[] memory) {\n\t\t// valid parameters\n\t\trequire(oriHash > 0, \"oriHash  cannot be empty\");\n\t\t// get info\n\t\tFileStoreInfo storage info = fileStoreMapping[oriHash];\n\t\tBaseInfo memory baseInfo = info.baseInfo;\n\t\tif (baseInfo.cDate ==0) {\n\t\t\tbytes32[] memory empty;\n\t\t\treturn empty;\n\t\t}\n\t\treturn baseInfo.miners;\n\t}\n}\n",
  "sourcePath": "/root/testnet/code/w3fs-genesis-contracts-bridge/contracts/filestore/FileStoreStorage.sol",
  "compiler": {
    "name": "solc",
    "version": "0.6.6+commit.6c089d02.Emscripten.clang"
  },
  "schemaVersion": "3.4.10",
  "updatedAt": "2022-11-17T03:08:55.393Z",
  "networkType": "ethereum",
  "devdoc": {
    "methods": {
      "getRoleAdmin(bytes32)": {
        "details": "Returns the admin role that controls `role`. See {grantRole} and {revokeRole}.     * To change a role's admin, use {_setRoleAdmin}."
      },
      "getRoleMember(bytes32,uint256)": {
        "details": "Returns one of the accounts that have `role`. `index` must be a value between 0 and {getRoleMemberCount}, non-inclusive.     * Role bearers are not sorted in any particular way, and their ordering may change at any point.     * WARNING: When using {getRoleMember} and {getRoleMemberCount}, make sure you perform all queries on the same block. See the following https://forum.openzeppelin.com/t/iterating-over-elements-on-enumerableset-in-openzeppelin-contracts/2296[forum post] for more information."
      },
      "getRoleMemberCount(bytes32)": {
        "details": "Returns the number of accounts that have `role`. Can be used together with {getRoleMember} to enumerate all bearers of a role."
      },
      "grantRole(bytes32,address)": {
        "details": "Grants `role` to `account`.     * If `account` had not been already granted `role`, emits a {RoleGranted} event.     * Requirements:     * - the caller must have ``role``'s admin role."
      },
      "hasRole(bytes32,address)": {
        "details": "Returns `true` if `account` has been granted `role`."
      },
      "pause()": {
        "details": "Pauses all transfers.     * Requirements:     * - the caller must have the `PAUSER_ROLE`."
      },
      "paused()": {
        "details": "Returns true if the contract is paused, and false otherwise."
      },
      "renounceRole(bytes32,address)": {
        "details": "Revokes `role` from the calling account.     * Roles are often managed via {grantRole} and {revokeRole}: this function's purpose is to provide a mechanism for accounts to lose their privileges if they are compromised (such as when a trusted device is misplaced).     * If the calling account had been granted `role`, emits a {RoleRevoked} event.     * Requirements:     * - the caller must be `account`."
      },
      "revokeRole(bytes32,address)": {
        "details": "Revokes `role` from `account`.     * If `account` had been granted `role`, emits a {RoleRevoked} event.     * Requirements:     * - the caller must have ``role``'s admin role."
      },
      "unpause()": {
        "details": "Unpauses all  transfers.     * Requirements:     * - the caller must have the `PAUSER_ROLE`."
      }
    }
  },
  "userdoc": {
    "methods": {
      "isMinerExist(bytes32,bytes32)": {
        "notice": "Check to see if miners exist"
      },
      "isMinerExist4Entire(bytes32,bytes32)": {
        "notice": "Check to see if miners exist for entire file storage"
      }
    }
  }
}