{
  "contractName": "FileStoreLogic",
  "abi": [
    {
      "inputs": [],
      "stateMutability": "nonpayable",
      "type": "constructor"
    },
    {
      "anonymous": false,
      "inputs": [
        {
          "indexed": false,
          "internalType": "address",
          "name": "account",
          "type": "address"
        }
      ],
      "name": "Paused",
      "type": "event"
    },
    {
      "anonymous": false,
      "inputs": [
        {
          "indexed": true,
          "internalType": "bytes32",
          "name": "role",
          "type": "bytes32"
        },
        {
          "indexed": true,
          "internalType": "bytes32",
          "name": "previousAdminRole",
          "type": "bytes32"
        },
        {
          "indexed": true,
          "internalType": "bytes32",
          "name": "newAdminRole",
          "type": "bytes32"
        }
      ],
      "name": "RoleAdminChanged",
      "type": "event"
    },
    {
      "anonymous": false,
      "inputs": [
        {
          "indexed": true,
          "internalType": "bytes32",
          "name": "role",
          "type": "bytes32"
        },
        {
          "indexed": true,
          "internalType": "address",
          "name": "account",
          "type": "address"
        },
        {
          "indexed": true,
          "internalType": "address",
          "name": "sender",
          "type": "address"
        }
      ],
      "name": "RoleGranted",
      "type": "event"
    },
    {
      "anonymous": false,
      "inputs": [
        {
          "indexed": true,
          "internalType": "bytes32",
          "name": "role",
          "type": "bytes32"
        },
        {
          "indexed": true,
          "internalType": "address",
          "name": "account",
          "type": "address"
        },
        {
          "indexed": true,
          "internalType": "address",
          "name": "sender",
          "type": "address"
        }
      ],
      "name": "RoleRevoked",
      "type": "event"
    },
    {
      "anonymous": false,
      "inputs": [
        {
          "indexed": false,
          "internalType": "address",
          "name": "account",
          "type": "address"
        }
      ],
      "name": "Unpaused",
      "type": "event"
    },
    {
      "anonymous": false,
      "inputs": [
        {
          "indexed": false,
          "internalType": "bytes32",
          "name": "oriHash",
          "type": "bytes32"
        },
        {
          "indexed": false,
          "internalType": "bytes32",
          "name": "minerId",
          "type": "bytes32"
        },
        {
          "indexed": false,
          "internalType": "bool",
          "name": "headFlag",
          "type": "bool"
        },
        {
          "indexed": false,
          "internalType": "uint8",
          "name": "status",
          "type": "uint8"
        },
        {
          "indexed": false,
          "internalType": "string",
          "name": "cid",
          "type": "string"
        }
      ],
      "name": "fileInfoChangeEvt",
      "type": "event"
    },
    {
      "anonymous": false,
      "inputs": [
        {
          "indexed": false,
          "internalType": "bytes32",
          "name": "oriHash",
          "type": "bytes32"
        },
        {
          "indexed": false,
          "internalType": "address",
          "name": "userAddr",
          "type": "address"
        },
        {
          "indexed": false,
          "internalType": "uint256",
          "name": "fileSize",
          "type": "uint256"
        },
        {
          "indexed": false,
          "internalType": "string",
          "name": "fileExt",
          "type": "string"
        },
        {
          "indexed": false,
          "internalType": "bytes32",
          "name": "minerId",
          "type": "bytes32"
        },
        {
          "indexed": false,
          "internalType": "bytes32",
          "name": "headHash",
          "type": "bytes32"
        },
        {
          "indexed": false,
          "internalType": "bytes32",
          "name": "bodyHash",
          "type": "bytes32"
        },
        {
          "indexed": false,
          "internalType": "uint256",
          "name": "operTime",
          "type": "uint256"
        }
      ],
      "name": "newFileStoreEvt",
      "type": "event"
    },
    {
      "anonymous": false,
      "inputs": [
        {
          "indexed": false,
          "internalType": "bytes32",
          "name": "oriHash",
          "type": "bytes32"
        },
        {
          "indexed": false,
          "internalType": "address",
          "name": "ownerAddr",
          "type": "address"
        },
        {
          "indexed": false,
          "internalType": "address",
          "name": "dappContractAddr",
          "type": "address"
        }
      ],
      "name": "registerDappContractAddrEvt",
      "type": "event"
    },
    {
      "anonymous": false,
      "inputs": [
        {
          "indexed": false,
          "internalType": "bytes32",
          "name": "minerId",
          "type": "bytes32"
        },
        {
          "indexed": false,
          "internalType": "address",
          "name": "minerAddr",
          "type": "address"
        },
        {
          "indexed": false,
          "internalType": "string",
          "name": "publicKey",
          "type": "string"
        }
      ],
      "name": "setMinerEvt",
      "type": "event"
    },
    {
      "anonymous": false,
      "inputs": [
        {
          "indexed": false,
          "internalType": "bytes32",
          "name": "oriHash",
          "type": "bytes32"
        },
        {
          "indexed": false,
          "internalType": "address",
          "name": "oldOwnerAddr",
          "type": "address"
        },
        {
          "indexed": false,
          "internalType": "address",
          "name": "newOwnerAddr",
          "type": "address"
        }
      ],
      "name": "transferOwnerEvt",
      "type": "event"
    },
    {
      "stateMutability": "payable",
      "type": "fallback",
      "payable": true
    },
    {
      "inputs": [],
      "name": "DEFAULT_ADMIN_ROLE",
      "outputs": [
        {
          "internalType": "bytes32",
          "name": "",
          "type": "bytes32"
        }
      ],
      "stateMutability": "view",
      "type": "function",
      "constant": true
    },
    {
      "inputs": [
        {
          "internalType": "bytes32",
          "name": "role",
          "type": "bytes32"
        }
      ],
      "name": "getRoleAdmin",
      "outputs": [
        {
          "internalType": "bytes32",
          "name": "",
          "type": "bytes32"
        }
      ],
      "stateMutability": "view",
      "type": "function",
      "constant": true
    },
    {
      "inputs": [
        {
          "internalType": "bytes32",
          "name": "role",
          "type": "bytes32"
        },
        {
          "internalType": "uint256",
          "name": "index",
          "type": "uint256"
        }
      ],
      "name": "getRoleMember",
      "outputs": [
        {
          "internalType": "address",
          "name": "",
          "type": "address"
        }
      ],
      "stateMutability": "view",
      "type": "function",
      "constant": true
    },
    {
      "inputs": [
        {
          "internalType": "bytes32",
          "name": "role",
          "type": "bytes32"
        }
      ],
      "name": "getRoleMemberCount",
      "outputs": [
        {
          "internalType": "uint256",
          "name": "",
          "type": "uint256"
        }
      ],
      "stateMutability": "view",
      "type": "function",
      "constant": true
    },
    {
      "inputs": [
        {
          "internalType": "bytes32",
          "name": "role",
          "type": "bytes32"
        },
        {
          "internalType": "address",
          "name": "account",
          "type": "address"
        }
      ],
      "name": "grantRole",
      "outputs": [],
      "stateMutability": "nonpayable",
      "type": "function"
    },
    {
      "inputs": [
        {
          "internalType": "bytes32",
          "name": "role",
          "type": "bytes32"
        },
        {
          "internalType": "address",
          "name": "account",
          "type": "address"
        }
      ],
      "name": "hasRole",
      "outputs": [
        {
          "internalType": "bool",
          "name": "",
          "type": "bool"
        }
      ],
      "stateMutability": "view",
      "type": "function",
      "constant": true
    },
    {
      "inputs": [],
      "name": "paused",
      "outputs": [
        {
          "internalType": "bool",
          "name": "",
          "type": "bool"
        }
      ],
      "stateMutability": "view",
      "type": "function",
      "constant": true
    },
    {
      "inputs": [
        {
          "internalType": "bytes32",
          "name": "role",
          "type": "bytes32"
        },
        {
          "internalType": "address",
          "name": "account",
          "type": "address"
        }
      ],
      "name": "renounceRole",
      "outputs": [],
      "stateMutability": "nonpayable",
      "type": "function"
    },
    {
      "inputs": [
        {
          "internalType": "bytes32",
          "name": "role",
          "type": "bytes32"
        },
        {
          "internalType": "address",
          "name": "account",
          "type": "address"
        }
      ],
      "name": "revokeRole",
      "outputs": [],
      "stateMutability": "nonpayable",
      "type": "function"
    },
    {
      "stateMutability": "payable",
      "type": "receive",
      "payable": true
    },
    {
      "inputs": [
        {
          "internalType": "address[]",
          "name": "_addrs",
          "type": "address[]"
        }
      ],
      "name": "initialize",
      "outputs": [],
      "stateMutability": "nonpayable",
      "type": "function"
    },
    {
      "inputs": [],
      "name": "pause",
      "outputs": [],
      "stateMutability": "nonpayable",
      "type": "function"
    },
    {
      "inputs": [],
      "name": "unpause",
      "outputs": [],
      "stateMutability": "nonpayable",
      "type": "function"
    },
    {
      "inputs": [
        {
          "internalType": "uint256",
          "name": "threshold",
          "type": "uint256"
        }
      ],
      "name": "updateWithdrawThreshold",
      "outputs": [],
      "stateMutability": "nonpayable",
      "type": "function"
    },
    {
      "inputs": [
        {
          "internalType": "address",
          "name": "_addr",
          "type": "address"
        }
      ],
      "name": "setFileStoreStorageAddress",
      "outputs": [],
      "stateMutability": "nonpayable",
      "type": "function"
    },
    {
      "inputs": [
        {
          "internalType": "bytes32",
          "name": "oriHash",
          "type": "bytes32"
        },
        {
          "internalType": "bytes32",
          "name": "minerId",
          "type": "bytes32"
        },
        {
          "internalType": "bool",
          "name": "isLocked",
          "type": "bool"
        },
        {
          "internalType": "bool",
          "name": "isEntireFile",
          "type": "bool"
        }
      ],
      "name": "lockOrUnlock",
      "outputs": [],
      "stateMutability": "nonpayable",
      "type": "function"
    },
    {
      "inputs": [
        {
          "internalType": "uint256",
          "name": "fileSize",
          "type": "uint256"
        }
      ],
      "name": "getFileCost",
      "outputs": [
        {
          "internalType": "uint256",
          "name": "",
          "type": "uint256"
        }
      ],
      "stateMutability": "pure",
      "type": "function",
      "constant": true
    },
    {
      "inputs": [
        {
          "internalType": "bytes32",
          "name": "oriHash",
          "type": "bytes32"
        },
        {
          "internalType": "uint256",
          "name": "index",
          "type": "uint256"
        },
        {
          "internalType": "enum FileStoreStruct.StorageType",
          "name": "storageType",
          "type": "uint8"
        }
      ],
      "name": "withdrawRemaining",
      "outputs": [],
      "stateMutability": "payable",
      "type": "function",
      "payable": true
    },
    {
      "inputs": [],
      "name": "getExpireFile",
      "outputs": [
        {
          "components": [
            {
              "internalType": "bytes32",
              "name": "oriHash",
              "type": "bytes32"
            },
            {
              "internalType": "uint256",
              "name": "index",
              "type": "uint256"
            },
            {
              "internalType": "enum FileStoreStruct.StorageType",
              "name": "storageType",
              "type": "uint8"
            }
          ],
          "internalType": "struct FileStoreStruct.ExpireFile",
          "name": "",
          "type": "tuple"
        }
      ],
      "stateMutability": "view",
      "type": "function",
      "constant": true
    },
    {
      "inputs": [],
      "name": "getExpireFileEntire",
      "outputs": [
        {
          "components": [
            {
              "internalType": "bytes32",
              "name": "oriHash",
              "type": "bytes32"
            },
            {
              "internalType": "uint256",
              "name": "index",
              "type": "uint256"
            },
            {
              "internalType": "enum FileStoreStruct.StorageType",
              "name": "storageType",
              "type": "uint8"
            }
          ],
          "internalType": "struct FileStoreStruct.ExpireFile",
          "name": "",
          "type": "tuple"
        }
      ],
      "stateMutability": "view",
      "type": "function",
      "constant": true
    },
    {
      "inputs": [
        {
          "internalType": "bytes32",
          "name": "storeKeyHash",
          "type": "bytes32"
        },
        {
          "internalType": "bytes32",
          "name": "minerId",
          "type": "bytes32"
        }
      ],
      "name": "isFileExpireEntire",
      "outputs": [
        {
          "internalType": "bool",
          "name": "",
          "type": "bool"
        }
      ],
      "stateMutability": "view",
      "type": "function",
      "constant": true
    },
    {
      "inputs": [
        {
          "internalType": "bytes32",
          "name": "oriHash",
          "type": "bytes32"
        },
        {
          "internalType": "bytes32",
          "name": "minerId",
          "type": "bytes32"
        }
      ],
      "name": "isFileExpire",
      "outputs": [
        {
          "internalType": "bool",
          "name": "",
          "type": "bool"
        }
      ],
      "stateMutability": "view",
      "type": "function",
      "constant": true
    },
    {
      "inputs": [
        {
          "internalType": "bytes32",
          "name": "storeKeyHash",
          "type": "bytes32"
        },
        {
          "internalType": "uint256",
          "name": "fileSize",
          "type": "uint256"
        },
        {
          "internalType": "bytes32",
          "name": "minerId",
          "type": "bytes32"
        }
      ],
      "name": "extendFileDeadlineEntire",
      "outputs": [],
      "stateMutability": "payable",
      "type": "function",
      "payable": true
    },
    {
      "inputs": [
        {
          "internalType": "bytes32",
          "name": "oriHash",
          "type": "bytes32"
        },
        {
          "internalType": "uint256",
          "name": "fileSize",
          "type": "uint256"
        },
        {
          "internalType": "bytes32",
          "name": "minerId",
          "type": "bytes32"
        }
      ],
      "name": "extendFileDeadline",
      "outputs": [],
      "stateMutability": "payable",
      "type": "function",
      "payable": true
    },
    {
      "inputs": [
        {
          "internalType": "bytes32",
          "name": "storeKeyHash",
          "type": "bytes32"
        },
        {
          "internalType": "uint256",
          "name": "fileSize",
          "type": "uint256"
        },
        {
          "internalType": "string",
          "name": "fileExt",
          "type": "string"
        },
        {
          "internalType": "bytes32",
          "name": "minerId",
          "type": "bytes32"
        }
      ],
      "name": "createFileStoreInfo4Entire",
      "outputs": [],
      "stateMutability": "payable",
      "type": "function",
      "payable": true
    },
    {
      "inputs": [
        {
          "internalType": "bytes32",
          "name": "oriHash",
          "type": "bytes32"
        },
        {
          "internalType": "uint256",
          "name": "fileSize",
          "type": "uint256"
        },
        {
          "internalType": "string",
          "name": "fileExt",
          "type": "string"
        },
        {
          "internalType": "bytes32",
          "name": "minerId",
          "type": "bytes32"
        },
        {
          "internalType": "bytes32",
          "name": "headHash",
          "type": "bytes32"
        },
        {
          "internalType": "bytes32",
          "name": "bodyHash",
          "type": "bytes32"
        }
      ],
      "name": "createFileStoreInfo",
      "outputs": [],
      "stateMutability": "payable",
      "type": "function",
      "payable": true
    },
    {
      "inputs": [
        {
          "internalType": "bytes32",
          "name": "storeKeyHash",
          "type": "bytes32"
        },
        {
          "internalType": "string",
          "name": "cid",
          "type": "string"
        },
        {
          "internalType": "uint8",
          "name": "status",
          "type": "uint8"
        }
      ],
      "name": "updateFileStoreInfo4Entire",
      "outputs": [],
      "stateMutability": "payable",
      "type": "function",
      "payable": true
    },
    {
      "inputs": [
        {
          "internalType": "bytes32",
          "name": "oriHash",
          "type": "bytes32"
        },
        {
          "internalType": "bool",
          "name": "headFlag",
          "type": "bool"
        },
        {
          "internalType": "string",
          "name": "cid",
          "type": "string"
        },
        {
          "internalType": "uint8",
          "name": "status",
          "type": "uint8"
        }
      ],
      "name": "updateFileStoreInfo",
      "outputs": [],
      "stateMutability": "payable",
      "type": "function",
      "payable": true
    },
    {
      "inputs": [
        {
          "internalType": "bytes32",
          "name": "oriHash",
          "type": "bytes32"
        },
        {
          "internalType": "address",
          "name": "dappContractAddr",
          "type": "address"
        }
      ],
      "name": "regDappContractAddr",
      "outputs": [],
      "stateMutability": "nonpayable",
      "type": "function"
    },
    {
      "inputs": [
        {
          "internalType": "bytes32",
          "name": "oriHash",
          "type": "bytes32"
        },
        {
          "internalType": "address",
          "name": "ownerAddr",
          "type": "address"
        }
      ],
      "name": "transferFileOwner",
      "outputs": [],
      "stateMutability": "nonpayable",
      "type": "function"
    },
    {
      "inputs": [
        {
          "internalType": "bytes32",
          "name": "minerId",
          "type": "bytes32"
        },
        {
          "internalType": "string",
          "name": "publicKey",
          "type": "string"
        },
        {
          "internalType": "string",
          "name": "peerId",
          "type": "string"
        },
        {
          "internalType": "string",
          "name": "peerAddr",
          "type": "string"
        },
        {
          "internalType": "string",
          "name": "proxyAddr",
          "type": "string"
        }
      ],
      "name": "setMinerInfo",
      "outputs": [],
      "stateMutability": "nonpayable",
      "type": "function"
    },
    {
      "inputs": [
        {
          "internalType": "bytes32",
          "name": "storeKeyHash",
          "type": "bytes32"
        }
      ],
      "name": "findMiner4EntireFile",
      "outputs": [
        {
          "components": [
            {
              "internalType": "bytes32",
              "name": "fileHash",
              "type": "bytes32"
            },
            {
              "internalType": "string",
              "name": "fileCid",
              "type": "string"
            },
            {
              "internalType": "bytes32[]",
              "name": "minerIds",
              "type": "bytes32[]"
            }
          ],
          "internalType": "struct FileStoreStruct.FileMinerInfo",
          "name": "",
          "type": "tuple"
        }
      ],
      "stateMutability": "view",
      "type": "function",
      "constant": true
    },
    {
      "inputs": [
        {
          "internalType": "bytes32",
          "name": "oriHash",
          "type": "bytes32"
        },
        {
          "internalType": "bool",
          "name": "headFlag",
          "type": "bool"
        }
      ],
      "name": "findMiner4File",
      "outputs": [
        {
          "components": [
            {
              "internalType": "bytes32",
              "name": "fileHash",
              "type": "bytes32"
            },
            {
              "internalType": "string",
              "name": "fileCid",
              "type": "string"
            },
            {
              "internalType": "bytes32[]",
              "name": "minerIds",
              "type": "bytes32[]"
            }
          ],
          "internalType": "struct FileStoreStruct.FileMinerInfo",
          "name": "",
          "type": "tuple"
        }
      ],
      "stateMutability": "view",
      "type": "function",
      "constant": true
    },
    {
      "inputs": [
        {
          "internalType": "bytes32",
          "name": "storeKeyHash",
          "type": "bytes32"
        },
        {
          "internalType": "bytes32",
          "name": "minerId",
          "type": "bytes32"
        }
      ],
      "name": "getFileInfo4Entire",
      "outputs": [
        {
          "components": [
            {
              "internalType": "uint256",
              "name": "headStatus",
              "type": "uint256"
            },
            {
              "internalType": "bytes32",
              "name": "headHash",
              "type": "bytes32"
            },
            {
              "internalType": "string",
              "name": "headCid",
              "type": "string"
            },
            {
              "internalType": "uint256",
              "name": "bodyStatus",
              "type": "uint256"
            },
            {
              "internalType": "bytes32",
              "name": "bodyHash",
              "type": "bytes32"
            },
            {
              "internalType": "string",
              "name": "bodyCid",
              "type": "string"
            },
            {
              "internalType": "uint256",
              "name": "fileCost",
              "type": "uint256"
            },
            {
              "internalType": "enum FileStoreStruct.Status",
              "name": "fileCostStatus",
              "type": "uint8"
            },
            {
              "internalType": "uint256",
              "name": "cDate",
              "type": "uint256"
            },
            {
              "internalType": "uint256",
              "name": "mDate",
              "type": "uint256"
            },
            {
              "internalType": "uint256",
              "name": "eDate",
              "type": "uint256"
            }
          ],
          "internalType": "struct FileStoreStruct.FileInfo",
          "name": "",
          "type": "tuple"
        }
      ],
      "stateMutability": "view",
      "type": "function",
      "constant": true
    },
    {
      "inputs": [
        {
          "internalType": "bytes32",
          "name": "oriHash",
          "type": "bytes32"
        },
        {
          "internalType": "bytes32",
          "name": "minerId",
          "type": "bytes32"
        }
      ],
      "name": "getFileInfo",
      "outputs": [
        {
          "components": [
            {
              "internalType": "uint256",
              "name": "headStatus",
              "type": "uint256"
            },
            {
              "internalType": "bytes32",
              "name": "headHash",
              "type": "bytes32"
            },
            {
              "internalType": "string",
              "name": "headCid",
              "type": "string"
            },
            {
              "internalType": "uint256",
              "name": "bodyStatus",
              "type": "uint256"
            },
            {
              "internalType": "bytes32",
              "name": "bodyHash",
              "type": "bytes32"
            },
            {
              "internalType": "string",
              "name": "bodyCid",
              "type": "string"
            },
            {
              "internalType": "uint256",
              "name": "fileCost",
              "type": "uint256"
            },
            {
              "internalType": "enum FileStoreStruct.Status",
              "name": "fileCostStatus",
              "type": "uint8"
            },
            {
              "internalType": "uint256",
              "name": "cDate",
              "type": "uint256"
            },
            {
              "internalType": "uint256",
              "name": "mDate",
              "type": "uint256"
            },
            {
              "internalType": "uint256",
              "name": "eDate",
              "type": "uint256"
            }
          ],
          "internalType": "struct FileStoreStruct.FileInfo",
          "name": "",
          "type": "tuple"
        }
      ],
      "stateMutability": "view",
      "type": "function",
      "constant": true
    },
    {
      "inputs": [
        {
          "internalType": "bytes32",
          "name": "storeKeyHash",
          "type": "bytes32"
        }
      ],
      "name": "getBaseInfo4Entire",
      "outputs": [
        {
          "components": [
            {
              "internalType": "bytes32",
              "name": "oriHash",
              "type": "bytes32"
            },
            {
              "internalType": "address",
              "name": "ownerAddr",
              "type": "address"
            },
            {
              "internalType": "uint256",
              "name": "fileSize",
              "type": "uint256"
            },
            {
              "internalType": "string",
              "name": "fileExt",
              "type": "string"
            },
            {
              "internalType": "bytes32[]",
              "name": "miners",
              "type": "bytes32[]"
            },
            {
              "internalType": "address[]",
              "name": "dappContractAddrs",
              "type": "address[]"
            },
            {
              "internalType": "uint256",
              "name": "cDate",
              "type": "uint256"
            },
            {
              "internalType": "uint256",
              "name": "mDate",
              "type": "uint256"
            }
          ],
          "internalType": "struct FileStoreStruct.BaseInfo",
          "name": "",
          "type": "tuple"
        }
      ],
      "stateMutability": "view",
      "type": "function",
      "constant": true
    },
    {
      "inputs": [
        {
          "internalType": "bytes32",
          "name": "oriHash",
          "type": "bytes32"
        }
      ],
      "name": "getBaseInfo",
      "outputs": [
        {
          "components": [
            {
              "internalType": "bytes32",
              "name": "oriHash",
              "type": "bytes32"
            },
            {
              "internalType": "address",
              "name": "ownerAddr",
              "type": "address"
            },
            {
              "internalType": "uint256",
              "name": "fileSize",
              "type": "uint256"
            },
            {
              "internalType": "string",
              "name": "fileExt",
              "type": "string"
            },
            {
              "internalType": "bytes32[]",
              "name": "miners",
              "type": "bytes32[]"
            },
            {
              "internalType": "address[]",
              "name": "dappContractAddrs",
              "type": "address[]"
            },
            {
              "internalType": "uint256",
              "name": "cDate",
              "type": "uint256"
            },
            {
              "internalType": "uint256",
              "name": "mDate",
              "type": "uint256"
            }
          ],
          "internalType": "struct FileStoreStruct.BaseInfo",
          "name": "",
          "type": "tuple"
        }
      ],
      "stateMutability": "view",
      "type": "function",
      "constant": true
    },
    {
      "inputs": [
        {
          "internalType": "bytes32",
          "name": "oriHash",
          "type": "bytes32"
        },
        {
          "internalType": "bool",
          "name": "headFlag",
          "type": "bool"
        },
        {
          "internalType": "bytes32",
          "name": "minerId",
          "type": "bytes32"
        },
        {
          "internalType": "bytes32",
          "name": "fileHash",
          "type": "bytes32"
        }
      ],
      "name": "validFileInfo",
      "outputs": [
        {
          "internalType": "uint8",
          "name": "",
          "type": "uint8"
        }
      ],
      "stateMutability": "view",
      "type": "function",
      "constant": true
    },
    {
      "inputs": [
        {
          "internalType": "bytes32",
          "name": "storeKeyHash",
          "type": "bytes32"
        },
        {
          "internalType": "bytes32",
          "name": "minerId",
          "type": "bytes32"
        }
      ],
      "name": "checkStorage4Entire",
      "outputs": [
        {
          "internalType": "uint8",
          "name": "",
          "type": "uint8"
        }
      ],
      "stateMutability": "view",
      "type": "function",
      "constant": true
    },
    {
      "inputs": [
        {
          "internalType": "bytes32",
          "name": "oriHash",
          "type": "bytes32"
        },
        {
          "internalType": "bool",
          "name": "headFlag",
          "type": "bool"
        },
        {
          "internalType": "bytes32",
          "name": "minerId",
          "type": "bytes32"
        }
      ],
      "name": "checkStorage",
      "outputs": [
        {
          "internalType": "uint8",
          "name": "",
          "type": "uint8"
        }
      ],
      "stateMutability": "view",
      "type": "function",
      "constant": true
    },
    {
      "inputs": [
        {
          "internalType": "bytes32",
          "name": "storeKeyHash",
          "type": "bytes32"
        }
      ],
      "name": "getStoreMiners4Entire",
      "outputs": [
        {
          "internalType": "bytes32[]",
          "name": "",
          "type": "bytes32[]"
        }
      ],
      "stateMutability": "view",
      "type": "function",
      "constant": true
    },
    {
      "inputs": [
        {
          "internalType": "bytes32",
          "name": "oriHash",
          "type": "bytes32"
        }
      ],
      "name": "getStoreMiners",
      "outputs": [
        {
          "internalType": "bytes32[]",
          "name": "",
          "type": "bytes32[]"
        }
      ],
      "stateMutability": "view",
      "type": "function",
      "constant": true
    },
    {
      "inputs": [
        {
          "internalType": "address",
          "name": "minerAddr",
          "type": "address"
        }
      ],
      "name": "getMinerId",
      "outputs": [
        {
          "internalType": "bytes32",
          "name": "",
          "type": "bytes32"
        }
      ],
      "stateMutability": "view",
      "type": "function",
      "constant": true
    },
    {
      "inputs": [
        {
          "internalType": "bytes32",
          "name": "minerId",
          "type": "bytes32"
        }
      ],
      "name": "getMinerAddr",
      "outputs": [
        {
          "internalType": "address",
          "name": "",
          "type": "address"
        }
      ],
      "stateMutability": "view",
      "type": "function",
      "constant": true
    },
    {
      "inputs": [
        {
          "internalType": "bytes32",
          "name": "minerId",
          "type": "bytes32"
        }
      ],
      "name": "getMinerInfoByMinerId",
      "outputs": [
        {
          "components": [
            {
              "internalType": "address",
              "name": "minerAddr",
              "type": "address"
            },
            {
              "internalType": "string",
              "name": "publicKey",
              "type": "string"
            },
            {
              "internalType": "string",
              "name": "peerId",
              "type": "string"
            },
            {
              "internalType": "string",
              "name": "peerAddr",
              "type": "string"
            },
            {
              "internalType": "string",
              "name": "proxyAddr",
              "type": "string"
            }
          ],
          "internalType": "struct FileStoreStruct.MinerInfo",
          "name": "",
          "type": "tuple"
        }
      ],
      "stateMutability": "view",
      "type": "function",
      "constant": true
    },
    {
      "inputs": [
        {
          "internalType": "bytes32",
          "name": "minerId",
          "type": "bytes32"
        }
      ],
      "name": "getProxyAddrByMinerId",
      "outputs": [
        {
          "internalType": "string",
          "name": "",
          "type": "string"
        }
      ],
      "stateMutability": "view",
      "type": "function",
      "constant": true
    },
    {
      "inputs": [],
      "name": "getBalance",
      "outputs": [
        {
          "internalType": "uint256",
          "name": "",
          "type": "uint256"
        }
      ],
      "stateMutability": "view",
      "type": "function",
      "constant": true
    }
  ],
  "bytecode": "0x608060405234801561001057600080fd5b506001805460ff19169055615bcf806200002b6000396000f3fe60806040526004361061029e576000357c010000000000000000000000000000000000000000000000000000000090048063802af5f01161016c578063a6e54f46116100de578063cbe40abc11610097578063cbe40abc146107cb578063d547741f146107de578063db9234f8146107fe578063e2dea71514610811578063ecbc119114610831578063f3b2a74c14610844576102a5565b8063a6e54f4614610716578063b603c7d21461072b578063b9a8fbf71461074b578063bd816ace1461076b578063ca15c8731461078b578063cbb3a92a146107ab576102a5565b8063928441da11610130578063928441da1461065f57806398b05cb21461068c578063992a534d146106ac5780639de81bf2146106bf578063a217fddf146106e1578063a224cee7146106f6576102a5565b8063802af5f0146105b05780638456cb59146105dd5780638608301d146105f25780639010d07c1461061257806391d148541461063f576102a5565b80634bacf4a4116102105780637078264c116101c95780637078264c146104e3578063717cc80c146105035780637521f96214610523578063768fe148146105435780637733d418146105635780637d7a51fb14610590576102a5565b80634bacf4a41461043b5780635c975abb1461044e5780635cdbdbbc14610463578063642164f314610490578063669f1427146104b05780636af7fa9a146104d0576102a5565b80632f2ff15d116102625780632f2ff15d14610379578063331e48841461039957806336568abe146103b95780633c0bf4ae146103d95780633f4ba83a146104065780634b7cc5561461041b576102a5565b8063028092cb146102a75780630867ca08146102dd57806312065fe01461030a57806323847afb1461032c578063248a9ca314610359576102a5565b366102a557005b005b3480156102b357600080fd5b506102c76102c2366004614432565b610857565b6040516102d49190615a54565b60405180910390f35b3480156102e957600080fd5b506102fd6102f8366004614491565b6108ec565b6040516102d49190615a11565b34801561031657600080fd5b5061031f610930565b6040516102d49190614cdb565b34801561033857600080fd5b5061034c610347366004614432565b610935565b6040516102d4919061588f565b34801561036557600080fd5b5061031f610374366004614432565b6109c4565b34801561038557600080fd5b506102a5610394366004614462565b6109da565b3480156103a557600080fd5b506102a56103b4366004614609565b610a26565b3480156103c557600080fd5b506102a56103d4366004614462565b610c6d565b3480156103e557600080fd5b506103f96103f436600461459f565b610cb2565b6040516102d49190614cd0565b34801561041257600080fd5b506102a5610e65565b34801561042757600080fd5b506103f961043636600461459f565b610ead565b6102a56104493660046147e6565b610ffc565b34801561045a57600080fd5b506103f9611205565b34801561046f57600080fd5b5061048361047e36600461459f565b61120e565b6040516102d49190615adb565b34801561049c57600080fd5b5061031f6104ab366004614432565b6113aa565b3480156104bc57600080fd5b506102a56104cb36600461435b565b6113e8565b6102a56104de36600461472a565b61144d565b3480156104ef57600080fd5b506102a56104fe366004614462565b611602565b34801561050f57600080fd5b506102a561051e366004614462565b611857565b34801561052f57600080fd5b506102fd61053e366004614432565b611b1e565b34801561054f57600080fd5b5061048361055e3660046144ec565b611b53565b34801561056f57600080fd5b5061058361057e36600461459f565b611e07565b6040516102d4919061595f565b34801561059c57600080fd5b506105836105ab36600461459f565b611ee0565b3480156105bc57600080fd5b506105d06105cb366004614432565b611f65565b6040516102d49190614cbd565b3480156105e957600080fd5b506102a5612003565b3480156105fe57600080fd5b506102a561060d366004614432565b612039565b34801561061e57600080fd5b5061063261062d36600461459f565b612112565b6040516102d49190614c73565b34801561064b57600080fd5b506103f961065a366004614462565b612130565b34801561066b57600080fd5b5061067f61067a366004614432565b61214e565b6040516102d49190614faa565b34801561069857600080fd5b5061034c6106a7366004614432565b6121ea565b6102a56106ba366004614528565b61223b565b3480156106cb57600080fd5b506106d46125c1565b6040516102d49190615931565b3480156106ed57600080fd5b5061031f61268f565b34801561070257600080fd5b506102a5610711366004614377565b612694565b34801561072257600080fd5b506106d46127a7565b34801561073757600080fd5b506102a56107463660046145c0565b612820565b34801561075757600080fd5b50610632610766366004614432565b612a37565b34801561077757600080fd5b506105d0610786366004614432565b612ad0565b34801561079757600080fd5b5061031f6107a6366004614432565b612b1a565b3480156107b757600080fd5b506104836107c63660046144b5565b612b31565b6102a56107d9366004614755565b612cb7565b3480156107ea57600080fd5b506102a56107f9366004614462565b612dbc565b6102a561080c36600461472a565b612dfa565b34801561081d57600080fd5b5061031f61082c36600461435b565b612f48565b6102a561083f36600461478d565b612fcc565b6102a56108523660046146d3565b6131ec565b61085f61408e565b60035460405160e060020a63028092cb028152600160a060020a039091169063028092cb90610892908590600401614cdb565b60006040518083038186803b1580156108aa57600080fd5b505afa1580156108be573d6000803e3d6000fd5b505050506040513d6000823e601f3d908101601f191682016040526108e69190810190614a7f565b92915050565b6108f46140c6565b8261091d5760405160e560020a62461bcd02815260040161091490615676565b60405180910390fd5b61092960028484613562565b9392505050565b303190565b61093d6140ea565b60035460405160e060020a6323847afb028152600160a060020a03909116906323847afb90610970908590600401614cdb565b60006040518083038186803b15801561098857600080fd5b505afa15801561099c573d6000803e3d6000fd5b505050506040513d6000823e601f3d908101601f191682016040526108e69190810190614852565b6000908152600260208190526040909120015490565b600082815260026020819052604090912001546109f99061065a613b47565b610a185760405160e560020a62461bcd0281526004016109149061501a565b610a228282613b4b565b5050565b610a2e611205565b15610a4e5760405160e560020a62461bcd0281526004016109149061534a565b33610a5761408e565b60035460405160e060020a63028092cb028152600160a060020a039091169063028092cb90610a8a908e90600401614cdb565b60006040518083038186803b158015610aa257600080fd5b505afa158015610ab6573d6000803e3d6000fd5b505050506040513d6000823e601f3d908101601f19168201604052610ade9190810190614a7f565b60208101515190915015610b965760035460405160e060020a63e2dea715028152600091600160a060020a03169063e2dea71590610b20908690600401614c73565b60206040518083038186803b158015610b3857600080fd5b505afa158015610b4c573d6000803e3d6000fd5b505050506040513d601f19601f82011682018060405250810190610b70919061444a565b90508b8114610b945760405160e560020a62461bcd02815260040161091490615381565b505b6003546040517fd1ba3151000000000000000000000000000000000000000000000000000000008152600160a060020a039091169063d1ba315190610bf1908e9086908f908f908f908f908f908f908f908f90600401614db2565b600060405180830381600087803b158015610c0b57600080fd5b505af1158015610c1f573d6000803e3d6000fd5b505050507f6395949b438cd6c015a95f3a15dd3f0bf64a249ff80455c6684d67a33212451d8b838c8c604051610c589493929190614d89565b60405180910390a15050505050505050505050565b610c75613b47565b600160a060020a031681600160a060020a031614610ca85760405160e560020a62461bcd02815260040161091490615832565b610a228282613bba565b6000610cbc611205565b15610cdc5760405160e560020a62461bcd0281526004016109149061534a565b82610cfc5760405160e560020a62461bcd028152600401610914906150ae565b81610d1c5760405160e560020a62461bcd0281526004016109149061560a565b60035460405160e060020a63397a10a9028152600091600160a060020a03169063397a10a990610d529087908790600401614eff565b60206040518083038186803b158015610d6a57600080fd5b505afa158015610d7e573d6000803e3d6000fd5b505050506040513d601f19601f82011682018060405250810190610da29190614416565b905080610dc45760405160e560020a62461bcd02815260040161091490615259565b610dcc61413b565b60035460405160e060020a637d7a51fb028152600160a060020a0390911690637d7a51fb90610e019088908890600401614eff565b60006040518083038186803b158015610e1957600080fd5b505afa158015610e2d573d6000803e3d6000fd5b505050506040513d6000823e601f3d908101601f19168201604052610e559190810190614987565b6101400151421195945050505050565b610e84604051610e7490614c4a565b604051809103902061065a613b47565b610ea35760405160e560020a62461bcd028152600401610914906156ad565b610eab613c29565b565b6000610eb7611205565b15610ed75760405160e560020a62461bcd0281526004016109149061534a565b82610ef75760405160e560020a62461bcd02815260040161091490615676565b81610f175760405160e560020a62461bcd0281526004016109149061560a565b60035460405160e160020a630cb1fa1f028152600091600160a060020a031690631963f43e90610f4d9087908790600401614eff565b60206040518083038186803b158015610f6557600080fd5b505afa158015610f79573d6000803e3d6000fd5b505050506040513d601f19601f82011682018060405250810190610f9d9190614416565b905080610fbf5760405160e560020a62461bcd02815260040161091490615259565b610fc761413b565b60035460405160e360020a630ee67a83028152600160a060020a0390911690637733d41890610e019088908890600401614eff565b611004611205565b156110245760405160e560020a62461bcd0281526004016109149061534a565b423361102e61408e565b60035460405160e060020a63028092cb028152600160a060020a039091169063028092cb90611061908990600401614cdb565b60006040518083038186803b15801561107957600080fd5b505afa15801561108d573d6000803e3d6000fd5b505050506040513d6000823e601f3d908101601f191682016040526110b59190810190614a7f565b90506000816020015151116110df5760405160e560020a62461bcd028152600401610914906150e5565b60006110ea8a6113aa565b905080341461110e5760405160e560020a62461bcd02815260040161091490615576565b60405130903480156108fc02916000818181858888f1935050505015801561113a573d6000803e3d6000fd5b506003546040517e420885000000000000000000000000000000000000000000000000000000008152600160a060020a03909116906242088590611194908e9087908f908f908f908f908f908f908f908d90600401614ea0565b600060405180830381600087803b1580156111ae57600080fd5b505af11580156111c2573d6000803e3d6000fd5b505050507f22a6a0618cb6b5ca64a2b7a8ccde9aa6340c73ff189ca6ce132d116fb9d489288b848c8c8c8c8c8c8c604051610c5899989796959493929190614e47565b60015460ff1690565b6000826112305760405160e560020a62461bcd028152600401610914906150ae565b816112505760405160e560020a62461bcd0281526004016109149061560a565b6112586140ea565b6003546040517f98b05cb2000000000000000000000000000000000000000000000000000000008152600160a060020a03909116906398b05cb2906112a1908790600401614cdb565b60006040518083038186803b1580156112b957600080fd5b505afa1580156112cd573d6000803e3d6000fd5b505050506040513d6000823e601f3d908101601f191682016040526112f59190810190614852565b60035460405160e060020a63397a10a9028152919250600091600160a060020a039091169063397a10a9906113309088908890600401614eff565b60206040518083038186803b15801561134857600080fd5b505afa15801561135c573d6000803e3d6000fd5b505050506040513d601f19601f820116820180604052508101906113809190614416565b905080611392576000925050506108e6565b6113a160018387600088613c9a565b95945050505050565b60008082116113ce5760405160e560020a62461bcd028152600401610914906155d3565b50620f4240620f423f919091010466038d7ea4c680000290565b6113f5600061065a613b47565b6114145760405160e560020a62461bcd0281526004016109149061519f565b60038054600160a060020a0390921673ffffffffffffffffffffffffffffffffffffffff19928316811790915560048054909216179055565b611455611205565b156114755760405160e560020a62461bcd0281526004016109149061534a565b60035460405160e060020a63397a10a9028152600091600160a060020a03169063397a10a9906114ab9087908690600401614eff565b60206040518083038186803b1580156114c357600080fd5b505afa1580156114d7573d6000803e3d6000fd5b505050506040513d601f19601f820116820180604052508101906114fb9190614416565b90508061151d5760405160e560020a62461bcd02815260040161091490615259565b6000611528846113aa565b905080341461154c5760405160e560020a62461bcd02815260040161091490615576565b6003546040517f68d88056000000000000000000000000000000000000000000000000000000008152600160a060020a03909116906368d880569061159b908890879086908a90600401614f8f565b600060405180830381600087803b1580156115b557600080fd5b505af11580156115c9573d6000803e3d6000fd5b50506040513092503480156108fc029250906000818181858888f193505050501580156115fa573d6000803e3d6000fd5b505050505050565b61160a611205565b1561162a5760405160e560020a62461bcd0281526004016109149061534a565b42336116346140ea565b60035460405160e060020a6323847afb028152600160a060020a03909116906323847afb90611667908890600401614cdb565b60006040518083038186803b15801561167f57600080fd5b505afa158015611693573d6000803e3d6000fd5b505050506040513d6000823e601f3d908101601f191682016040526116bb9190810190614852565b905060008160c00151116116e45760405160e560020a62461bcd02815260040161091490615641565b81600160a060020a03168160200151600160a060020a03161461171c5760405160e560020a62461bcd02815260040161091490615519565b60a0810151516000805b828110156117705786600160a060020a03168460a00151828151811061174857fe5b6020026020010151600160a060020a031614156117685760019150611770565b600101611726565b5080156117925760405160e560020a62461bcd02815260040161091490615142565b6003546040517fe20b6238000000000000000000000000000000000000000000000000000000008152600160a060020a039091169063e20b6238906117e1908a9088908b908b90600401614d1a565b600060405180830381600087803b1580156117fb57600080fd5b505af115801561180f573d6000803e3d6000fd5b505050507fb57d6197d3a659be7be2ea7fc4f17d13ab3f2ca1c5d0b8d937c97cae1beefc7687858860405161184693929190614cfb565b60405180910390a150505050505050565b61185f611205565b1561187f5760405160e560020a62461bcd0281526004016109149061534a565b8161189f5760405160e560020a62461bcd02815260040161091490615676565b600160a060020a0381166118c85760405160e560020a62461bcd0281526004016109149061570a565b42336118d26140ea565b60035460405160e060020a6323847afb028152600160a060020a03909116906323847afb90611905908890600401614cdb565b60006040518083038186803b15801561191d57600080fd5b505afa158015611931573d6000803e3d6000fd5b505050506040513d6000823e601f3d908101601f191682016040526119599190810190614852565b905060008160c00151116119825760405160e560020a62461bcd02815260040161091490615641565b6020810151600160a060020a0381166119b05760405160e560020a62461bcd028152600401610914906152b6565b80600160a060020a031685600160a060020a031614156119e55760405160e560020a62461bcd028152600401610914906153de565b60a0820151516000805b82811015611a395785600160a060020a03168560a001518281518110611a1157fe5b6020026020010151600160a060020a03161415611a315760019150611a39565b6001016119ef565b5080611a5a5760405160e560020a62461bcd02815260040161091490615413565b6003546040517f90b4b2bd000000000000000000000000000000000000000000000000000000008152600160a060020a03909116906390b4b2bd90611aa7908b908b908b90600401614e28565b600060405180830381600087803b158015611ac157600080fd5b505af1158015611ad5573d6000803e3d6000fd5b505050507fbe683ff9a6f425521c79acd1ca4b7174994034e74a01ec06c90e7de6862f42d6888489604051611b0c93929190614cfb565b60405180910390a15050505050505050565b611b266140c6565b81611b465760405160e560020a62461bcd028152600401610914906150ae565b6108e66001836000613562565b600084611b755760405160e560020a62461bcd02815260040161091490615676565b611b7d6140ea565b60035460405160e060020a6323847afb028152600160a060020a03909116906323847afb90611bb0908990600401614cdb565b60006040518083038186803b158015611bc857600080fd5b505afa158015611bdc573d6000803e3d6000fd5b505050506040513d6000823e601f3d908101601f19168201604052611c049190810190614852565b90508060c0015160001415611c1d576000915050611dff565b60035460405160e160020a630cb1fa1f028152600091600160a060020a031690631963f43e90611c53908a908990600401614eff565b60206040518083038186803b158015611c6b57600080fd5b505afa158015611c7f573d6000803e3d6000fd5b505050506040513d601f19601f82011682018060405250810190611ca39190614416565b905080611cb557600092505050611dff565b86611cd55760405160e560020a62461bcd02815260040161091490615676565b84611cf55760405160e560020a62461bcd0281526004016109149061560a565b83611d155760405160e560020a62461bcd0281526004016109149061579e565b60c0820151611d2957600092505050611dff565b611d3161413b565b60035460405160e360020a630ee67a83028152600160a060020a0390911690637733d41890611d66908b908a90600401614eff565b60006040518083038186803b158015611d7e57600080fd5b505afa158015611d92573d6000803e3d6000fd5b505050506040513d6000823e601f3d908101601f19168201604052611dba9190810190614987565b90508615611ddf578481602001511415611dda5760019350505050611dff565b611df7565b8481608001511415611df75760019350505050611dff565b600293505050505b949350505050565b611e0f61413b565b82611e2f5760405160e560020a62461bcd02815260040161091490615676565b81611e4f5760405160e560020a62461bcd0281526004016109149061560a565b611e5761413b565b60035460405160e360020a630ee67a83028152600160a060020a0390911690637733d41890611e8c9087908790600401614eff565b60006040518083038186803b158015611ea457600080fd5b505afa158015611eb8573d6000803e3d6000fd5b505050506040513d6000823e601f3d908101601f19168201604052611dff9190810190614987565b611ee861413b565b82611f085760405160e560020a62461bcd028152600401610914906150ae565b81611f285760405160e560020a62461bcd0281526004016109149061560a565b611f3061413b565b60035460405160e060020a637d7a51fb028152600160a060020a0390911690637d7a51fb90611e8c9087908790600401614eff565b6003546040517f802af5f0000000000000000000000000000000000000000000000000000000008152606091600160a060020a03169063802af5f090611faf908590600401614cdb565b60006040518083038186803b158015611fc757600080fd5b505afa158015611fdb573d6000803e3d6000fd5b505050506040513d6000823e601f3d908101601f191682016040526108e691908101906143e3565b612012604051610e7490614c4a565b6120315760405160e560020a62461bcd02815260040161091490615741565b610eab613e60565b612046600061065a613b47565b6120655760405160e560020a62461bcd0281526004016109149061519f565b6000811180156120755750606481105b6120945760405160e560020a62461bcd028152600401610914906157d5565b6003546040517f8608301d000000000000000000000000000000000000000000000000000000008152600160a060020a0390911690638608301d906120dd908490600401614cdb565b600060405180830381600087803b1580156120f757600080fd5b505af115801561210b573d6000803e3d6000fd5b5050505050565b6000828152600260205260408120610929908363ffffffff613ebd16565b6000828152600260205260408120610929908363ffffffff613ec916565b606061215861408e565b60035460405160e060020a63028092cb028152600160a060020a039091169063028092cb9061218b908690600401614cdb565b60006040518083038186803b1580156121a357600080fd5b505afa1580156121b7573d6000803e3d6000fd5b505050506040513d6000823e601f3d908101601f191682016040526121df9190810190614a7f565b608001519392505050565b6121f26140ea565b6003546040517f98b05cb2000000000000000000000000000000000000000000000000000000008152600160a060020a03909116906398b05cb290610970908590600401614cdb565b612243611205565b156122635760405160e560020a62461bcd0281526004016109149061534a565b60035460405160e060020a63e2dea71502815242913391600091600160a060020a03169063e2dea7159061229b908590600401614c73565b60206040518083038186803b1580156122b357600080fd5b505afa1580156122c7573d6000803e3d6000fd5b505050506040513d601f19601f820116820180604052508101906122eb919061444a565b60035460405160e160020a630cb1fa1f028152919250600091600160a060020a0390911690631963f43e90612326908c908690600401614eff565b60206040518083038186803b15801561233e57600080fd5b505afa158015612352573d6000803e3d6000fd5b505050506040513d601f19601f820116820180604052508101906123769190614416565b9050806123985760405160e560020a62461bcd028152600401610914906151fc565b6003546040517f85d05864000000000000000000000000000000000000000000000000000000008152600160a060020a03909116906385d05864906123ed908c9087908d908d908d908d908d90600401614d3f565b600060405180830381600087803b15801561240757600080fd5b505af115801561241b573d6000803e3d6000fd5b50506003546040517f57e2c3e200000000000000000000000000000000000000000000000000000000815260009350600160a060020a0390911691506357e2c3e290612470908d908790600290600401614f69565b60206040518083038186803b15801561248857600080fd5b505afa15801561249c573d6000803e3d6000fd5b505050506040513d601f19601f820116820180604052508101906124c0919061444a565b905080156124f757604051339082156108fc029083906000818181858888f193505050501580156124f5573d6000803e3d6000fd5b505b6003546040517f3efb514b000000000000000000000000000000000000000000000000000000008152600160a060020a0390911690633efb514b90612542908d908890600401614ce4565b600060405180830381600087803b15801561255c57600080fd5b505af1158015612570573d6000803e3d6000fd5b505050507f669d194c406eba24a400019dc8a87ed1c62929fd3f9ee44d6c85a2ed10c550c08a848b898c8c6040516125ad96959493929190614f2c565b60405180910390a150505050505050505050565b6125c96141a6565b6125d1611205565b156125f15760405160e560020a62461bcd0281526004016109149061534a565b6003546040517f1cbfefe6000000000000000000000000000000000000000000000000000000008152600160a060020a0390911690631cbfefe69061263a903390600401614c73565b60606040518083038186803b15801561265257600080fd5b505afa158015612666573d6000803e3d6000fd5b505050506040513d601f19601f8201168201806040525081019061268a9190614944565b905090565b600081565b600454600160a060020a03161580156126b757506126b5600061065a613b47565b155b6126d65760405160e560020a62461bcd02815260040161091490615496565b6126fa6040516126e590614c4a565b60405180910390206126f5613b47565b610a18565b61270760006126f5613b47565b8181600081811061271457fe5b9050602002016020810190612729919061435b565b6003805473ffffffffffffffffffffffffffffffffffffffff1916600160a060020a0392909216919091179055818160008161276157fe5b9050602002016020810190612776919061435b565b6004805473ffffffffffffffffffffffffffffffffffffffff1916600160a060020a03929092169190911790555050565b6127af6141a6565b6127b7611205565b156127d75760405160e560020a62461bcd0281526004016109149061534a565b6003546040517f7015d393000000000000000000000000000000000000000000000000000000008152600160a060020a0390911690637015d3939061263a903390600401614c73565b612828611205565b156128485760405160e560020a62461bcd0281526004016109149061534a565b612855600061065a613b47565b6128745760405160e560020a62461bcd0281526004016109149061519f565b6000816129075760035460405160e160020a630cb1fa1f028152600160a060020a0390911690631963f43e906128b09088908890600401614eff565b60206040518083038186803b1580156128c857600080fd5b505afa1580156128dc573d6000803e3d6000fd5b505050506040513d601f19601f820116820180604052508101906129009190614416565b905061298f565b60035460405160e060020a63397a10a9028152600160a060020a039091169063397a10a99061293c9088908890600401614eff565b60206040518083038186803b15801561295457600080fd5b505afa158015612968573d6000803e3d6000fd5b505050506040513d601f19601f8201168201806040525081019061298c9190614416565b90505b806129af5760405160e560020a62461bcd028152600401610914906151fc565b6003546040517fb603c7d2000000000000000000000000000000000000000000000000000000008152600160a060020a039091169063b603c7d2906129fe908890889088908890600401614f0d565b600060405180830381600087803b158015612a1857600080fd5b505af1158015612a2c573d6000803e3d6000fd5b505050505050505050565b6000612a4161408e565b60035460405160e060020a63028092cb028152600160a060020a039091169063028092cb90612a74908690600401614cdb565b60006040518083038186803b158015612a8c57600080fd5b505afa158015612aa0573d6000803e3d6000fd5b505050506040513d6000823e601f3d908101601f19168201604052612ac89190810190614a7f565b519392505050565b6003546040517fbd816ace000000000000000000000000000000000000000000000000000000008152606091600160a060020a03169063bd816ace90611faf908590600401614cdb565b60008181526002602052604081206108e690613ede565b600083612b535760405160e560020a62461bcd02815260040161091490615676565b81612b735760405160e560020a62461bcd0281526004016109149061560a565b612b7b6140ea565b60035460405160e060020a6323847afb028152600160a060020a03909116906323847afb90612bae908890600401614cdb565b60006040518083038186803b158015612bc657600080fd5b505afa158015612bda573d6000803e3d6000fd5b505050506040513d6000823e601f3d908101601f19168201604052612c029190810190614852565b60035460405160e160020a630cb1fa1f028152919250600091600160a060020a0390911690631963f43e90612c3d9089908890600401614eff565b60206040518083038186803b158015612c5557600080fd5b505afa158015612c69573d6000803e3d6000fd5b505050506040513d601f19601f82011682018060405250810190612c8d9190614416565b905080612c9f57600092505050610929565b612cad600283888888613c9a565b9695505050505050565b612cbf611205565b15612cdf5760405160e560020a62461bcd0281526004016109149061534a565b6003546040517fbfb358e0000000000000000000000000000000000000000000000000000000008152600091600160a060020a03169063bfb358e090612d2f903390889088908890600401614c87565b602060405180830381600087803b158015612d4957600080fd5b505af1158015612d5d573d6000803e3d6000fd5b505050506040513d601f19601f82011682018060405250810190612d81919061444a565b90508015612db657604051339082156108fc029083906000818181858888f1935050505015801561210b573d6000803e3d6000fd5b50505050565b60008281526002602081905260409091200154612ddb9061065a613b47565b610ca85760405160e560020a62461bcd028152600401610914906152ed565b612e02611205565b15612e225760405160e560020a62461bcd0281526004016109149061534a565b60035460405160e160020a630cb1fa1f028152600091600160a060020a031690631963f43e90612e589087908690600401614eff565b60206040518083038186803b158015612e7057600080fd5b505afa158015612e84573d6000803e3d6000fd5b505050506040513d601f19601f82011682018060405250810190612ea89190614416565b905080612eca5760405160e560020a62461bcd02815260040161091490615259565b6000612ed5846113aa565b9050803414612ef95760405160e560020a62461bcd02815260040161091490615576565b6003546040517fdee93d45000000000000000000000000000000000000000000000000000000008152600160a060020a039091169063dee93d459061159b908890879086908a90600401614f8f565b60035460405160e060020a63e2dea715028152600091600160a060020a03169063e2dea71590612f7c908590600401614c73565b60206040518083038186803b158015612f9457600080fd5b505afa158015612fa8573d6000803e3d6000fd5b505050506040513d601f19601f820116820180604052508101906108e6919061444a565b612fd4611205565b15612ff45760405160e560020a62461bcd0281526004016109149061534a565b4233612ffe61408e565b60035460405160e060020a63028092cb028152600160a060020a039091169063028092cb90613031908790600401614cdb565b60006040518083038186803b15801561304957600080fd5b505afa15801561305d573d6000803e3d6000fd5b505050506040513d6000823e601f3d908101601f191682016040526130859190810190614a7f565b90506000816020015151116130af5760405160e560020a62461bcd028152600401610914906150e5565b6000806130bb896113aa565b90508034146130df5760405160e560020a62461bcd02815260040161091490615576565b60405130903480156108fc02916000818181858888f1935050505015801561310b573d6000803e3d6000fd5b50600360009054906101000a9004600160a060020a0316600160a060020a0316634dd5e92a8b868c8c8c8c898a8e8b6040518b63ffffffff167c010000000000000000000000000000000000000000000000000000000002815260040161317b9a99989796959493929190614ea0565b600060405180830381600087803b15801561319557600080fd5b505af11580156131a9573d6000803e3d6000fd5b505050507f22a6a0618cb6b5ca64a2b7a8ccde9aa6340c73ff189ca6ce132d116fb9d489288a858b8b8b8b88898d6040516125ad99989796959493929190614e47565b6131f4611205565b156132145760405160e560020a62461bcd0281526004016109149061534a565b60035460405160e060020a63e2dea715028152429133916000918291600160a060020a039091169063e2dea71590613250908690600401614c73565b60206040518083038186803b15801561326857600080fd5b505afa15801561327c573d6000803e3d6000fd5b505050506040513d601f19601f820116820180604052508101906132a0919061444a565b60035460405160e060020a63397a10a9028152919250600091600160a060020a039091169063397a10a9906132db908c908690600401614eff565b60206040518083038186803b1580156132f357600080fd5b505afa158015613307573d6000803e3d6000fd5b505050506040513d601f19601f8201168201806040525081019061332b9190614416565b90508061334d5760405160e560020a62461bcd028152600401610914906151fc565b6003546040517f497b5a18000000000000000000000000000000000000000000000000000000008152600160a060020a039091169063497b5a18906133a2908c90889088908e908e908e908e90600401614d3f565b600060405180830381600087803b1580156133bc57600080fd5b505af11580156133d0573d6000803e3d6000fd5b50506003546040517f57e2c3e200000000000000000000000000000000000000000000000000000000815260009350600160a060020a0390911691506357e2c3e290613425908d908790600190600401614f69565b60206040518083038186803b15801561343d57600080fd5b505afa158015613451573d6000803e3d6000fd5b505050506040513d601f19601f82011682018060405250810190613475919061444a565b905080156134ac57604051339082156108fc029083906000818181858888f193505050501580156134aa573d6000803e3d6000fd5b505b6003546040517fa1202096000000000000000000000000000000000000000000000000000000008152600160a060020a039091169063a1202096906134f7908d908990600401614ce4565b600060405180830381600087803b15801561351157600080fd5b505af1158015613525573d6000803e3d6000fd5b505050507f669d194c406eba24a400019dc8a87ed1c62929fd3f9ee44d6c85a2ed10c550c08a84868a8d8d6040516125ad96959493929190614f2c565b61356a6140c6565b8261358a5760405160e560020a62461bcd02815260040161091490615676565b6135926140ea565b8460ff166002141561362c5760035460405160e060020a6323847afb028152600160a060020a03909116906323847afb906135d1908790600401614cdb565b60006040518083038186803b1580156135e957600080fd5b505afa1580156135fd573d6000803e3d6000fd5b505050506040513d6000823e601f3d908101601f191682016040526136259190810190614852565b90506136cc565b6003546040517f98b05cb2000000000000000000000000000000000000000000000000000000008152600160a060020a03909116906398b05cb290613675908790600401614cdb565b60006040518083038186803b15801561368d57600080fd5b505afa1580156136a1573d6000803e3d6000fd5b505050506040513d6000823e601f3d908101601f191682016040526136c99190810190614852565b90505b6000805b826080015151811015613883576000836080015182815181106136ef57fe5b6020026020010151905061370161413b565b8860ff166002141561379d5760035460405160e360020a630ee67a83028152600160a060020a0390911690637733d41890613742908b908690600401614eff565b60006040518083038186803b15801561375a57600080fd5b505afa15801561376e573d6000803e3d6000fd5b505050506040513d6000823e601f3d908101601f191682016040526137969190810190614987565b9050613829565b60035460405160e060020a637d7a51fb028152600160a060020a0390911690637d7a51fb906137d2908b908690600401614eff565b60006040518083038186803b1580156137ea57600080fd5b505afa1580156137fe573d6000803e3d6000fd5b505050506040513d6000823e601f3d908101601f191682016040526138269190810190614987565b90505b86156138555780516001148015613844575080610140015142105b15613850576001909301925b613879565b8060600151600114801561386d575080610140015142105b15613879576001909301925b50506001016136d0565b5060608167ffffffffffffffff8111801561389d57600080fd5b506040519080825280602002602001820160405280156138c7578160200160208202803683370190505b5090506138d26140c6565b506040805160608101825260008082528251602081810185529181529082015290810182905260c084015161390c57935061092992505050565b8261391c57935061092992505050565b6000805b856080015151811015613b395760008660800151828151811061393f57fe5b6020026020010151905061395161413b565b8b60ff16600214156139ed5760035460405160e360020a630ee67a83028152600160a060020a0390911690637733d41890613992908e908690600401614eff565b60006040518083038186803b1580156139aa57600080fd5b505afa1580156139be573d6000803e3d6000fd5b505050506040513d6000823e601f3d908101601f191682016040526139e69190810190614987565b9050613a79565b60035460405160e060020a637d7a51fb028152600160a060020a0390911690637d7a51fb90613a22908e908690600401614eff565b60006040518083038186803b158015613a3a57600080fd5b505afa158015613a4e573d6000803e3d6000fd5b505050506040513d6000823e601f3d908101601f19168201604052613a769190810190614987565b90505b8915613ad85780516001148015613a94575080610140015142105b15613ad35783613ab05760208082015186526040820151908601525b8185604001518581518110613ac157fe5b60209081029190910101526001909301925b613b2f565b80606001516001148015613af0575080610140015142105b15613b2f5783613b0c576080810151855260a081015160208601525b8185604001518581518110613b1d57fe5b60209081029190910101526001909301925b5050600101613920565b509098975050505050505050565b3390565b6000828152600260205260409020613b69908263ffffffff613ee916565b15610a2257613b76613b47565b600160a060020a031681600160a060020a0316837f2f8788117e7eff1d82e926ec794901d17c78024a50270940304540a733656f0d60405160405180910390a45050565b6000828152600260205260409020613bd8908263ffffffff613efe16565b15610a2257613be5613b47565b600160a060020a031681600160a060020a0316837ff6391f5c32d9c69d2a47ea670b442974b53935d1edc7fd64eb21e047a839171b60405160405180910390a45050565b613c31611205565b613c505760405160e560020a62461bcd02815260040161091490615077565b6001805460ff191690557f5db9ee0a495bf2e6ff9c91a7834c1ba4fdd244a5e8aa4e537bd38aeae4b073aa613c83613b47565b604051613c909190614c73565b60405180910390a1565b600083613cbc5760405160e560020a62461bcd02815260040161091490615676565b81613cdc5760405160e560020a62461bcd0281526004016109149061560a565b60c0850151613ced575060006113a1565b613cf561413b565b8660ff1660021415613d915760035460405160e360020a630ee67a83028152600160a060020a0390911690637733d41890613d369088908790600401614eff565b60006040518083038186803b158015613d4e57600080fd5b505afa158015613d62573d6000803e3d6000fd5b505050506040513d6000823e601f3d908101601f19168201604052613d8a9190810190614987565b9050613e1d565b60035460405160e060020a637d7a51fb028152600160a060020a0390911690637d7a51fb90613dc69088908790600401614eff565b60006040518083038186803b158015613dde57600080fd5b505afa158015613df2573d6000803e3d6000fd5b505050506040513d6000823e601f3d908101601f19168201604052613e1a9190810190614987565b90505b8315613e3c57805160011415613e375760019150506113a1565b613e53565b806060015160011415613e535760019150506113a1565b5060029695505050505050565b613e68611205565b15613e885760405160e560020a62461bcd0281526004016109149061534a565b6001805460ff1916811790557f62e78cea01bee320cd4e420270b5ea74000d11b0c9f74754ebdbfc544b05a258613c83613b47565b60006109298383613f13565b600061092983600160a060020a038416613f5b565b60006108e682613f73565b600061092983600160a060020a038416613f77565b600061092983600160a060020a038416613fc1565b81546000908210613f395760405160e560020a62461bcd02815260040161091490614fbd565b826000018281548110613f4857fe5b9060005260206000200154905092915050565b60009081526001919091016020526040902054151590565b5490565b6000613f838383613f5b565b613fb9575081546001818101845560008481526020808220909301849055845484825282860190935260409020919091556108e6565b5060006108e6565b6000818152600183016020526040812054801561407d5783546000198083019190810190600090879083908110613ff457fe5b906000526020600020015490508087600001848154811061401157fe5b60009182526020808320909101929092558281526001898101909252604090209084019055865487908061404157fe5b600190038181906000526020600020016000905590558660010160008781526020019081526020016000206000905560019450505050506108e6565b60009150506108e6565b5092915050565b6040518060a001604052806000600160a060020a03168152602001606081526020016060815260200160608152602001606081525090565b60405180606001604052806000801916815260200160608152602001606081525090565b604051806101000160405280600080191681526020016000600160a060020a031681526020016000815260200160608152602001606081526020016060815260200160008152602001600081525090565b604051806101600160405280600081526020016000801916815260200160608152602001600081526020016000801916815260200160608152602001600081526020016000600481111561418b57fe5b81526020016000815260200160008152602001600081525090565b60408051606081018252600080825260208201819052909182015290565b80516108e681615b69565b600082601f8301126141df578081fd5b81516141f26141ed82615b10565b615ae9565b81815291506020808301908481018184028601820187101561421357600080fd5b60005b8481101561423b57815161422981615b69565b84529282019290820190600101614216565b505050505092915050565b600082601f830112614256578081fd5b81516142646141ed82615b10565b81815291506020808301908481018184028601820187101561428557600080fd5b60005b8481101561423b57815184529282019290820190600101614288565b8051600581106108e657600080fd5b60008083601f8401126142c4578182fd5b50813567ffffffffffffffff8111156142db578182fd5b6020830191508360208285010111156142f357600080fd5b9250929050565b600082601f83011261430a578081fd5b815167ffffffffffffffff811115614320578182fd5b614333601f8201601f1916602001615ae9565b915080825283602082850101111561434a57600080fd5b614087816020840160208601615b30565b60006020828403121561436c578081fd5b813561092981615b69565b60008060208385031215614389578081fd5b823567ffffffffffffffff808211156143a0578283fd5b81850186601f8201126143b1578384fd5b80359250818311156143c1578384fd5b86602080850283010111156143d4578384fd5b60200196919550909350505050565b6000602082840312156143f4578081fd5b815167ffffffffffffffff81111561440a578182fd5b611dff84828501614246565b600060208284031215614427578081fd5b815161092981615b7e565b600060208284031215614443578081fd5b5035919050565b60006020828403121561445b578081fd5b5051919050565b60008060408385031215614474578182fd5b82359150602083013561448681615b69565b809150509250929050565b600080604083850312156144a3578182fd5b82359150602083013561448681615b7e565b6000806000606084860312156144c9578081fd5b8335925060208401356144db81615b7e565b929592945050506040919091013590565b60008060008060808587031215614501578182fd5b84359350602085013561451381615b7e565b93969395505050506040820135916060013590565b60008060008060006080868803121561453f578283fd5b85359450602086013561455181615b7e565b9350604086013567ffffffffffffffff81111561456c578384fd5b614578888289016142b3565b909450925050606086013560ff81168114614591578182fd5b809150509295509295909350565b600080604083850312156145b1578182fd5b50508035926020909101359150565b600080600080608085870312156145d5578182fd5b843593506020850135925060408501356145ee81615b7e565b915060608501356145fe81615b7e565b939692955090935050565b600080600080600080600080600060a08a8c031215614626578687fd5b8935985060208a013567ffffffffffffffff80821115614644578889fd5b6146508d838e016142b3565b909a50985060408c0135915080821115614668578586fd5b6146748d838e016142b3565b909850965060608c013591508082111561468c578586fd5b6146988d838e016142b3565b909650945060808c01359150808211156146b0578384fd5b506146bd8c828d016142b3565b8194508093505050509295985092959850929598565b600080600080606085870312156146e8578182fd5b84359350602085013567ffffffffffffffff811115614705578283fd5b614711878288016142b3565b909450925050604085013560ff811681146145fe578182fd5b60008060006060848603121561473e578081fd5b505081359360208301359350604090920135919050565b600080600060608486031215614769578081fd5b8335925060208401359150604084013561478281615b8c565b809150509250925092565b6000806000806000608086880312156147a4578283fd5b8535945060208601359350604086013567ffffffffffffffff8111156147c8578384fd5b6147d4888289016142b3565b96999598509660600135949350505050565b600080600080600080600060c0888a031215614800578081fd5b8735965060208801359550604088013567ffffffffffffffff811115614824578182fd5b6148308a828b016142b3565b989b979a50986060810135976080820135975060a09091013595509350505050565b600060208284031215614863578081fd5b815167ffffffffffffffff8082111561487a578283fd5b61010091840180860383131561488e578384fd5b61489783615ae9565b815181526148a887602084016141c4565b60208201526040820151604082015260608201519350828411156148ca578485fd5b6148d6878584016142fa565b606082015260808201519350828411156148ee578485fd5b6148fa87858401614246565b608082015260a0820151935082841115614912578485fd5b61491e878584016141cf565b60a082015260c082015160c082015260e082015160e08201528094505050505092915050565b600060608284031215614955578081fd5b61495f6060615ae9565b8251815260208301516020820152604083015161497b81615b8c565b60408201529392505050565b600060208284031215614998578081fd5b815167ffffffffffffffff808211156149af578283fd5b6101609184018086038313156149c3578384fd5b6149cc83615ae9565b815181526020820151602082015260408201519350828411156149ed578485fd5b6149f9878584016142fa565b6040820152606082015160608201526080820151608082015260a0820151935082841115614a25578485fd5b614a31878584016142fa565b60a082015260c082015160c0820152614a4d8760e084016142a4565b60e082015261010082810151908201526101208083015190820152610140918201519181019190915295945050505050565b600060208284031215614a90578081fd5b815167ffffffffffffffff80821115614aa7578283fd5b81840160a08187031215614ab9578384fd5b614ac360a0615ae9565b9250614acf86826141c4565b8352602081015182811115614ae2578485fd5b614aee878284016142fa565b602085015250604081015182811115614b05578485fd5b614b11878284016142fa565b604085015250606081015182811115614b28578485fd5b614b34878284016142fa565b606085015250608081015182811115614b4b578485fd5b614b57878284016142fa565b6080850152509195945050505050565b600160a060020a03169052565b6000815180845260208085019450808401835b83811015614bac578151600160a060020a031687529582019590820190600101614b87565b509495945050505050565b6000815180845260208085019450808401835b83811015614bac57815187529582019590820190600101614bca565b60058110614bf057fe5b9052565b60008284528282602086013780602084860101526020601f19601f85011685010190509392505050565b60008151808452614c36816020860160208601615b30565b601f01601f19169290920160200192915050565b7f5041555345525f524f4c450000000000000000000000000000000000000000008152600b0190565b600160a060020a0391909116815260200190565b600160a060020a0385168152602081018490526040810183905260808101614cae83615b5c565b82606083015295945050505050565b6000602082526109296020830184614bb7565b901515815260200190565b90815260200190565b918252600160a060020a0316602082015260400190565b928352600160a060020a03918216602084015216604082015260600190565b938452600160a060020a03928316602085015291166040830152606082015260800190565b6000888252600160a060020a0388166020830152861515604083015260c06060830152614d7060c083018688614bf4565b60ff9490941660808301525060a0015295945050505050565b6000858252600160a060020a038516602083015260606040830152612cad606083018486614bf4565b60008b8252600160a060020a038b16602083015260c06040830152614ddb60c083018a8c614bf4565b8281036060840152614dee81898b614bf4565b8381036080850152614e0181888a614bf4565b91505082810360a0840152614e17818587614bf4565b9d9c50505050505050505050505050565b928352600160a060020a03919091166020830152604082015260600190565b60006101008b8352600160a060020a038b166020840152896040840152806060840152614e77818401898b614bf4565b9150508560808301528460a08301528360c08301528260e08301529a9950505050505050505050565b60006101208c8352600160a060020a038c1660208401528a6040840152806060840152614ed08184018a8c614bf4565b6080840198909852505060a081019490945260c084019290925260e08301526101009091015295945050505050565b918252602082015260400190565b9384526020840192909252151560408301521515606082015260800190565b6000878252866020830152851515604083015260ff8516606083015260a06080830152614f5d60a083018486614bf4565b98975050505050505050565b838152602081018390526060810160038310614f8157fe5b826040830152949350505050565b93845260208401929092526040830152606082015260800190565b6000602082526109296020830184614c1e565b60208082526022908201527f456e756d657261626c655365743a20696e646578206f7574206f6620626f756e60408201527f6473000000000000000000000000000000000000000000000000000000000000606082015260800190565b6020808252602f908201527f416363657373436f6e74726f6c3a2073656e646572206d75737420626520616e60408201527f2061646d696e20746f206772616e740000000000000000000000000000000000606082015260800190565b60208082526014908201527f5061757361626c653a206e6f7420706175736564000000000000000000000000604082015260600190565b6020808252601d908201527f73746f72654b657948617368202063616e6e6f7420626520656d707479000000604082015260600190565b60208082526025908201527f546865206d696e657220796f752073656c656374656420646f6573206e6f742060408201527f6578697374000000000000000000000000000000000000000000000000000000606082015260800190565b6020808252602e908201527f486173206265656e20726567697374657265642e4e6f206e65656420746f207260408201527f6567697374657220616761696e21000000000000000000000000000000000000606082015260800190565b6020808252602f908201527f46696c6553746f72654c6f6769633a206d75737420686176652061646d696e2060408201527f726f6c6520746f20657865637574650000000000000000000000000000000000606082015260800190565b6020808252602d908201527f6d73672e73656e64657220646f65736e277420657869737420696e207468652060408201527f66696c652773206d696e65727300000000000000000000000000000000000000606082015260800190565b6020808252602a908201527f6d696e6572496420646f65736e277420657869737420696e207468652066696c60408201527f652773206d696e65727300000000000000000000000000000000000000000000606082015260800190565b6020808252601e908201527f6f6c64206f776e6572416464722063616e6e6f7420626520656d7074792e0000604082015260600190565b60208082526030908201527f416363657373436f6e74726f6c3a2073656e646572206d75737420626520616e60408201527f2061646d696e20746f207265766f6b6500000000000000000000000000000000606082015260800190565b60208082526010908201527f5061757361626c653a2070617573656400000000000000000000000000000000604082015260600190565b60208082526034908201527f4f7065726174696f6e2044656e793a20596f7520646f206e6f7420686176652060408201527f7065726d697373696f6e20746f20757064617465000000000000000000000000606082015260800190565b6020808252818101527f6f776e6572416464722063616e6e6f742062652073616d65206173206f6c6421604082015260600190565b60208082526055908201527f596f752068617665206e6f20726967687420746f2063616c6c2074686973206d60408201527f6574686f643a596f757220636f6e74726163742061646472657373206d75737460608201527f2062652072656769737465726564206669727374210000000000000000000000608082015260a00190565b60208082526045908201527f54686520696e6974616c697a65206d6574686f642068617320616c726561647960408201527f206265656e20657865637574656420616e642063616e6e6f742062652072657060608201527f6561746564000000000000000000000000000000000000000000000000000000608082015260a00190565b60208082526033908201527f596f7520617265206e6f7420746865206f776e65722c594f7520686173206e6f60408201527f20726967687420746f2072656769737465722100000000000000000000000000606082015260800190565b60208082526021908201527f66696c65436f73742069736e277420657175616c20746f206d73672e76616c7560408201527f6500000000000000000000000000000000000000000000000000000000000000606082015260800190565b6020808252601f908201527f66696c6553697a65206d7573742067726561746572207468616e207a65726f00604082015260600190565b60208082526017908201527f6d696e657249642063616e6e6f7420626520656d707479000000000000000000604082015260600190565b6020808252818101527f5468652066696c652073746f7261676520696e666f206e6f7420666f756e642e604082015260600190565b60208082526018908201527f6f726948617368202063616e6e6f7420626520656d7074790000000000000000604082015260600190565b60208082526030908201527f46696c6553746f72654c6f6769633a206d75737420686176652070617573657260408201527f20726f6c6520746f20756e706175736500000000000000000000000000000000606082015260800190565b60208082526019908201527f6f776e6572416464722063616e6e6f7420626520656d70747900000000000000604082015260600190565b6020808252602e908201527f46696c6553746f72654c6f6769633a206d75737420686176652070617573657260408201527f20726f6c6520746f207061757365000000000000000000000000000000000000606082015260800190565b60208082526018908201527f66696c65486173682063616e6e6f7420626520656d7074790000000000000000604082015260600190565b60208082526031908201527f7468726573686f6c64206d75737420626520677261746572207468616e20302060408201527f616e64206c657373207468616e20313030000000000000000000000000000000606082015260800190565b6020808252602f908201527f416363657373436f6e74726f6c3a2063616e206f6e6c792072656e6f756e636560408201527f20726f6c657320666f722073656c660000000000000000000000000000000000606082015260800190565b6000602082528251602083015260208301516158ae6040840182614b67565b506040830151606083015260608301516101008060808501526158d5610120850183614c1e565b60808601519250601f19808683030160a08701526158f38285614bb7565b60a08801519450818782030160c088015261590e8186614b74565b9250505060c086015160e086015260e08601518286015280935050505092915050565b81518152602080830151908201526040820151606082019061595281615b5c565b8060408401525092915050565b60006020825282516020830152602083015160408301526040830151610160806060850152615992610180850183614c1e565b60608601516080860152608086015160a086015260a08601519250601f198582030160c08601526159c38184614c1e565b60c087015160e087015260e0870151935061010091506159e582870185614be6565b908601516101208681019190915286015161014080870191909152909501519301929092525090919050565b60006020825282516020830152602083015160606040840152615a376080840182614c1e565b6040850151848203601f1901606086015291506113a18183614bb7565b600060208252600160a060020a038351166020830152602083015160a06040840152615a8360c0840182614c1e565b60408501519150601f1980858303016060860152615aa18284614c1e565b6060870151935081868203016080870152615abc8185614c1e565b92505060808601519250808583030160a0860152506113a18183614c1e565b60ff91909116815260200190565b60405181810167ffffffffffffffff81118282101715615b0857600080fd5b604052919050565b600067ffffffffffffffff821115615b26578081fd5b5060209081020190565b60005b83811015615b4b578181015183820152602001615b33565b83811115612db65750506000910152565b60038110615b6657fe5b50565b600160a060020a0381168114615b6657600080fd5b8015158114615b6657600080fd5b60038110615b6657600080fdfea2646970667358221220bea6c955aff03472f6966d5f81510638d994f4fe03af715dd9f10434f8bc158764736f6c63430006060033",
  "immutableReferences": {},
  "source": "//SPDX-License-Identifier: SimPL-2.0\npragma solidity ^0.6.6;\npragma experimental ABIEncoderV2;\n\nimport \"./UtilsContract.sol\";\nimport \"./FileStoreStorage.sol\";\nimport \"@openzeppelin/contracts/access/AccessControl.sol\";\n\n// FileStoreLogic\ncontract FileStoreLogic is FileStoreStruct, Pausable, AccessControl  {\n\n\tFileStoreStorage private fss;\n\n\taddress private fileStoreStorageAddress;\n\n\tbytes32 private constant PAUSER_ROLE = keccak256(\"PAUSER_ROLE\");\n\n    // 1NEL/GB\n    uint256 private constant COST_PER_GB = 1000000000000000000;\n\tuint256 private constant COST_PER_MB = 1000000000000000;\n    // 1GB file size\n    uint256 private constant GBYTE = 1000000000;\n\tuint256 private constant MBYTE = 1000000;\n\n\tconstructor() public {\n\t}\n\n\tfunction initialize(address[] calldata _addrs) external {\n\t\t// if not has admin Role and fileStoreStorageAddress is not set,It means it's the first time to execute.\n\t\trequire(fileStoreStorageAddress==address(0) && !hasRole(DEFAULT_ADMIN_ROLE, _msgSender()),\n\t\t\t\"The initalize method has already been executed and cannot be repeated\");\n\t\t_setupRole(PAUSER_ROLE, _msgSender());\n\t\t_setupRole(DEFAULT_ADMIN_ROLE, _msgSender());\n\t\tfss = FileStoreStorage(_addrs[0]);\n\t\tfileStoreStorageAddress = _addrs[0];\n\t}\n\n\t/**\n     * @dev Pauses all transfers.\n     *\n     *\n     * Requirements:\n     *\n     * - the caller must have the `PAUSER_ROLE`.\n     */\n\tfunction pause() external virtual {\n\t\trequire(hasRole(PAUSER_ROLE, _msgSender()), \"FileStoreLogic: must have pauser role to pause\");\n\t\t_pause();\n\t}\n\n\t/**\n     * @dev Unpauses all  transfers.\n     *\n     * Requirements:\n     *\n     * - the caller must have the `PAUSER_ROLE`.\n     */\n\tfunction unpause() external virtual {\n\t\trequire(hasRole(PAUSER_ROLE, _msgSender()), \"FileStoreLogic: must have pauser role to unpause\");\n\t\t_unpause();\n\t}\n\n\tfunction updateWithdrawThreshold(uint256 threshold) external {\n\t\trequire(hasRole(DEFAULT_ADMIN_ROLE, _msgSender()), \"FileStoreLogic: must have admin role to execute\");\n\t\trequire(threshold > 0 && threshold < 100, \"threshold must be grater than 0 and less than 100\");\n\t\tfss.updateWithdrawThreshold(threshold);\n\t}\n\n\tfunction setFileStoreStorageAddress(address _addr) external {\n\t\trequire(hasRole(DEFAULT_ADMIN_ROLE, _msgSender()), \"FileStoreLogic: must have admin role to execute\");\n\t\tfss = FileStoreStorage(_addr);\n\t\tfileStoreStorageAddress = _addr;\n\t}\n\n\tfunction lockOrUnlock(bytes32 oriHash,\n\t\tbytes32 minerId,\n\t\tbool isLocked,\n\t\tbool isEntireFile)\n\texternal whenNotPaused() {\n\t\trequire(hasRole(DEFAULT_ADMIN_ROLE, _msgSender()), \"FileStoreLogic: must have admin role to execute\");\n\t\tbool minerExistFlag = false;\n\t\tif (!isEntireFile) {\n\t\t\tminerExistFlag = fss.isMinerExist(oriHash, minerId);\n\t\t} else {\n\t\t\tminerExistFlag = fss.isMinerExist4Entire(oriHash, minerId);\n\t\t}\n\t\trequire(minerExistFlag, \"msg.sender doesn't exist in the file's miners\");\n\t\tfss.lockOrUnlock(oriHash, minerId, isLocked, isEntireFile);\n\t}\n\n\tfunction getFileCost(uint256 fileSize) public pure returns(uint256) {\n\t\trequire(fileSize > 0, \"fileSize must greater than zero\");\n\t\tuint256 fileCost =  (fileSize + MBYTE -1)/MBYTE * COST_PER_MB;\n\t\treturn fileCost;\n\t}\n\n\tfunction withdrawRemaining(bytes32 oriHash, uint256 index, StorageType storageType)\n\texternal whenNotPaused() payable {\n\t\tuint256 fileCost = fss.updateRemainingFileCost(msg.sender, oriHash, index, storageType);\n\t\tif (fileCost > 0) {\n\t    \tmsg.sender.transfer(fileCost);\n\t\t}\n\t}\n\n\tfunction getExpireFile()\n\t\texternal whenNotPaused() view returns(ExpireFile memory) {\n\t\treturn fss.getExpireFile(msg.sender);\n\t}\n\n\tfunction getExpireFileEntire()\n\t\texternal whenNotPaused() view returns(ExpireFile memory) {\n\t\treturn fss.getExpireFileEntire(msg.sender);\n\t}\n\n\tfunction isFileExpireEntire(bytes32 storeKeyHash, bytes32 minerId) external whenNotPaused() view returns(bool) {\n\t// valid parameters\n\t\trequire(storeKeyHash > 0, \"storeKeyHash  cannot be empty\");\n\t\trequire(minerId > 0, \"minerId cannot be empty\");\n\t\tbool minerExistFlag = fss.isMinerExist4Entire(storeKeyHash, minerId);\n\t\trequire(minerExistFlag, \"minerId doesn't exist in the file's miners\");\n\t\t// get file info\n\t\tFileInfo memory fileInfo = fss.getFileInfo4Entire(storeKeyHash, minerId);\n\t\treturn fileInfo.eDate < block.timestamp;\n\t}\n\n\tfunction isFileExpire(bytes32 oriHash, bytes32 minerId) external whenNotPaused() view returns(bool) {\n\t\t// valid parameters\n\t\trequire(oriHash > 0, \"oriHash  cannot be empty\");\n\t\trequire(minerId > 0, \"minerId cannot be empty\");\n\t\tbool minerExistFlag = fss.isMinerExist(oriHash, minerId);\n\t\trequire(minerExistFlag, \"minerId doesn't exist in the file's miners\");\n\t\t// get file info\n\t\tFileInfo memory fileInfo = fss.getFileInfo(oriHash,minerId);\n\t\treturn fileInfo.eDate < block.timestamp;\n\t}\n\n\tfunction extendFileDeadlineEntire(\n\t\tbytes32 storeKeyHash,\n\t\tuint256 fileSize,\n\t\tbytes32 minerId)\n\texternal whenNotPaused() payable {\n\t\t// check minerId if exist?\n\t\tbool minerExistFlag = fss.isMinerExist4Entire(storeKeyHash, minerId);\n\t\trequire(minerExistFlag, \"minerId doesn't exist in the file's miners\");\n\t\tuint256 fileCost = getFileCost(fileSize);\n\t\trequire(msg.value == fileCost, \"fileCost isn't equal to msg.value\");\n\t\tfss.extendFileDeadlineEntire(storeKeyHash, minerId, fileCost, fileSize);\n\t\tpayable(address(this)).transfer(msg.value);\n\t}\n\n\t// extendFileDeadline\n\tfunction extendFileDeadline(\n\t\tbytes32 oriHash,\n\t\tuint256 fileSize,\n\t\tbytes32 minerId)\n\texternal whenNotPaused() payable {\n\t\t// check minerId if exist?\n\t\tbool minerExistFlag = fss.isMinerExist(oriHash, minerId);\n\t\trequire(minerExistFlag, \"minerId doesn't exist in the file's miners\");\n\t\tuint256 fileCost = getFileCost(fileSize);\n\t\trequire(msg.value == fileCost, \"fileCost isn't equal to msg.value\");\n\t\tfss.extendFileDeadline(oriHash, minerId, fileCost, fileSize);\n\t\tpayable(address(this)).transfer(msg.value);\n\t}\n\n\t// createFileStoreInfo4Entire only for entire file storage\n\tfunction createFileStoreInfo4Entire(\n\t\tbytes32 storeKeyHash,\n\t\tuint256 fileSize,\n\t\tstring calldata fileExt,\n\t\tbytes32 minerId)\n\texternal whenNotPaused() payable {\n\t\tuint256 operTime = block.timestamp;\n\t\taddress ownerAddr = msg.sender;\n\t\t// check minerId if exist?\n\t\tMinerInfo memory minerInfo = fss.getMinerInfoByMinerId(minerId);\n\t\trequire(bytes(minerInfo.publicKey).length > 0,\"The miner you selected does not exist\");\n\t\tbytes32 fileHash = 0;\n\t\tuint256 fileCost = getFileCost(fileSize);\n\t\trequire(msg.value == fileCost, \"fileCost isn't equal to msg.value\");\n\t\tpayable(address(this)).transfer(msg.value);\n\t\tfss.createFileStoreInfo4Entire(storeKeyHash,ownerAddr,fileSize,fileExt,minerId,fileHash,fileHash,operTime,fileCost);\n\t\temit newFileStoreEvt(\n\t\t\tstoreKeyHash, ownerAddr, fileSize, fileExt, minerId, fileHash, fileHash,operTime\n\t\t);\n\t}\n\n\t// createFileStoreInfo\n\tfunction createFileStoreInfo(\n\t\tbytes32 oriHash,\n\t\tuint256 fileSize,\n\t\tstring calldata fileExt,\n\t\tbytes32 minerId,\n\t\tbytes32 headHash,\n\t\tbytes32 bodyHash)\n\texternal whenNotPaused() payable {\n\t\tuint256 operTime = block.timestamp;\n\t\taddress ownerAddr = msg.sender;\n\t\t// check minerId if exist?\n\t\tMinerInfo memory minerInfo = fss.getMinerInfoByMinerId(minerId);\n\t\trequire(bytes(minerInfo.publicKey).length > 0,\"The miner you selected does not exist\");\n\t\tuint256 fileCost = getFileCost(fileSize);\n\t\trequire(msg.value == fileCost, \"fileCost isn't equal to msg.value\");\n\t\tpayable(address(this)).transfer(msg.value);\n\t\tfss.createFileStoreInfo(oriHash,ownerAddr,fileSize,fileExt,minerId,headHash,bodyHash,operTime,fileCost);\n\t\temit newFileStoreEvt(\n\t\t\toriHash, ownerAddr, fileSize, fileExt, minerId,headHash, bodyHash,operTime\n\t\t);\n\t}\n\n\t// update file storage's status\n\tfunction updateFileStoreInfo4Entire(\n\t\tbytes32 storeKeyHash,\n\t\tstring calldata cid,\n\t\tuint8 status\n\t) external whenNotPaused() payable {\n\t\tuint256 operTime = block.timestamp;\n\t\taddress minerAddr = msg.sender;\n\t\tbool headFlag = false;\n\t\tbytes32 minerId = fss.getMinerId(minerAddr);\n\t\tbool minerExistFlag = fss.isMinerExist4Entire(storeKeyHash, minerId);\n\t\trequire(minerExistFlag, \"msg.sender doesn't exist in the file's miners\");\n\t\tfss.updateFileStoreInfo4Entire(storeKeyHash,minerAddr,headFlag,cid,status,operTime);\n\t\tuint256 fileCost = fss.commonCalcStorageFileCost(storeKeyHash,minerId,StorageType.EntireFile);\n\t\t//require(fileCost > 0, \"fileCost must be greater than zero\");\n\t\tif (fileCost > 0) {\n\t    \tmsg.sender.transfer(fileCost);\n\t\t}\n\t\tfss.updateFileCostStatus4Entire(storeKeyHash,minerAddr);\n\t\temit fileInfoChangeEvt(\n\t\t\tstoreKeyHash,minerId,headFlag,status,cid\n\t\t);\n\t}\n\n\tfunction updateFileStoreInfo(\n\t\tbytes32 oriHash,\n\t\tbool  headFlag,\n\t\tstring calldata cid,\n\t\tuint8 status\n\t) external whenNotPaused() payable {\n\t\tuint256 operTime = block.timestamp;\n\t\taddress minerAddr = msg.sender;\n\t\tbytes32 minerId = fss.getMinerId(minerAddr);\n\t\tbool minerExistFlag = fss.isMinerExist(oriHash, minerId);\n\t\trequire(minerExistFlag, \"msg.sender doesn't exist in the file's miners\");\n\t\tfss.updateFileStoreInfo(oriHash,minerAddr,headFlag,cid,status,operTime);\n\t\tuint256 fileCost = fss.commonCalcStorageFileCost(oriHash,minerId,StorageType.SeperateFile);\n\t\tif (fileCost > 0) {\n\t\t\tmsg.sender.transfer(fileCost);\n\t\t}\n\t\tfss.updateFileCostStatus(oriHash,minerAddr);\n\t\temit fileInfoChangeEvt(\n\t\t\toriHash,minerId,headFlag,status,cid\n\t\t);\n\t}\n\n\t// register dapp contract's address for file when publish order on dapp.\n\tfunction regDappContractAddr(\n\t\tbytes32 oriHash,\n\t\taddress dappContractAddr\n\t)  external whenNotPaused() {\n\t\tuint256 operTime = block.timestamp;\n\t\taddress ownerAddr = msg.sender;\n\t\t// get base info.\n\t\tBaseInfo memory info = fss.getBaseInfo(oriHash);\n\t\trequire(info.cDate > 0, \"The file storage info not found.\");\n\t\t// check whether the caller is the owner\n\t\trequire(info.ownerAddr == ownerAddr, \"You are not the owner,YOu has no right to register!\");\n        // check whether has been registered.\n\t\tuint len = info.dappContractAddrs.length;\n\t\tbool existFlag = false;\n\t\tfor(uint i = 0; i < len; i++){\n\t\t\tif (info.dappContractAddrs[i] == dappContractAddr) {\n\t\t\t\texistFlag = true;\n\t\t\t\tbreak;\n\t\t\t}\n\t\t}\n\t\trequire(!existFlag, \"Has been registered.No need to register again!\");\n\t\t// call storageContract method\n\t\tfss.regDappContractAddr(oriHash,ownerAddr,dappContractAddr, operTime);\n\t\temit registerDappContractAddrEvt(oriHash,ownerAddr,dappContractAddr);\n\t}\n\n\t// transfer owner for file when file's ownership has changed.\n\tfunction transferFileOwner(\n\t\tbytes32 oriHash,\n\t\taddress ownerAddr\n\t) external whenNotPaused() {\n\t\trequire(oriHash > 0, \"oriHash  cannot be empty\");\n\t\trequire(ownerAddr != address(0), \"ownerAddr cannot be empty\");\n\t\tuint256 operTime = block.timestamp;\n\t\t// it is a contract address.\n\t\taddress invoker = msg.sender;\n\t\t// get base info.\n\t\tBaseInfo memory info = fss.getBaseInfo(oriHash);\n\t\trequire(info.cDate > 0, \"The file storage info not found.\");\n\t\taddress oldOwnerAddr = info.ownerAddr;\n\t\trequire(oldOwnerAddr != address(0), \"old ownerAddr cannot be empty.\");\n\t\trequire(ownerAddr != oldOwnerAddr, \"ownerAddr cannot be same as old!\");\n\t\t// check whether invoker is in  file's dappContractAddrs\n\t\tuint len = info.dappContractAddrs.length;\n\t\tbool existFlag = false;\n\t\tfor(uint i = 0; i < len; i++){\n\t\t\tif (info.dappContractAddrs[i] == invoker) {\n\t\t\t\texistFlag = true;\n\t\t\t\tbreak;\n\t\t\t}\n\t\t}\n\t\trequire(existFlag, \"You have no right to call this method:Your contract address must be registered first!\");\n\t\t// have right to update\n\t\tfss.transferFileOwner(oriHash, ownerAddr,operTime);\n\t\t// send transferOwnerEvt\n\t\temit transferOwnerEvt(oriHash, oldOwnerAddr, ownerAddr);\n\t}\n\n\tfunction setMinerInfo(\n\t\tbytes32 minerId, string calldata publicKey\n\t\t,string calldata peerId,string calldata peerAddr,string calldata proxyAddr) external whenNotPaused() {\n\t\taddress minerAddr = msg.sender;\n\n\t\tMinerInfo memory m = fss.getMinerInfoByMinerId(minerId);\n\t\tif (bytes(m.publicKey).length > 0) {\n\t\t\t// if minerId exists before,need check the minerId of minerAddr equals the new minerId.\n\t\t\tbytes32 oldId = fss.getMinerId(minerAddr);\n\t\t\trequire(oldId == minerId, \"Operation Deny: You do not have permission to update\");\n\t\t}\n\t    // call storageContract method \n\t\tfss.setMinerInfo(minerId,minerAddr,publicKey,peerId,peerAddr,proxyAddr);\n\t\temit setMinerEvt(\n\t\t\tminerId,minerAddr,publicKey\n\t\t);\n\t}\n\n\t/**\n\t   find miner for entire file storage\n\t*/\n\tfunction findMiner4EntireFile(bytes32 storeKeyHash) external view returns(FileMinerInfo memory) {\n\t\t// valid parameters\n\t\trequire(storeKeyHash > 0, \"storeKeyHash  cannot be empty\");\n\t\treturn commonFindMiner4File(1, storeKeyHash, false);\n\t}\n\n\t/**\n\t   find miner for file\n\t*/\n\tfunction findMiner4File(bytes32 oriHash, bool headFlag) external view returns(FileMinerInfo memory) {\n\t\t// valid parameters\n\t\trequire(oriHash > 0, \"oriHash  cannot be empty\");\n\t\t\n\t\treturn commonFindMiner4File(2,oriHash,headFlag);\n\t}\n\n\t/**\n\t   find miner for file\n\t*/\n\tfunction commonFindMiner4File(uint8 storageType, bytes32 oriHash, bool headFlag) internal view returns(FileMinerInfo memory) {\n\t\t// valid parameters\n\t\trequire(oriHash > 0, \"oriHash  cannot be empty\");\n\t\t// get info\n\t\tBaseInfo memory baseInfo;\n\t\tif (storageType == 2) {\n\t\t\tbaseInfo = fss.getBaseInfo(oriHash);\n\t\t} else {\n\t\t\tbaseInfo = fss.getBaseInfo4Entire(oriHash);\n\t\t}\n\n\t\tuint minerNum = 0;\n\t\tfor(uint i = 0; i < baseInfo.miners.length; i++){\n\t\t\tbytes32 minerId = baseInfo.miners[i];\n\t\t\tFileInfo memory fileInfo;\n\t\t\tif (storageType == 2) {\n\t\t\t\tfileInfo = fss.getFileInfo(oriHash,minerId);\n\t\t\t} else {\n\t\t\t\tfileInfo = fss.getFileInfo4Entire(oriHash,minerId);\n\t\t\t}\n\t\t\tif (headFlag) {\n\t\t\t\tif (fileInfo.headStatus == 1 && block.timestamp < fileInfo.eDate) {\n\t\t\t\t\tminerNum++;\n\t\t\t\t}\n\t\t\t} else {\n\t\t\t\tif (fileInfo.bodyStatus == 1 && block.timestamp < fileInfo.eDate) {\n\t\t\t\t\tminerNum++;\n\t\t\t\t}\n\t\t\t}\n\t\t}\n\n\t\tbytes32[] memory minerIds = new bytes32[](minerNum);\n\t\tFileMinerInfo memory ret = FileMinerInfo(0,\"\",minerIds);\n\t\tif (baseInfo.cDate == 0) {\n\t\t\treturn ret;\n\t\t}\n\t\t// There are no effective miners\n\t\tif (minerNum == 0) {\n\t\t\treturn ret;\n\t\t}\n\t\t// loop the miners\n\t\tuint index = 0;\n\t\tfor(uint i = 0; i < baseInfo.miners.length; i++){\n\t\t\tbytes32 minerId = baseInfo.miners[i];\n\t\t\tFileInfo memory fileInfo;\n\t\t\tif (storageType == 2) {\n\t\t\t\tfileInfo = fss.getFileInfo(oriHash,minerId);\n\t\t\t} else {\n\t\t\t\tfileInfo = fss.getFileInfo4Entire(oriHash,minerId);\n\t\t\t}\n\t\t\tif (headFlag) {\n\t\t\t\t// file has stored\n\t\t\t\tif (fileInfo.headStatus == 1 && block.timestamp < fileInfo.eDate) {\n\t\t\t\t\tif (index == 0) {\n\t\t\t\t\t\tret.fileHash = fileInfo.headHash;\n\t\t\t\t\t\tret.fileCid = fileInfo.headCid;\n\t\t\t\t\t}\n\t\t\t\t\tret.minerIds[index] = minerId;\n\t\t\t\t\tindex++;\n\t\t\t\t}\n\t\t\t} else {\n\t\t\t\t// file has stored\n\t\t\t\tif (fileInfo.bodyStatus == 1 && block.timestamp < fileInfo.eDate) {\n\t\t\t\t\tif (index == 0) {\n\t\t\t\t\t\tret.fileHash = fileInfo.bodyHash;\n\t\t\t\t\t\tret.fileCid = fileInfo.bodyCid;\n\t\t\t\t\t}\n\t\t\t\t\tret.minerIds[index] = minerId;\n\t\t\t\t\tindex++;\n\t\t\t\t}\n\t\t\t}\n\t\t}\n\t\treturn ret;\n\t}\n\n\t/**\n\t   get file detail info for entire file storage.\n\t*/\n\tfunction getFileInfo4Entire(bytes32 storeKeyHash, bytes32 minerId) external view returns(FileInfo memory) {\n\t\t// valid parameters\n\t\trequire(storeKeyHash > 0, \"storeKeyHash  cannot be empty\");\n\t\trequire(minerId > 0, \"minerId cannot be empty\");\n\t\t// get file info\n\t\tFileInfo memory fileInfo = fss.getFileInfo4Entire(storeKeyHash, minerId);\n\t\treturn fileInfo;\n\t}\n\n\t/**\n\t   get file detail info\n\t*/\n\tfunction getFileInfo(bytes32 oriHash, bytes32 minerId) external view returns(FileInfo memory) {\n\t\t// valid parameters\n\t\trequire(oriHash > 0, \"oriHash  cannot be empty\");\n\t\trequire(minerId > 0, \"minerId cannot be empty\");\n\t\t// get file info\n\t\tFileInfo memory fileInfo = fss.getFileInfo(oriHash,minerId);\n\t\treturn fileInfo;\n\t}\n\n\t/**\n\t   get file store base info for entire file storage\n\t*/\n\tfunction getBaseInfo4Entire(bytes32 storeKeyHash) external view returns(BaseInfo memory) {\n\t\treturn fss.getBaseInfo4Entire(storeKeyHash);\n\t}\n\n\t/**\n\t   get file store base info\n\t*/\n\tfunction getBaseInfo(bytes32 oriHash) external view returns(BaseInfo memory) {\n\t\treturn fss.getBaseInfo(oriHash);\n\t}\n\n\n\t/**\n\t   valid file for seperate file storage\n\t   @return int  0-not found.1-same  2-diff\n\t*/\n\tfunction validFileInfo(\n\t\tbytes32 oriHash, bool headFlag,bytes32 minerId,bytes32 fileHash\n\t) external view returns(uint8) {\n\t\t// valid parameters\n\t\trequire(oriHash > 0, \"oriHash  cannot be empty\");\n\t\t// get info\n\t\tBaseInfo memory baseInfo = fss.getBaseInfo(oriHash);\n\t\tif (baseInfo.cDate ==0) {\n\t\t\treturn 0;\n\t\t}\n\t\t// check if miner exist\n\t\tbool minerExistFlag = fss.isMinerExist(oriHash, minerId);\n\t\tif (!minerExistFlag) {\n\t\t\treturn 0;\n\t\t}\n\t\t// valid parameters\n\t\trequire(oriHash > 0, \"oriHash  cannot be empty\");\n\t\trequire(minerId > 0, \"minerId cannot be empty\");\n\t\trequire(fileHash > 0, \"fileHash cannot be empty\");\n\t\tif (baseInfo.cDate ==0) {\n\t\t\treturn 0;\n\t\t}\n\t\t\n\t\tFileInfo memory fileInfo = fss.getFileInfo(oriHash,minerId);\n\t\tif (headFlag) {\n\t\t\tif (fileInfo.headHash == fileHash) {\n\t\t\t\treturn 1;\n\t\t\t}\n\t\t} else {\n\t\t\tif (fileInfo.bodyHash == fileHash) {\n\t\t\t\treturn 1;\n\t\t\t}\n\t\t}\n\t\treturn 2;\n\t}\n\n\n\t/**\n\t   checkStorage4Entire: check update whether has finished.\n\t   @return int  0-not found  1-finish  2- unFinish\n\t*/\n\tfunction checkStorage4Entire(bytes32 storeKeyHash, bytes32 minerId) external view returns(uint8) {\n\t\t// valid parameters\n\t\trequire(storeKeyHash > 0, \"storeKeyHash  cannot be empty\");\n\t\trequire(minerId > 0, \"minerId cannot be empty\");\n\t\t// get info \n\t\tBaseInfo memory baseInfo = fss.getBaseInfo4Entire(storeKeyHash);\n\t\t// check if miner exist\n\t\tbool minerExistFlag = fss.isMinerExist4Entire(storeKeyHash, minerId);\n\t\tif (!minerExistFlag) {\n\t\t\treturn 0;\n\t\t}\n\t\treturn commonCheckStorage(1, baseInfo, storeKeyHash, false,minerId);\n\t}\n\n\t/**\n\t   checkStorage: check update whether has finished.\n\t   @return int  0-not found  1-finish  2- unFinish\n\t*/\n\tfunction checkStorage(\n\t\tbytes32 oriHash, bool headFlag, bytes32 minerId\n\t) external view returns(uint8) {\n\t\t// valid parameters\n\t\trequire(oriHash > 0, \"oriHash  cannot be empty\");\n\t\trequire(minerId > 0, \"minerId cannot be empty\");\n\t\t// get info \n\t\tBaseInfo memory baseInfo = fss.getBaseInfo(oriHash);\n\t\t// check if miner exist\n\t\tbool minerExistFlag = fss.isMinerExist(oriHash, minerId);\n\t\tif (!minerExistFlag) {\n\t\t\treturn 0;\n\t\t}\n\t\treturn commonCheckStorage(2,baseInfo,oriHash,headFlag,minerId);\n\t}\n\n\t/**\n\t   storageType:  1-entire file  2-seperate\n\t   commonCheckStorage: check update whether has finished.\n\t   @return int  0-not found  1-finish  2- unFinish\n\t*/\n\tfunction commonCheckStorage(\n\t\tuint8 storageType,\n\t\tBaseInfo memory baseInfo,\n\t\tbytes32 oriHash, bool headFlag, bytes32 minerId\n\t) internal view returns(uint8) {\n\t\t// valid parameters\n\t\trequire(oriHash > 0, \"oriHash  cannot be empty\");\n\t\trequire(minerId > 0, \"minerId cannot be empty\");\n\t\tif (baseInfo.cDate ==0) {\n\t\t\treturn 0;\n\t\t}\n\t\t\n\t\tFileInfo memory fileInfo;\n\t\tif (storageType == 2) {\n\t\t\tfileInfo = fss.getFileInfo(oriHash,minerId);\n\t\t} else {\n\t\t\tfileInfo = fss.getFileInfo4Entire(oriHash,minerId);\n\t\t}\n\t\tif (headFlag) {\n\t\t\tif (fileInfo.headStatus == 1) {\n\t\t\t\treturn 1;\n\t\t\t}\n\t\t} else {\n\t\t\tif (fileInfo.bodyStatus == 1) {\n\t\t\t\treturn 1;\n\t\t\t}\n\t\t}\n\t\treturn 2;\n\t}\n\n\t// get miner's ids who store the given storeKeyHash\n\tfunction getStoreMiners4Entire(bytes32 storeKeyHash) external view returns(bytes32[] memory) {\n\t\treturn fss.getStoreMiners4Entire(storeKeyHash);\n\t}\n\n\t// get miner's ids who store the given oriHash\n\tfunction getStoreMiners(bytes32 oriHash) external view returns(bytes32[] memory) {\n\t\treturn fss.getStoreMiners(oriHash);\n\t}\n\n\tfunction getMinerId(address minerAddr) external view returns(bytes32) {\n\t\treturn fss.getMinerId(minerAddr);\n\t}\n\n\tfunction getMinerAddr(bytes32 minerId) external view returns(address) {\n\t\tMinerInfo memory minerInfo\t= fss.getMinerInfoByMinerId(minerId);\n\t\treturn minerInfo.minerAddr;\n\t}\n\n\t// get miner info by minerId\n\tfunction getMinerInfoByMinerId(bytes32 minerId) external view returns(MinerInfo memory) {\n\t\treturn fss.getMinerInfoByMinerId(minerId);\n\t}\n\n\t// get proxy ip info by minerId\n\tfunction getProxyAddrByMinerId(bytes32 minerId) external view returns(string memory) {\n\t\tMinerInfo memory minerInfo\t= fss.getMinerInfoByMinerId(minerId);\n\t\treturn minerInfo.proxyAddr;\n\t}\n\n\tevent newFileStoreEvt(\n\t\tbytes32 oriHash,  // oriHash\n\t\taddress userAddr,  // user address\n\t\tuint256  fileSize,  // fileSize\n\t\tstring  fileExt,  // fileExt\n\t\tbytes32 minerId,  // minerId\n\t\tbytes32 headHash,  // headHash\n\t\tbytes32 bodyHash,  // bodyHash\n\t\tuint256 operTime   // operTime\n\t);\n\n\tevent fileInfoChangeEvt(\n\t\tbytes32 oriHash, // oriHash\n\t\tbytes32 minerId, // minerId\n\t\tbool headFlag,    // headFlag\n\t\tuint8 status,   // status\n\t\tstring  cid // cid\n\t);\n\n\tevent setMinerEvt(\n\t\tbytes32 minerId, // minerId\n\t\taddress minerAddr,    // minerAddr\n\t\tstring  publicKey // publicKey\n\t);\n\n\tevent registerDappContractAddrEvt(\n\t\tbytes32 oriHash, // oriHash\n\t\taddress ownerAddr,   // owner's address\n\t\taddress dappContractAddr  // dapp contract address\n\t);\n\n\tevent transferOwnerEvt(\n\t\tbytes32 oriHash, // oriHash\n\t\taddress oldOwnerAddr,   // oldOwnerAddr's address\n\t\taddress newOwnerAddr  // newOwnerAddr's address\n\t);\n\n\t// transfer to contract\n    // function transferToContract() payable public {\n    //     payable(address(this)).transfer(msg.value);\n    // }\n\n    // get the balance of the contract\n    function getBalance() public view returns (uint256) {\n        return address(this).balance;\n    }\n\n    fallback() external payable {}\n\n    receive() external payable {}\n}\n",
  "sourcePath": "/root/testnet/code/w3fs-genesis-contracts-bridge/contracts/filestore/FileStoreLogic.sol",
  "compiler": {
    "name": "solc",
    "version": "0.6.6+commit.6c089d02.Emscripten.clang"
  },
  "schemaVersion": "3.4.10",
  "updatedAt": "2022-11-17T03:08:55.497Z",
  "networkType": "ethereum",
  "devdoc": {
    "methods": {
      "getRoleAdmin(bytes32)": {
        "details": "Returns the admin role that controls `role`. See {grantRole} and {revokeRole}.     * To change a role's admin, use {_setRoleAdmin}."
      },
      "getRoleMember(bytes32,uint256)": {
        "details": "Returns one of the accounts that have `role`. `index` must be a value between 0 and {getRoleMemberCount}, non-inclusive.     * Role bearers are not sorted in any particular way, and their ordering may change at any point.     * WARNING: When using {getRoleMember} and {getRoleMemberCount}, make sure you perform all queries on the same block. See the following https://forum.openzeppelin.com/t/iterating-over-elements-on-enumerableset-in-openzeppelin-contracts/2296[forum post] for more information."
      },
      "getRoleMemberCount(bytes32)": {
        "details": "Returns the number of accounts that have `role`. Can be used together with {getRoleMember} to enumerate all bearers of a role."
      },
      "grantRole(bytes32,address)": {
        "details": "Grants `role` to `account`.     * If `account` had not been already granted `role`, emits a {RoleGranted} event.     * Requirements:     * - the caller must have ``role``'s admin role."
      },
      "hasRole(bytes32,address)": {
        "details": "Returns `true` if `account` has been granted `role`."
      },
      "pause()": {
        "details": "Pauses all transfers.     * Requirements:     * - the caller must have the `PAUSER_ROLE`."
      },
      "paused()": {
        "details": "Returns true if the contract is paused, and false otherwise."
      },
      "renounceRole(bytes32,address)": {
        "details": "Revokes `role` from the calling account.     * Roles are often managed via {grantRole} and {revokeRole}: this function's purpose is to provide a mechanism for accounts to lose their privileges if they are compromised (such as when a trusted device is misplaced).     * If the calling account had been granted `role`, emits a {RoleRevoked} event.     * Requirements:     * - the caller must be `account`."
      },
      "revokeRole(bytes32,address)": {
        "details": "Revokes `role` from `account`.     * If `account` had been granted `role`, emits a {RoleRevoked} event.     * Requirements:     * - the caller must have ``role``'s admin role."
      },
      "unpause()": {
        "details": "Unpauses all  transfers.     * Requirements:     * - the caller must have the `PAUSER_ROLE`."
      }
    }
  },
  "userdoc": {
    "methods": {
      "checkStorage(bytes32,bool,bytes32)": {
        "notice": "checkStorage: check update whether has finished."
      },
      "checkStorage4Entire(bytes32,bytes32)": {
        "notice": "checkStorage4Entire: check update whether has finished."
      },
      "findMiner4EntireFile(bytes32)": {
        "notice": "find miner for entire file storage"
      },
      "findMiner4File(bytes32,bool)": {
        "notice": "find miner for file"
      },
      "getBaseInfo(bytes32)": {
        "notice": "get file store base info"
      },
      "getBaseInfo4Entire(bytes32)": {
        "notice": "get file store base info for entire file storage"
      },
      "getFileInfo(bytes32,bytes32)": {
        "notice": "get file detail info"
      },
      "getFileInfo4Entire(bytes32,bytes32)": {
        "notice": "get file detail info for entire file storage."
      },
      "validFileInfo(bytes32,bool,bytes32,bytes32)": {
        "notice": "valid file for seperate file storage"
      }
    }
  }
}