{
  "contractName": "Governable",
  "abi": [
    {
      "inputs": [
        {
          "internalType": "address",
          "name": "_governance",
          "type": "address"
        }
      ],
      "stateMutability": "nonpayable",
      "type": "constructor"
    },
    {
      "inputs": [],
      "name": "governance",
      "outputs": [
        {
          "internalType": "contract IGovernance",
          "name": "",
          "type": "address"
        }
      ],
      "stateMutability": "view",
      "type": "function"
    }
  ],
  "bytecode": "0x608060405234801561001057600080fd5b5060405161012e38038061012e8339818101604052602081101561003357600080fd5b505160008054600160a060020a03909216600160a060020a031990921691909117905560ca806100646000396000f3fe6080604052348015600f57600080fd5b50600436106044577c010000000000000000000000000000000000000000000000000000000060003504635aa6e67581146049575b600080fd5b604f6078565b6040805173ffffffffffffffffffffffffffffffffffffffff9092168252519081900360200190f35b60005473ffffffffffffffffffffffffffffffffffffffff168156fea26469706673582212204b03cb9f87e825e54c25f5e7f62065f7717e2fbd36a7307762d68091beef334464736f6c63430006060033",
  "immutableReferences": {},
  "source": "pragma solidity ^0.6.6;\n\nimport {IGovernance} from \"./IGovernance.sol\";\n\ncontract Governable{\n    IGovernance public governance;\n\n    constructor(address _governance) public {\n        governance = IGovernance(_governance);\n    }\n\n    modifier onlyGovernance() {\n        require(msg.sender == address(governance), \"Only governance contract is authorized\");\n        _;\n    }\n\n\n}\n",
  "sourcePath": "/root/testnet/code/w3fs-genesis-contracts-bridge/contracts/common/gov/Governable.sol",
  "compiler": {
    "name": "solc",
    "version": "0.6.6+commit.6c089d02.Emscripten.clang"
  },
  "schemaVersion": "3.4.10",
  "updatedAt": "2022-11-17T02:32:22.265Z",
  "devdoc": {
    "methods": {}
  },
  "userdoc": {
    "methods": {}
  }
}