{
  "contractName": "GovernanceLockable",
  "abi": [
    {
      "inputs": [
        {
          "internalType": "address",
          "name": "governance",
          "type": "address"
        }
      ],
      "stateMutability": "nonpayable",
      "type": "constructor"
    },
    {
      "inputs": [],
      "name": "governance",
      "outputs": [
        {
          "internalType": "contract IGovernance",
          "name": "",
          "type": "address"
        }
      ],
      "stateMutability": "view",
      "type": "function"
    },
    {
      "inputs": [],
      "name": "locked",
      "outputs": [
        {
          "internalType": "bool",
          "name": "",
          "type": "bool"
        }
      ],
      "stateMutability": "view",
      "type": "function"
    },
    {
      "inputs": [],
      "name": "lock",
      "outputs": [],
      "stateMutability": "nonpayable",
      "type": "function"
    },
    {
      "inputs": [],
      "name": "unlock",
      "outputs": [],
      "stateMutability": "nonpayable",
      "type": "function"
    }
  ],
  "bytecode": "0x608060405234801561001057600080fd5b506040516102d33803806102d38339818101604052602081101561003357600080fd5b505160008054600160a060020a039092166101000261010060a860020a03199092169190911790556102698061006a6000396000f3fe608060405234801561001057600080fd5b5060043610610068577c010000000000000000000000000000000000000000000000000000000060003504635aa6e675811461006d578063a69df4b51461009e578063cf309012146100a8578063f83d08ba146100c4575b600080fd5b6100756100cc565b6040805173ffffffffffffffffffffffffffffffffffffffff9092168252519081900360200190f35b6100a66100ed565b005b6100b061016c565b604080519115158252519081900360200190f35b6100a6610175565b600054610100900473ffffffffffffffffffffffffffffffffffffffff1681565b600054610100900473ffffffffffffffffffffffffffffffffffffffff163314610162576040517f08c379a000000000000000000000000000000000000000000000000000000000815260040180806020018281038252602681526020018061020e6026913960400191505060405180910390fd5b61016a6101f2565b565b60005460ff1681565b600054610100900473ffffffffffffffffffffffffffffffffffffffff1633146101ea576040517f08c379a000000000000000000000000000000000000000000000000000000000815260040180806020018281038252602681526020018061020e6026913960400191505060405180910390fd5b61016a6101fe565b6000805460ff19169055565b6000805460ff1916600117905556fe4f6e6c7920676f7665726e616e636520636f6e747261637420697320617574686f72697a6564a2646970667358221220a453ccd7be8675a8aecbdbb3d2026bbf315635228ee4c90240e23537c659f82064736f6c63430006060033",
  "immutableReferences": {},
  "source": "pragma solidity ^0.6.6;\n\nimport {Governable} from \"./Governable.sol\";\nimport {Lockable} from \"../utils/Lockable.sol\";\n\ncontract GovernanceLockable is Lockable, Governable {\n\n    constructor(address governance) public Governable(governance) {\n\n    }\n\n    function lock() public override onlyGovernance {\n        super.lock();\n    }\n\n    function unlock() public override onlyGovernance {\n        super.unlock();\n    }\n\n}\n",
  "sourcePath": "/root/testnet/code/w3fs-genesis-contracts-bridge/contracts/common/gov/GovernanceLockable.sol",
  "compiler": {
    "name": "solc",
    "version": "0.6.6+commit.6c089d02.Emscripten.clang"
  },
  "schemaVersion": "3.4.10",
  "updatedAt": "2022-11-17T02:32:22.293Z",
  "devdoc": {
    "methods": {}
  },
  "userdoc": {
    "methods": {}
  }
}