{
  "contractName": "Governance",
  "abi": [
    {
      "anonymous": false,
      "inputs": [
        {
          "indexed": true,
          "internalType": "address",
          "name": "previousOwner",
          "type": "address"
        },
        {
          "indexed": true,
          "internalType": "address",
          "name": "newOwner",
          "type": "address"
        }
      ],
      "name": "OwnershipTransferred",
      "type": "event"
    },
    {
      "inputs": [],
      "name": "owner",
      "outputs": [
        {
          "internalType": "address",
          "name": "",
          "type": "address"
        }
      ],
      "stateMutability": "view",
      "type": "function",
      "constant": true
    },
    {
      "inputs": [],
      "name": "renounceOwnership",
      "outputs": [],
      "stateMutability": "nonpayable",
      "type": "function"
    },
    {
      "inputs": [
        {
          "internalType": "address",
          "name": "newOwner",
          "type": "address"
        }
      ],
      "name": "transferOwnership",
      "outputs": [],
      "stateMutability": "nonpayable",
      "type": "function"
    },
    {
      "inputs": [
        {
          "internalType": "address",
          "name": "target",
          "type": "address"
        },
        {
          "internalType": "bytes",
          "name": "data",
          "type": "bytes"
        }
      ],
      "name": "update",
      "outputs": [],
      "stateMutability": "nonpayable",
      "type": "function"
    }
  ],
  "bytecode": "0x60806040526000610017640100000000610066810204565b60008054600160a060020a031916600160a060020a0383169081178255604051929350917f8be0079c531659141344cd1fd0a4f28419497f9722a3daafe3b4186f6b6457e0908290a35061006a565b3390565b6104de806100796000396000f3fe608060405234801561001057600080fd5b5060043610610068577c0100000000000000000000000000000000000000000000000000000000600035046302a688ed811461006d578063715018a6146100ef5780638da5cb5b146100f7578063f2fde38b1461011b575b600080fd5b6100ed6004803603604081101561008357600080fd5b600160a060020a0382351691908101906040810160208201356401000000008111156100ae57600080fd5b8201836020820111156100c057600080fd5b803590602001918460018302840111640100000000831117156100e257600080fd5b509092509050610141565b005b6100ed61027a565b6100ff610348565b60408051600160a060020a039092168252519081900360200190f35b6100ed6004803603602081101561013157600080fd5b5035600160a060020a0316610357565b61014961047e565b600160a060020a031661015a610348565b600160a060020a0316146101b8576040805160e560020a62461bcd02815260206004820181905260248201527f4f776e61626c653a2063616c6c6572206973206e6f7420746865206f776e6572604482015290519081900360640190fd5b600083600160a060020a03168383604051808383808284376040519201945060009350909150508083038183865af19150503d8060008114610216576040519150601f19603f3d011682016040523d82523d6000602084013e61021b565b606091505b5050905080610274576040805160e560020a62461bcd02815260206004820152600d60248201527f557064617465206661696c656400000000000000000000000000000000000000604482015290519081900360640190fd5b50505050565b61028261047e565b600160a060020a0316610293610348565b600160a060020a0316146102f1576040805160e560020a62461bcd02815260206004820181905260248201527f4f776e61626c653a2063616c6c6572206973206e6f7420746865206f776e6572604482015290519081900360640190fd5b60008054604051600160a060020a03909116907f8be0079c531659141344cd1fd0a4f28419497f9722a3daafe3b4186f6b6457e0908390a36000805473ffffffffffffffffffffffffffffffffffffffff19169055565b600054600160a060020a031690565b61035f61047e565b600160a060020a0316610370610348565b600160a060020a0316146103ce576040805160e560020a62461bcd02815260206004820181905260248201527f4f776e61626c653a2063616c6c6572206973206e6f7420746865206f776e6572604482015290519081900360640190fd5b600160a060020a0381166104165760405160e560020a62461bcd0281526004018080602001828103825260268152602001806104836026913960400191505060405180910390fd5b60008054604051600160a060020a03808516939216917f8be0079c531659141344cd1fd0a4f28419497f9722a3daafe3b4186f6b6457e091a36000805473ffffffffffffffffffffffffffffffffffffffff1916600160a060020a0392909216919091179055565b339056fe4f776e61626c653a206e6577206f776e657220697320746865207a65726f2061646472657373a26469706673582212202a3839c6de041010eb6beacab65734f089cff4b7010b2dd82d1016dcee0516c864736f6c63430006060033",
  "immutableReferences": {},
  "source": "pragma solidity ^0.6.6;\n\nimport {IGovernance} from \"./IGovernance.sol\";\nimport {Ownable} from \"@openzeppelin/contracts/access/Ownable.sol\";\n\ncontract Governance is IGovernance, Ownable {\n\n    function update(address target, bytes calldata data) external override onlyOwner {\n        (bool success, ) = target.call(data); /* bytes memory returnData */\n        require(success, \"Update failed\");\n    }\n\n\n}\n",
  "sourcePath": "/root/testnet/code/w3fs-genesis-contracts-bridge/contracts/common/gov/Governance.sol",
  "compiler": {
    "name": "solc",
    "version": "0.6.6+commit.6c089d02.Emscripten.clang"
  },
  "schemaVersion": "3.4.10",
  "updatedAt": "2022-11-17T03:12:05.741Z",
  "networkType": "ethereum",
  "devdoc": {
    "methods": {
      "owner()": {
        "details": "Returns the address of the current owner."
      },
      "renounceOwnership()": {
        "details": "Leaves the contract without owner. It will not be possible to call `onlyOwner` functions anymore. Can only be called by the current owner.     * NOTE: Renouncing ownership will leave the contract without an owner, thereby removing any functionality that is only available to the owner."
      },
      "transferOwnership(address)": {
        "details": "Transfers ownership of the contract to a new account (`newOwner`). Can only be called by the current owner."
      }
    }
  },
  "userdoc": {
    "methods": {}
  }
}