{
  "contractName": "LibEIP712Domain",
  "abi": [
    {
      "inputs": [],
      "stateMutability": "nonpayable",
      "type": "constructor"
    },
    {
      "inputs": [],
      "name": "CHAINID",
      "outputs": [
        {
          "internalType": "uint256",
          "name": "",
          "type": "uint256"
        }
      ],
      "stateMutability": "view",
      "type": "function"
    },
    {
      "inputs": [],
      "name": "EIP712_DOMAIN_HASH",
      "outputs": [
        {
          "internalType": "bytes32",
          "name": "",
          "type": "bytes32"
        }
      ],
      "stateMutability": "view",
      "type": "function"
    },
    {
      "inputs": [],
      "name": "EIP712_DOMAIN_SCHEMA_HASH",
      "outputs": [
        {
          "internalType": "bytes32",
          "name": "",
          "type": "bytes32"
        }
      ],
      "stateMutability": "view",
      "type": "function"
    },
    {
      "inputs": [],
      "name": "networkId",
      "outputs": [
        {
          "internalType": "bytes",
          "name": "",
          "type": "bytes"
        }
      ],
      "stateMutability": "view",
      "type": "function"
    }
  ],
  "bytecode": "0x608060405234801561001057600080fd5b506040518060800160405280605281526020016103f6605291396040516020018082805190602001908083835b6020831061005c5780518252601f19909201916020918201910161003d565b51815160209384036101000a60001901801990921691161790526040805192909401828103601f190183528085528251928201929092208285018552600d83527f4d61746963204e6574776f726b000000000000000000000000000000000000009282019290925283518085018552600181527f3100000000000000000000000000000000000000000000000000000000000000908201528351808201929092527fd26430275d0d30693378daeb558f6ed30c3a48ba5d665f52c16608e1c41b5cd7828501527fc89efdaa54c0f20c7adf612882df0950f5a951637e0307cdcb4c672f298b8bc66060830152613e7f60808301523060a0808401919091528451808403909101815260c09092019093528051920191909120600090815561026a935083925061018c9150396000f3fe608060405234801561001057600080fd5b5060043610610068577c010000000000000000000000000000000000000000000000000000000060003504639025e64c811461006d578063cc79f97b146100ea578063e306f77914610104578063e614d0d61461010c575b600080fd5b610075610114565b6040805160208082528351818301528351919283929083019185019080838360005b838110156100af578181015183820152602001610097565b50505050905090810190601f1680156100dc5780820380516001836020036101000a031916815260200191505b509250505060405180910390f35b6100f261014d565b60408051918252519081900360200190f35b6100f2610153565b6100f2610159565b6040518060400160405280600281526020017f3e7f00000000000000000000000000000000000000000000000000000000000081525081565b613e7f81565b60005481565b6040518060800160405280605281526020016101e3605291396040516020018082805190602001908083835b602083106101a45780518252601f199092019160209182019101610185565b6001836020036101000a038019825116818451168082178552505050505050905001915050604051602081830303815290604052805190602001208156fe454950373132446f6d61696e28737472696e67206e616d652c737472696e672076657273696f6e2c75696e7432353620636861696e49642c6164647265737320766572696679696e67436f6e747261637429a264697066735822122062622d087646bfc168b8a741c980976fdf08759726fc26a3268ebdb14264a6f264736f6c63430006060033454950373132446f6d61696e28737472696e67206e616d652c737472696e672076657273696f6e2c75696e7432353620636861696e49642c6164647265737320766572696679696e67436f6e747261637429",
  "immutableReferences": {},
  "source": "pragma solidity ^0.6.6;\n\nimport {ChainIdMixin} from \"./ChainIdMixin.sol\";\n\ncontract LibEIP712Domain is ChainIdMixin {\n    string internal constant EIP712_DOMAIN_SCHEMA = \"EIP712Domain(string name,string version,uint256 chainId,address verifyingContract)\";\n    bytes32 public constant EIP712_DOMAIN_SCHEMA_HASH = keccak256(\n        abi.encodePacked(EIP712_DOMAIN_SCHEMA)\n    );\n\n    string internal constant EIP712_DOMAIN_NAME = \"Matic Network\";\n    string internal constant EIP712_DOMAIN_VERSION = \"1\";\n    uint256 internal constant EIP712_DOMAIN_CHAINID = CHAINID;\n\n    bytes32 public EIP712_DOMAIN_HASH;\n\n    constructor() public {\n        EIP712_DOMAIN_HASH = keccak256(\n            abi.encode(\n                EIP712_DOMAIN_SCHEMA_HASH,\n                keccak256(bytes(EIP712_DOMAIN_NAME)),\n                keccak256(bytes(EIP712_DOMAIN_VERSION)),\n                EIP712_DOMAIN_CHAINID,\n                address(this)\n            )\n        );\n    }\n\n    function hashEIP712Message(bytes32 hashStruct)\n        internal\n        view\n        returns (bytes32 result)\n    {\n        return _hashEIP712Message(hashStruct, EIP712_DOMAIN_HASH);\n    }\n\n    function hashEIP712MessageWithAddress(bytes32 hashStruct, address add)\n        internal\n        view\n        returns (bytes32 result)\n    {\n        bytes32 domainHash = keccak256(\n            abi.encode(\n                EIP712_DOMAIN_SCHEMA_HASH,\n                keccak256(bytes(EIP712_DOMAIN_NAME)),\n                keccak256(bytes(EIP712_DOMAIN_VERSION)),\n                EIP712_DOMAIN_CHAINID,\n                add\n            )\n        );\n        return _hashEIP712Message(hashStruct, domainHash);\n    }\n\n    function _hashEIP712Message(bytes32 hashStruct, bytes32 domainHash)\n        internal\n        pure\n        returns (bytes32 result)\n    {\n        assembly {\n            // Load free memory pointer\n            let memPtr := mload(64)\n\n            mstore(\n                memPtr,\n                0x1901000000000000000000000000000000000000000000000000000000000000\n            ) // EIP191 header\n            mstore(add(memPtr, 2), domainHash) // EIP712 domain hash\n            mstore(add(memPtr, 34), hashStruct) // Hash of struct\n\n            // Compute hash\n            result := keccak256(memPtr, 66)\n        }\n    }\n}\n",
  "sourcePath": "/root/testnet/code/w3fs-genesis-contracts-bridge/contracts/mrc20/EIP712.sol",
  "compiler": {
    "name": "solc",
    "version": "0.6.6+commit.6c089d02.Emscripten.clang"
  },
  "schemaVersion": "3.4.10",
  "updatedAt": "2022-11-17T03:08:08.528Z",
  "devdoc": {
    "methods": {}
  },
  "userdoc": {
    "methods": {}
  }
}