{
  "contractName": "LibTokenTransferOrder",
  "abi": [
    {
      "inputs": [],
      "name": "CHAINID",
      "outputs": [
        {
          "internalType": "uint256",
          "name": "",
          "type": "uint256"
        }
      ],
      "stateMutability": "view",
      "type": "function"
    },
    {
      "inputs": [],
      "name": "EIP712_DOMAIN_HASH",
      "outputs": [
        {
          "internalType": "bytes32",
          "name": "",
          "type": "bytes32"
        }
      ],
      "stateMutability": "view",
      "type": "function"
    },
    {
      "inputs": [],
      "name": "EIP712_DOMAIN_SCHEMA_HASH",
      "outputs": [
        {
          "internalType": "bytes32",
          "name": "",
          "type": "bytes32"
        }
      ],
      "stateMutability": "view",
      "type": "function"
    },
    {
      "inputs": [],
      "name": "EIP712_TOKEN_TRANSFER_ORDER_SCHEMA_HASH",
      "outputs": [
        {
          "internalType": "bytes32",
          "name": "",
          "type": "bytes32"
        }
      ],
      "stateMutability": "view",
      "type": "function"
    },
    {
      "inputs": [],
      "name": "networkId",
      "outputs": [
        {
          "internalType": "bytes",
          "name": "",
          "type": "bytes"
        }
      ],
      "stateMutability": "view",
      "type": "function"
    },
    {
      "inputs": [
        {
          "internalType": "address",
          "name": "spender",
          "type": "address"
        },
        {
          "internalType": "uint256",
          "name": "tokenIdOrAmount",
          "type": "uint256"
        },
        {
          "internalType": "bytes32",
          "name": "data",
          "type": "bytes32"
        },
        {
          "internalType": "uint256",
          "name": "expiration",
          "type": "uint256"
        }
      ],
      "name": "getTokenTransferOrderHash",
      "outputs": [
        {
          "internalType": "bytes32",
          "name": "orderHash",
          "type": "bytes32"
        }
      ],
      "stateMutability": "view",
      "type": "function"
    }
  ],
  "bytecode": "0x610100604052605260808181529061061d60a0396040516020018082805190602001908083835b602083106100455780518252601f199092019160209182019101610026565b51815160209384036101000a60001901801990921691161790526040805192909401828103601f190183528085528251928201929092208285018552600d83527f4d61746963204e6574776f726b000000000000000000000000000000000000009282019290925283518085018552600181527f3100000000000000000000000000000000000000000000000000000000000000908201528351808201929092527fd26430275d0d30693378daeb558f6ed30c3a48ba5d665f52c16608e1c41b5cd7828501527fc89efdaa54c0f20c7adf612882df0950f5a951637e0307cdcb4c672f298b8bc66060830152613e7f60808301523060a0808401919091528451808403909101815260c0909201909352805192019190912060009081556104a893508392506101759150396000f3fe608060405234801561001057600080fd5b506004361061007e577c010000000000000000000000000000000000000000000000000000000060003504639025e64c8114610083578063abceeba214610100578063b789543c1461011a578063cc79f97b1461015f578063e306f77914610167578063e614d0d61461016f575b600080fd5b61008b610177565b6040805160208082528351818301528351919283929083019185019080838360005b838110156100c55781810151838201526020016100ad565b50505050905090810190601f1680156100f25780820380516001836020036101000a031916815260200191505b509250505060405180910390f35b6101086101b0565b60408051918252519081900360200190f35b6101086004803603608081101561013057600080fd5b5073ffffffffffffffffffffffffffffffffffffffff8135169060208101359060408101359060600135610239565b610108610258565b61010861025e565b610108610264565b6040518060400160405280600281526020017f3e7f00000000000000000000000000000000000000000000000000000000000081525081565b6040518060800160405280605b8152602001610418605b91396040516020018082805190602001908083835b602083106101fb5780518252601f1990920191602091820191016101dc565b6001836020036101000a0380198251168184511680821785525050505050509050019150506040516020818303038152906040528051906020012081565b600061024f61024a868686866102ae565b610374565b95945050505050565b613e7f81565b60005481565b6040518060800160405280605281526020016103c660529139604051602001808280519060200190808383602083106101fb5780518252601f1990920191602091820191016101dc565b6000806040518060800160405280605b8152602001610418605b91396040516020018082805190602001908083835b602083106102fc5780518252601f1990920191602091820191016102dd565b51815160209384036101000a60001901801990921691161790526040805192909401828103601f19018352808552825192820192909220825273ffffffffffffffffffffffffffffffffffffffff9b909b169a81019a909a5250880196909652505050606084019190915260808301525060a0902090565b600061038282600054610388565b92915050565b6040517f1901000000000000000000000000000000000000000000000000000000000000815260028101919091526022810191909152604290209056fe454950373132446f6d61696e28737472696e67206e616d652c737472696e672076657273696f6e2c75696e7432353620636861696e49642c6164647265737320766572696679696e67436f6e747261637429546f6b656e5472616e736665724f726465722861646472657373207370656e6465722c75696e7432353620746f6b656e49644f72416d6f756e742c6279746573333220646174612c75696e743235362065787069726174696f6e29a26469706673582212204c6c05c4fcc4fe118296a1c9f453a2abec556ece189d0e349965b091d28d71ee64736f6c63430006060033454950373132446f6d61696e28737472696e67206e616d652c737472696e672076657273696f6e2c75696e7432353620636861696e49642c6164647265737320766572696679696e67436f6e747261637429",
  "immutableReferences": {},
  "source": "pragma solidity ^0.6.6;\n\nimport {LibEIP712Domain} from \"./EIP712.sol\";\n\ncontract LibTokenTransferOrder is LibEIP712Domain {\n    string internal constant EIP712_TOKEN_TRANSFER_ORDER_SCHEMA = \"TokenTransferOrder(address spender,uint256 tokenIdOrAmount,bytes32 data,uint256 expiration)\";\n    bytes32 public constant EIP712_TOKEN_TRANSFER_ORDER_SCHEMA_HASH = keccak256(\n        abi.encodePacked(EIP712_TOKEN_TRANSFER_ORDER_SCHEMA)\n    );\n\n    struct TokenTransferOrder {\n        address spender;\n        uint256 tokenIdOrAmount;\n        bytes32 data;\n        uint256 expiration;\n    }\n\n    function getTokenTransferOrderHash(\n        address spender,\n        uint256 tokenIdOrAmount,\n        bytes32 data,\n        uint256 expiration\n    ) public view returns (bytes32 orderHash) {\n        orderHash = hashEIP712Message(\n            hashTokenTransferOrder(spender, tokenIdOrAmount, data, expiration)\n        );\n    }\n\n    function hashTokenTransferOrder(\n        address spender,\n        uint256 tokenIdOrAmount,\n        bytes32 data,\n        uint256 expiration\n    ) internal pure returns (bytes32 result) {\n        bytes32 schemaHash = EIP712_TOKEN_TRANSFER_ORDER_SCHEMA_HASH;\n\n        // Assembly for more efficiently computing:\n        // return keccak256(abi.encode(\n        //   schemaHash,\n        //   spender,\n        //   tokenIdOrAmount,\n        //   data,\n        //   expiration\n        // ));\n\n        assembly {\n            // Load free memory pointer\n            let memPtr := mload(64)\n\n            mstore(memPtr, schemaHash) // hash of schema\n            mstore(\n                add(memPtr, 32),\n                and(spender, 0xffffffffffffffffffffffffffffffffffffffff)\n            ) // spender\n            mstore(add(memPtr, 64), tokenIdOrAmount) // tokenIdOrAmount\n            mstore(add(memPtr, 96), data) // hash of data\n            mstore(add(memPtr, 128), expiration) // expiration\n\n            // Compute hash\n            result := keccak256(memPtr, 160)\n        }\n        return result;\n    }\n}\n",
  "sourcePath": "/root/testnet/code/w3fs-genesis-contracts-bridge/contracts/mrc20/LibTokenTransferOrder.sol",
  "compiler": {
    "name": "solc",
    "version": "0.6.6+commit.6c089d02.Emscripten.clang"
  },
  "schemaVersion": "3.4.10",
  "updatedAt": "2022-11-17T03:08:08.533Z",
  "devdoc": {
    "methods": {}
  },
  "userdoc": {
    "methods": {}
  }
}