{
  "contractName": "Lockable",
  "abi": [
    {
      "inputs": [],
      "name": "locked",
      "outputs": [
        {
          "internalType": "bool",
          "name": "",
          "type": "bool"
        }
      ],
      "stateMutability": "view",
      "type": "function"
    },
    {
      "inputs": [],
      "name": "lock",
      "outputs": [],
      "stateMutability": "nonpayable",
      "type": "function"
    },
    {
      "inputs": [],
      "name": "unlock",
      "outputs": [],
      "stateMutability": "nonpayable",
      "type": "function"
    }
  ],
  "bytecode": "0x608060405234801561001057600080fd5b5060df8061001f6000396000f3fe6080604052348015600f57600080fd5b50600436106058577c01000000000000000000000000000000000000000000000000000000006000350463a69df4b58114605d578063cf309012146065578063f83d08ba14607f575b600080fd5b60636085565b005b606b6091565b604080519115158252519081900360200190f35b6063609a565b6000805460ff19169055565b60005460ff1681565b6000805460ff1916600117905556fea2646970667358221220e27aec968ae9df9d2f6b3bae1f8cb2267f71a47efc6b143c91031938304aafb964736f6c63430006060033",
  "immutableReferences": {},
  "source": "pragma solidity ^0.6.6;\n\ncontract Lockable {\n    bool public locked;\n\n    modifier onlyWhenUnlocked() {\n        require(!locked, \"locked\");\n        _;\n    }\n\n    function lock() public virtual {\n        locked = true;\n    }\n\n    function unlock() public virtual {\n        locked = false;\n    }\n}\n",
  "sourcePath": "/root/testnet/code/w3fs-genesis-contracts-bridge/contracts/common/utils/Lockable.sol",
  "compiler": {
    "name": "solc",
    "version": "0.6.6+commit.6c089d02.Emscripten.clang"
  },
  "schemaVersion": "3.4.10",
  "updatedAt": "2022-11-17T02:32:22.332Z",
  "devdoc": {
    "methods": {}
  },
  "userdoc": {
    "methods": {}
  }
}