{
  "contractName": "MRC20",
  "abi": [
    {
      "inputs": [],
      "stateMutability": "nonpayable",
      "type": "constructor"
    },
    {
      "anonymous": false,
      "inputs": [
        {
          "indexed": true,
          "internalType": "address",
          "name": "previousAddress",
          "type": "address"
        },
        {
          "indexed": true,
          "internalType": "address",
          "name": "newAddress",
          "type": "address"
        }
      ],
      "name": "ChildChainChanged",
      "type": "event"
    },
    {
      "anonymous": false,
      "inputs": [
        {
          "indexed": true,
          "internalType": "address",
          "name": "token",
          "type": "address"
        },
        {
          "indexed": true,
          "internalType": "address",
          "name": "from",
          "type": "address"
        },
        {
          "indexed": false,
          "internalType": "uint256",
          "name": "amount",
          "type": "uint256"
        },
        {
          "indexed": false,
          "internalType": "uint256",
          "name": "input1",
          "type": "uint256"
        },
        {
          "indexed": false,
          "internalType": "uint256",
          "name": "output1",
          "type": "uint256"
        }
      ],
      "name": "Deposit",
      "type": "event"
    },
    {
      "anonymous": false,
      "inputs": [
        {
          "indexed": true,
          "internalType": "address",
          "name": "token",
          "type": "address"
        },
        {
          "indexed": true,
          "internalType": "address",
          "name": "from",
          "type": "address"
        },
        {
          "indexed": true,
          "internalType": "address",
          "name": "to",
          "type": "address"
        },
        {
          "indexed": false,
          "internalType": "uint256",
          "name": "amount",
          "type": "uint256"
        },
        {
          "indexed": false,
          "internalType": "uint256",
          "name": "input1",
          "type": "uint256"
        },
        {
          "indexed": false,
          "internalType": "uint256",
          "name": "input2",
          "type": "uint256"
        },
        {
          "indexed": false,
          "internalType": "uint256",
          "name": "output1",
          "type": "uint256"
        },
        {
          "indexed": false,
          "internalType": "uint256",
          "name": "output2",
          "type": "uint256"
        }
      ],
      "name": "LogFeeTransfer",
      "type": "event"
    },
    {
      "anonymous": false,
      "inputs": [
        {
          "indexed": true,
          "internalType": "address",
          "name": "token",
          "type": "address"
        },
        {
          "indexed": true,
          "internalType": "address",
          "name": "from",
          "type": "address"
        },
        {
          "indexed": true,
          "internalType": "address",
          "name": "to",
          "type": "address"
        },
        {
          "indexed": false,
          "internalType": "uint256",
          "name": "amount",
          "type": "uint256"
        },
        {
          "indexed": false,
          "internalType": "uint256",
          "name": "input1",
          "type": "uint256"
        },
        {
          "indexed": false,
          "internalType": "uint256",
          "name": "input2",
          "type": "uint256"
        },
        {
          "indexed": false,
          "internalType": "uint256",
          "name": "output1",
          "type": "uint256"
        },
        {
          "indexed": false,
          "internalType": "uint256",
          "name": "output2",
          "type": "uint256"
        }
      ],
      "name": "LogTransfer",
      "type": "event"
    },
    {
      "anonymous": false,
      "inputs": [
        {
          "indexed": true,
          "internalType": "address",
          "name": "previousOwner",
          "type": "address"
        },
        {
          "indexed": true,
          "internalType": "address",
          "name": "newOwner",
          "type": "address"
        }
      ],
      "name": "OwnershipTransferred",
      "type": "event"
    },
    {
      "anonymous": false,
      "inputs": [
        {
          "indexed": true,
          "internalType": "address",
          "name": "previousAddress",
          "type": "address"
        },
        {
          "indexed": true,
          "internalType": "address",
          "name": "newAddress",
          "type": "address"
        }
      ],
      "name": "ParentChanged",
      "type": "event"
    },
    {
      "anonymous": false,
      "inputs": [
        {
          "indexed": true,
          "internalType": "address",
          "name": "from",
          "type": "address"
        },
        {
          "indexed": true,
          "internalType": "address",
          "name": "to",
          "type": "address"
        },
        {
          "indexed": false,
          "internalType": "uint256",
          "name": "value",
          "type": "uint256"
        }
      ],
      "name": "Transfer",
      "type": "event"
    },
    {
      "anonymous": false,
      "inputs": [
        {
          "indexed": true,
          "internalType": "address",
          "name": "token",
          "type": "address"
        },
        {
          "indexed": true,
          "internalType": "address",
          "name": "from",
          "type": "address"
        },
        {
          "indexed": false,
          "internalType": "uint256",
          "name": "amount",
          "type": "uint256"
        },
        {
          "indexed": false,
          "internalType": "uint256",
          "name": "input1",
          "type": "uint256"
        },
        {
          "indexed": false,
          "internalType": "uint256",
          "name": "output1",
          "type": "uint256"
        }
      ],
      "name": "Withdraw",
      "type": "event"
    },
    {
      "inputs": [],
      "name": "CHAINID",
      "outputs": [
        {
          "internalType": "uint256",
          "name": "",
          "type": "uint256"
        }
      ],
      "stateMutability": "view",
      "type": "function",
      "constant": true
    },
    {
      "inputs": [],
      "name": "EIP712_DOMAIN_HASH",
      "outputs": [
        {
          "internalType": "bytes32",
          "name": "",
          "type": "bytes32"
        }
      ],
      "stateMutability": "view",
      "type": "function",
      "constant": true
    },
    {
      "inputs": [],
      "name": "EIP712_DOMAIN_SCHEMA_HASH",
      "outputs": [
        {
          "internalType": "bytes32",
          "name": "",
          "type": "bytes32"
        }
      ],
      "stateMutability": "view",
      "type": "function",
      "constant": true
    },
    {
      "inputs": [],
      "name": "EIP712_TOKEN_TRANSFER_ORDER_SCHEMA_HASH",
      "outputs": [
        {
          "internalType": "bytes32",
          "name": "",
          "type": "bytes32"
        }
      ],
      "stateMutability": "view",
      "type": "function",
      "constant": true
    },
    {
      "inputs": [
        {
          "internalType": "address",
          "name": "newAddress",
          "type": "address"
        }
      ],
      "name": "changeChildChain",
      "outputs": [],
      "stateMutability": "nonpayable",
      "type": "function"
    },
    {
      "inputs": [],
      "name": "childChain",
      "outputs": [
        {
          "internalType": "address",
          "name": "",
          "type": "address"
        }
      ],
      "stateMutability": "view",
      "type": "function",
      "constant": true
    },
    {
      "inputs": [],
      "name": "currentSupply",
      "outputs": [
        {
          "internalType": "uint256",
          "name": "",
          "type": "uint256"
        }
      ],
      "stateMutability": "view",
      "type": "function",
      "constant": true
    },
    {
      "inputs": [
        {
          "internalType": "bytes32",
          "name": "",
          "type": "bytes32"
        }
      ],
      "name": "disabledHashes",
      "outputs": [
        {
          "internalType": "bool",
          "name": "",
          "type": "bool"
        }
      ],
      "stateMutability": "view",
      "type": "function",
      "constant": true
    },
    {
      "inputs": [
        {
          "internalType": "bytes32",
          "name": "hash",
          "type": "bytes32"
        },
        {
          "internalType": "bytes",
          "name": "sig",
          "type": "bytes"
        }
      ],
      "name": "ecrecovery",
      "outputs": [
        {
          "internalType": "address",
          "name": "result",
          "type": "address"
        }
      ],
      "stateMutability": "pure",
      "type": "function",
      "constant": true
    },
    {
      "inputs": [
        {
          "internalType": "address",
          "name": "spender",
          "type": "address"
        },
        {
          "internalType": "uint256",
          "name": "tokenIdOrAmount",
          "type": "uint256"
        },
        {
          "internalType": "bytes32",
          "name": "data",
          "type": "bytes32"
        },
        {
          "internalType": "uint256",
          "name": "expiration",
          "type": "uint256"
        }
      ],
      "name": "getTokenTransferOrderHash",
      "outputs": [
        {
          "internalType": "bytes32",
          "name": "orderHash",
          "type": "bytes32"
        }
      ],
      "stateMutability": "view",
      "type": "function",
      "constant": true
    },
    {
      "inputs": [],
      "name": "networkId",
      "outputs": [
        {
          "internalType": "bytes",
          "name": "",
          "type": "bytes"
        }
      ],
      "stateMutability": "view",
      "type": "function",
      "constant": true
    },
    {
      "inputs": [],
      "name": "owner",
      "outputs": [
        {
          "internalType": "address",
          "name": "",
          "type": "address"
        }
      ],
      "stateMutability": "view",
      "type": "function",
      "constant": true
    },
    {
      "inputs": [],
      "name": "parent",
      "outputs": [
        {
          "internalType": "address",
          "name": "",
          "type": "address"
        }
      ],
      "stateMutability": "view",
      "type": "function",
      "constant": true
    },
    {
      "inputs": [],
      "name": "renounceOwnership",
      "outputs": [],
      "stateMutability": "nonpayable",
      "type": "function"
    },
    {
      "inputs": [
        {
          "internalType": "address",
          "name": "newAddress",
          "type": "address"
        }
      ],
      "name": "setParent",
      "outputs": [],
      "stateMutability": "nonpayable",
      "type": "function"
    },
    {
      "inputs": [],
      "name": "token",
      "outputs": [
        {
          "internalType": "address",
          "name": "",
          "type": "address"
        }
      ],
      "stateMutability": "view",
      "type": "function",
      "constant": true
    },
    {
      "inputs": [
        {
          "internalType": "address",
          "name": "newOwner",
          "type": "address"
        }
      ],
      "name": "transferOwnership",
      "outputs": [],
      "stateMutability": "nonpayable",
      "type": "function"
    },
    {
      "inputs": [
        {
          "internalType": "bytes",
          "name": "sig",
          "type": "bytes"
        },
        {
          "internalType": "uint256",
          "name": "amount",
          "type": "uint256"
        },
        {
          "internalType": "bytes32",
          "name": "data",
          "type": "bytes32"
        },
        {
          "internalType": "uint256",
          "name": "expiration",
          "type": "uint256"
        },
        {
          "internalType": "address",
          "name": "to",
          "type": "address"
        }
      ],
      "name": "transferWithSig",
      "outputs": [
        {
          "internalType": "address",
          "name": "from",
          "type": "address"
        }
      ],
      "stateMutability": "nonpayable",
      "type": "function"
    },
    {
      "inputs": [
        {
          "internalType": "address",
          "name": "_childChain",
          "type": "address"
        },
        {
          "internalType": "address",
          "name": "_token",
          "type": "address"
        }
      ],
      "name": "initialize",
      "outputs": [],
      "stateMutability": "nonpayable",
      "type": "function"
    },
    {
      "inputs": [
        {
          "internalType": "address",
          "name": "user",
          "type": "address"
        },
        {
          "internalType": "bytes",
          "name": "depositData",
          "type": "bytes"
        }
      ],
      "name": "deposit",
      "outputs": [],
      "stateMutability": "nonpayable",
      "type": "function"
    },
    {
      "inputs": [
        {
          "internalType": "uint256",
          "name": "amount",
          "type": "uint256"
        }
      ],
      "name": "withdraw",
      "outputs": [],
      "stateMutability": "payable",
      "type": "function",
      "payable": true
    },
    {
      "inputs": [],
      "name": "name",
      "outputs": [
        {
          "internalType": "string",
          "name": "",
          "type": "string"
        }
      ],
      "stateMutability": "pure",
      "type": "function",
      "constant": true
    },
    {
      "inputs": [],
      "name": "symbol",
      "outputs": [
        {
          "internalType": "string",
          "name": "",
          "type": "string"
        }
      ],
      "stateMutability": "pure",
      "type": "function",
      "constant": true
    },
    {
      "inputs": [],
      "name": "decimals",
      "outputs": [
        {
          "internalType": "uint8",
          "name": "",
          "type": "uint8"
        }
      ],
      "stateMutability": "pure",
      "type": "function",
      "constant": true
    },
    {
      "inputs": [],
      "name": "totalSupply",
      "outputs": [
        {
          "internalType": "uint256",
          "name": "",
          "type": "uint256"
        }
      ],
      "stateMutability": "pure",
      "type": "function",
      "constant": true
    },
    {
      "inputs": [
        {
          "internalType": "address",
          "name": "account",
          "type": "address"
        }
      ],
      "name": "balanceOf",
      "outputs": [
        {
          "internalType": "uint256",
          "name": "",
          "type": "uint256"
        }
      ],
      "stateMutability": "view",
      "type": "function",
      "constant": true
    },
    {
      "inputs": [
        {
          "internalType": "address",
          "name": "to",
          "type": "address"
        },
        {
          "internalType": "uint256",
          "name": "value",
          "type": "uint256"
        }
      ],
      "name": "transfer",
      "outputs": [
        {
          "internalType": "bool",
          "name": "",
          "type": "bool"
        }
      ],
      "stateMutability": "payable",
      "type": "function",
      "payable": true
    }
  ],
  "bytecode": "0x6080604052600060065534801561001557600080fd5b5060006100296401000000006101e3810204565b60008054600160a060020a031916600160a060020a0383169081178255604051929350917f8be0079c531659141344cd1fd0a4f28419497f9722a3daafe3b4186f6b6457e0908290a350604051806080016040528060528152602001611e07605291396040516020018082805190602001908083835b602083106100be5780518252601f19909201916020918201910161009f565b51815160209384036101000a60001901801990921691161790526040805192909401828103601f190183528085528251928201929092208285018552600d83527f4d61746963204e6574776f726b00000000000000000000000000000000000000928201929092528351808501855260018082527f3100000000000000000000000000000000000000000000000000000000000000918301919091528451808301939093527fd26430275d0d30693378daeb558f6ed30c3a48ba5d665f52c16608e1c41b5cd7838601527fc89efdaa54c0f20c7adf612882df0950f5a951637e0307cdcb4c672f298b8bc66060840152613e7f60808401523060a0808501919091528551808503909101815260c09093019094528151910120909155506101e7915050565b3390565b611c11806101f66000396000f3fe6080604052600436106101b9576000357c0100000000000000000000000000000000000000000000000000000000900480638da5cb5b11610109578063cc79f97b116100a7578063e614d0d611610081578063e614d0d61461070c578063ed9ef52414610721578063f2fde38b14610754578063fc0c546a14610787576101b9565b8063cc79f97b1461061f578063cf2c52cb14610634578063e306f779146106f7576101b9565b8063a9059cbb116100e3578063a9059cbb1461055b578063abceeba21461059b578063acd06cb3146105b0578063b789543c146105da576101b9565b80638da5cb5b1461051c5780639025e64c1461053157806395d89b4114610546576101b9565b806342fc47fb1161017657806370a082311161015057806370a0823114610405578063715018a614610438578063771282f61461044d57806377d32e9414610462576101b9565b806342fc47fb146103a0578063485cc955146103b557806360f96a8f146103f0576101b9565b806306fdde03146101be5780631499c5921461024857806318160ddd1461027d57806319d27d9c146102a45780632e1a7d4d14610358578063313ce56714610375575b600080fd5b3480156101ca57600080fd5b506101d361079c565b6040805160208082528351818301528351919283929083019185019080838360005b8381101561020d5781810151838201526020016101f5565b50505050905090810190601f16801561023a5780820380516001836020036101000a031916815260200191505b509250505060405180910390f35b34801561025457600080fd5b5061027b6004803603602081101561026b57600080fd5b5035600160a060020a03166107d3565b005b34801561028957600080fd5b506102926108e9565b60408051918252519081900360200190f35b3480156102b057600080fd5b5061033c600480360360a08110156102c757600080fd5b8101906020810181356401000000008111156102e257600080fd5b8201836020820111156102f457600080fd5b8035906020019184600183028401116401000000008311171561031657600080fd5b919350915080359060208101359060408101359060600135600160a060020a03166108f9565b60408051600160a060020a039092168252519081900360200190f35b61027b6004803603602081101561036e57600080fd5b5035610a5a565b34801561038157600080fd5b5061038a610b80565b6040805160ff9092168252519081900360200190f35b3480156103ac57600080fd5b5061033c610b85565b3480156103c157600080fd5b5061027b600480360360408110156103d857600080fd5b50600160a060020a0381358116916020013516610b94565b3480156103fc57600080fd5b5061033c610c1d565b34801561041157600080fd5b506102926004803603602081101561042857600080fd5b5035600160a060020a0316610c2c565b34801561044457600080fd5b5061027b610c39565b34801561045957600080fd5b50610292610cf5565b34801561046e57600080fd5b5061033c6004803603604081101561048557600080fd5b813591908101906040810160208201356401000000008111156104a757600080fd5b8201836020820111156104b957600080fd5b803590602001918460018302840111640100000000831117156104db57600080fd5b91908080601f016020809104026020016040519081016040528093929190818152602001838380828437600092019190915250929550610cfb945050505050565b34801561052857600080fd5b5061033c610e2d565b34801561053d57600080fd5b506101d3610e3c565b34801561055257600080fd5b506101d3610e75565b6105876004803603604081101561057157600080fd5b50600160a060020a038135169060200135610eac565b604080519115158252519081900360200190f35b3480156105a757600080fd5b50610292610ecf565b3480156105bc57600080fd5b50610587600480360360208110156105d357600080fd5b5035610f58565b3480156105e657600080fd5b50610292600480360360808110156105fd57600080fd5b50600160a060020a038135169060208101359060408101359060600135610f6d565b34801561062b57600080fd5b50610292610f8c565b34801561064057600080fd5b5061027b6004803603604081101561065757600080fd5b600160a060020a03823516919081019060408101602082013564010000000081111561068257600080fd5b82018360208201111561069457600080fd5b803590602001918460018302840111640100000000831117156106b657600080fd5b91908080601f016020809104026020016040519081016040528093929190818152602001838380828437600092019190915250929550610f92945050505050565b34801561070357600080fd5b50610292611124565b34801561071857600080fd5b5061029261112a565b34801561072d57600080fd5b5061027b6004803603602081101561074457600080fd5b5035600160a060020a0316611174565b34801561076057600080fd5b5061027b6004803603602081101561077757600080fd5b5035600160a060020a031661128a565b34801561079357600080fd5b5061033c61139f565b60408051808201909152600a81527f5733465320546f6b656e00000000000000000000000000000000000000000000602082015290565b6107db6113ae565b600160a060020a03166107ec610e2d565b600160a060020a031614610838576040805160e560020a62461bcd0281526020600482018190526024820152600080516020611b2f833981519152604482015290519081900360640190fd5b600160a060020a0381166108805760405160e560020a62461bcd028152600401808060200182810382526033815260200180611a876033913960400191505060405180910390fd5b600454604051600160a060020a038084169216907fc9e4c719f349d4c91a37138eb5cf0ba2670c592a764f8c0b18c603ba9178cc1d90600090a36004805473ffffffffffffffffffffffffffffffffffffffff1916600160a060020a0392909216919091179055565b6b204fce5e3e2502611000000090565b600080851161090757600080fd5b8215806109145750824311155b610968576040805160e560020a62461bcd02815260206004820152601460248201527f5369676e61747572652069732065787069726564000000000000000000000000604482015290519081900360640190fd5b600061097f610979338888886113b2565b3061146b565b60008181526005602052604090205490915060ff16156109e9576040805160e560020a62461bcd02815260206004820152600f60248201527f5369672064656163746976617465640000000000000000000000000000000000604482015290519081900360640190fd5b600081815260056020908152604091829020805460ff191660011790558151601f8a01829004820281018201909252888252610a419183918b908b9081908401838280828437600092019190915250610cfb92505050565b9150610a4e8284886115f4565b50509695505050505050565b336000610a6682610c2c565b600654909150610a7c908463ffffffff61184d16565b6006558215801590610a8d57508234145b610ae1576040805160e560020a62461bcd02815260206004820152601360248201527f496e73756666696369656e7420616d6f756e7400000000000000000000000000604482015290519081900360640190fd5b604080518481529051600091600160a060020a038516917fddf252ad1be2c89b69c2b068fc378daa952ba7f163c4a11628f55a4df523b3ef9181900360200190a3600254600160a060020a0380841691167febff2602b3f468259e1e99f613fed6691f3a6526effe6ef3e768ba7ae7a36c4f8584610b5e87610c2c565b60408051938452602084019290925282820152519081900360600190a3505050565b601290565b600354600160a060020a031681565b60075460ff1615610bd95760405160e560020a62461bcd028152600401808060200182810382526023815260200180611a646023913960400191505060405180910390fd5b6007805460ff1916600117905560028054600160a060020a03831673ffffffffffffffffffffffffffffffffffffffff19909116179055610c19826112ef565b5050565b600454600160a060020a031681565b600160a060020a03163190565b610c416113ae565b600160a060020a0316610c52610e2d565b600160a060020a031614610c9e576040805160e560020a62461bcd0281526020600482018190526024820152600080516020611b2f833981519152604482015290519081900360640190fd5b60008054604051600160a060020a03909116907f8be0079c531659141344cd1fd0a4f28419497f9722a3daafe3b4186f6b6457e0908390a36000805473ffffffffffffffffffffffffffffffffffffffff19169055565b60065481565b6000806000808451604114610d165760009350505050610e27565b50505060208201516040830151604184015160ff16601b811015610d3857601b015b8060ff16601b14158015610d5057508060ff16601c14155b15610d615760009350505050610e27565b6040805160008152602080820180845289905260ff8416828401526060820186905260808201859052915160019260a0808401939192601f1981019281900390910190855afa158015610db8573d6000803e3d6000fd5b5050604051601f190151945050600160a060020a038416610e23576040805160e560020a62461bcd02815260206004820152601260248201527f4572726f7220696e2065637265636f7665720000000000000000000000000000604482015290519081900360640190fd5b5050505b92915050565b600054600160a060020a031690565b6040518060400160405280600281526020017f3e7f00000000000000000000000000000000000000000000000000000000000081525081565b60408051808201909152600481527f5733465300000000000000000000000000000000000000000000000000000000602082015290565b6000813414610ebd57506000610e27565b610ec83384846115f4565b9392505050565b6040518060800160405280605b8152602001611b81605b91396040516020018082805190602001908083835b60208310610f1a5780518252601f199092019160209182019101610efb565b6001836020036101000a0380198251168184511680821785525050505050509050019150506040516020818303038152906040528051906020012081565b60056020526000908152604090205460ff1681565b6000610f83610f7e868686866113b2565b6118ad565b95945050505050565b613e7f81565b610f9a6113ae565b600160a060020a0316610fab610e2d565b600160a060020a031614610ff7576040805160e560020a62461bcd0281526020600482018190526024820152600080516020611b2f833981519152604482015290519081900360640190fd5b600081806020019051602081101561100e57600080fd5b5051905080158015906110295750600160a060020a03831615155b6110675760405160e560020a62461bcd028152600401808060200182810382526023815260200180611aba6023913960400191505060405180910390fd5b600061107284610c2c565b6040519091508490600160a060020a0382169084156108fc029085906000818181858888f193505050501580156110ad573d6000803e3d6000fd5b506006546110c1908463ffffffff6118bb16565b600655600254600160a060020a0380871691167f4e2ca0515ed1aef1395f66b5303bb5d6f1bf9d61a353fa53f73f8ac9973fa9f685856111008a610c2c565b60408051938452602084019290925282820152519081900360600190a35050505050565b60015481565b604051806080016040528060528152602001611add6052913960405160200180828051906020019080838360208310610f1a5780518252601f199092019160209182019101610efb565b61117c6113ae565b600160a060020a031661118d610e2d565b600160a060020a0316146111d9576040805160e560020a62461bcd0281526020600482018190526024820152600080516020611b2f833981519152604482015290519081900360640190fd5b600160a060020a0381166112215760405160e560020a62461bcd028152600401808060200182810382526032815260200180611b4f6032913960400191505060405180910390fd5b600354604051600160a060020a038084169216907f1f9f3556dd336016cdf20adaead7d5c73665dba664b60e8c17e9a4eb91ce1d3990600090a36003805473ffffffffffffffffffffffffffffffffffffffff1916600160a060020a0392909216919091179055565b6112926113ae565b600160a060020a03166112a3610e2d565b600160a060020a0316146112ef576040805160e560020a62461bcd0281526020600482018190526024820152600080516020611b2f833981519152604482015290519081900360640190fd5b600160a060020a0381166113375760405160e560020a62461bcd028152600401808060200182810382526026815260200180611a3e6026913960400191505060405180910390fd5b60008054604051600160a060020a03808516939216917f8be0079c531659141344cd1fd0a4f28419497f9722a3daafe3b4186f6b6457e091a36000805473ffffffffffffffffffffffffffffffffffffffff1916600160a060020a0392909216919091179055565b600254600160a060020a031681565b3390565b6000806040518060800160405280605b8152602001611b81605b91396040516020018082805190602001908083835b602083106114005780518252601f1990920191602091820191016113e1565b51815160209384036101000a60001901801990921691161790526040805192909401828103601f190183528085528251928201929092208252600160a060020a039b909b169a81019a909a5250880196909652505050606084019190915260808301525060a0902090565b600080604051806080016040528060528152602001611add605291396040516020018082805190602001908083835b602083106114b95780518252601f19909201916020918201910161149a565b51815160209384036101000a60001901801990921691161790526040805192909401828103601f190183528085528251928201929092208285018552600d83527f4d61746963204e6574776f726b000000000000000000000000000000000000009282019290925283518085018552600181527f3100000000000000000000000000000000000000000000000000000000000000908201528351808201929092527fd26430275d0d30693378daeb558f6ed30c3a48ba5d665f52c16608e1c41b5cd7828501527fc89efdaa54c0f20c7adf612882df0950f5a951637e0307cdcb4c672f298b8bc66060830152613e7f6080830152600160a060020a03891660a0808401919091528451808403909101815260c0909201909352805192019190912093506115ec9250869150839050611918565b949350505050565b6040805160e060020a6370a08231028152600160a060020a03851660048201529051600091829130916370a08231916024808301926020929190829003018186803b15801561164257600080fd5b505afa158015611656573d6000803e3d6000fd5b505050506040513d602081101561166c57600080fd5b50516040805160e060020a6370a08231028152600160a060020a0387166004820152905191925060009130916370a08231916024808301926020929190829003018186803b1580156116bd57600080fd5b505afa1580156116d1573d6000803e3d6000fd5b505050506040513d60208110156116e757600080fd5b505190506116f6868686611955565b6002546040805160e060020a6370a08231028152600160a060020a03898116600483018190529251818a1694909116917fe6497e3ee548a3372136af2fcb0696db31fc6cf20260707645068bd3fe97f3c49189918891889130916370a0823191602480820192602092909190829003018186803b15801561177657600080fd5b505afa15801561178a573d6000803e3d6000fd5b505050506040513d60208110156117a057600080fd5b50516040805160e060020a6370a08231028152600160a060020a038f166004820152905130916370a08231916024808301926020929190829003018186803b1580156117eb57600080fd5b505afa1580156117ff573d6000803e3d6000fd5b505050506040513d602081101561181557600080fd5b50516040805195865260208601949094528484019290925260608401526080830152519081900360a00190a450600195945050505050565b6000828211156118a7576040805160e560020a62461bcd02815260206004820152601e60248201527f536166654d6174683a207375627472616374696f6e206f766572666c6f770000604482015290519081900360640190fd5b50900390565b6000610e2782600154611918565b600082820183811015610ec8576040805160e560020a62461bcd02815260206004820152601b60248201527f536166654d6174683a206164646974696f6e206f766572666c6f770000000000604482015290519081900360640190fd5b6040517f19010000000000000000000000000000000000000000000000000000000000008152600281019190915260228101919091526042902090565b600160a060020a0382163014156119b6576040805160e560020a62461bcd02815260206004820152601360248201527f63616e27742073656e6420746f204d5243323000000000000000000000000000604482015290519081900360640190fd5b604051600160a060020a0383169082156108fc029083906000818181858888f193505050501580156119ec573d6000803e3d6000fd5b5081600160a060020a031683600160a060020a03167fddf252ad1be2c89b69c2b068fc378daa952ba7f163c4a11628f55a4df523b3ef836040518082815260200191505060405180910390a350505056fe4f776e61626c653a206e6577206f776e657220697320746865207a65726f206164647265737354686520636f6e747261637420697320616c726561647920696e697469616c697a65644368696c6420746f6b656e3a206e657720706172656e74206164647265737320697320746865207a65726f2061646472657373496e73756666696369656e7420616d6f756e74206f7220696e76616c69642075736572454950373132446f6d61696e28737472696e67206e616d652c737472696e672076657273696f6e2c75696e7432353620636861696e49642c6164647265737320766572696679696e67436f6e7472616374294f776e61626c653a2063616c6c6572206973206e6f7420746865206f776e65724368696c6420746f6b656e3a206e6577206368696c64206164647265737320697320746865207a65726f2061646472657373546f6b656e5472616e736665724f726465722861646472657373207370656e6465722c75696e7432353620746f6b656e49644f72416d6f756e742c6279746573333220646174612c75696e743235362065787069726174696f6e29a2646970667358221220ce7ce3043873bd3c0499f7263f7ca7e4f66bdc7ac0e75021578ba3a10412664c64736f6c63430006060033454950373132446f6d61696e28737472696e67206e616d652c737472696e672076657273696f6e2c75696e7432353620636861696e49642c6164647265737320766572696679696e67436f6e747261637429",
  "immutableReferences": {},
  "source": "pragma solidity ^0.6.6;\n\nimport \"./BaseERC20.sol\";\nimport \"./IChildToken.sol\";\n\ncontract MRC20 is BaseERC20,IChildToken {\n    event Transfer(address indexed from, address indexed to, uint256 value);\n\n    uint256 public currentSupply = 0;\n    uint8 private constant DECIMALS = 18;\n    bool isInitialized;\n\n    constructor() public {}\n\n    function initialize(address _childChain, address _token) public {\n        // Todo: once BorValidator(@0x1000) contract added uncomment me\n        // require(msg.sender == address(0x1000));\n        require(!isInitialized, \"The contract is already initialized\");\n        isInitialized = true;\n        token = _token;\n        _transferOwner(_childChain);\n    }\n\n\n    function deposit(address user, bytes memory depositData) public override onlyOwner{\n        // check for amount and user\n        uint256 amount = abi.decode(depositData, (uint256));\n        require(\n            amount > 0 && user != address(0x0),\n            \"Insufficient amount or invalid user\"\n        );\n\n        // input balance\n        uint256 input1 = balanceOf(user);\n\n        // transfer amount to user\n        address payable _user = address(uint160(user));\n        _user.transfer(amount);\n\n        currentSupply = currentSupply.add(amount);\n\n        // deposit events\n        emit Deposit(token, user, amount, input1, balanceOf(user));\n    }\n\n    function withdraw(uint256 amount) public override payable {\n        address user = msg.sender;\n        // input balance\n        uint256 input = balanceOf(user);\n\n        currentSupply = currentSupply.sub(amount);\n        // check for amount\n        require(\n            amount > 0 && msg.value == amount,\n            \"Insufficient amount\"\n        );\n\n        // Transfer\n        emit Transfer(user, address(0), amount);\n        // withdraw event\n        emit Withdraw(token, user, amount, input, balanceOf(user));\n    }\n\n    function name() public pure returns (string memory) {\n        return \"W3FS Token\";\n    }\n\n    function symbol() public pure returns (string memory) {\n        return \"W3FS\";\n    }\n\n    function decimals() public pure returns (uint8) {\n        return DECIMALS;\n    }\n\n    function totalSupply() public pure returns (uint256) {\n        return 10000000000 * 10**uint256(DECIMALS);\n    }\n\n    function balanceOf(address account) public override view returns (uint256) {\n        return account.balance;\n    }\n\n    /// @dev Function that is called when a user or another contract wants to transfer funds.\n    /// @param to Address of token receiver.\n    /// @param value Number of tokens to transfer.\n    /// @return Returns success of function call.\n    function transfer(address to, uint256 value) public payable returns (bool) {\n        if (msg.value != value) {\n            return false;\n        }\n        return _transferFrom(msg.sender, to, value);\n    }\n\n    /**\n   * @dev _transfer is invoked by _transferFrom method that is inherited from BaseERC20.\n   * This enables us to transfer MaticEth between users while keeping the interface same as that of an ERC20 Token.\n   */\n    function _transfer(address sender, address recipient, uint256 amount) internal override\n    {\n        require(recipient != address(this), \"can't send to MRC20\");\n        address(uint160(recipient)).transfer(amount);\n        emit Transfer(sender, recipient, amount);\n    }\n}\n",
  "sourcePath": "/root/testnet/code/w3fs-genesis-contracts-bridge/contracts/mrc20/MRC20.sol",
  "compiler": {
    "name": "solc",
    "version": "0.6.6+commit.6c089d02.Emscripten.clang"
  },
  "schemaVersion": "3.4.10",
  "updatedAt": "2022-11-17T03:09:58.493Z",
  "networkType": "ethereum",
  "devdoc": {
    "methods": {
      "owner()": {
        "details": "Returns the address of the current owner."
      },
      "renounceOwnership()": {
        "details": "Leaves the contract without owner. It will not be possible to call `onlyOwner` functions anymore. Can only be called by the current owner.     * NOTE: Renouncing ownership will leave the contract without an owner, thereby removing any functionality that is only available to the owner."
      },
      "transfer(address,uint256)": {
        "details": "Function that is called when a user or another contract wants to transfer funds.",
        "params": {
          "to": "Address of token receiver.",
          "value": "Number of tokens to transfer."
        },
        "returns": {
          "_0": "Returns success of function call."
        }
      },
      "transferOwnership(address)": {
        "details": "Transfers ownership of the contract to a new account (`newOwner`). Can only be called by the current owner."
      }
    }
  },
  "userdoc": {
    "methods": {}
  }
}