{
  "contractName": "OwnableLockable",
  "abi": [
    {
      "anonymous": false,
      "inputs": [
        {
          "indexed": true,
          "internalType": "address",
          "name": "previousOwner",
          "type": "address"
        },
        {
          "indexed": true,
          "internalType": "address",
          "name": "newOwner",
          "type": "address"
        }
      ],
      "name": "OwnershipTransferred",
      "type": "event"
    },
    {
      "inputs": [],
      "name": "locked",
      "outputs": [
        {
          "internalType": "bool",
          "name": "",
          "type": "bool"
        }
      ],
      "stateMutability": "view",
      "type": "function"
    },
    {
      "inputs": [],
      "name": "owner",
      "outputs": [
        {
          "internalType": "address",
          "name": "",
          "type": "address"
        }
      ],
      "stateMutability": "view",
      "type": "function"
    },
    {
      "inputs": [],
      "name": "renounceOwnership",
      "outputs": [],
      "stateMutability": "nonpayable",
      "type": "function"
    },
    {
      "inputs": [
        {
          "internalType": "address",
          "name": "newOwner",
          "type": "address"
        }
      ],
      "name": "transferOwnership",
      "outputs": [],
      "stateMutability": "nonpayable",
      "type": "function"
    },
    {
      "inputs": [],
      "name": "lock",
      "outputs": [],
      "stateMutability": "nonpayable",
      "type": "function"
    },
    {
      "inputs": [],
      "name": "unlock",
      "outputs": [],
      "stateMutability": "nonpayable",
      "type": "function"
    }
  ],
  "bytecode": "0x6080604052600061001764010000000061006e810204565b6000805461010060a860020a031916610100600160a060020a038416908102919091178255604051929350917f8be0079c531659141344cd1fd0a4f28419497f9722a3daafe3b4186f6b6457e0908290a350610072565b3390565b610464806100816000396000f3fe608060405234801561001057600080fd5b506004361061007e577c01000000000000000000000000000000000000000000000000000000006000350463715018a681146100835780638da5cb5b1461008d578063a69df4b5146100b1578063cf309012146100b9578063f2fde38b146100d5578063f83d08ba146100fb575b600080fd5b61008b610103565b005b6100956101bf565b60408051600160a060020a039092168252519081900360200190f35b61008b6101d3565b6100c161023d565b604080519115158252519081900360200190f35b61008b600480360360208110156100eb57600080fd5b5035600160a060020a0316610246565b61008b610361565b61010b6103c9565b6000546101009004600160a060020a03908116911614610163576040805160e560020a62461bcd028152602060048201819052602482015260008051602061040f833981519152604482015290519081900360640190fd5b60008054604051610100909104600160a060020a0316907f8be0079c531659141344cd1fd0a4f28419497f9722a3daafe3b4186f6b6457e0908390a36000805474ffffffffffffffffffffffffffffffffffffffff0019169055565b6000546101009004600160a060020a031690565b6101db6103c9565b6000546101009004600160a060020a03908116911614610233576040805160e560020a62461bcd028152602060048201819052602482015260008051602061040f833981519152604482015290519081900360640190fd5b61023b6103cd565b565b60005460ff1681565b61024e6103c9565b6000546101009004600160a060020a039081169116146102a6576040805160e560020a62461bcd028152602060048201819052602482015260008051602061040f833981519152604482015290519081900360640190fd5b600160a060020a0381166102ee5760405160e560020a62461bcd0281526004018080602001828103825260268152602001806103e96026913960400191505060405180910390fd5b60008054604051600160a060020a038085169361010090930416917f8be0079c531659141344cd1fd0a4f28419497f9722a3daafe3b4186f6b6457e091a360008054600160a060020a039092166101000274ffffffffffffffffffffffffffffffffffffffff0019909216919091179055565b6103696103c9565b6000546101009004600160a060020a039081169116146103c1576040805160e560020a62461bcd028152602060048201819052602482015260008051602061040f833981519152604482015290519081900360640190fd5b61023b6103d9565b3390565b6000805460ff19169055565b6000805460ff1916600117905556fe4f776e61626c653a206e6577206f776e657220697320746865207a65726f20616464726573734f776e61626c653a2063616c6c6572206973206e6f7420746865206f776e6572a2646970667358221220eff8faba0e00411a420451db73e1a08ffe97a17d710aa55f8aca1d77708e020364736f6c63430006060033",
  "immutableReferences": {},
  "source": "pragma solidity ^0.6.6;\n\nimport {Lockable} from \"./Lockable.sol\";\nimport {OwnableExpand} from \"./OwnableExpand.sol\";\n\ncontract OwnableLockable is Lockable, OwnableExpand {\n    function lock() public override onlyOwner {\n        super.lock();\n    }\n\n    function unlock() public override onlyOwner {\n        super.unlock();\n    }\n}\n",
  "sourcePath": "/root/testnet/code/w3fs-genesis-contracts-bridge/contracts/common/utils/OwnableLockable.sol",
  "compiler": {
    "name": "solc",
    "version": "0.6.6+commit.6c089d02.Emscripten.clang"
  },
  "schemaVersion": "3.4.10",
  "updatedAt": "2022-11-17T02:32:22.348Z",
  "devdoc": {
    "methods": {
      "owner()": {
        "details": "Returns the address of the current owner."
      },
      "renounceOwnership()": {
        "details": "Leaves the contract without owner. It will not be possible to call `onlyOwner` functions anymore. Can only be called by the current owner.     * NOTE: Renouncing ownership will leave the contract without an owner, thereby removing any functionality that is only available to the owner."
      },
      "transferOwnership(address)": {
        "details": "Transfers ownership of the contract to a new account (`newOwner`). Can only be called by the current owner."
      }
    }
  },
  "userdoc": {
    "methods": {}
  }
}