{
  "contractName": "Registry",
  "abi": [
    {
      "inputs": [
        {
          "internalType": "address",
          "name": "_governance",
          "type": "address"
        }
      ],
      "stateMutability": "nonpayable",
      "type": "constructor"
    },
    {
      "anonymous": false,
      "inputs": [
        {
          "indexed": true,
          "internalType": "bytes32",
          "name": "key",
          "type": "bytes32"
        },
        {
          "indexed": true,
          "internalType": "address",
          "name": "previousContract",
          "type": "address"
        },
        {
          "indexed": true,
          "internalType": "address",
          "name": "newContract",
          "type": "address"
        }
      ],
      "name": "ContractMapUpdated",
      "type": "event"
    },
    {
      "inputs": [
        {
          "internalType": "bytes32",
          "name": "",
          "type": "bytes32"
        }
      ],
      "name": "contractMap",
      "outputs": [
        {
          "internalType": "address",
          "name": "",
          "type": "address"
        }
      ],
      "stateMutability": "view",
      "type": "function",
      "constant": true
    },
    {
      "inputs": [],
      "name": "governance",
      "outputs": [
        {
          "internalType": "contract IGovernance",
          "name": "",
          "type": "address"
        }
      ],
      "stateMutability": "view",
      "type": "function",
      "constant": true
    },
    {
      "inputs": [
        {
          "internalType": "bytes32",
          "name": "_key",
          "type": "bytes32"
        },
        {
          "internalType": "address",
          "name": "_address",
          "type": "address"
        }
      ],
      "name": "updateContractMap",
      "outputs": [],
      "stateMutability": "nonpayable",
      "type": "function"
    },
    {
      "inputs": [],
      "name": "getW3fsStakingInfoAddress",
      "outputs": [
        {
          "internalType": "address",
          "name": "",
          "type": "address"
        }
      ],
      "stateMutability": "view",
      "type": "function",
      "constant": true
    },
    {
      "inputs": [],
      "name": "getW3fsStakeManagerAddress",
      "outputs": [
        {
          "internalType": "address",
          "name": "",
          "type": "address"
        }
      ],
      "stateMutability": "view",
      "type": "function",
      "constant": true
    },
    {
      "inputs": [],
      "name": "getDelegateShareAddress",
      "outputs": [
        {
          "internalType": "address",
          "name": "",
          "type": "address"
        }
      ],
      "stateMutability": "view",
      "type": "function",
      "constant": true
    },
    {
      "inputs": [],
      "name": "getSystemRewardAddress",
      "outputs": [
        {
          "internalType": "address",
          "name": "",
          "type": "address"
        }
      ],
      "stateMutability": "view",
      "type": "function",
      "constant": true
    },
    {
      "inputs": [],
      "name": "getW3fsStorageManagerAddress",
      "outputs": [
        {
          "internalType": "address",
          "name": "",
          "type": "address"
        }
      ],
      "stateMutability": "view",
      "type": "function",
      "constant": true
    },
    {
      "inputs": [],
      "name": "getW3fsSlashManagerAddress",
      "outputs": [
        {
          "internalType": "address",
          "name": "",
          "type": "address"
        }
      ],
      "stateMutability": "view",
      "type": "function",
      "constant": true
    }
  ],
  "bytecode": "0x608060405234801561001057600080fd5b506040516104e03803806104e08339818101604052602081101561003357600080fd5b505160008054600160a060020a03909216600160a060020a031990921691909117905561047b806100656000396000f3fe608060405234801561001057600080fd5b50600436106100b0576000357c0100000000000000000000000000000000000000000000000000000000900480636ddb63ab116100835780636ddb63ab146101175780637b2924471461011f5780639551ab7414610127578063cac39a051461012f578063ea31fc281461014c576100b0565b80632026cfdc146100b55780634aa1a09f146100e35780635aa6e675146101075780635da4b8521461010f575b600080fd5b6100e1600480360360408110156100cb57600080fd5b5080359060200135600160a060020a0316610154565b005b6100eb610239565b60408051600160a060020a039092168252519081900360200190f35b6100eb610283565b6100eb610292565b6100eb6102dc565b6100eb610326565b6100eb610370565b6100eb6004803603602081101561014557600080fd5b50356103ba565b6100eb6103d5565b600054600160a060020a031633146101b7576040517f08c379a00000000000000000000000000000000000000000000000000000000081526004018080602001828103825260268152602001806104206026913960400191505060405180910390fd5b600082815260016020526040808220549051600160a060020a038085169392169185917fffb8cfd9cecbede837eec100fb8e17560ea22bf018e065366ee5e2ff5e0bd10c9190a4600091825260016020526040909120805473ffffffffffffffffffffffffffffffffffffffff1916600160a060020a03909216919091179055565b604080517f73797374656d52657761726400000000000000000000000000000000000000008152815190819003600c019020600090815260016020522054600160a060020a031690565b600054600160a060020a031681565b604080517f773366735374616b696e67496e666f00000000000000000000000000000000008152815190819003600f019020600090815260016020522054600160a060020a031690565b604080517f773366735374616b654d616e616765720000000000000000000000000000000081528151908190036010019020600090815260016020522054600160a060020a031690565b604080517f736c617368696e674d616e6167657200000000000000000000000000000000008152815190819003600f019020600090815260016020522054600160a060020a031690565b604080517f64656c65676174655368617265000000000000000000000000000000000000008152815190819003600d019020600090815260016020522054600160a060020a031690565b600160205260009081526040902054600160a060020a031681565b604080517f7733667353746f726167654d616e61676572000000000000000000000000000081528151908190036012019020600090815260016020522054600160a060020a03169056fe4f6e6c7920676f7665726e616e636520636f6e747261637420697320617574686f72697a6564a2646970667358221220bfcb84ef0fe214c8e6a478476b626e552fe3c870b1f1ef3d3f8d2796631f412f64736f6c63430006060033",
  "immutableReferences": {},
  "source": "pragma solidity ^0.6.6;\n\nimport {Governable} from \"../gov/Governable.sol\";\n\ncontract Registry is Governable {\n\n\n    event ContractMapUpdated(bytes32 indexed key, address indexed previousContract, address indexed newContract);\n\n    bytes32 private constant STAKE_MANAGER = keccak256(\"w3fsStakeManager\");\n    bytes32 private constant DELEGATE_SHARE = keccak256(\"delegateShare\");\n    bytes32 private constant SYSTEM_REWARD_SHARE = keccak256(\"systemReward\");\n    bytes32 private constant STORAGE_MANAGER = keccak256(\"w3fsStorageManager\");\n    bytes32 private constant SLASH_MANAGER = keccak256(\"slashingManager\");\n    bytes32 private constant STAKE_INFO = keccak256(\"w3fsStakingInfo\");\n\n    mapping(bytes32 => address) public contractMap;\n\n    constructor(address _governance) public Governable(_governance) {\n\n    }\n\n\n    function updateContractMap(bytes32 _key, address _address) external onlyGovernance {\n        emit ContractMapUpdated(_key, contractMap[_key], _address);\n        contractMap[_key] = _address;\n    }\n\n    function getW3fsStakingInfoAddress() public view returns (address) {\n        return contractMap[STAKE_INFO];\n    }\n\n    function getW3fsStakeManagerAddress() public view returns (address) {\n        return contractMap[STAKE_MANAGER];\n    }\n\n    function getDelegateShareAddress() public view returns (address) {\n        return contractMap[DELEGATE_SHARE];\n    }\n\n    function getSystemRewardAddress() public view returns (address) {\n        return contractMap[SYSTEM_REWARD_SHARE];\n    }\n\n    function getW3fsStorageManagerAddress() public view returns (address) {\n        return contractMap[STORAGE_MANAGER];\n    }\n\n    function getW3fsSlashManagerAddress() public view returns (address) {\n        return contractMap[SLASH_MANAGER];\n    }\n\n}\n",
  "sourcePath": "/root/testnet/code/w3fs-genesis-contracts-bridge/contracts/common/misc/Registry.sol",
  "compiler": {
    "name": "solc",
    "version": "0.6.6+commit.6c089d02.Emscripten.clang"
  },
  "schemaVersion": "3.4.10",
  "updatedAt": "2022-11-17T03:12:05.652Z",
  "networkType": "ethereum",
  "devdoc": {
    "methods": {}
  },
  "userdoc": {
    "methods": {}
  }
}