{
  "contractName": "SlashingManager",
  "abi": [
    {
      "inputs": [],
      "stateMutability": "nonpayable",
      "type": "constructor"
    },
    {
      "anonymous": false,
      "inputs": [
        {
          "indexed": true,
          "internalType": "address",
          "name": "previousOwner",
          "type": "address"
        },
        {
          "indexed": true,
          "internalType": "address",
          "name": "newOwner",
          "type": "address"
        }
      ],
      "name": "OwnershipTransferred",
      "type": "event"
    },
    {
      "anonymous": false,
      "inputs": [
        {
          "indexed": true,
          "internalType": "address",
          "name": "from",
          "type": "address"
        },
        {
          "indexed": true,
          "internalType": "address",
          "name": "miner",
          "type": "address"
        }
      ],
      "name": "SlashEvent",
      "type": "event"
    },
    {
      "inputs": [],
      "name": "PERCENTAGE_SLASH",
      "outputs": [
        {
          "internalType": "uint256",
          "name": "",
          "type": "uint256"
        }
      ],
      "stateMutability": "view",
      "type": "function",
      "constant": true
    },
    {
      "inputs": [],
      "name": "felonyThreshold",
      "outputs": [
        {
          "internalType": "uint256",
          "name": "",
          "type": "uint256"
        }
      ],
      "stateMutability": "view",
      "type": "function",
      "constant": true
    },
    {
      "inputs": [],
      "name": "governance",
      "outputs": [
        {
          "internalType": "contract IGovernance",
          "name": "",
          "type": "address"
        }
      ],
      "stateMutability": "view",
      "type": "function",
      "constant": true
    },
    {
      "inputs": [
        {
          "internalType": "address",
          "name": "",
          "type": "address"
        }
      ],
      "name": "indicators",
      "outputs": [
        {
          "internalType": "uint256",
          "name": "height",
          "type": "uint256"
        },
        {
          "internalType": "uint256",
          "name": "count",
          "type": "uint256"
        },
        {
          "internalType": "uint256",
          "name": "totalCount",
          "type": "uint256"
        },
        {
          "internalType": "uint256",
          "name": "jailCount",
          "type": "uint256"
        },
        {
          "internalType": "uint256",
          "name": "prevAmount",
          "type": "uint256"
        },
        {
          "internalType": "bool",
          "name": "exist",
          "type": "bool"
        }
      ],
      "stateMutability": "view",
      "type": "function",
      "constant": true
    },
    {
      "inputs": [],
      "name": "jailThreshold",
      "outputs": [
        {
          "internalType": "uint256",
          "name": "",
          "type": "uint256"
        }
      ],
      "stateMutability": "view",
      "type": "function",
      "constant": true
    },
    {
      "inputs": [],
      "name": "lock",
      "outputs": [],
      "stateMutability": "nonpayable",
      "type": "function"
    },
    {
      "inputs": [],
      "name": "locked",
      "outputs": [
        {
          "internalType": "bool",
          "name": "",
          "type": "bool"
        }
      ],
      "stateMutability": "view",
      "type": "function",
      "constant": true
    },
    {
      "inputs": [],
      "name": "logger",
      "outputs": [
        {
          "internalType": "contract W3fsStakingInfo",
          "name": "",
          "type": "address"
        }
      ],
      "stateMutability": "view",
      "type": "function",
      "constant": true
    },
    {
      "inputs": [],
      "name": "owner",
      "outputs": [
        {
          "internalType": "address",
          "name": "",
          "type": "address"
        }
      ],
      "stateMutability": "view",
      "type": "function",
      "constant": true
    },
    {
      "inputs": [],
      "name": "registry",
      "outputs": [
        {
          "internalType": "contract Registry",
          "name": "",
          "type": "address"
        }
      ],
      "stateMutability": "view",
      "type": "function",
      "constant": true
    },
    {
      "inputs": [],
      "name": "renounceOwnership",
      "outputs": [],
      "stateMutability": "nonpayable",
      "type": "function"
    },
    {
      "inputs": [
        {
          "internalType": "address",
          "name": "",
          "type": "address"
        }
      ],
      "name": "slashMap",
      "outputs": [
        {
          "internalType": "uint256",
          "name": "",
          "type": "uint256"
        }
      ],
      "stateMutability": "view",
      "type": "function",
      "constant": true
    },
    {
      "inputs": [
        {
          "internalType": "address",
          "name": "newOwner",
          "type": "address"
        }
      ],
      "name": "transferOwnership",
      "outputs": [],
      "stateMutability": "nonpayable",
      "type": "function"
    },
    {
      "inputs": [],
      "name": "unlock",
      "outputs": [],
      "stateMutability": "nonpayable",
      "type": "function"
    },
    {
      "inputs": [
        {
          "internalType": "address",
          "name": "_registry",
          "type": "address"
        },
        {
          "internalType": "address",
          "name": "_governance",
          "type": "address"
        },
        {
          "internalType": "address",
          "name": "_w3fsStakingInfo",
          "type": "address"
        }
      ],
      "name": "initialize",
      "outputs": [],
      "stateMutability": "nonpayable",
      "type": "function"
    },
    {
      "inputs": [
        {
          "internalType": "address",
          "name": "minerAddr",
          "type": "address"
        }
      ],
      "name": "slash",
      "outputs": [],
      "stateMutability": "nonpayable",
      "type": "function"
    },
    {
      "inputs": [
        {
          "internalType": "uint256",
          "name": "newPercentage",
          "type": "uint256"
        }
      ],
      "name": "updatePercentageSlash",
      "outputs": [],
      "stateMutability": "nonpayable",
      "type": "function"
    },
    {
      "inputs": [
        {
          "internalType": "uint256",
          "name": "newFelonyThreshold",
          "type": "uint256"
        }
      ],
      "name": "updateFelonyThreshold",
      "outputs": [],
      "stateMutability": "nonpayable",
      "type": "function"
    },
    {
      "inputs": [
        {
          "internalType": "uint256",
          "name": "newJailThreshold",
          "type": "uint256"
        }
      ],
      "name": "updateJailThreshold",
      "outputs": [],
      "stateMutability": "nonpayable",
      "type": "function"
    }
  ],
  "bytecode": "0x608060405234801561001057600080fd5b506000805461010060a860020a0319168155610033640100000000610086810204565b60018054600160a060020a031916600160a060020a038316908117909155604051919250906000907f8be0079c531659141344cd1fd0a4f28419497f9722a3daafe3b4186f6b6457e0908290a35061008a565b3390565b61129a806100996000396000f3fe608060405234801561001057600080fd5b506004361061013e576000357c0100000000000000000000000000000000000000000000000000000000900480638da5cb5b116100ca578063cf3090121161008e578063cf309012146102e1578063de833b50146102fd578063f24ccbfe14610305578063f2fde38b1461030d578063f83d08ba146103335761013e565b80638da5cb5b14610256578063a601d7e61461025e578063a69df4b51461027b578063c0c53b8b14610283578063c96be4cb146102bb5761013e565b80633d9061f0116101115780633d9061f0146101f457806347a3da12146101fc5780635aa6e67514610222578063715018a6146102465780637b1039991461024e5761013e565b8063107288a11461014357806314f074e71461016257806323bac5a21461017f578063389f4f71146101da575b600080fd5b6101606004803603602081101561015957600080fd5b503561033b565b005b6101606004803603602081101561017857600080fd5b50356103ea565b6101a56004803603602081101561019557600080fd5b5035600160a060020a03166104dc565b6040805196875260208701959095528585019390935260608501919091526080840152151560a0830152519081900360c00190f35b6101e2610514565b60408051918252519081900360200190f35b6101e261051a565b6101e26004803603602081101561021257600080fd5b5035600160a060020a0316610520565b61022a610532565b60408051600160a060020a039092168252519081900360200190f35b610160610546565b61022a61060a565b61022a610619565b6101606004803603602081101561027457600080fd5b5035610628565b61016061071a565b6101606004803603606081101561029957600080fd5b50600160a060020a038135811691602081013582169160409091013516610775565b610160600480360360208110156102d157600080fd5b5035600160a060020a0316610947565b6102e9610e5d565b604080519115158252519081900360200190f35b6101e2610e66565b61022a610e6c565b6101606004803603602081101561032357600080fd5b5035600160a060020a0316610e7b565b610160610f99565b6000546101009004600160a060020a0316331461038c5760405160e560020a62461bcd02815260040180806020018281038252602681526020018061123f6026913960400191505060405180910390fd5b60018110156103e5576040805160e560020a62461bcd02815260206004820152601360248201527f6e657750657263656e74616765206572726f7200000000000000000000000000604482015290519081900360640190fd5b600355565b6000546101009004600160a060020a0316331461043b5760405160e560020a62461bcd02815260040180806020018281038252602681526020018061123f6026913960400191505060405180910390fd5b60008111610493576040805160e560020a62461bcd02815260206004820152601760248201527f66656c6f6e795468726573686f6c64206973207a65726f000000000000000000604482015290519081900360640190fd5b6005548111156104d75760405160e560020a62461bcd0281526004018080602001828103825260298152602001806111786029913960400191505060405180910390fd5b600455565b600a60205260009081526040902080546001820154600283015460038401546004850154600590950154939492939192909160ff1686565b60045481565b60035481565b60066020526000908152604090205481565b6000546101009004600160a060020a031681565b61054e610ff2565b600154600160a060020a039081169116146105b3576040805160e560020a62461bcd02815260206004820181905260248201527f4f776e61626c653a2063616c6c6572206973206e6f7420746865206f776e6572604482015290519081900360640190fd5b600154604051600091600160a060020a0316907f8be0079c531659141344cd1fd0a4f28419497f9722a3daafe3b4186f6b6457e0908390a36001805473ffffffffffffffffffffffffffffffffffffffff19169055565b600754600160a060020a031681565b600154600160a060020a031690565b6000546101009004600160a060020a031633146106795760405160e560020a62461bcd02815260040180806020018281038252602681526020018061123f6026913960400191505060405180910390fd5b600081116106d1576040805160e560020a62461bcd02815260206004820152601860248201527f6e65774a61696c5468726573686f6c64206973207a65726f0000000000000000604482015290519081900360640190fd5b6004548110156107155760405160e560020a62461bcd02815260040180806020018281038252602a8152602001806111a1602a913960400191505060405180910390fd5b600555565b6000546101009004600160a060020a0316331461076b5760405160e560020a62461bcd02815260040180806020018281038252602681526020018061123f6026913960400191505060405180910390fd5b610773610ff6565b565b60015474010000000000000000000000000000000000000000900460ff16156107e8576040805160e560020a62461bcd02815260206004820152600e60248201527f616c726561647920696e69746564000000000000000000000000000000000000604482015290519081900360640190fd5b6001805474ff0000000000000000000000000000000000000000191674010000000000000000000000000000000000000000178155602060048181556040600581905560039390935560078054600160a060020a0380891673ffffffffffffffffffffffffffffffffffffffff199283161792839055600080548983166101000274ffffffffffffffffffffffffffffffffffffffff00199091161790556008805488831693169290921790915584517f6ddb63ab0000000000000000000000000000000000000000000000000000000081529451911693636ddb63ab9381840193909291829003018186803b1580156108e157600080fd5b505afa1580156108f5573d6000803e3d6000fd5b505050506040513d602081101561090b57600080fd5b50516009805473ffffffffffffffffffffffffffffffffffffffff1916600160a060020a0390921691909117905561094233611002565b505050565b3341146109885760405160e560020a62461bcd02815260040180806020018281038252602d815260200180611212602d913960400191505060405180910390fd5b60025443116109e1576040805160e560020a62461bcd02815260206004820181905260248201527f63616e206e6f7420736c61736820747769636520696e206f6e6520626c6f636b604482015290519081900360640190fd5b3a15610a37576040805160e560020a62461bcd02815260206004820152601460248201527f6761737072696365206973206e6f74207a65726f000000000000000000000000604482015290519081900360640190fd5b600954600160a060020a03161580610ade5750600954604080517f51882bbc000000000000000000000000000000000000000000000000000000008152600160a060020a038481166004830152915191909216916351882bbc916024808301926020929190829003018186803b158015610ab057600080fd5b505afa158015610ac4573d6000803e3d6000fd5b505050506040513d6020811015610ada57600080fd5b5051155b15610ae857610e56565b610af061113f565b50600160a060020a0381166000908152600a6020908152604091829020825160c08101845281548152600182015492810192909252600281015492820192909252600382015460608201526004820154608082015260059091015460ff1615801560a0830152610b82576020810180516001908101909152606082018051820190526040820180519091019052610b9f565b600160a08201819052602082018190526060820181905260408201525b43815260055460608201516000919081610bb557fe5b06610bc557506000606082015260015b600454826020015181610bd457fe5b06610be157600060208301525b60208201511580610bf457506060820151155b15610df457600954604080517fe2dea715000000000000000000000000000000000000000000000000000000008152600160a060020a0386811660048301529151600093929092169163e2dea71591602480820192602092909190829003018186803b158015610c6357600080fd5b505afa158015610c77573d6000803e3d6000fd5b505050506040513d6020811015610c8d57600080fd5b5051600954604080517f14e4e15e000000000000000000000000000000000000000000000000000000008152600481018490529051929350600092600160a060020a03909216916314e4e15e9160248082019260c092909190829003018186803b158015610cfa57600080fd5b505afa158015610d0e573d6000803e3d6000fd5b505050506040513d60c0811015610d2457600080fd5b5051600354909150600090610d5390606490610d4790859063ffffffff61106116565b9063ffffffff6110c616565b6080860151600954604080517fb62ded5b000000000000000000000000000000000000000000000000000000008152600160a060020a038b8116600483015294909301602484018190528815156044850152905190945092169163b62ded5b9160648082019260009290919082900301818387803b158015610dd457600080fd5b505af1158015610de8573d6000803e3d6000fd5b50505050608085015250505b50600160a060020a0382166000908152600a602090815260409182902083518155908301516001820155908201516002820155606082015160038201556080820151600482015560a0909101516005909101805460ff19169115159190911790555b5043600255565b60005460ff1681565b60055481565b600854600160a060020a031681565b610e83610ff2565b600154600160a060020a03908116911614610ee8576040805160e560020a62461bcd02815260206004820181905260248201527f4f776e61626c653a2063616c6c6572206973206e6f7420746865206f776e6572604482015290519081900360640190fd5b600160a060020a038116610f305760405160e560020a62461bcd0281526004018080602001828103825260268152602001806111cb6026913960400191505060405180910390fd5b600154604051600160a060020a038084169216907f8be0079c531659141344cd1fd0a4f28419497f9722a3daafe3b4186f6b6457e090600090a36001805473ffffffffffffffffffffffffffffffffffffffff1916600160a060020a0392909216919091179055565b6000546101009004600160a060020a03163314610fea5760405160e560020a62461bcd02815260040180806020018281038252602681526020018061123f6026913960400191505060405180910390fd5b610773611130565b3390565b6000805460ff19169055565b60018054600160a060020a0383811673ffffffffffffffffffffffffffffffffffffffff19831681179093556040519116919082907f8be0079c531659141344cd1fd0a4f28419497f9722a3daafe3b4186f6b6457e090600090a35050565b600082611070575060006110c0565b8282028284828161107d57fe5b04146110bd5760405160e560020a62461bcd0281526004018080602001828103825260218152602001806111f16021913960400191505060405180910390fd5b90505b92915050565b600080821161111f576040805160e560020a62461bcd02815260206004820152601a60248201527f536166654d6174683a206469766973696f6e206279207a65726f000000000000604482015290519081900360640190fd5b81838161112857fe5b049392505050565b6000805460ff19166001179055565b6040518060c001604052806000815260200160008152602001600081526020016000815260200160008152602001600015158152509056fe66656c6f6e795468726573686f6c64206d757374206c6f7720746f206a61696c5468726573686f6c646a61696c5468726573686f6c64206d757374206869676820746f2066656c6f6e795468726573686f6c644f776e61626c653a206e6577206f776e657220697320746865207a65726f2061646472657373536166654d6174683a206d756c7469706c69636174696f6e206f766572666c6f77746865206d6573736167652073656e646572206d7573742062652074686520626c6f636b2070726f64756365724f6e6c7920676f7665726e616e636520636f6e747261637420697320617574686f72697a6564a2646970667358221220c07da1289cc5d8c551706b470e7eb628d9df2cb9c3849909acb43be0d5defd5164736f6c63430006060033",
  "immutableReferences": {},
  "source": "pragma solidity ^0.6.6;\n\nimport {Registry} from \"../../common/misc/Registry.sol\";\nimport {W3fsStakingInfo} from \"../W3fsStakingInfo.sol\";\nimport {OwnableExpand} from \"../../common/utils/OwnableExpand.sol\";\nimport {SafeMath} from \"@openzeppelin/contracts/math/SafeMath.sol\";\nimport {IW3fsStakeManager} from \"../stakeManager/IW3fsStakeManager.sol\";\nimport {GovernanceLockable} from \"../../common/gov/GovernanceLockable.sol\";\nimport {IGovernance} from \"../../common/gov/IGovernance.sol\";\n\n// solc --bin-runtime @openzeppelin/=node_modules/@openzeppelin/ /=/ contracts/staking/slashing/SlashingManager.sol\ncontract SlashingManager is GovernanceLockable, OwnableExpand {\n\n    using SafeMath for uint256;\n\n    bool private inited;\n    uint256 private previousHeight;\n    uint256 public PERCENTAGE_SLASH;\n    uint256 public felonyThreshold;\n    uint256 public jailThreshold;\n    mapping(address => uint256) public slashMap;\n\n    Registry public registry;\n    W3fsStakingInfo public logger;\n    IW3fsStakeManager stakeManager;\n\n    struct Indicator {\n        uint256 height;\n        uint256 count;\n        uint256 totalCount;\n        uint256 jailCount;\n        uint256 prevAmount;\n        bool exist;\n    }\n    mapping(address => Indicator) public indicators;\n\n\n    event SlashEvent(address indexed from , address indexed miner);\n\n    modifier onlyStakeManager() {\n        require(registry.getW3fsStakeManagerAddress() == msg.sender, \"no allowed\");\n        _;\n    }\n\n    modifier onlyCoinbase() {\n        require(msg.sender == block.coinbase, \"the message sender must be the block producer\");\n        _;\n    }\n\n    modifier initializer() {\n        require(!inited, \"already inited\");\n        inited = true;\n        _;\n    }\n\n    modifier oncePerBlock() {\n        require(block.number > previousHeight, \"can not slash twice in one block\");\n        _;\n        previousHeight = block.number;\n    }\n\n    modifier onlyZeroGasPrice() {\n        require(tx.gasprice == 0 , \"gasprice is not zero\");\n        _;\n    }\n\n    constructor() public GovernanceLockable(address(0x0)) {\n    }\n\n    function initialize(address _registry, address _governance, address _w3fsStakingInfo) external initializer {\n        felonyThreshold = 32;\n        jailThreshold = 64;\n        PERCENTAGE_SLASH = 1;\n        registry = Registry(_registry);\n        governance = IGovernance(_governance);\n        logger = W3fsStakingInfo(_w3fsStakingInfo);\n        stakeManager = IW3fsStakeManager(registry.getW3fsStakeManagerAddress());\n        _transferOwnership(msg.sender);\n    }\n\n    function slash(address minerAddr) external onlyCoinbase oncePerBlock onlyZeroGasPrice {\n        if (address(stakeManager) == address(0x0) || !stakeManager.isActiveMiner(minerAddr)) {\n            return;\n        }\n        Indicator memory indicator = indicators[minerAddr];\n        if (indicator.exist) {\n            indicator.count++;\n            indicator.jailCount++;\n            indicator.totalCount++;\n        } else {\n            indicator.exist = true;\n            indicator.count = 1;\n            indicator.jailCount = 1;\n            indicator.totalCount = 1;\n        }\n        indicator.height = block.number;\n        bool doJail = false;\n        if (indicator.jailCount % jailThreshold == 0) {\n            doJail = true;\n            indicator.jailCount = 0;\n        }\n        if( indicator.count % felonyThreshold == 0) {\n            indicator.count = 0;\n        }\n        if (indicator.count == 0 || indicator.jailCount == 0) {\n            uint256 minerId = stakeManager.getMinerId(minerAddr);\n            (uint256 amount, , , , , ) = stakeManager.getMinerBaseInfo(minerId);\n            uint256 slashAmount = indicator.prevAmount + amount.mul(PERCENTAGE_SLASH).div(100);\n            stakeManager.slash(minerAddr, slashAmount, doJail);\n            indicator.prevAmount = slashAmount;\n        }\n        indicators[minerAddr] = indicator;\n    }\n\n    function updatePercentageSlash(uint256 newPercentage) external onlyGovernance {\n        require(newPercentage >= 1 , \"newPercentage error\");\n        PERCENTAGE_SLASH = newPercentage;\n    }\n\n    function updateFelonyThreshold(uint256 newFelonyThreshold) external onlyGovernance {\n        require(newFelonyThreshold > 0 , \"felonyThreshold is zero\");\n        require(newFelonyThreshold <= jailThreshold , \"felonyThreshold must low to jailThreshold\");\n        felonyThreshold = newFelonyThreshold;\n    }\n\n    function updateJailThreshold(uint256 newJailThreshold) external onlyGovernance {\n        require(newJailThreshold > 0 , \"newJailThreshold is zero\");\n        require(newJailThreshold >= felonyThreshold , \"jailThreshold must high to felonyThreshold\");\n        jailThreshold = newJailThreshold;\n    }\n}\n",
  "sourcePath": "/root/testnet/code/w3fs-genesis-contracts-bridge/contracts/staking/slashing/SlashingManager.sol",
  "compiler": {
    "name": "solc",
    "version": "0.6.6+commit.6c089d02.Emscripten.clang"
  },
  "schemaVersion": "3.4.10",
  "updatedAt": "2022-11-17T03:12:06.025Z",
  "networkType": "ethereum",
  "devdoc": {
    "methods": {
      "owner()": {
        "details": "Returns the address of the current owner."
      },
      "renounceOwnership()": {
        "details": "Leaves the contract without owner. It will not be possible to call `onlyOwner` functions anymore. Can only be called by the current owner.     * NOTE: Renouncing ownership will leave the contract without an owner, thereby removing any functionality that is only available to the owner."
      },
      "transferOwnership(address)": {
        "details": "Transfers ownership of the contract to a new account (`newOwner`). Can only be called by the current owner."
      }
    }
  },
  "userdoc": {
    "methods": {}
  }
}