{
  "contractName": "StateReceiver",
  "abi": [
    {
      "inputs": [],
      "name": "SYSTEM_ADDRESS",
      "outputs": [
        {
          "internalType": "address",
          "name": "",
          "type": "address"
        }
      ],
      "stateMutability": "view",
      "type": "function"
    },
    {
      "inputs": [],
      "name": "lastStateId",
      "outputs": [
        {
          "internalType": "uint256",
          "name": "",
          "type": "uint256"
        }
      ],
      "stateMutability": "view",
      "type": "function"
    },
    {
      "inputs": [
        {
          "internalType": "uint256",
          "name": "syncTime",
          "type": "uint256"
        },
        {
          "internalType": "bytes",
          "name": "recordBytes",
          "type": "bytes"
        }
      ],
      "name": "commitState",
      "outputs": [
        {
          "internalType": "bool",
          "name": "success",
          "type": "bool"
        }
      ],
      "stateMutability": "nonpayable",
      "type": "function"
    }
  ],
  "bytecode": "0x608060405234801561001057600080fd5b5061086d806100206000396000f3fe608060405234801561001057600080fd5b506004361061005d577c0100000000000000000000000000000000000000000000000000000000600035046319494a1781146100625780633434735f146100ed5780635407ca671461011e575b600080fd5b6100d96004803603604081101561007857600080fd5b8135919081019060408101602082013564010000000081111561009a57600080fd5b8201836020820111156100ac57600080fd5b803590602001918460018302840111640100000000831117156100ce57600080fd5b509092509050610138565b604080519115158252519081900360200190f35b6100f56103f1565b6040805173ffffffffffffffffffffffffffffffffffffffff9092168252519081900360200190f35b610126610409565b60408051918252519081900360200190f35b60003373fffffffffffffffffffffffffffffffffffffffe146101bc57604080517f08c379a000000000000000000000000000000000000000000000000000000000815260206004820152601260248201527f4e6f742053797374656d20416464657373210000000000000000000000000000604482015290519081900360640190fd5b606061020561020085858080601f01602080910402602001604051908101604052809392919081815260200183838082843760009201919091525061040f92505050565b610435565b905060006102268260008151811061021957fe5b602002602001015161051d565b9050806000546001011461029b57604080517f08c379a000000000000000000000000000000000000000000000000000000000815260206004820152601b60248201527f537461746549647320617265206e6f742073657175656e7469616c0000000000604482015290519081900360640190fd5b600080546001908101825583516102c391859181106102b657fe5b602002602001015161056b565b905060606102e4846002815181106102d757fe5b602002602001015161058b565b90506102ef82610608565b156103e6576000624c4b409050606084836040516024018083815260200180602001828103825283818151815260200191508051906020019080838360005b8381101561034657818101518382015260200161032e565b50505050905090810190601f1680156103735780820380516001836020036101000a031916815260200191505b5060408051601f198184030181529190526020810180517bffffffffffffffffffffffffffffffffffffffffffffffffffffffff167f26c53bea000000000000000000000000000000000000000000000000000000001781528151919650600095508594509092509050828887f1965050505b505050509392505050565b73fffffffffffffffffffffffffffffffffffffffe81565b60005481565b61041761081d565b5060408051808201909152815181526020828101908201525b919050565b606061044082610614565b61044957600080fd5b60006104548361064e565b905060608167ffffffffffffffff8111801561046f57600080fd5b506040519080825280602002602001820160405280156104a957816020015b61049661081d565b81526020019060019003908161048e5790505b50905060006104bb85602001516106aa565b60208601510190506000805b84811015610512576104d88361070d565b91506040518060400160405280838152602001848152508482815181106104fb57fe5b6020908102919091010152918101916001016104c7565b509195945050505050565b80516000901580159061053257508151602110155b61053b57600080fd5b600080610547846107a6565b8151919350915060208210156105635760208290036101000a90045b949350505050565b805160009060151461057c57600080fd5b6105858261051d565b92915050565b805160609061059957600080fd5b6000806105a5846107a6565b9150915060608167ffffffffffffffff811180156105c257600080fd5b506040519080825280601f01601f1916602001820160405280156105ed576020820181803683370190505b509050602081016105ff8482856107cc565b50949350505050565b3b63ffffffff16151590565b805160009061062557506000610430565b6020820151805160001a9060c082101561064457600092505050610430565b5060019392505050565b805160009061065f57506000610430565b6000809050600061067384602001516106aa565b602085015185519181019250015b808210156106a1576106928261070d565b60019093019290910190610681565b50909392505050565b8051600090811a60808110156106c4576000915050610430565b60b88110806106df575060c081108015906106df575060f881105b156106ee576001915050610430565b60c08110156107025760b519019050610430565b60f519019050610430565b80516000908190811a6080811015610728576001915061079f565b60b881101561073d57607e198101915061079f565b60c081101561076a5760b78103600185019450806020036101000a8551046001820181019350505061079f565b60f881101561077f5760be198101915061079f565b60f78103600185019450806020036101000a855104600182018101935050505b5092915050565b60008060006107b884602001516106aa565b602085015194519481019594039392505050565b806107d657610818565b5b602081106107f6578251825260209283019290910190601f19016107d7565b8015610818578251825160208390036101000a60001901801990921691161782525b505050565b60405180604001604052806000815260200160008152509056fea2646970667358221220f53cb135e3f899d18155f98829f08671ce8aea04a798b588726d8facd5038fa464736f6c63430006060033",
  "immutableReferences": {},
  "source": "pragma solidity ^0.6.6;\n\nimport { RLPReader } from \"solidity-rlp/contracts/RLPReader.sol\";\n\nimport { System } from \"./System.sol\";\nimport { IStateReceiver } from \"./IStateReceiver.sol\";\n\ncontract StateReceiver is System {\n  using RLPReader for bytes;\n  using RLPReader for RLPReader.RLPItem;\n\n  uint256 public lastStateId;\n\n  function commitState(uint256 syncTime, bytes calldata recordBytes) onlySystem external returns(bool success) {\n    // parse state data\n    RLPReader.RLPItem[] memory dataList = recordBytes.toRlpItem().toList();\n    uint256 stateId = dataList[0].toUint();\n    require(\n      lastStateId + 1 == stateId,\n      \"StateIds are not sequential\"\n    );\n    lastStateId++;\n\n    address receiver = dataList[1].toAddress();\n    bytes memory stateData = dataList[2].toBytes();\n    // notify state receiver contract, in a non-revert manner\n    if (isContract(receiver)) {\n      uint256 txGas = 5000000;\n      bytes memory data = abi.encodeWithSignature(\"onStateReceive(uint256,bytes)\", stateId, stateData);\n      // solium-disable-next-line security/no-inline-assembly\n      assembly {\n        success := call(txGas, receiver, 0, add(data, 0x20), mload(data), 0, 0)\n      }\n    }\n  }\n\n  // check if address is contract\n  function isContract(address _addr) private view returns (bool){\n    uint32 size;\n    assembly {\n      size := extcodesize(_addr)\n    }\n    return (size > 0);\n  }\n}\n",
  "sourcePath": "/root/testnet/code/w3fs-genesis-contracts-bridge/contracts/StateReceiver.sol",
  "compiler": {
    "name": "solc",
    "version": "0.6.6+commit.6c089d02.Emscripten.clang"
  },
  "schemaVersion": "3.4.10",
  "updatedAt": "2022-11-17T02:32:21.843Z",
  "devdoc": {
    "methods": {}
  },
  "userdoc": {
    "methods": {}
  }
}