{
  "contractName": "SystemReward",
  "abi": [
    {
      "inputs": [],
      "stateMutability": "payable",
      "type": "constructor",
      "payable": true
    },
    {
      "anonymous": false,
      "inputs": [
        {
          "indexed": true,
          "internalType": "address",
          "name": "previousOwner",
          "type": "address"
        },
        {
          "indexed": true,
          "internalType": "address",
          "name": "newOwner",
          "type": "address"
        }
      ],
      "name": "OwnershipTransferred",
      "type": "event"
    },
    {
      "anonymous": false,
      "inputs": [
        {
          "indexed": true,
          "internalType": "address",
          "name": "addr",
          "type": "address"
        },
        {
          "indexed": true,
          "internalType": "uint256",
          "name": "reward",
          "type": "uint256"
        }
      ],
      "name": "increaseReward",
      "type": "event"
    },
    {
      "anonymous": false,
      "inputs": [
        {
          "indexed": false,
          "internalType": "address",
          "name": "addr",
          "type": "address"
        }
      ],
      "name": "receiveNotMiner",
      "type": "event"
    },
    {
      "inputs": [],
      "name": "SYSTEM_ADDRESS",
      "outputs": [
        {
          "internalType": "address",
          "name": "",
          "type": "address"
        }
      ],
      "stateMutability": "view",
      "type": "function",
      "constant": true
    },
    {
      "inputs": [],
      "name": "alreadyInit",
      "outputs": [
        {
          "internalType": "bool",
          "name": "",
          "type": "bool"
        }
      ],
      "stateMutability": "view",
      "type": "function",
      "constant": true
    },
    {
      "inputs": [],
      "name": "governance",
      "outputs": [
        {
          "internalType": "contract IGovernance",
          "name": "",
          "type": "address"
        }
      ],
      "stateMutability": "view",
      "type": "function",
      "constant": true
    },
    {
      "inputs": [],
      "name": "lock",
      "outputs": [],
      "stateMutability": "nonpayable",
      "type": "function"
    },
    {
      "inputs": [],
      "name": "locked",
      "outputs": [
        {
          "internalType": "bool",
          "name": "",
          "type": "bool"
        }
      ],
      "stateMutability": "view",
      "type": "function",
      "constant": true
    },
    {
      "inputs": [],
      "name": "owner",
      "outputs": [
        {
          "internalType": "address",
          "name": "",
          "type": "address"
        }
      ],
      "stateMutability": "view",
      "type": "function",
      "constant": true
    },
    {
      "inputs": [],
      "name": "registry",
      "outputs": [
        {
          "internalType": "contract Registry",
          "name": "",
          "type": "address"
        }
      ],
      "stateMutability": "view",
      "type": "function",
      "constant": true
    },
    {
      "inputs": [],
      "name": "renounceOwnership",
      "outputs": [],
      "stateMutability": "nonpayable",
      "type": "function"
    },
    {
      "inputs": [
        {
          "internalType": "address",
          "name": "newOwner",
          "type": "address"
        }
      ],
      "name": "transferOwnership",
      "outputs": [],
      "stateMutability": "nonpayable",
      "type": "function"
    },
    {
      "inputs": [],
      "name": "unlock",
      "outputs": [],
      "stateMutability": "nonpayable",
      "type": "function"
    },
    {
      "inputs": [],
      "name": "w3fsStakeManager",
      "outputs": [
        {
          "internalType": "contract IW3fsStakeManager",
          "name": "",
          "type": "address"
        }
      ],
      "stateMutability": "view",
      "type": "function",
      "constant": true
    },
    {
      "stateMutability": "payable",
      "type": "receive",
      "payable": true
    },
    {
      "inputs": [
        {
          "internalType": "address",
          "name": "_governance",
          "type": "address"
        },
        {
          "internalType": "address",
          "name": "_registry",
          "type": "address"
        }
      ],
      "name": "initialize",
      "outputs": [],
      "stateMutability": "nonpayable",
      "type": "function"
    },
    {
      "inputs": [
        {
          "internalType": "uint256",
          "name": "_amount",
          "type": "uint256"
        }
      ],
      "name": "claimRewardsMiner",
      "outputs": [],
      "stateMutability": "nonpayable",
      "type": "function"
    },
    {
      "inputs": [
        {
          "internalType": "uint256",
          "name": "minerId",
          "type": "uint256"
        }
      ],
      "name": "withdrawDelegateRewards",
      "outputs": [],
      "stateMutability": "nonpayable",
      "type": "function"
    }
  ],
  "bytecode": "0x60806040526000805461010060a860020a0319168155610026640100000000610079810204565b60018054600160a060020a031916600160a060020a038316908117909155604051919250906000907f8be0079c531659141344cd1fd0a4f28419497f9722a3daafe3b4186f6b6457e0908290a35061007d565b3390565b610f018061008c6000396000f3fe6080604052600436106100fe576000357c0100000000000000000000000000000000000000000000000000000000900480638da5cb5b1161009c578063a8d475f911610076578063a8d475f914610249578063cf30901214610273578063f2fde38b14610288578063f83d08ba146102bb57610105565b80638da5cb5b146101f6578063a69df4b51461020b578063a78abc161461022057610105565b80635aa6e675116100d85780635aa6e6751461018d5780635d0d4959146101a2578063715018a6146101cc5780637b103999146101e157610105565b80632b9290c11461010a5780633434735f1461013b578063485cc9551461015057610105565b3661010557005b600080fd5b34801561011657600080fd5b5061011f6102d0565b60408051600160a060020a039092168252519081900360200190f35b34801561014757600080fd5b5061011f6102df565b34801561015c57600080fd5b5061018b6004803603604081101561017357600080fd5b50600160a060020a03813581169160200135166102f7565b005b34801561019957600080fd5b5061011f6104b0565b3480156101ae57600080fd5b5061018b600480360360208110156101c557600080fd5b50356104c4565b3480156101d857600080fd5b5061018b61086a565b3480156101ed57600080fd5b5061011f61092e565b34801561020257600080fd5b5061011f61093d565b34801561021757600080fd5b5061018b61094c565b34801561022c57600080fd5b506102356109a7565b604080519115158252519081900360200190f35b34801561025557600080fd5b5061018b6004803603602081101561026c57600080fd5b50356109c8565b34801561027f57600080fd5b50610235610c81565b34801561029457600080fd5b5061018b600480360360208110156102ab57600080fd5b5035600160a060020a0316610c8a565b3480156102c757600080fd5b5061018b610da8565b600354600160a060020a031681565b73fffffffffffffffffffffffffffffffffffffffe81565b60015474010000000000000000000000000000000000000000900460ff161561036a576040805160e560020a62461bcd02815260206004820152601960248201527f74686520636f6e747261637420616c726561647920696e697400000000000000604482015290519081900360640190fd5b6001805474ff000000000000000000000000000000000000000019167401000000000000000000000000000000000000000017905560008054600160a060020a038085166101000274ffffffffffffffffffffffffffffffffffffffff0019909216919091179091556002805483831673ffffffffffffffffffffffffffffffffffffffff199091161790819055604080517f6ddb63ab00000000000000000000000000000000000000000000000000000000815290519190921691636ddb63ab916004808301926020929190829003018186803b15801561044b57600080fd5b505afa15801561045f573d6000803e3d6000fd5b505050506040513d602081101561047557600080fd5b50516003805473ffffffffffffffffffffffffffffffffffffffff1916600160a060020a039092169190911790556104ac33610e01565b5050565b6000546101009004600160a060020a031681565b6001547501000000000000000000000000000000000000000000900460ff1615610538576040805160e560020a62461bcd02815260206004820152600e60248201527f4e6f2072652d656e7472616e6379000000000000000000000000000000000000604482015290519081900360640190fd5b6001805475ff0000000000000000000000000000000000000000001916750100000000000000000000000000000000000000000017905560005460ff16156105ca576040805160e560020a62461bcd02815260206004820152600660248201527f6c6f636b65640000000000000000000000000000000000000000000000000000604482015290519081900360640190fd5b600354604080517f14e4e15e000000000000000000000000000000000000000000000000000000008152600481018490529051600092600160a060020a0316916314e4e15e9160248083019260c0929190829003018186803b15801561062f57600080fd5b505afa158015610643573d6000803e3d6000fd5b505050506040513d60c081101561065957600080fd5b50606001519050600160a060020a0381166106be576040805160e560020a62461bcd02815260206004820152601160248201527f636f6e747261637420697320656d707479000000000000000000000000000000604482015290519081900360640190fd5b604080517f42d866930000000000000000000000000000000000000000000000000000000081523360048201529051600091600160a060020a038416916342d866939160248082019260209290919082900301818787803b15801561072257600080fd5b505af1158015610736573d6000803e3d6000fd5b505050506040513d602081101561074c57600080fd5b50519050806107a5576040805160e560020a62461bcd02815260206004820152600f60248201527f72657761726420697320656d7074790000000000000000000000000000000000604482015290519081900360640190fd5b604051600090339083908381818185875af1925050503d80600081146107e7576040519150601f19603f3d011682016040523d82523d6000602084013e6107ec565b606091505b5050905080610845576040805160e560020a62461bcd02815260206004820152601460248201527f4661696c656420746f20636c61696d206e656c61000000000000000000000000604482015290519081900360640190fd5b50506001805475ff000000000000000000000000000000000000000000191690555050565b610872610e60565b600154600160a060020a039081169116146108d7576040805160e560020a62461bcd02815260206004820181905260248201527f4f776e61626c653a2063616c6c6572206973206e6f7420746865206f776e6572604482015290519081900360640190fd5b600154604051600091600160a060020a0316907f8be0079c531659141344cd1fd0a4f28419497f9722a3daafe3b4186f6b6457e0908390a36001805473ffffffffffffffffffffffffffffffffffffffff19169055565b600254600160a060020a031681565b600154600160a060020a031690565b6000546101009004600160a060020a0316331461099d5760405160e560020a62461bcd028152600401808060200182810382526026815260200180610ea66026913960400191505060405180910390fd5b6109a5610e64565b565b60015474010000000000000000000000000000000000000000900460ff1681565b6001547501000000000000000000000000000000000000000000900460ff1615610a3c576040805160e560020a62461bcd02815260206004820152600e60248201527f4e6f2072652d656e7472616e6379000000000000000000000000000000000000604482015290519081900360640190fd5b6001805475ff0000000000000000000000000000000000000000001916750100000000000000000000000000000000000000000017905560005460ff1615610ace576040805160e560020a62461bcd02815260206004820152600660248201527f6c6f636b65640000000000000000000000000000000000000000000000000000604482015290519081900360640190fd5b600354604080517f2e655514000000000000000000000000000000000000000000000000000000008152336004820152602481018490529051600092600160a060020a031691632e65551491604480830192602092919082900301818787803b158015610b3a57600080fd5b505af1158015610b4e573d6000803e3d6000fd5b505050506040513d6020811015610b6457600080fd5b5051905080610bbd576040805160e560020a62461bcd02815260206004820152600d60248201527f726577617264206572726f722100000000000000000000000000000000000000604482015290519081900360640190fd5b604051600090339083908381818185875af1925050503d8060008114610bff576040519150601f19603f3d011682016040523d82523d6000602084013e610c04565b606091505b5050905080610c5d576040805160e560020a62461bcd02815260206004820152601460248201527f4661696c656420746f20636c61696d206e656c61000000000000000000000000604482015290519081900360640190fd5b50506001805475ff0000000000000000000000000000000000000000001916905550565b60005460ff1681565b610c92610e60565b600154600160a060020a03908116911614610cf7576040805160e560020a62461bcd02815260206004820181905260248201527f4f776e61626c653a2063616c6c6572206973206e6f7420746865206f776e6572604482015290519081900360640190fd5b600160a060020a038116610d3f5760405160e560020a62461bcd028152600401808060200182810382526026815260200180610e806026913960400191505060405180910390fd5b600154604051600160a060020a038084169216907f8be0079c531659141344cd1fd0a4f28419497f9722a3daafe3b4186f6b6457e090600090a36001805473ffffffffffffffffffffffffffffffffffffffff1916600160a060020a0392909216919091179055565b6000546101009004600160a060020a03163314610df95760405160e560020a62461bcd028152600401808060200182810382526026815260200180610ea66026913960400191505060405180910390fd5b6109a5610e70565b60018054600160a060020a0383811673ffffffffffffffffffffffffffffffffffffffff19831681179093556040519116919082907f8be0079c531659141344cd1fd0a4f28419497f9722a3daafe3b4186f6b6457e090600090a35050565b3390565b6000805460ff19169055565b6000805460ff1916600117905556fe4f776e61626c653a206e6577206f776e657220697320746865207a65726f20616464726573734f6e6c7920676f7665726e616e636520636f6e747261637420697320617574686f72697a6564a2646970667358221220aecd640c78a5d4917a15dd5a157fdadd666fd0523696614a9d344e1b8c5795cd64736f6c63430006060033",
  "immutableReferences": {},
  "source": "pragma solidity ^0.6.6;\n\nimport {GovernanceLockable} from \"../../common/gov/GovernanceLockable.sol\";\nimport {Registry} from \"../../common/misc/Registry.sol\";\nimport {IW3fsStakeManager} from \"../stakeManager/IW3fsStakeManager.sol\";\nimport {IGovernance} from \"../../common/gov/IGovernance.sol\";\nimport {System} from \"../../System.sol\";\nimport {SafeMath} from \"@openzeppelin/contracts/math/SafeMath.sol\";\nimport {OwnableExpand} from \"../../common/utils/OwnableExpand.sol\";\nimport {IDelegateShare} from \"../delegateShare/IDelegateShare.sol\";\n\n// solc --bin-runtime @openzeppelin/=node_modules/@openzeppelin/ /=/ contracts/staking/reward/SystemReward.sol\n// abigen --abi=SystemReward.abi --pkg=systemReward -out=SystemReward.go\n// miner reward records\ncontract SystemReward is GovernanceLockable, System, OwnableExpand {\n\n    using SafeMath for uint256;\n\n    event receiveNotMiner(address addr);\n    event increaseReward(address indexed addr, uint256 indexed reward);\n\n    bool public alreadyInit;\n    bool internal reentrantlocked;\n\n    Registry public registry;\n    IW3fsStakeManager public w3fsStakeManager;\n\n    mapping(address => uint256) internal minerRewards;\n\n\n    modifier onlyNotInit() {\n        require(!alreadyInit, \"the contract already init\");\n        _;\n    }\n\n    modifier noReentrancy(){\n        require(!reentrantlocked, \"No re-entrancy\");\n        reentrantlocked = true;\n        _;\n        reentrantlocked = false;\n    }\n\n    modifier onlyCoinbase(address receiver) {\n        require(receiver == block.coinbase, \"the message sender must be the block producer\");\n        _;\n    }\n\n    constructor() public payable GovernanceLockable(address(0x0)) {\n    }\n\n    receive() external payable {\n    }\n\n\n\n    function initialize(address _governance, address _registry) public onlyNotInit {\n        alreadyInit = true;\n        governance = IGovernance(_governance);\n        registry = Registry(_registry);\n        w3fsStakeManager = IW3fsStakeManager(registry.getW3fsStakeManagerAddress());\n        _transferOwnership(msg.sender);\n    }\n\n\n    // 用于矿工提取奖励\n    function claimRewardsMiner(uint256 _amount) public noReentrancy onlyWhenUnlocked {\n        uint256 reward = w3fsStakeManager.updateRewardsMiner(msg.sender, _amount);\n        require(reward > 0, \"reward error!\");\n        (bool success,) = payable(address(uint160(msg.sender))).call{value : reward}(\"\");\n        require(success, \"Failed to claim nela\");\n    }\n\n\n    // 委托者提取奖励\n    function withdrawDelegateRewards(uint256 minerId) public noReentrancy onlyWhenUnlocked {\n        ( , , ,address _contract, , ) = w3fsStakeManager.getMinerBaseInfo(minerId);\n        require(_contract != address(0x0), \"contract is empty\");\n        uint256 reward = IDelegateShare(_contract).withdrawRewards(msg.sender);\n        require(reward > 0 , \"reward is empty\");\n        (bool success,) = payable(address(uint160(msg.sender))).call{value : reward}(\"\");\n        require(success, \"Failed to claim nela\");\n    }\n\n\n}\n",
  "sourcePath": "/root/testnet/code/w3fs-genesis-contracts-bridge/contracts/staking/reward/SystemReward.sol",
  "compiler": {
    "name": "solc",
    "version": "0.6.6+commit.6c089d02.Emscripten.clang"
  },
  "schemaVersion": "3.4.10",
  "updatedAt": "2022-11-17T03:12:05.754Z",
  "networkType": "ethereum",
  "devdoc": {
    "methods": {
      "owner()": {
        "details": "Returns the address of the current owner."
      },
      "renounceOwnership()": {
        "details": "Leaves the contract without owner. It will not be possible to call `onlyOwner` functions anymore. Can only be called by the current owner.     * NOTE: Renouncing ownership will leave the contract without an owner, thereby removing any functionality that is only available to the owner."
      },
      "transferOwnership(address)": {
        "details": "Transfers ownership of the contract to a new account (`newOwner`). Can only be called by the current owner."
      }
    }
  },
  "userdoc": {
    "methods": {}
  }
}