{
  "contractName": "System",
  "abi": [
    {
      "inputs": [],
      "name": "SYSTEM_ADDRESS",
      "outputs": [
        {
          "internalType": "address",
          "name": "",
          "type": "address"
        }
      ],
      "stateMutability": "view",
      "type": "function"
    }
  ],
  "bytecode": "0x608060405234801561001057600080fd5b5060c68061001f6000396000f3fe6080604052348015600f57600080fd5b50600436106044577c010000000000000000000000000000000000000000000000000000000060003504633434735f81146049575b600080fd5b604f6078565b6040805173ffffffffffffffffffffffffffffffffffffffff9092168252519081900360200190f35b73fffffffffffffffffffffffffffffffffffffffe8156fea26469706673582212208cbae540c49243b7e91b1cba43a8483149cb55b5bfa35ad4f46768f069cb7ceb64736f6c63430006060033",
  "immutableReferences": {},
  "source": "pragma solidity ^0.6.6;\n\ncontract System {\n    address public constant SYSTEM_ADDRESS = 0xffffFFFfFFffffffffffffffFfFFFfffFFFfFFfE;\n\n    modifier onlySystem() {\n        require(msg.sender == SYSTEM_ADDRESS, \"Not System Addess!\");\n        _;\n    }\n}",
  "sourcePath": "/root/testnet/code/w3fs-genesis-contracts-bridge/contracts/System.sol",
  "compiler": {
    "name": "solc",
    "version": "0.6.6+commit.6c089d02.Emscripten.clang"
  },
  "schemaVersion": "3.4.10",
  "updatedAt": "2022-11-17T02:32:21.849Z",
  "devdoc": {
    "methods": {}
  },
  "userdoc": {
    "methods": {}
  }
}