{
  "contractName": "ValidatorVerifier",
  "abi": [
    {
      "inputs": [],
      "stateMutability": "nonpayable",
      "type": "constructor"
    },
    {
      "inputs": [],
      "name": "validatorSet",
      "outputs": [
        {
          "internalType": "address",
          "name": "",
          "type": "address"
        }
      ],
      "stateMutability": "view",
      "type": "function"
    },
    {
      "inputs": [],
      "name": "isValidatorSetContract",
      "outputs": [
        {
          "internalType": "bool",
          "name": "",
          "type": "bool"
        }
      ],
      "stateMutability": "view",
      "type": "function"
    },
    {
      "inputs": [
        {
          "internalType": "address",
          "name": "signer",
          "type": "address"
        }
      ],
      "name": "isValidator",
      "outputs": [
        {
          "internalType": "bool",
          "name": "",
          "type": "bool"
        }
      ],
      "stateMutability": "view",
      "type": "function"
    },
    {
      "inputs": [
        {
          "internalType": "address",
          "name": "signer",
          "type": "address"
        }
      ],
      "name": "isProducer",
      "outputs": [
        {
          "internalType": "bool",
          "name": "",
          "type": "bool"
        }
      ],
      "stateMutability": "view",
      "type": "function"
    }
  ],
  "bytecode": "0x608060405234801561001057600080fd5b5061027a806100206000396000f3fe608060405234801561001057600080fd5b5060043610610068577c010000000000000000000000000000000000000000000000000000000060003504639426e226811461006d578063d79e60b71461009e578063f5521022146100ba578063facd743b146100ed575b600080fd5b610075610120565b6040805173ffffffffffffffffffffffffffffffffffffffff9092168252519081900360200190f35b6100a6610126565b604080519115158252519081900360200190f35b6100a6600480360360208110156100d057600080fd5b503573ffffffffffffffffffffffffffffffffffffffff1661012e565b6100a66004803603602081101561010357600080fd5b503573ffffffffffffffffffffffffffffffffffffffff166101d2565b61100081565b336110001490565b604080517f70ba570700000000000000000000000000000000000000000000000000000000815273ffffffffffffffffffffffffffffffffffffffff831660048201529051600091611000916370ba570791602480820192602092909190829003018186803b1580156101a057600080fd5b505afa1580156101b4573d6000803e3d6000fd5b505050506040513d60208110156101ca57600080fd5b505192915050565b604080517f55614fcc00000000000000000000000000000000000000000000000000000000815273ffffffffffffffffffffffffffffffffffffffff831660048201529051600091611000916355614fcc91602480820192602092909190829003018186803b1580156101a057600080fdfea26469706673582212205a00de414d8a4b6f577a04458f8a8537cf6445c44df08f51b7c7ea9cdfe5db4864736f6c63430006060033",
  "immutableReferences": {},
  "source": "pragma solidity ^0.6.6;\n\nimport { ValidatorSet } from \"./ValidatorSet.sol\";\n\n\ncontract ValidatorVerifier {\n  address constant public validatorSet = 0x0000000000000000000000000000000000001000;\n\n  /**\n   * @dev Throws if called by any account other than the validator set.\n   */\n  modifier onlyValidatorSetContract() {\n    require(isValidatorSetContract(), \"Verifiable: caller is not the verifiable contract\");\n    _;\n  }\n\n  constructor () public {\n    // Doesn't work since contract is in genesis\n  }\n\n  /**\n   * @dev Returns true if the caller is the current validator set contract.\n   */\n  function isValidatorSetContract() public view returns (bool) {\n    return msg.sender == validatorSet;\n  }\n\n  // check if signer is validator\n  function isValidator(address signer) public view returns (bool) {\n    return ValidatorSet(validatorSet).isCurrentValidator(signer);\n  }\n\n  // check if signer is producer\n  function isProducer(address signer) public view returns (bool) {\n    return ValidatorSet(validatorSet).isCurrentProducer(signer);\n  }\n}\n",
  "sourcePath": "/root/testnet/code/w3fs-genesis-contracts-bridge/contracts/ValidatorVerifier.sol",
  "compiler": {
    "name": "solc",
    "version": "0.6.6+commit.6c089d02.Emscripten.clang"
  },
  "schemaVersion": "3.4.10",
  "updatedAt": "2022-11-17T02:32:21.857Z",
  "devdoc": {
    "methods": {
      "isValidatorSetContract()": {
        "details": "Returns true if the caller is the current validator set contract."
      }
    }
  },
  "userdoc": {
    "methods": {}
  }
}