{
  "contractName": "W3fsStakeManagerProxy",
  "abi": [
    {
      "inputs": [],
      "stateMutability": "nonpayable",
      "type": "constructor"
    },
    {
      "anonymous": false,
      "inputs": [
        {
          "indexed": true,
          "internalType": "address",
          "name": "previousOwner",
          "type": "address"
        },
        {
          "indexed": true,
          "internalType": "address",
          "name": "newOwner",
          "type": "address"
        }
      ],
      "name": "OwnershipTransferred",
      "type": "event"
    },
    {
      "anonymous": false,
      "inputs": [
        {
          "indexed": true,
          "internalType": "address",
          "name": "implementation",
          "type": "address"
        }
      ],
      "name": "Upgraded",
      "type": "event"
    },
    {
      "anonymous": false,
      "inputs": [
        {
          "indexed": true,
          "internalType": "bool",
          "name": "initialized",
          "type": "bool"
        }
      ],
      "name": "UpgradedIsInitialized",
      "type": "event"
    },
    {
      "stateMutability": "payable",
      "type": "fallback"
    },
    {
      "inputs": [],
      "name": "getInitialized",
      "outputs": [
        {
          "internalType": "bool",
          "name": "isinitialized_",
          "type": "bool"
        }
      ],
      "stateMutability": "view",
      "type": "function"
    },
    {
      "inputs": [],
      "name": "getOwner",
      "outputs": [
        {
          "internalType": "address",
          "name": "owner_",
          "type": "address"
        }
      ],
      "stateMutability": "view",
      "type": "function"
    },
    {
      "inputs": [],
      "name": "implementation",
      "outputs": [
        {
          "internalType": "address",
          "name": "implementation_",
          "type": "address"
        }
      ],
      "stateMutability": "nonpayable",
      "type": "function"
    },
    {
      "inputs": [
        {
          "internalType": "address",
          "name": "addr",
          "type": "address"
        }
      ],
      "name": "initialize",
      "outputs": [],
      "stateMutability": "nonpayable",
      "type": "function"
    },
    {
      "inputs": [
        {
          "internalType": "address",
          "name": "newOwner",
          "type": "address"
        }
      ],
      "name": "transferOwnership",
      "outputs": [],
      "stateMutability": "nonpayable",
      "type": "function"
    },
    {
      "inputs": [
        {
          "internalType": "address",
          "name": "newImplementation",
          "type": "address"
        },
        {
          "internalType": "bytes",
          "name": "data",
          "type": "bytes"
        }
      ],
      "name": "updateAndCall",
      "outputs": [],
      "stateMutability": "payable",
      "type": "function"
    },
    {
      "stateMutability": "payable",
      "type": "receive"
    }
  ],
  "bytecode": "0x608060405234801561001057600080fd5b506109e7806100206000396000f3fe608060405260043610610075577c010000000000000000000000000000000000000000000000000000000060003504635c60da1b811461008c578063893d20e8146100bd578063c4d66de8146100d2578063d88ca2c814610105578063ee89dab4146101bb578063f2fde38b146101e457610084565b3661008457610082610217565b005b610082610217565b34801561009857600080fd5b506100a1610231565b60408051600160a060020a039092168252519081900360200190f35b3480156100c957600080fd5b506100a16102a5565b3480156100de57600080fd5b50610082600480360360208110156100f557600080fd5b5035600160a060020a0316610314565b6100826004803603604081101561011b57600080fd5b600160a060020a03823516919081019060408101602082013564010000000081111561014657600080fd5b82018360208201111561015857600080fd5b8035906020019184600183028401116401000000008311171561017a57600080fd5b91908080601f016020809104026020016040519081016040528093929190818152602001838380828437600092019190915250929550610377945050505050565b3480156101c757600080fd5b506101d061045b565b604080519115158252519081900360200190f35b3480156101f057600080fd5b506100826004803603602081101561020757600080fd5b5035600160a060020a03166104ca565b61021f61022f565b61022f61022a610582565b6105a7565b565b600061023b6105cb565b600160a060020a031661024c6105cf565b600160a060020a031614610298576040805160e560020a62461bcd028152602060048201819052602482015260008051602061090f833981519152604482015290519081900360640190fd5b6102a0610582565b905090565b60006102af6105cb565b600160a060020a03166102c06105cf565b600160a060020a03161461030c576040805160e560020a62461bcd028152602060048201819052602482015260008051602061090f833981519152604482015290519081900360640190fd5b6102a06105cf565b600061031e6105f4565b905080156103605760405160e560020a62461bcd0281526004018080602001828103825260238152602001806108ec6023913960400191505060405180910390fd5b61036a6001610619565b6103738261063d565b5050565b61037f6105cb565b600160a060020a03166103906105cf565b600160a060020a0316146103dc576040805160e560020a62461bcd028152602060048201819052602482015260008051602061090f833981519152604482015290519081900360640190fd5b604080517f656970313936372e70726f78792e696d706c656d656e746174696f6e000000008152905190819003601c0190207f360894a13ba1a3210667c828492db98dca3e2076cc3735a920a3ca505d382bbc6000199091011461043c57fe5b61044582610661565b8051156103735761045682826106a1565b505050565b60006104656105cb565b600160a060020a03166104766105cf565b600160a060020a0316146104c2576040805160e560020a62461bcd028152602060048201819052602482015260008051602061090f833981519152604482015290519081900360640190fd5b6102a06105f4565b6104d26105cb565b600160a060020a03166104e36105cf565b600160a060020a03161461052f576040805160e560020a62461bcd028152602060048201819052602482015260008051602061090f833981519152604482015290519081900360640190fd5b6105388161063d565b80600160a060020a031661054a6105cf565b600160a060020a03167f8be0079c531659141344cd1fd0a4f28419497f9722a3daafe3b4186f6b6457e060405160405180910390a350565b7f360894a13ba1a3210667c828492db98dca3e2076cc3735a920a3ca505d382bbc5490565b3660008037600080366000845af43d6000803e8080156105c6573d6000f35b3d6000fd5b3390565b7fb2011649e23991fd5b1fbd5b12a4d17f46b2c6148cce69f6f1b3a24fef79a94b5490565b7f2da5462cfc5aefc74791833662ba61cd4cfeda3e1851cce5159de5f968d9d64d5490565b7f2da5462cfc5aefc74791833662ba61cd4cfeda3e1851cce5159de5f968d9d64d55565b7fb2011649e23991fd5b1fbd5b12a4d17f46b2c6148cce69f6f1b3a24fef79a94b55565b61066a816106cd565b604051600160a060020a038216907fbc7cd75a20ee27fd9adebab32041f755214dbc6bffa90cc0225b39da2e5c2d3b90600090a250565b60606106c6838360405180606001604052806027815260200161092f60279139610738565b9392505050565b6106d68161083e565b6107145760405160e560020a62461bcd0281526004018080602001828103825260368152602001806109566036913960400191505060405180910390fd5b7f360894a13ba1a3210667c828492db98dca3e2076cc3735a920a3ca505d382bbc55565b60606107438461083e565b6107815760405160e560020a62461bcd02815260040180806020018281038252602681526020018061098c6026913960400191505060405180910390fd5b6000606085600160a060020a0316856040518082805190602001908083835b602083106107bf5780518252601f1990920191602091820191016107a0565b6001836020036101000a038019825116818451168082178552505050505050905001915050600060405180830381855af49150503d806000811461081f576040519150601f19603f3d011682016040523d82523d6000602084013e610824565b606091505b5091509150610834828286610844565b9695505050505050565b3b151590565b606083156108535750816106c6565b8251156108635782518084602001fd5b8160405160e560020a62461bcd0281526004018080602001828103825283818151815260200191508051906020019080838360005b838110156108b0578181015183820152602001610898565b50505050905090810190601f1680156108dd5780820380516001836020036101000a031916815260200191505b509250505060405180910390fdfe54686520636f6e747261637420697320616c726561647920696e697469616c697a65644f776e61626c653a2063616c6c6572206973206e6f7420746865206f776e6572416464726573733a206c6f772d6c6576656c2064656c65676174652063616c6c206661696c65645570677261646561626c6550726f78793a206e657720696d706c656d656e746174696f6e206973206e6f74206120636f6e7472616374416464726573733a2064656c65676174652063616c6c20746f206e6f6e2d636f6e7472616374a2646970667358221220e5834edeaa2e4259a0568dc8b899d39ae9defb19b0c25c8d3b47aefe034ae73864736f6c63430006060033",
  "immutableReferences": {},
  "source": "pragma solidity ^0.6.6;\n\nimport {UpgradesAvailableProxy} from \"../../common/proxy/UpgradesAvailableProxy.sol\";\n\ncontract W3fsStakeManagerProxy is UpgradesAvailableProxy {\n    constructor() public UpgradesAvailableProxy(){}\n}\n",
  "sourcePath": "/root/testnet/code/w3fs-genesis-contracts-bridge/contracts/staking/stakeManager/WafsStakeManagerProxy.sol",
  "compiler": {
    "name": "solc",
    "version": "0.6.6+commit.6c089d02.Emscripten.clang"
  },
  "schemaVersion": "3.4.10",
  "updatedAt": "2022-11-17T03:09:58.403Z",
  "networkType": "ethereum",
  "devdoc": {
    "methods": {}
  },
  "userdoc": {
    "methods": {}
  }
}