{
  "contractName": "W3fsStakingInfo",
  "abi": [
    {
      "inputs": [],
      "stateMutability": "nonpayable",
      "type": "constructor"
    },
    {
      "anonymous": false,
      "inputs": [
        {
          "indexed": true,
          "internalType": "address",
          "name": "signer",
          "type": "address"
        },
        {
          "indexed": false,
          "internalType": "uint256",
          "name": "SealProofType",
          "type": "uint256"
        },
        {
          "indexed": false,
          "internalType": "uint256",
          "name": "SectorNumber",
          "type": "uint256"
        },
        {
          "indexed": false,
          "internalType": "uint256",
          "name": "TicketEpoch",
          "type": "uint256"
        },
        {
          "indexed": false,
          "internalType": "uint256",
          "name": "SeedEpoch",
          "type": "uint256"
        },
        {
          "indexed": false,
          "internalType": "bytes",
          "name": "SealedCID",
          "type": "bytes"
        },
        {
          "indexed": false,
          "internalType": "bytes",
          "name": "UnsealedCID",
          "type": "bytes"
        },
        {
          "indexed": false,
          "internalType": "bytes",
          "name": "Proof",
          "type": "bytes"
        }
      ],
      "name": "AddSector",
      "type": "event"
    },
    {
      "anonymous": false,
      "inputs": [
        {
          "indexed": true,
          "internalType": "uint256",
          "name": "minerId",
          "type": "uint256"
        },
        {
          "indexed": true,
          "internalType": "address",
          "name": "user",
          "type": "address"
        },
        {
          "indexed": true,
          "internalType": "uint256",
          "name": "rewards",
          "type": "uint256"
        }
      ],
      "name": "DelegatorClaimedRewards",
      "type": "event"
    },
    {
      "anonymous": false,
      "inputs": [
        {
          "indexed": true,
          "internalType": "uint256",
          "name": "minerId",
          "type": "uint256"
        },
        {
          "indexed": true,
          "internalType": "address",
          "name": "user",
          "type": "address"
        },
        {
          "indexed": true,
          "internalType": "uint256",
          "name": "totalStaked",
          "type": "uint256"
        }
      ],
      "name": "DelegatorRestaked",
      "type": "event"
    },
    {
      "anonymous": false,
      "inputs": [
        {
          "indexed": true,
          "internalType": "uint256",
          "name": "minerId",
          "type": "uint256"
        },
        {
          "indexed": true,
          "internalType": "address",
          "name": "user",
          "type": "address"
        },
        {
          "indexed": false,
          "internalType": "uint256",
          "name": "amount",
          "type": "uint256"
        },
        {
          "indexed": false,
          "internalType": "uint256",
          "name": "nonce",
          "type": "uint256"
        }
      ],
      "name": "DelegatorUnstakeWithId",
      "type": "event"
    },
    {
      "anonymous": false,
      "inputs": [
        {
          "indexed": true,
          "internalType": "uint256",
          "name": "minerId",
          "type": "uint256"
        },
        {
          "indexed": true,
          "internalType": "address",
          "name": "user",
          "type": "address"
        },
        {
          "indexed": false,
          "internalType": "uint256",
          "name": "amount",
          "type": "uint256"
        }
      ],
      "name": "DelegatorUnstaked",
      "type": "event"
    },
    {
      "anonymous": false,
      "inputs": [
        {
          "indexed": true,
          "internalType": "uint256",
          "name": "minerId",
          "type": "uint256"
        },
        {
          "indexed": true,
          "internalType": "uint256",
          "name": "exitEpoch",
          "type": "uint256"
        },
        {
          "indexed": true,
          "internalType": "address",
          "name": "signer",
          "type": "address"
        }
      ],
      "name": "Jailed",
      "type": "event"
    },
    {
      "anonymous": false,
      "inputs": [
        {
          "indexed": true,
          "internalType": "address",
          "name": "previousOwner",
          "type": "address"
        },
        {
          "indexed": true,
          "internalType": "address",
          "name": "newOwner",
          "type": "address"
        }
      ],
      "name": "OwnershipTransferred",
      "type": "event"
    },
    {
      "anonymous": false,
      "inputs": [
        {
          "indexed": true,
          "internalType": "uint256",
          "name": "blockNumber",
          "type": "uint256"
        },
        {
          "indexed": true,
          "internalType": "address",
          "name": "minerAddr",
          "type": "address"
        },
        {
          "indexed": false,
          "internalType": "uint256",
          "name": "reward",
          "type": "uint256"
        },
        {
          "indexed": false,
          "internalType": "uint256",
          "name": "delegatorsReward",
          "type": "uint256"
        }
      ],
      "name": "ReceiverReward",
      "type": "event"
    },
    {
      "anonymous": false,
      "inputs": [
        {
          "indexed": true,
          "internalType": "uint256",
          "name": "minerId",
          "type": "uint256"
        },
        {
          "indexed": false,
          "internalType": "uint256",
          "name": "amount",
          "type": "uint256"
        },
        {
          "indexed": false,
          "internalType": "uint256",
          "name": "total",
          "type": "uint256"
        }
      ],
      "name": "Restaked",
      "type": "event"
    },
    {
      "anonymous": false,
      "inputs": [
        {
          "indexed": true,
          "internalType": "uint256",
          "name": "minerId",
          "type": "uint256"
        },
        {
          "indexed": true,
          "internalType": "address",
          "name": "user",
          "type": "address"
        },
        {
          "indexed": true,
          "internalType": "uint256",
          "name": "amount",
          "type": "uint256"
        },
        {
          "indexed": false,
          "internalType": "uint256",
          "name": "tokens",
          "type": "uint256"
        }
      ],
      "name": "ShareBurned",
      "type": "event"
    },
    {
      "anonymous": false,
      "inputs": [
        {
          "indexed": true,
          "internalType": "uint256",
          "name": "validatorId",
          "type": "uint256"
        },
        {
          "indexed": true,
          "internalType": "address",
          "name": "user",
          "type": "address"
        },
        {
          "indexed": true,
          "internalType": "uint256",
          "name": "amount",
          "type": "uint256"
        },
        {
          "indexed": false,
          "internalType": "uint256",
          "name": "tokens",
          "type": "uint256"
        }
      ],
      "name": "ShareMinted",
      "type": "event"
    },
    {
      "anonymous": false,
      "inputs": [
        {
          "indexed": true,
          "internalType": "uint256",
          "name": "minerId",
          "type": "uint256"
        },
        {
          "indexed": true,
          "internalType": "uint256",
          "name": "nonce",
          "type": "uint256"
        },
        {
          "indexed": true,
          "internalType": "uint256",
          "name": "newAmount",
          "type": "uint256"
        }
      ],
      "name": "StakeUpdate",
      "type": "event"
    },
    {
      "anonymous": false,
      "inputs": [
        {
          "indexed": true,
          "internalType": "address",
          "name": "signer",
          "type": "address"
        },
        {
          "indexed": true,
          "internalType": "uint256",
          "name": "validatorId",
          "type": "uint256"
        },
        {
          "indexed": false,
          "internalType": "uint256",
          "name": "nonce",
          "type": "uint256"
        },
        {
          "indexed": true,
          "internalType": "uint256",
          "name": "activationEpoch",
          "type": "uint256"
        },
        {
          "indexed": false,
          "internalType": "uint256",
          "name": "amount",
          "type": "uint256"
        },
        {
          "indexed": false,
          "internalType": "uint256",
          "name": "total",
          "type": "uint256"
        },
        {
          "indexed": false,
          "internalType": "bytes",
          "name": "signerPubkey",
          "type": "bytes"
        }
      ],
      "name": "Staked",
      "type": "event"
    },
    {
      "anonymous": false,
      "inputs": [
        {
          "indexed": false,
          "internalType": "uint256",
          "name": "newThreshold",
          "type": "uint256"
        },
        {
          "indexed": false,
          "internalType": "uint256",
          "name": "oldThreshold",
          "type": "uint256"
        }
      ],
      "name": "ThresholdChange",
      "type": "event"
    },
    {
      "anonymous": false,
      "inputs": [
        {
          "indexed": true,
          "internalType": "address",
          "name": "user",
          "type": "address"
        },
        {
          "indexed": true,
          "internalType": "uint256",
          "name": "fee",
          "type": "uint256"
        }
      ],
      "name": "TopUpFee",
      "type": "event"
    },
    {
      "anonymous": false,
      "inputs": [
        {
          "indexed": true,
          "internalType": "uint256",
          "name": "minerId",
          "type": "uint256"
        },
        {
          "indexed": true,
          "internalType": "address",
          "name": "signer",
          "type": "address"
        }
      ],
      "name": "UnJailed",
      "type": "event"
    },
    {
      "inputs": [
        {
          "internalType": "uint256",
          "name": "",
          "type": "uint256"
        }
      ],
      "name": "minerNonce",
      "outputs": [
        {
          "internalType": "uint256",
          "name": "",
          "type": "uint256"
        }
      ],
      "stateMutability": "view",
      "type": "function",
      "constant": true
    },
    {
      "inputs": [],
      "name": "owner",
      "outputs": [
        {
          "internalType": "address",
          "name": "",
          "type": "address"
        }
      ],
      "stateMutability": "view",
      "type": "function",
      "constant": true
    },
    {
      "inputs": [],
      "name": "registry",
      "outputs": [
        {
          "internalType": "contract Registry",
          "name": "",
          "type": "address"
        }
      ],
      "stateMutability": "view",
      "type": "function",
      "constant": true
    },
    {
      "inputs": [],
      "name": "renounceOwnership",
      "outputs": [],
      "stateMutability": "nonpayable",
      "type": "function"
    },
    {
      "inputs": [
        {
          "internalType": "address",
          "name": "newOwner",
          "type": "address"
        }
      ],
      "name": "transferOwnership",
      "outputs": [],
      "stateMutability": "nonpayable",
      "type": "function"
    },
    {
      "inputs": [
        {
          "internalType": "address",
          "name": "_registry",
          "type": "address"
        }
      ],
      "name": "initialize",
      "outputs": [],
      "stateMutability": "nonpayable",
      "type": "function"
    },
    {
      "inputs": [
        {
          "internalType": "uint256",
          "name": "newThreshold",
          "type": "uint256"
        },
        {
          "internalType": "uint256",
          "name": "oldThreshold",
          "type": "uint256"
        }
      ],
      "name": "logThresholdChange",
      "outputs": [],
      "stateMutability": "nonpayable",
      "type": "function"
    },
    {
      "inputs": [
        {
          "internalType": "address",
          "name": "signer",
          "type": "address"
        },
        {
          "internalType": "bytes",
          "name": "signerPubkey",
          "type": "bytes"
        },
        {
          "internalType": "uint256",
          "name": "minerId",
          "type": "uint256"
        },
        {
          "internalType": "uint256",
          "name": "activationEpoch",
          "type": "uint256"
        },
        {
          "internalType": "uint256",
          "name": "amount",
          "type": "uint256"
        },
        {
          "internalType": "uint256",
          "name": "total",
          "type": "uint256"
        }
      ],
      "name": "logStaked",
      "outputs": [],
      "stateMutability": "nonpayable",
      "type": "function"
    },
    {
      "inputs": [
        {
          "internalType": "uint256",
          "name": "minerId",
          "type": "uint256"
        }
      ],
      "name": "logStakeUpdate",
      "outputs": [],
      "stateMutability": "nonpayable",
      "type": "function"
    },
    {
      "inputs": [
        {
          "internalType": "uint256",
          "name": "minerId",
          "type": "uint256"
        }
      ],
      "name": "totalValidatorStake",
      "outputs": [
        {
          "internalType": "uint256",
          "name": "validatorStake",
          "type": "uint256"
        }
      ],
      "stateMutability": "view",
      "type": "function",
      "constant": true
    },
    {
      "inputs": [
        {
          "internalType": "uint256",
          "name": "validatorId",
          "type": "uint256"
        },
        {
          "internalType": "uint256",
          "name": "amount",
          "type": "uint256"
        },
        {
          "internalType": "uint256",
          "name": "total",
          "type": "uint256"
        }
      ],
      "name": "logRestaked",
      "outputs": [],
      "stateMutability": "nonpayable",
      "type": "function"
    },
    {
      "inputs": [
        {
          "internalType": "uint256",
          "name": "minerId",
          "type": "uint256"
        },
        {
          "internalType": "uint256",
          "name": "exitEpoch",
          "type": "uint256"
        },
        {
          "internalType": "address",
          "name": "signer",
          "type": "address"
        }
      ],
      "name": "logJailed",
      "outputs": [],
      "stateMutability": "nonpayable",
      "type": "function"
    },
    {
      "inputs": [
        {
          "internalType": "uint256",
          "name": "minerId",
          "type": "uint256"
        },
        {
          "internalType": "address",
          "name": "signer",
          "type": "address"
        }
      ],
      "name": "logUnjailed",
      "outputs": [],
      "stateMutability": "nonpayable",
      "type": "function"
    },
    {
      "inputs": [
        {
          "internalType": "uint256",
          "name": "validatorId",
          "type": "uint256"
        },
        {
          "internalType": "address",
          "name": "user",
          "type": "address"
        },
        {
          "internalType": "uint256",
          "name": "amount",
          "type": "uint256"
        },
        {
          "internalType": "uint256",
          "name": "tokens",
          "type": "uint256"
        }
      ],
      "name": "logShareMinted",
      "outputs": [],
      "stateMutability": "nonpayable",
      "type": "function"
    },
    {
      "inputs": [
        {
          "internalType": "uint256",
          "name": "minerId",
          "type": "uint256"
        },
        {
          "internalType": "address",
          "name": "user",
          "type": "address"
        },
        {
          "internalType": "uint256",
          "name": "rewards",
          "type": "uint256"
        }
      ],
      "name": "logDelegatorClaimRewards",
      "outputs": [],
      "stateMutability": "nonpayable",
      "type": "function"
    },
    {
      "inputs": [
        {
          "internalType": "uint256",
          "name": "minerId",
          "type": "uint256"
        },
        {
          "internalType": "address",
          "name": "user",
          "type": "address"
        },
        {
          "internalType": "uint256",
          "name": "totalStaked",
          "type": "uint256"
        }
      ],
      "name": "logDelegatorRestaked",
      "outputs": [],
      "stateMutability": "nonpayable",
      "type": "function"
    },
    {
      "inputs": [
        {
          "internalType": "uint256",
          "name": "minerId",
          "type": "uint256"
        },
        {
          "internalType": "address",
          "name": "user",
          "type": "address"
        },
        {
          "internalType": "uint256",
          "name": "amount",
          "type": "uint256"
        },
        {
          "internalType": "uint256",
          "name": "nonce",
          "type": "uint256"
        }
      ],
      "name": "logDelegatorUnstakedWithId",
      "outputs": [],
      "stateMutability": "nonpayable",
      "type": "function"
    },
    {
      "inputs": [
        {
          "internalType": "uint256",
          "name": "minerId",
          "type": "uint256"
        },
        {
          "internalType": "address",
          "name": "user",
          "type": "address"
        },
        {
          "internalType": "uint256",
          "name": "amount",
          "type": "uint256"
        },
        {
          "internalType": "uint256",
          "name": "tokens",
          "type": "uint256"
        }
      ],
      "name": "logShareBurned",
      "outputs": [],
      "stateMutability": "nonpayable",
      "type": "function"
    },
    {
      "inputs": [
        {
          "internalType": "uint256",
          "name": "minerId",
          "type": "uint256"
        },
        {
          "internalType": "address",
          "name": "user",
          "type": "address"
        },
        {
          "internalType": "uint256",
          "name": "amount",
          "type": "uint256"
        }
      ],
      "name": "logDelegatorUnstaked",
      "outputs": [],
      "stateMutability": "nonpayable",
      "type": "function"
    },
    {
      "inputs": [
        {
          "internalType": "address",
          "name": "user",
          "type": "address"
        },
        {
          "internalType": "uint256",
          "name": "fee",
          "type": "uint256"
        }
      ],
      "name": "logTopUpFee",
      "outputs": [],
      "stateMutability": "nonpayable",
      "type": "function"
    },
    {
      "inputs": [
        {
          "internalType": "address",
          "name": "signer",
          "type": "address"
        },
        {
          "internalType": "uint256",
          "name": "SealProofType",
          "type": "uint256"
        },
        {
          "internalType": "uint256",
          "name": "SectorNumber",
          "type": "uint256"
        },
        {
          "internalType": "uint256",
          "name": "TicketEpoch",
          "type": "uint256"
        },
        {
          "internalType": "uint256",
          "name": "SeedEpoch",
          "type": "uint256"
        },
        {
          "internalType": "bytes",
          "name": "SealedCID",
          "type": "bytes"
        },
        {
          "internalType": "bytes",
          "name": "UnsealedCID",
          "type": "bytes"
        },
        {
          "internalType": "bytes",
          "name": "Proof",
          "type": "bytes"
        }
      ],
      "name": "logAddSector",
      "outputs": [],
      "stateMutability": "nonpayable",
      "type": "function"
    }
  ],
  "bytecode": "0x60806040526002805460ff1916905534801561001a57600080fd5b50600061002e64010000000061007d810204565b60008054600160a060020a031916600160a060020a0383169081178255604051929350917f8be0079c531659141344cd1fd0a4f28419497f9722a3daafe3b4186f6b6457e0908290a350610081565b3390565b612013806100906000396000f3fe608060405234801561001057600080fd5b506004361061013b5760003560e060020a900480638da5cb5b116100bc578063c69d057311610080578063c69d0573146105e1578063ca7d34b614610619578063f1382b5314610636578063f1980a501461066e578063f2fde38b14610691578063f92ec5af146106b75761013b565b80638da5cb5b14610526578063a102f1d41461052e578063a449d7951461055d578063b7721d2d14610589578063c4d66de8146105bb5761013b565b80636e699d87116101035780636e699d871461045e578063715018a6146104965780637b1039991461049e5780637f88a957146104c257806381dc101b146104f45761013b565b806333a8383c14610140578063532e19a9146102095780635616a7cc14610226578063605be9be1461024f57806368e169df14610281575b600080fd5b610207600480360360c081101561015657600080fd5b600160a060020a03823516919081019060408101602082013564010000000081111561018157600080fd5b82018360208201111561019357600080fd5b803590602001918460018302840111640100000000831117156101b557600080fd5b91908080601f01602080910402602001604051908101604052809392919081815260200183838082843760009201919091525092955050823593505050602081013590604081013590606001356106e3565b005b6102076004803603602081101561021f57600080fd5b50356108b3565b6102076004803603606081101561023c57600080fd5b5080359060208101359060400135610a89565b6102076004803603606081101561026557600080fd5b50803590600160a060020a036020820135169060400135610b88565b610207600480360361010081101561029857600080fd5b600160a060020a03823516916020810135916040820135916060810135916080820135919081019060c0810160a08201356401000000008111156102db57600080fd5b8201836020820111156102ed57600080fd5b8035906020019184600183028401116401000000008311171561030f57600080fd5b91908080601f016020809104026020016040519081016040528093929190818152602001838380828437600092019190915250929594936020810193503591505064010000000081111561036257600080fd5b82018360208201111561037457600080fd5b8035906020019184600183028401116401000000008311171561039657600080fd5b91908080601f01602080910402602001604051908101604052809392919081815260200183838082843760009201919091525092959493602081019350359150506401000000008111156103e957600080fd5b8201836020820111156103fb57600080fd5b8035906020019184600183028401116401000000008311171561041d57600080fd5b91908080601f016020809104026020016040519081016040528093929190818152602001838380828437600092019190915250929550610d1f945050505050565b6102076004803603608081101561047457600080fd5b50803590600160a060020a036020820135169060408101359060600135610eba565b61020761105c565b6104a6611120565b60408051600160a060020a039092168252519081900360200190f35b610207600480360360608110156104d857600080fd5b50803590600160a060020a036020820135169060400135611134565b6102076004803603606081101561050a57600080fd5b5080359060208101359060400135600160a060020a03166112c3565b6104a66113c0565b61054b6004803603602081101561054457600080fd5b50356113cf565b60408051918252519081900360200190f35b6102076004803603604081101561057357600080fd5b50600160a060020a0381351690602001356113e1565b6102076004803603606081101561059f57600080fd5b50803590600160a060020a0360208201351690604001356114db565b610207600480360360208110156105d157600080fd5b5035600160a060020a031661166a565b610207600480360360808110156105f757600080fd5b50803590600160a060020a036020820135169060408101359060600135611704565b61054b6004803603602081101561062f57600080fd5b503561189f565b6102076004803603608081101561064c57600080fd5b50803590600160a060020a036020820135169060408101359060600135611a26565b6102076004803603604081101561068457600080fd5b5080359060200135611bc1565b610207600480360360208110156106a757600080fd5b5035600160a060020a0316611cc0565b610207600480360360408110156106cd57600080fd5b5080359060200135600160a060020a0316611ddd565b6002546040805160e060020a636ddb63ab028152905133926101009004600160a060020a031691636ddb63ab916004808301926020929190829003018186803b15801561072f57600080fd5b505afa158015610743573d6000803e3d6000fd5b505050506040513d602081101561075957600080fd5b5051600160a060020a0316146107a35760405160e560020a62461bcd028152600401808060200182810382526021815260200180611fbd6021913960400191505060405180910390fd5b6000848152600160208190526040909120546107c49163ffffffff611ed716565b6001600086815260200190815260200160002081905550828487600160a060020a03167f68c13e4125b983d7e2d6114246f443e567ec6c4ee5b4d4a7ef6100b1402bfd84600160008981526020019081526020016000205486868b6040518085815260200184815260200183815260200180602001828103825283818151815260200191508051906020019080838360005b8381101561086e578181015183820152602001610856565b50505050905090810190601f16801561089b5780820380516001836020036101000a031916815260200191505b509550505050505060405180910390a4505050505050565b80600080600260019054906101000a9004600160a060020a0316600160a060020a0316636ddb63ab6040518163ffffffff1660e060020a02815260040160206040518083038186803b15801561090857600080fd5b505afa15801561091c573d6000803e3d6000fd5b505050506040513d602081101561093257600080fd5b50516040805160e160020a630a7270af028152600481018690529051919250600160a060020a038316916314e4e15e9160248082019260c092909190829003018186803b15801561098257600080fd5b505afa158015610996573d6000803e3d6000fd5b505050506040513d60c08110156109ac57600080fd5b50606001519150600160a060020a0381163314806109d25750600160a060020a03821633145b610a105760405160e560020a62461bcd028152600401808060200182810382526037815260200180611f666037913960400191505060405180910390fd5b600084815260016020819052604090912054610a319163ffffffff611ed716565b600085815260016020526040902055610a498461189f565b600085815260016020526040808220549051909187917f35af9eea1f0e7b300b0a14fae90139a072470e44daa3f14b5069bebbc1265bda9190a450505050565b6002546040805160e060020a636ddb63ab028152905133926101009004600160a060020a031691636ddb63ab916004808301926020929190829003018186803b158015610ad557600080fd5b505afa158015610ae9573d6000803e3d6000fd5b505050506040513d6020811015610aff57600080fd5b5051600160a060020a031614610b495760405160e560020a62461bcd028152600401808060200182810382526021815260200180611fbd6021913960400191505060405180910390fd5b6040805183815260208101839052815185927f09b24121f82c610c13909ec63bd0843468819a45f6eda5838c3a80568c2046a8928290030190a2505050565b826000600260019054906101000a9004600160a060020a0316600160a060020a0316636ddb63ab6040518163ffffffff1660e060020a02815260040160206040518083038186803b158015610bdc57600080fd5b505afa158015610bf0573d6000803e3d6000fd5b505050506040513d6020811015610c0657600080fd5b50516040805160e160020a630a7270af028152600481018590529051919250600091600160a060020a038416916314e4e15e9160248083019260c0929190829003018186803b158015610c5857600080fd5b505afa158015610c6c573d6000803e3d6000fd5b505050506040513d60c0811015610c8257600080fd5b50606001519050600160a060020a0381163314610cd7576040805160e560020a62461bcd02815260206004820152601d6024820152600080516020611f9d833981519152604482015290519081900360640190fd5b604080518581529051600160a060020a0387169188917f770c7c7d8e20347e5080e2ac70e8519793bedaff621f044396fd8d6d052c4aa89181900360200190a3505050505050565b87600160a060020a03167ff1af97092291d9cd8273b1f288620a3266ac4e5252a1bf2ebdfbd6fb2eda02758888888888888860405180888152602001878152602001868152602001858152602001806020018060200180602001848103845287818151815260200191508051906020019080838360005b83811015610dae578181015183820152602001610d96565b50505050905090810190601f168015610ddb5780820380516001836020036101000a031916815260200191505b50848103835286518152865160209182019188019080838360005b83811015610e0e578181015183820152602001610df6565b50505050905090810190601f168015610e3b5780820380516001836020036101000a031916815260200191505b50848103825285518152855160209182019187019080838360005b83811015610e6e578181015183820152602001610e56565b50505050905090810190601f168015610e9b5780820380516001836020036101000a031916815260200191505b509a505050505050505050505060405180910390a25050505050505050565b836000600260019054906101000a9004600160a060020a0316600160a060020a0316636ddb63ab6040518163ffffffff1660e060020a02815260040160206040518083038186803b158015610f0e57600080fd5b505afa158015610f22573d6000803e3d6000fd5b505050506040513d6020811015610f3857600080fd5b50516040805160e160020a630a7270af028152600481018590529051919250600091600160a060020a038416916314e4e15e9160248083019260c0929190829003018186803b158015610f8a57600080fd5b505afa158015610f9e573d6000803e3d6000fd5b505050506040513d60c0811015610fb457600080fd5b50606001519050600160a060020a0381163314611009576040805160e560020a62461bcd02815260206004820152601d6024820152600080516020611f9d833981519152604482015290519081900360640190fd5b85600160a060020a0316877f7beb9bef91040fcf7607c78d4fc668370a9036788d7e6f202a4a2db5b0c28c808787604051808381526020018281526020019250505060405180910390a350505050505050565b611064611f3b565b600054600160a060020a039081169116146110c9576040805160e560020a62461bcd02815260206004820181905260248201527f4f776e61626c653a2063616c6c6572206973206e6f7420746865206f776e6572604482015290519081900360640190fd5b60008054604051600160a060020a03909116907f8be0079c531659141344cd1fd0a4f28419497f9722a3daafe3b4186f6b6457e0908390a36000805473ffffffffffffffffffffffffffffffffffffffff19169055565b6002546101009004600160a060020a031681565b826000600260019054906101000a9004600160a060020a0316600160a060020a0316636ddb63ab6040518163ffffffff1660e060020a02815260040160206040518083038186803b15801561118857600080fd5b505afa15801561119c573d6000803e3d6000fd5b505050506040513d60208110156111b257600080fd5b50516040805160e160020a630a7270af028152600481018590529051919250600091600160a060020a038416916314e4e15e9160248083019260c0929190829003018186803b15801561120457600080fd5b505afa158015611218573d6000803e3d6000fd5b505050506040513d60c081101561122e57600080fd5b50606001519050600160a060020a0381163314611283576040805160e560020a62461bcd02815260206004820152601d6024820152600080516020611f9d833981519152604482015290519081900360640190fd5b8385600160a060020a0316877f0f9ccdda16b467e719059c85ebd8383fcb7f8ffa5576629fe3b842836e04dad160405160405180910390a4505050505050565b6002546040805160e060020a636ddb63ab028152905133926101009004600160a060020a031691636ddb63ab916004808301926020929190829003018186803b15801561130f57600080fd5b505afa158015611323573d6000803e3d6000fd5b505050506040513d602081101561133957600080fd5b5051600160a060020a0316146113835760405160e560020a62461bcd028152600401808060200182810382526021815260200180611fbd6021913960400191505060405180910390fd5b80600160a060020a031682847ff6566d8fbe8f23227826ba3da2ecc1ec48698c5be051a829965e3358fd5b965860405160405180910390a4505050565b600054600160a060020a031690565b60016020526000908152604090205481565b6002546040805160e060020a636ddb63ab028152905133926101009004600160a060020a031691636ddb63ab916004808301926020929190829003018186803b15801561142d57600080fd5b505afa158015611441573d6000803e3d6000fd5b505050506040513d602081101561145757600080fd5b5051600160a060020a0316146114a15760405160e560020a62461bcd028152600401808060200182810382526021815260200180611fbd6021913960400191505060405180910390fd5b6040518190600160a060020a038416907f2c3bb5458e3dd671c31974c4ca8e8ebc2cdd892ae8602374d9a6f789b00c6b9490600090a35050565b826000600260019054906101000a9004600160a060020a0316600160a060020a0316636ddb63ab6040518163ffffffff1660e060020a02815260040160206040518083038186803b15801561152f57600080fd5b505afa158015611543573d6000803e3d6000fd5b505050506040513d602081101561155957600080fd5b50516040805160e160020a630a7270af028152600481018590529051919250600091600160a060020a038416916314e4e15e9160248083019260c0929190829003018186803b1580156115ab57600080fd5b505afa1580156115bf573d6000803e3d6000fd5b505050506040513d60c08110156115d557600080fd5b50606001519050600160a060020a038116331461162a576040805160e560020a62461bcd02815260206004820152601d6024820152600080516020611f9d833981519152604482015290519081900360640190fd5b8385600160a060020a0316877f31d1715032654fde9867c0f095aecce1113049e30b9f4ecbaa6954ed6c63b8df60405160405180910390a4505050505050565b60025460ff16156116c5576040805160e560020a62461bcd02815260206004820152600e60248201527f616c726561647920696e69746564000000000000000000000000000000000000604482015290519081900360640190fd5b60028054600160a060020a039092166101000274ffffffffffffffffffffffffffffffffffffffff001960ff1990931660011792909216919091179055565b836000600260019054906101000a9004600160a060020a0316600160a060020a0316636ddb63ab6040518163ffffffff1660e060020a02815260040160206040518083038186803b15801561175857600080fd5b505afa15801561176c573d6000803e3d6000fd5b505050506040513d602081101561178257600080fd5b50516040805160e160020a630a7270af028152600481018590529051919250600091600160a060020a038416916314e4e15e9160248083019260c0929190829003018186803b1580156117d457600080fd5b505afa1580156117e8573d6000803e3d6000fd5b505050506040513d60c08110156117fe57600080fd5b50606001519050600160a060020a0381163314611853576040805160e560020a62461bcd02815260206004820152601d6024820152600080516020611f9d833981519152604482015290519081900360640190fd5b8486600160a060020a0316887fc9afff0972d33d68c8d330fe0ebd0e9f54491ad8c59ae17330a9206f280f0865876040518082815260200191505060405180910390a450505050505050565b600080600260019054906101000a9004600160a060020a0316600160a060020a0316636ddb63ab6040518163ffffffff1660e060020a02815260040160206040518083038186803b1580156118f357600080fd5b505afa158015611907573d6000803e3d6000fd5b505050506040513d602081101561191d57600080fd5b50516040805160e160020a630a7270af028152600481018690529051600160a060020a03909216916314e4e15e9160248082019260c092909190829003018186803b15801561196b57600080fd5b505afa15801561197f573d6000803e3d6000fd5b505050506040513d60c081101561199557600080fd5b5080516060909101519092509050600160a060020a03811615611a205780600160a060020a031663a446c2db6040518163ffffffff1660e060020a02815260040160206040518083038186803b1580156119ee57600080fd5b505afa158015611a02573d6000803e3d6000fd5b505050506040513d6020811015611a1857600080fd5b505191909101905b50919050565b836000600260019054906101000a9004600160a060020a0316600160a060020a0316636ddb63ab6040518163ffffffff1660e060020a02815260040160206040518083038186803b158015611a7a57600080fd5b505afa158015611a8e573d6000803e3d6000fd5b505050506040513d6020811015611aa457600080fd5b50516040805160e160020a630a7270af028152600481018590529051919250600091600160a060020a038416916314e4e15e9160248083019260c0929190829003018186803b158015611af657600080fd5b505afa158015611b0a573d6000803e3d6000fd5b505050506040513d60c0811015611b2057600080fd5b50606001519050600160a060020a0381163314611b75576040805160e560020a62461bcd02815260206004820152601d6024820152600080516020611f9d833981519152604482015290519081900360640190fd5b8486600160a060020a0316887f7e86625aa6e668407f095af342e0cc237809c4c5086b4d665a0067de122980a9876040518082815260200191505060405180910390a450505050505050565b6002546040805160e060020a636ddb63ab028152905133926101009004600160a060020a031691636ddb63ab916004808301926020929190829003018186803b158015611c0d57600080fd5b505afa158015611c21573d6000803e3d6000fd5b505050506040513d6020811015611c3757600080fd5b5051600160a060020a031614611c815760405160e560020a62461bcd028152600401808060200182810382526021815260200180611fbd6021913960400191505060405180910390fd5b604080518381526020810183905281517f5d16a900896e1160c2033bc940e6b072d3dc3b6a996fefb9b3b9b9678841824c929181900390910190a15050565b611cc8611f3b565b600054600160a060020a03908116911614611d2d576040805160e560020a62461bcd02815260206004820181905260248201527f4f776e61626c653a2063616c6c6572206973206e6f7420746865206f776e6572604482015290519081900360640190fd5b600160a060020a038116611d755760405160e560020a62461bcd028152600401808060200182810382526026815260200180611f406026913960400191505060405180910390fd5b60008054604051600160a060020a03808516939216917f8be0079c531659141344cd1fd0a4f28419497f9722a3daafe3b4186f6b6457e091a36000805473ffffffffffffffffffffffffffffffffffffffff1916600160a060020a0392909216919091179055565b6002546040805160e060020a636ddb63ab028152905133926101009004600160a060020a031691636ddb63ab916004808301926020929190829003018186803b158015611e2957600080fd5b505afa158015611e3d573d6000803e3d6000fd5b505050506040513d6020811015611e5357600080fd5b5051600160a060020a031614611e9d5760405160e560020a62461bcd028152600401808060200182810382526021815260200180611fbd6021913960400191505060405180910390fd5b604051600160a060020a0382169083907fd3cb87a9c75a0d21336afc0f79f7e398f06748db5ce1815af01d315c7c135c0b90600090a35050565b600082820183811015611f34576040805160e560020a62461bcd02815260206004820152601b60248201527f536166654d6174683a206164646974696f6e206f766572666c6f770000000000604482015290519081900360640190fd5b9392505050565b339056fe4f776e61626c653a206e6577206f776e657220697320746865207a65726f2061646472657373496e76616c69642073656e6465722c206e6f74207374616b65206d616e61676572206f722076616c696461746f7220636f6e7472616374496e76616c69642073656e6465722c206e6f742076616c696461746f72000000496e76616c69642073656e6465722c206e6f74207374616b65206d616e61676572a26469706673582212202ee83c31e65c7059ff1aa6ea3d626ef653dd6a9ac4640318973070c4faf0de5f64736f6c63430006060033",
  "immutableReferences": {},
  "source": "pragma solidity ^0.6.6;\n\nimport {SafeMath} from \"@openzeppelin/contracts/math/SafeMath.sol\";\nimport {OwnableExpand} from \"../common/utils/OwnableExpand.sol\";\nimport {Registry} from \"../common/misc/Registry.sol\";\nimport {IW3fsStakeManager} from \"./stakeManager/IW3fsStakeManager.sol\";\nimport {IDelegateShare} from \"./delegateShare/IDelegateShare.sol\";\n\n// solc --bin-runtime @openzeppelin/=node_modules/@openzeppelin/ /=/ contracts/staking/W3fsStakingInfo.sol\ncontract W3fsStakingInfo is OwnableExpand {\n    using SafeMath for uint256;\n    mapping(uint256 => uint256) public minerNonce;\n    bool private inited = false;\n    Registry public registry;\n\n    event Staked(\n        address indexed signer,\n        uint256 indexed validatorId,\n        uint256 nonce,\n        uint256 indexed activationEpoch,\n        uint256 amount,\n        uint256 total,\n        bytes signerPubkey\n    );\n\n    event StakeUpdate(\n        uint256 indexed minerId,\n        uint256 indexed nonce,\n        uint256 indexed newAmount\n    );\n\n    event ShareMinted(\n        uint256 indexed validatorId,\n        address indexed user,\n        uint256 indexed amount,\n        uint256 tokens\n    );\n\n\n    event DelegatorClaimedRewards(\n        uint256 indexed minerId,\n        address indexed user,\n        uint256 indexed rewards\n    );\n\n    event DelegatorRestaked(\n        uint256 indexed minerId,\n        address indexed user,\n        uint256 indexed totalStaked\n    );\n\n    event DelegatorUnstakeWithId(\n        uint256 indexed minerId,\n        address indexed user,\n        uint256 amount,\n        uint256 nonce\n    );\n\n    event ShareBurned(\n        uint256 indexed minerId,\n        address indexed user,\n        uint256 indexed amount,\n        uint256 tokens\n    );\n\n    event DelegatorUnstaked(\n        uint256 indexed minerId,\n        address indexed user,\n        uint256 amount\n    );\n\n    event AddSector(\n        address indexed signer,\n        uint256 SealProofType, uint256 SectorNumber,\n        uint256 TicketEpoch,\n        uint256 SeedEpoch,\n        bytes SealedCID,\n        bytes UnsealedCID,\n        bytes Proof\n    );\n\n    event UnJailed(uint256 indexed minerId, address indexed signer);\n    event Jailed(uint256 indexed minerId, uint256 indexed exitEpoch, address indexed signer);\n    event Restaked(uint256 indexed minerId, uint256 amount, uint256 total);\n    event ReceiverReward(uint256 indexed blockNumber, address indexed minerAddr, uint256 reward, uint256 delegatorsReward);\n    event ThresholdChange(uint256 newThreshold, uint256 oldThreshold);\n    event TopUpFee(address indexed user, uint256 indexed fee);\n\n    modifier initializer() {\n        require(!inited, \"already inited\");\n        inited = true;\n        _;\n    }\n\n\n    constructor() public {}\n\n    function initialize(address _registry) external initializer {\n        registry = Registry(_registry);\n    }\n\n\n    modifier onlyStakeManager() {\n        require(registry.getW3fsStakeManagerAddress() == msg.sender, \"Invalid sender, not stake manager\");\n        _;\n    }\n\n    modifier onlyStakeManagerOrMinerContract(uint256 minerId){\n        address _contract;\n        address _stakeManager = registry.getW3fsStakeManagerAddress();\n        ( , , , _contract, , ) = IW3fsStakeManager(_stakeManager).getMinerBaseInfo(minerId);\n        require(_stakeManager == msg.sender || _contract == msg.sender, \"Invalid sender, not stake manager or validator contract\");\n        _;\n    }\n\n    modifier onlyMinerContract(uint256 minerId) {\n        address _stakeManager = registry.getW3fsStakeManagerAddress();\n        ( , , , address _contract, , ) = IW3fsStakeManager(_stakeManager).getMinerBaseInfo(minerId);\n        require(_contract == msg.sender, \"Invalid sender, not validator\");\n        _;\n    }\n\n\n    function logThresholdChange(uint256 newThreshold, uint256 oldThreshold) public onlyStakeManager {\n        emit ThresholdChange(newThreshold, oldThreshold);\n    }\n\n    // staked event\n    function logStaked(\n        address signer,\n        bytes memory signerPubkey,\n        uint256 minerId,\n        uint256 activationEpoch,\n        uint256 amount,\n        uint256 total\n    ) public onlyStakeManager {\n        minerNonce[minerId] = minerNonce[minerId].add(1);\n        emit Staked(\n            signer,\n            minerId,\n            minerNonce[minerId],\n            activationEpoch,\n            amount,\n            total,\n            signerPubkey\n        );\n    }\n\n    function logStakeUpdate(uint256 minerId) public onlyStakeManagerOrMinerContract(minerId) {\n        minerNonce[minerId] = minerNonce[minerId].add(1);\n        emit StakeUpdate(\n            minerId,\n            minerNonce[minerId],\n            totalValidatorStake(minerId)\n        );\n    }\n\n    function totalValidatorStake(uint256 minerId) public view returns (uint256 validatorStake) {\n        address contractAddress;\n        (validatorStake, , , contractAddress,,) = IW3fsStakeManager(registry.getW3fsStakeManagerAddress()).getMinerBaseInfo(minerId);\n        if (contractAddress != address(0x0)) {\n            validatorStake += IDelegateShare(contractAddress).getActiveAmount();\n        }\n    }\n\n    function logRestaked(uint256 validatorId, uint256 amount, uint256 total) public onlyStakeManager {\n        emit Restaked(validatorId, amount, total);\n    }\n\n    function logJailed(uint256 minerId, uint256 exitEpoch, address signer) public onlyStakeManager{\n        emit Jailed(minerId, exitEpoch, signer);\n    }\n\n    function logUnjailed(uint256 minerId, address signer) public onlyStakeManager {\n        emit UnJailed(minerId, signer);\n    }\n\n    function logShareMinted(\n        uint256 validatorId,\n        address user,\n        uint256 amount,\n        uint256 tokens\n    ) public onlyMinerContract(validatorId) {\n        emit ShareMinted(validatorId, user, amount, tokens);\n    }\n\n    function logDelegatorClaimRewards(uint256 minerId, address user, uint256 rewards) public onlyMinerContract(minerId) {\n        emit DelegatorClaimedRewards(minerId, user, rewards);\n    }\n\n    function logDelegatorRestaked(uint256 minerId, address user, uint256 totalStaked) public onlyMinerContract(minerId){\n        emit DelegatorRestaked(minerId, user, totalStaked);\n    }\n\n    function logDelegatorUnstakedWithId(\n        uint256 minerId,\n        address user,\n        uint256 amount,\n        uint256 nonce\n    ) public onlyMinerContract(minerId) {\n        emit DelegatorUnstakeWithId(minerId, user, amount, nonce);\n    }\n\n    function logShareBurned(\n        uint256 minerId,\n        address user,\n        uint256 amount,\n        uint256 tokens\n    ) public onlyMinerContract(minerId) {\n        emit ShareBurned(minerId, user, amount, tokens);\n    }\n\n    function logDelegatorUnstaked(uint256 minerId, address user, uint256 amount) public onlyMinerContract(minerId)\n    {\n        emit DelegatorUnstaked(minerId, user, amount);\n    }\n\n    function logTopUpFee(address user, uint256 fee) public onlyStakeManager {\n        emit TopUpFee(user, fee);\n    }\n\n    function logAddSector(address signer, uint256 SealProofType, uint256 SectorNumber, uint256 TicketEpoch, uint256 SeedEpoch, bytes memory SealedCID, bytes memory UnsealedCID, bytes memory Proof) public {\n        emit AddSector(signer, SealProofType, SectorNumber, TicketEpoch, SeedEpoch, SealedCID, UnsealedCID, Proof);\n    }\n\n}\n",
  "sourcePath": "/root/testnet/code/w3fs-genesis-contracts-bridge/contracts/staking/W3fsStakingInfo.sol",
  "compiler": {
    "name": "solc",
    "version": "0.6.6+commit.6c089d02.Emscripten.clang"
  },
  "schemaVersion": "3.4.10",
  "updatedAt": "2022-11-17T03:12:06.049Z",
  "networkType": "ethereum",
  "devdoc": {
    "methods": {
      "owner()": {
        "details": "Returns the address of the current owner."
      },
      "renounceOwnership()": {
        "details": "Leaves the contract without owner. It will not be possible to call `onlyOwner` functions anymore. Can only be called by the current owner.     * NOTE: Renouncing ownership will leave the contract without an owner, thereby removing any functionality that is only available to the owner."
      },
      "transferOwnership(address)": {
        "details": "Transfers ownership of the contract to a new account (`newOwner`). Can only be called by the current owner."
      }
    }
  },
  "userdoc": {
    "methods": {}
  }
}