{
  "contractName": "W3fsStakeManager",
  "abi": [
    {
      "inputs": [],
      "stateMutability": "payable",
      "type": "constructor",
      "payable": true
    },
    {
      "anonymous": false,
      "inputs": [
        {
          "indexed": true,
          "internalType": "address",
          "name": "previousOwner",
          "type": "address"
        },
        {
          "indexed": true,
          "internalType": "address",
          "name": "newOwner",
          "type": "address"
        }
      ],
      "name": "OwnershipTransferred",
      "type": "event"
    },
    {
      "anonymous": false,
      "inputs": [
        {
          "indexed": true,
          "internalType": "address",
          "name": "miner",
          "type": "address"
        }
      ],
      "name": "ReceiverRewardEvent",
      "type": "event"
    },
    {
      "inputs": [],
      "name": "COMMISSION_UPDATE_DELAY",
      "outputs": [
        {
          "internalType": "uint256",
          "name": "",
          "type": "uint256"
        }
      ],
      "stateMutability": "view",
      "type": "function",
      "constant": true
    },
    {
      "inputs": [],
      "name": "INIT_MINERSET_BYTES",
      "outputs": [
        {
          "internalType": "bytes",
          "name": "",
          "type": "bytes"
        }
      ],
      "stateMutability": "view",
      "type": "function",
      "constant": true
    },
    {
      "inputs": [],
      "name": "NFTContract",
      "outputs": [
        {
          "internalType": "contract W3fsStakingNFT",
          "name": "",
          "type": "address"
        }
      ],
      "stateMutability": "view",
      "type": "function",
      "constant": true
    },
    {
      "inputs": [],
      "name": "SYSTEM_ADDRESS",
      "outputs": [
        {
          "internalType": "address",
          "name": "",
          "type": "address"
        }
      ],
      "stateMutability": "view",
      "type": "function",
      "constant": true
    },
    {
      "inputs": [],
      "name": "UNSTAKE_CLAIM_DELAY",
      "outputs": [
        {
          "internalType": "uint256",
          "name": "",
          "type": "uint256"
        }
      ],
      "stateMutability": "view",
      "type": "function",
      "constant": true
    },
    {
      "inputs": [],
      "name": "delegateShareFactory",
      "outputs": [
        {
          "internalType": "contract DelegateShareFactory",
          "name": "",
          "type": "address"
        }
      ],
      "stateMutability": "view",
      "type": "function",
      "constant": true
    },
    {
      "inputs": [],
      "name": "governance",
      "outputs": [
        {
          "internalType": "contract IGovernance",
          "name": "",
          "type": "address"
        }
      ],
      "stateMutability": "view",
      "type": "function",
      "constant": true
    },
    {
      "inputs": [],
      "name": "lock",
      "outputs": [],
      "stateMutability": "nonpayable",
      "type": "function"
    },
    {
      "inputs": [],
      "name": "locked",
      "outputs": [
        {
          "internalType": "bool",
          "name": "",
          "type": "bool"
        }
      ],
      "stateMutability": "view",
      "type": "function",
      "constant": true
    },
    {
      "inputs": [],
      "name": "logger",
      "outputs": [
        {
          "internalType": "contract W3fsStakingInfo",
          "name": "",
          "type": "address"
        }
      ],
      "stateMutability": "view",
      "type": "function",
      "constant": true
    },
    {
      "inputs": [],
      "name": "owner",
      "outputs": [
        {
          "internalType": "address",
          "name": "",
          "type": "address"
        }
      ],
      "stateMutability": "view",
      "type": "function",
      "constant": true
    },
    {
      "inputs": [],
      "name": "registry",
      "outputs": [
        {
          "internalType": "address",
          "name": "",
          "type": "address"
        }
      ],
      "stateMutability": "view",
      "type": "function",
      "constant": true
    },
    {
      "inputs": [],
      "name": "renounceOwnership",
      "outputs": [],
      "stateMutability": "nonpayable",
      "type": "function"
    },
    {
      "inputs": [
        {
          "internalType": "address",
          "name": "",
          "type": "address"
        }
      ],
      "name": "signerToFee",
      "outputs": [
        {
          "internalType": "uint256",
          "name": "",
          "type": "uint256"
        }
      ],
      "stateMutability": "view",
      "type": "function",
      "constant": true
    },
    {
      "inputs": [
        {
          "internalType": "address",
          "name": "",
          "type": "address"
        }
      ],
      "name": "signerToStorageMiner",
      "outputs": [
        {
          "internalType": "uint256",
          "name": "",
          "type": "uint256"
        }
      ],
      "stateMutability": "view",
      "type": "function",
      "constant": true
    },
    {
      "inputs": [
        {
          "internalType": "uint256",
          "name": "",
          "type": "uint256"
        }
      ],
      "name": "signers",
      "outputs": [
        {
          "internalType": "address",
          "name": "",
          "type": "address"
        }
      ],
      "stateMutability": "view",
      "type": "function",
      "constant": true
    },
    {
      "inputs": [],
      "name": "storageManager",
      "outputs": [
        {
          "internalType": "contract IW3fsStorageManager",
          "name": "",
          "type": "address"
        }
      ],
      "stateMutability": "view",
      "type": "function",
      "constant": true
    },
    {
      "inputs": [
        {
          "internalType": "uint256",
          "name": "",
          "type": "uint256"
        }
      ],
      "name": "storageMiners",
      "outputs": [
        {
          "internalType": "uint256",
          "name": "amount",
          "type": "uint256"
        },
        {
          "internalType": "uint256",
          "name": "reward",
          "type": "uint256"
        },
        {
          "internalType": "uint256",
          "name": "activationEpoch",
          "type": "uint256"
        },
        {
          "internalType": "uint256",
          "name": "deactivationEpoch",
          "type": "uint256"
        },
        {
          "internalType": "uint256",
          "name": "jailTime",
          "type": "uint256"
        },
        {
          "internalType": "address",
          "name": "signer",
          "type": "address"
        },
        {
          "internalType": "address",
          "name": "contractAddress",
          "type": "address"
        },
        {
          "internalType": "enum W3fsStakeManagerStorage.Status",
          "name": "status",
          "type": "uint8"
        },
        {
          "internalType": "uint256",
          "name": "commissionRate",
          "type": "uint256"
        },
        {
          "internalType": "uint256",
          "name": "lastCommissionUpdate",
          "type": "uint256"
        },
        {
          "internalType": "uint256",
          "name": "delegatorsReward",
          "type": "uint256"
        },
        {
          "internalType": "uint256",
          "name": "delegatedAmount",
          "type": "uint256"
        }
      ],
      "stateMutability": "view",
      "type": "function",
      "constant": true
    },
    {
      "inputs": [],
      "name": "token",
      "outputs": [
        {
          "internalType": "contract IERC20",
          "name": "",
          "type": "address"
        }
      ],
      "stateMutability": "view",
      "type": "function",
      "constant": true
    },
    {
      "inputs": [
        {
          "internalType": "address",
          "name": "newOwner",
          "type": "address"
        }
      ],
      "name": "transferOwnership",
      "outputs": [],
      "stateMutability": "nonpayable",
      "type": "function"
    },
    {
      "inputs": [],
      "name": "unlock",
      "outputs": [],
      "stateMutability": "nonpayable",
      "type": "function"
    },
    {
      "inputs": [
        {
          "internalType": "address",
          "name": "",
          "type": "address"
        }
      ],
      "name": "userFeeExit",
      "outputs": [
        {
          "internalType": "uint256",
          "name": "",
          "type": "uint256"
        }
      ],
      "stateMutability": "view",
      "type": "function",
      "constant": true
    },
    {
      "stateMutability": "payable",
      "type": "receive",
      "payable": true
    },
    {
      "inputs": [
        {
          "internalType": "address",
          "name": "_owner",
          "type": "address"
        },
        {
          "internalType": "address",
          "name": "_registry",
          "type": "address"
        },
        {
          "internalType": "address",
          "name": "_token",
          "type": "address"
        },
        {
          "internalType": "address",
          "name": "_NFTContract",
          "type": "address"
        },
        {
          "internalType": "address",
          "name": "_governance",
          "type": "address"
        },
        {
          "internalType": "address",
          "name": "_stakingLogger",
          "type": "address"
        },
        {
          "internalType": "address",
          "name": "_delegateShareFactory",
          "type": "address"
        },
        {
          "internalType": "address",
          "name": "_storageManager",
          "type": "address"
        }
      ],
      "name": "initialize",
      "outputs": [],
      "stateMutability": "nonpayable",
      "type": "function"
    },
    {
      "inputs": [
        {
          "internalType": "address",
          "name": "user",
          "type": "address"
        },
        {
          "internalType": "uint256",
          "name": "amount",
          "type": "uint256"
        },
        {
          "internalType": "uint256",
          "name": "fee",
          "type": "uint256"
        },
        {
          "internalType": "uint256",
          "name": "storagePromise",
          "type": "uint256"
        },
        {
          "internalType": "bool",
          "name": "acceptDelegation",
          "type": "bool"
        },
        {
          "internalType": "bytes",
          "name": "signerPubkey",
          "type": "bytes"
        }
      ],
      "name": "stakeFor",
      "outputs": [],
      "stateMutability": "payable",
      "type": "function",
      "payable": true
    },
    {
      "inputs": [
        {
          "internalType": "address",
          "name": "user",
          "type": "address"
        },
        {
          "internalType": "uint256",
          "name": "fee",
          "type": "uint256"
        }
      ],
      "name": "topupFee",
      "outputs": [],
      "stateMutability": "payable",
      "type": "function",
      "payable": true
    },
    {
      "inputs": [
        {
          "internalType": "uint256",
          "name": "accumFeeAmount",
          "type": "uint256"
        },
        {
          "internalType": "uint256",
          "name": "index",
          "type": "uint256"
        },
        {
          "internalType": "bytes",
          "name": "proof",
          "type": "bytes"
        }
      ],
      "name": "claimFee",
      "outputs": [],
      "stateMutability": "nonpayable",
      "type": "function"
    },
    {
      "inputs": [
        {
          "internalType": "address",
          "name": "minerAddr",
          "type": "address"
        },
        {
          "internalType": "uint256",
          "name": "amount",
          "type": "uint256"
        }
      ],
      "name": "updateRewardsMiner",
      "outputs": [
        {
          "internalType": "uint256",
          "name": "",
          "type": "uint256"
        }
      ],
      "stateMutability": "nonpayable",
      "type": "function"
    },
    {
      "inputs": [
        {
          "internalType": "address",
          "name": "minerAddr",
          "type": "address"
        },
        {
          "internalType": "uint256",
          "name": "slashAmount",
          "type": "uint256"
        },
        {
          "internalType": "bool",
          "name": "doJail",
          "type": "bool"
        }
      ],
      "name": "slash",
      "outputs": [],
      "stateMutability": "nonpayable",
      "type": "function"
    },
    {
      "inputs": [
        {
          "internalType": "address",
          "name": "miner",
          "type": "address"
        }
      ],
      "name": "receiverReward",
      "outputs": [],
      "stateMutability": "nonpayable",
      "type": "function"
    },
    {
      "inputs": [
        {
          "internalType": "uint256",
          "name": "commissionRate",
          "type": "uint256"
        },
        {
          "internalType": "uint256",
          "name": "stakeAmount",
          "type": "uint256"
        },
        {
          "internalType": "uint256",
          "name": "delegatedAmount",
          "type": "uint256"
        }
      ],
      "name": "_increaseReward",
      "outputs": [
        {
          "internalType": "uint256",
          "name": "",
          "type": "uint256"
        },
        {
          "internalType": "uint256",
          "name": "",
          "type": "uint256"
        }
      ],
      "stateMutability": "view",
      "type": "function",
      "constant": true
    },
    {
      "inputs": [
        {
          "internalType": "uint256",
          "name": "minerId",
          "type": "uint256"
        },
        {
          "internalType": "uint256",
          "name": "amount",
          "type": "uint256"
        }
      ],
      "name": "restake",
      "outputs": [],
      "stateMutability": "payable",
      "type": "function",
      "payable": true
    },
    {
      "inputs": [
        {
          "internalType": "uint256",
          "name": "minerId",
          "type": "uint256"
        }
      ],
      "name": "unstake",
      "outputs": [],
      "stateMutability": "nonpayable",
      "type": "function"
    },
    {
      "inputs": [
        {
          "internalType": "uint256",
          "name": "minerId",
          "type": "uint256"
        }
      ],
      "name": "unstakeClaim",
      "outputs": [],
      "stateMutability": "nonpayable",
      "type": "function"
    },
    {
      "inputs": [
        {
          "internalType": "uint256",
          "name": "minerId",
          "type": "uint256"
        }
      ],
      "name": "unjail",
      "outputs": [],
      "stateMutability": "nonpayable",
      "type": "function"
    },
    {
      "inputs": [
        {
          "internalType": "uint256",
          "name": "minerId",
          "type": "uint256"
        },
        {
          "internalType": "int256",
          "name": "amount",
          "type": "int256"
        }
      ],
      "name": "updateMinerState",
      "outputs": [],
      "stateMutability": "nonpayable",
      "type": "function"
    },
    {
      "inputs": [
        {
          "internalType": "uint256",
          "name": "minerId",
          "type": "uint256"
        },
        {
          "internalType": "uint256",
          "name": "amount",
          "type": "uint256"
        }
      ],
      "name": "decreaseMinerDelegatedAmount",
      "outputs": [],
      "stateMutability": "nonpayable",
      "type": "function"
    },
    {
      "inputs": [
        {
          "internalType": "uint256",
          "name": "minerId",
          "type": "uint256"
        }
      ],
      "name": "withdrawDelegatorsReward",
      "outputs": [
        {
          "internalType": "uint256",
          "name": "",
          "type": "uint256"
        }
      ],
      "stateMutability": "nonpayable",
      "type": "function"
    },
    {
      "inputs": [
        {
          "internalType": "address",
          "name": "user",
          "type": "address"
        }
      ],
      "name": "getSorageMinerId",
      "outputs": [
        {
          "internalType": "uint256",
          "name": "",
          "type": "uint256"
        }
      ],
      "stateMutability": "view",
      "type": "function",
      "constant": true
    },
    {
      "inputs": [
        {
          "internalType": "uint256",
          "name": "minerId",
          "type": "uint256"
        },
        {
          "internalType": "uint256",
          "name": "amount",
          "type": "uint256"
        },
        {
          "internalType": "address",
          "name": "delegator",
          "type": "address"
        }
      ],
      "name": "transferFunds",
      "outputs": [
        {
          "internalType": "bool",
          "name": "",
          "type": "bool"
        }
      ],
      "stateMutability": "nonpayable",
      "type": "function"
    },
    {
      "inputs": [
        {
          "internalType": "uint256",
          "name": "newValue",
          "type": "uint256"
        }
      ],
      "name": "updateStorageMinerThreshold",
      "outputs": [],
      "stateMutability": "nonpayable",
      "type": "function"
    },
    {
      "inputs": [
        {
          "internalType": "uint256",
          "name": "newSpanDuration",
          "type": "uint256"
        }
      ],
      "name": "updateSpanDuration",
      "outputs": [],
      "stateMutability": "nonpayable",
      "type": "function"
    },
    {
      "inputs": [
        {
          "internalType": "uint256",
          "name": "newReward",
          "type": "uint256"
        }
      ],
      "name": "updateMinerReward",
      "outputs": [],
      "stateMutability": "nonpayable",
      "type": "function"
    },
    {
      "inputs": [
        {
          "internalType": "uint256",
          "name": "new_unstake_claim_delay",
          "type": "uint256"
        },
        {
          "internalType": "uint256",
          "name": "new_commission_update_delay",
          "type": "uint256"
        }
      ],
      "name": "updateDelay",
      "outputs": [],
      "stateMutability": "nonpayable",
      "type": "function"
    },
    {
      "inputs": [
        {
          "internalType": "uint256",
          "name": "minerId",
          "type": "uint256"
        }
      ],
      "name": "forceUnstake",
      "outputs": [],
      "stateMutability": "nonpayable",
      "type": "function"
    },
    {
      "inputs": [
        {
          "internalType": "uint256",
          "name": "minerId",
          "type": "uint256"
        },
        {
          "internalType": "uint256",
          "name": "newCommissionRate",
          "type": "uint256"
        }
      ],
      "name": "updateCommissionRate",
      "outputs": [],
      "stateMutability": "nonpayable",
      "type": "function"
    },
    {
      "inputs": [
        {
          "internalType": "uint256",
          "name": "number",
          "type": "uint256"
        }
      ],
      "name": "getCurrentEpoch",
      "outputs": [
        {
          "internalType": "uint256",
          "name": "",
          "type": "uint256"
        }
      ],
      "stateMutability": "view",
      "type": "function",
      "constant": true
    },
    {
      "inputs": [],
      "name": "getBorMiners",
      "outputs": [
        {
          "internalType": "address[]",
          "name": "",
          "type": "address[]"
        },
        {
          "internalType": "uint256[]",
          "name": "",
          "type": "uint256[]"
        }
      ],
      "stateMutability": "view",
      "type": "function",
      "constant": true
    },
    {
      "inputs": [],
      "name": "getInitialValidators",
      "outputs": [
        {
          "internalType": "address[]",
          "name": "",
          "type": "address[]"
        },
        {
          "internalType": "uint256[]",
          "name": "",
          "type": "uint256[]"
        }
      ],
      "stateMutability": "view",
      "type": "function",
      "constant": true
    },
    {
      "inputs": [
        {
          "internalType": "address",
          "name": "minerAddr",
          "type": "address"
        }
      ],
      "name": "isActiveMiner",
      "outputs": [
        {
          "internalType": "bool",
          "name": "",
          "type": "bool"
        }
      ],
      "stateMutability": "view",
      "type": "function",
      "constant": true
    },
    {
      "inputs": [
        {
          "internalType": "uint256",
          "name": "minerId",
          "type": "uint256"
        }
      ],
      "name": "getMinerBaseInfo",
      "outputs": [
        {
          "internalType": "uint256",
          "name": "",
          "type": "uint256"
        },
        {
          "internalType": "uint256",
          "name": "",
          "type": "uint256"
        },
        {
          "internalType": "address",
          "name": "",
          "type": "address"
        },
        {
          "internalType": "address",
          "name": "",
          "type": "address"
        },
        {
          "internalType": "uint256",
          "name": "",
          "type": "uint256"
        },
        {
          "internalType": "uint256",
          "name": "",
          "type": "uint256"
        }
      ],
      "stateMutability": "view",
      "type": "function",
      "constant": true
    },
    {
      "inputs": [
        {
          "internalType": "address",
          "name": "minerAddr",
          "type": "address"
        }
      ],
      "name": "getMinerId",
      "outputs": [
        {
          "internalType": "uint256",
          "name": "",
          "type": "uint256"
        }
      ],
      "stateMutability": "view",
      "type": "function",
      "constant": true
    },
    {
      "inputs": [],
      "name": "withdrawalDelay",
      "outputs": [
        {
          "internalType": "uint256",
          "name": "",
          "type": "uint256"
        }
      ],
      "stateMutability": "view",
      "type": "function",
      "constant": true
    }
  ],
  "bytecode": "0x60806040526014805460a060020a60ff02191690556013805461010060a860020a031916905560006200003a6401000000006200008e810204565b60148054600160a060020a031916600160a060020a038316908117909155604051919250906000907f8be0079c531659141344cd1fd0a4f28419497f9722a3daafe3b4186f6b6457e0908290a35062000092565b3390565b61569a80620000a26000396000f3fe6080604052600436106103075760003560e060020a90048063828bf14811610194578063b8e7023d116100e0578063dcd962b211610099578063f24ccbfe11610073578063f24ccbfe14610dc2578063f2fde38b14610dd7578063f83d08ba14610e0a578063fc0c546a14610e1f5761030e565b8063dcd962b214610d4a578063e2dea71514610d7a578063f10bf12114610dad5761030e565b8063b8e7023d14610c49578063bc8756a914610c6c578063cf30901214610cab578063d4e31b9814610cc0578063d846c31614610cf0578063d86d53e714610d205761030e565b80639cf001fe1161014d578063a88c19f511610127578063a88c19f514610b88578063ab66c27514610bb2578063ab7d1b2114610bde578063b62ded5b14610c085761030e565b80639cf001fe14610b49578063a69df4b514610b5e578063a7ab696114610b735761030e565b8063828bf148146109bc5780638894a68614610a565780638a29e2de14610a895780638da5cb5b14610af55780639146014914610b0a57806398ec21ff14610b345761030e565b806351882bbc11610253578063707008831161020c578063715018a6116101e6578063715018a61461093557806378f84a441461094a5780637b1039991461097d5780637ed4b27c146109925761030e565b806370700883146107c257806370d77ed81461084c57806371124cc21461090b5761030e565b806351882bbc1461059c5780635aa6e675146105e35780635d7035c6146105f857806365b3a1e214610622578063672de102146106d057806368cb812a146107035761030e565b80632e17de78116102c05780633434735f1161029a5780633434735f146104d55780633623202e146104ea5780634620f9a81461051a57806348df79651461054d5761030e565b80632e17de781461045d5780632e6555141461048757806331c2273b146104c05761030e565b80630bc8531a1461031357806314e4e15e14610358578063178c2c83146103c15780631e28eb44146103ed5780632079fb9a1461040257806325b72c66146104485761030e565b3661030e57005b600080fd5b34801561031f57600080fd5b506103466004803603602081101561033657600080fd5b5035600160a060020a0316610e34565b60408051918252519081900360200190f35b34801561036457600080fd5b506103826004803603602081101561037b57600080fd5b5035610ed7565b604080519687526020870195909552600160a060020a0393841686860152919092166060850152608084019190915260a0830152519081900360c00190f35b3480156103cd57600080fd5b506103eb600480360360208110156103e457600080fd5b5035610f60565b005b3480156103f957600080fd5b5061034661129d565b34801561040e57600080fd5b5061042c6004803603602081101561042557600080fd5b50356112a3565b60408051600160a060020a039092168252519081900360200190f35b34801561045457600080fd5b5061042c6112ca565b34801561046957600080fd5b506103eb6004803603602081101561048057600080fd5b50356112d9565b34801561049357600080fd5b50610346600480360360408110156104aa57600080fd5b50600160a060020a0381351690602001356113f3565b3480156104cc57600080fd5b5061042c611680565b3480156104e157600080fd5b5061042c61168f565b3480156104f657600080fd5b506103eb6004803603604081101561050d57600080fd5b50803590602001356116a7565b34801561052657600080fd5b506103466004803603602081101561053d57600080fd5b5035600160a060020a0316611764565b34801561055957600080fd5b506105836004803603606081101561057057600080fd5b5080359060208101359060400135611776565b6040805192835260208301919091528051918290030190f35b3480156105a857600080fd5b506105cf600480360360208110156105bf57600080fd5b5035600160a060020a031661181d565b604080519115158252519081900360200190f35b3480156105ef57600080fd5b5061042c611828565b34801561060457600080fd5b506103466004803603602081101561061b57600080fd5b503561183c565b34801561062e57600080fd5b50610637611851565b604051808060200180602001838103835285818151815260200191508051906020019060200280838360005b8381101561067b578181015183820152602001610663565b50505050905001838103825284818151815260200191508051906020019060200280838360005b838110156106ba5781810151838201526020016106a2565b5050505090500194505050505060405180910390f35b3480156106dc57600080fd5b50610346600480360360208110156106f357600080fd5b5035600160a060020a03166119a4565b34801561070f57600080fd5b506103eb6004803603606081101561072657600080fd5b81359160208101359181019060608101604082013564010000000081111561074d57600080fd5b82018360208201111561075f57600080fd5b8035906020019184600183028401116401000000008311171561078157600080fd5b91908080601f0160208091040260200160405190810160405280939291908181526020018383808284376000920191909152509295506119b6945050505050565b3480156107ce57600080fd5b506107d7611c29565b6040805160208082528351818301528351919283929083019185019080838360005b838110156108115781810151838201526020016107f9565b50505050905090810190601f16801561083e5780820380516001836020036101000a031916815260200191505b509250505060405180910390f35b34801561085857600080fd5b506108766004803603602081101561086f57600080fd5b5035611c45565b604051808d81526020018c81526020018b81526020018a815260200189815260200188600160a060020a0316600160a060020a0316815260200187600160a060020a0316600160a060020a031681526020018660038111156108d457fe5b60ff1681526020018581526020018481526020018381526020018281526020019c5050505050505050505050505060405180910390f35b34801561091757600080fd5b506103eb6004803603602081101561092e57600080fd5b5035611cb1565b34801561094157600080fd5b506103eb611d9c565b34801561095657600080fd5b506103466004803603602081101561096d57600080fd5b5035600160a060020a0316611e53565b34801561098957600080fd5b5061042c611e65565b34801561099e57600080fd5b50610346600480360360208110156109b557600080fd5b5035611e74565b6103eb600480360360c08110156109d257600080fd5b600160a060020a038235169160208101359160408201359160608101359160808201351515919081019060c0810160a0820135640100000000811115610a1757600080fd5b820183602082011115610a2957600080fd5b80359060200191846001830284011164010000000083111715610a4b57600080fd5b509092509050611f29565b348015610a6257600080fd5b506103eb60048036036020811015610a7957600080fd5b5035600160a060020a03166122ac565b348015610a9557600080fd5b506103eb6004803603610100811015610aad57600080fd5b50600160a060020a038135811691602081013582169160408201358116916060810135821691608082013581169160a081013582169160c082013581169160e0013516612417565b348015610b0157600080fd5b5061042c61257c565b348015610b1657600080fd5b506103eb60048036036020811015610b2d57600080fd5b503561258b565b348015610b4057600080fd5b506106376125fe565b348015610b5557600080fd5b5061042c612914565b348015610b6a57600080fd5b506103eb612923565b348015610b7f57600080fd5b5061034661297e565b348015610b9457600080fd5b506103eb60048036036020811015610bab57600080fd5b5035612984565b6103eb60048036036040811015610bc857600080fd5b50600160a060020a038135169060200135612a40565b348015610bea57600080fd5b506103eb60048036036020811015610c0157600080fd5b5035612aa1565b348015610c1457600080fd5b506103eb60048036036060811015610c2b57600080fd5b50600160a060020a0381351690602081013590604001351515612b01565b6103eb60048036036040811015610c5f57600080fd5b5080359060200135612d27565b348015610c7857600080fd5b506105cf60048036036060811015610c8f57600080fd5b5080359060208101359060400135600160a060020a0316613140565b348015610cb757600080fd5b506105cf613262565b348015610ccc57600080fd5b506103eb60048036036040811015610ce357600080fd5b508035906020013561326b565b348015610cfc57600080fd5b506103eb60048036036040811015610d1357600080fd5b5080359060200135613395565b348015610d2c57600080fd5b506103eb60048036036020811015610d4357600080fd5b5035613444565b348015610d5657600080fd5b506103eb60048036036040811015610d6d57600080fd5b5080359060200135613804565b348015610d8657600080fd5b5061034660048036036020811015610d9d57600080fd5b5035600160a060020a03166139a3565b348015610db957600080fd5b506103466139be565b348015610dce57600080fd5b5061042c6139c4565b348015610de357600080fd5b506103eb60048036036020811015610dfa57600080fd5b5035600160a060020a03166139d3565b348015610e1657600080fd5b506103eb613ae4565b348015610e2b57600080fd5b5061042c613b3d565b600b54604080517f2f745c59000000000000000000000000000000000000000000000000000000008152600160a060020a038481166004830152600060248301819052925192931691632f745c5991604480820192602092909190829003018186803b158015610ea357600080fd5b505afa158015610eb7573d6000803e3d6000fd5b505050506040513d6020811015610ecd57600080fd5b505190505b919050565b6000818152600f602052604081208054600a820154600583015460068401546001948501548695869586958695869592949193600160a060020a039182169390911691610f299163ffffffff613b5116565b60008c8152600f6020526040902060090154610f4c90600163ffffffff613b5116565b949c939b5091995097509550909350915050565b600b546040805160e160020a6331a9108f02815260048101849052905183923392600160a060020a0390911691636352211e91602480820192602092909190829003018186803b158015610fb357600080fd5b505afa158015610fc7573d6000803e3d6000fd5b505050506040513d6020811015610fdd57600080fd5b5051600160a060020a031614610ff257600080fd5b60026000838152600f602052604090206006015460a060020a900460ff16600381111561101b57fe5b14611070576040805160e560020a62461bcd02815260206004820152600a60248201527f4e6f74206a61696c656400000000000000000000000000000000000000000000604482015290519081900360640190fd5b6000828152600f6020526040902060030154156110d7576040805160e560020a62461bcd02815260206004820152601160248201527f416c726561647920756e7374616b696e67000000000000000000000000000000604482015290519081900360640190fd5b60006110e24361183c565b6000848152600f602052604090206004015490915081101561114e576040805160e560020a62461bcd02815260206004820152601660248201527f496e636f6d706c657465206a61696c20706572696f6400000000000000000000604482015290519081900360640190fd5b6000838152600f602052604090205460045481101561116c57600080fd5b6000848152600f6020526040902060060154600160a060020a031680156111e45780600160a060020a0316636c559b586040518163ffffffff1660e060020a028152600401600060405180830381600087803b1580156111cb57600080fd5b505af11580156111df573d6000803e3d6000fd5b505050505b6000858152600f602052604080822060068101805460a060020a60ff02191660a060020a17905560050154600c5482517ff92ec5af000000000000000000000000000000000000000000000000000000008152600481018a9052600160a060020a039283166024820181905293519394929091169263f92ec5af9260448084019391929182900301818387803b15801561127d57600080fd5b505af1158015611291573d6000803e3d6000fd5b50505050505050505050565b60065481565b600e81815481106112b057fe5b600091825260209091200154600160a060020a0316905081565b600a54600160a060020a031681565b600b546040805160e160020a6331a9108f02815260048101849052905183923392600160a060020a0390911691636352211e91602480820192602092909190829003018186803b15801561132c57600080fd5b505afa158015611340573d6000803e3d6000fd5b505050506040513d602081101561135657600080fd5b5051600160a060020a03161461136b57600080fd5b6000828152600f60205260409020600681015460039091015460a060020a90910460ff16901580156113bd575060018160038111156113a657fe5b14806113bd575060028160038111156113bb57fe5b145b6113c657600080fd5b60006113d14361183c565b90506113ed846113e883600163ffffffff613bb116565b613c15565b50505050565b600033600160a060020a0316600960009054906101000a9004600160a060020a0316600160a060020a0316634aa1a09f6040518163ffffffff1660e060020a02815260040160206040518083038186803b15801561145057600080fd5b505afa158015611464573d6000803e3d6000fd5b505050506040513d602081101561147a57600080fd5b5051600160a060020a03161461148f57600080fd5b600160a060020a038316600090815260106020526040902054806114fd576040805160e560020a62461bcd02815260206004820152600860248201527f6e6f206d696e6572000000000000000000000000000000000000000000000000604482015290519081900360640190fd5b82156115c65760008311801561153657506000818152600f602052604090206001908101548491611534919063ffffffff613b5116565b115b61158a576040805160e560020a62461bcd02815260206004820152601760248201527f74686520616d6f756e7420697320746f6f206269672021000000000000000000604482015290519081900360640190fd5b6000818152600f60205260409020600101546115ac908463ffffffff613b5116565b6000918252600f602052604090912060010155508061167a565b82611674576000818152600f6020526040902060019081015411611634576040805160e560020a62461bcd02815260206004820152601560248201527f74686520616d6f756e7420697320746f6f206269670000000000000000000000604482015290519081900360640190fd5b6000818152600f602052604081206001908101546116579163ffffffff613b5116565b6000928352600f602052604090922060019081015550905061167a565b60009150505b92915050565b600b54600160a060020a031681565b73fffffffffffffffffffffffffffffffffffffffe81565b6013546101009004600160a060020a031633146116f85760405160e560020a62461bcd02815260040180806020018281038252602681526020018061563f6026913960400191505060405180910390fd5b6000821180156117085750600081115b61175c576040805160e560020a62461bcd02815260206004820152600d60248201527f64656c617920746f6f206c6f7700000000000000000000000000000000000000604482015290519081900360640190fd5b600655600755565b60106020526000908152604090205481565b6000808061178a858563ffffffff613bb116565b905060006117b3826117a760055489613cba90919063ffffffff16565b9063ffffffff613d1616565b905086156117f8576117f56117e860646117a78a6117dc86600554613b5190919063ffffffff16565b9063ffffffff613cba16565b829063ffffffff613bb116565b90505b60055460009061180e908363ffffffff613b5116565b91989197509095505050505050565b600061167a82613d80565b6013546101009004600160a060020a031681565b6000805461167a90839063ffffffff613d1616565b60608061185c615491565b61187d6040518060800160405280604781526020016155d760479139613ee2565b5060208101515190915060608167ffffffffffffffff811180156118a057600080fd5b506040519080825280602002602001820160405280156118ca578160200160208202803683370190505b50905060608267ffffffffffffffff811180156118e657600080fd5b50604051908082528060200260200182016040528015611910578160200160208202803683370190505b50905060005b83811015611997578460200151818151811061192e57fe5b60200260200101516000015183828151811061194657fe5b600160a060020a0390921660209283029190910182015285015180518290811061196c57fe5b60200260200101516020015182828151811061198457fe5b6020908102919091010152600101611916565b50909450925050505b9091565b60116020526000908152604090205481565b60006110009050600081600160a060020a031663e8b236ca6040518163ffffffff1660e060020a02815260040160206040518083038186803b1580156119fb57600080fd5b505afa158015611a0f573d6000803e3d6000fd5b505050506040513d6020811015611a2557600080fd5b5051604080513360208281019190915281830189905282518083038401815260609092019092528051910120909150611a669085838663ffffffff61405216565b611aba576040805160e560020a62461bcd02815260206004820152600f60248201527f57726f6e67206163632070726f6f660000000000000000000000000000000000604482015290519081900360640190fd5b33600090815260126020526040812054611adb90879063ffffffff613b5116565b33600090815260116020526040902054909150811115611b45576040805160e560020a62461bcd02815260206004820152600d60248201527f6e6f20656e6f7567682066656500000000000000000000000000000000000000604482015290519081900360640190fd5b3360009081526012602090815260408083208990556011909152902054611b72908263ffffffff613b5116565b3360008181526011602052604080822093909355915183908381818185875af1925050503d8060008114611bc2576040519150601f19603f3d011682016040523d82523d6000602084013e611bc7565b606091505b5050905080611c20576040805160e560020a62461bcd02815260206004820152601460248201527f4661696c656420746f20636c61696d206e656c61000000000000000000000000604482015290519081900360640190fd5b50505050505050565b6040518060800160405280604781526020016155d76047913981565b600f60205260009081526040902080546001820154600283015460038401546004850154600586015460068701546007880154600889015460098a0154600a909a015498999798969795969495600160a060020a03948516959484169460a060020a90940460ff16938c565b6013546101009004600160a060020a03163314611d025760405160e560020a62461bcd02815260040180806020018281038252602681526020018061563f6026913960400191505060405180910390fd5b80611d0c57600080fd5b600c54600154604080517ff1980a5000000000000000000000000000000000000000000000000000000000815260048101859052602481019290925251600160a060020a039092169163f1980a509160448082019260009290919082900301818387803b158015611d7c57600080fd5b505af1158015611d90573d6000803e3d6000fd5b50505060019190915550565b611da46141bf565b601454600160a060020a03908116911614611e09576040805160e560020a62461bcd02815260206004820181905260248201527f4f776e61626c653a2063616c6c6572206973206e6f7420746865206f776e6572604482015290519081900360640190fd5b601454604051600091600160a060020a0316907f8be0079c531659141344cd1fd0a4f28419497f9722a3daafe3b4186f6b6457e0908390a360148054600160a060020a0319169055565b60126020526000908152604090205481565b600954600160a060020a031681565b6000818152600f60205260408120600601548290600160a060020a03163314611ee7576040805160e560020a62461bcd02815260206004820152601860248201527f496e76616c696420636f6e747261637420616464726573730000000000000000604482015290519081900360640190fd5b6000838152600f6020526040812060090154611f0a90600163ffffffff613b5116565b6000858152600f60205260409020600160099091015592505050919050565b60135460ff1615611f84576040805160e560020a62461bcd02815260206004820152600660248201527f6c6f636b65640000000000000000000000000000000000000000000000000000604482015290519081900360640190fd5b600154600e5410611fdf576040805160e560020a62461bcd02815260206004820152600d60248201527f6e6f206d6f726520736c6f747300000000000000000000000000000000000000604482015290519081900360640190fd5b600454861015612039576040805160e560020a62461bcd02815260206004820152601260248201527f6e6f7420656e6f756768206465706f7369740000000000000000000000000000604482015290519081900360640190fd5b853414612090576040805160e560020a62461bcd02815260206004820152601360248201527f496e73756666696369656e7420616d6f756e7400000000000000000000000000604482015290519081900360640190fd5b848611801561209f5750600085115b6120f3576040805160e560020a62461bcd02815260206004820152601960248201527f66656520697320626967676572207468616e20616d6f756e7400000000000000604482015290519081900360640190fd5b600284101561214c576040805160e560020a62461bcd02815260206004820152601760248201527f73746f7261676550726f6d6973652069732077726f6e67000000000000000000604482015290519081900360640190fd5b600061215e878763ffffffff613b5116565b905061216a88876141c3565b600d54604080517f20edccbc000000000000000000000000000000000000000000000000000000008152600160a060020a038b811660048301526000602483015260448201859052915191909216916320edccbc916064808301926020929190829003018186803b1580156121de57600080fd5b505afa1580156121f2573d6000803e3d6000fd5b505050506040513d602081101561220857600080fd5b505161225e576040805160e560020a62461bcd02815260206004820152601b60248201527f6e6f20656e6f756768207374616b6520656c69676962696c6974790000000000604482015290519081900360640190fd5b6122a18882878787878080601f01602080910402602001604051908101604052809392919081815260200183838082843760009201919091525061428092505050565b505050505050505050565b3373fffffffffffffffffffffffffffffffffffffffe14612317576040805160e560020a62461bcd02815260206004820152601260248201527f4e6f742053797374656d20416464657373210000000000000000000000000000604482015290519081900360640190fd5b600061232282613d80565b9050801561241357600160a060020a03808316600090815260106020908152604080832054808452600f90925290912060068101549192909116156123bf576007810154600a820154825460008061237b858486611776565b60018801549193509150612395908363ffffffff613bb116565b600187015560098601546123af908263ffffffff613bb116565b6009870155506123dc9350505050565b60055460018201546123d69163ffffffff613bb116565b60018201555b604051600160a060020a038516907f950604e96454728234a78292f3bc89442421260439113adec0162b34652ff9c090600090a250505b5050565b60145460a060020a900460ff1615612479576040805160e560020a62461bcd02815260206004820152600e60248201527f616c726561647920696e69746564000000000000000000000000000000000000604482015290519081900360640190fd5b6014805460a060020a60ff02191660a060020a1790556007600181815560038190556008805460ff19169091179055670de0b6b3a7640000600455674563918244f4000060059081556078600655905560406000556124d788614717565b6013805474ffffffffffffffffffffffffffffffffffffffff0019908116610100600160a060020a0388811682029290921790935560088054909216898216909302929092179055600a8054600160a060020a0319908116858416179091556009805482168a8416179055600b80548216888416179055600c80548216868416179055600d8054909116918316919091179055612572614769565b5050505050505050565b601454600160a060020a031690565b6013546101009004600160a060020a031633146125dc5760405160e560020a62461bcd02815260040180806020018281038252602681526020018061563f6026913960400191505060405180910390fd5b60006125e74361183c565b9050612413826113e883600163ffffffff613bb116565b601454606090819060a060020a900460ff161561290357600060015b60016003540381116127145761262e6154a9565b6000828152600f6020908152604091829020825161018081018452815481526001820154928101929092526002810154928201929092526003808301546060830152600483015460808301526005830154600160a060020a0390811660a0840152600684015490811660c084015291929160e084019160a060020a90910460ff16908111156126b957fe5b60038111156126c457fe5b8152602001600782015481526020016008820154815260200160098201548152602001600a8201548152505090506126ff8160a00151613d80565b1561270b576001909201915b5060010161261a565b5060608167ffffffffffffffff8111801561272e57600080fd5b50604051908082528060200260200182016040528015612758578160200160208202803683370190505b50905060608267ffffffffffffffff8111801561277457600080fd5b5060405190808252806020026020018201604052801561279e578160200160208202803683370190505b5060009350905060015b60016003540381116128f6576127bc6154a9565b6000828152600f6020908152604091829020825161018081018452815481526001820154928101929092526002810154928201929092526003808301546060830152600483015460808301526005830154600160a060020a0390811660a0840152600684015490811660c084015291929160e084019160a060020a90910460ff169081111561284757fe5b600381111561285257fe5b8152602001600782015481526020016008820154815260200160098201548152602001600a82015481525050905061288d8160a00151613d80565b156128ed578060a001518486815181106128a357fe5b6020026020010190600160a060020a03169081600160a060020a0316815250508061016001518160000151018386815181106128db57fe5b60209081029190910101526001909401935b506001016127a8565b5090935091506119a09050565b61290b611851565b915091506119a0565b600d54600160a060020a031681565b6013546101009004600160a060020a031633146129745760405160e560020a62461bcd02815260040180806020018281038252602681526020018061563f6026913960400191505060405180910390fd5b61297c614ab7565b565b60075490565b6013546101009004600160a060020a031633146129d55760405160e560020a62461bcd02815260040180806020018281038252602681526020018061563f6026913960400191505060405180910390fd5b604081101580156129e7575060408106155b612a3b576040805160e560020a62461bcd02815260206004820152601460248201527f7370616e4475726174696f6e20746f6f206c6f77000000000000000000000000604482015290519081900360640190fd5b600055565b803414612a97576040805160e560020a62461bcd02815260206004820152600c60248201527f6665652069732077726f6e670000000000000000000000000000000000000000604482015290519081900360640190fd5b61241382826141c3565b6013546101009004600160a060020a03163314612af25760405160e560020a62461bcd02815260040180806020018281038252602681526020018061563f6026913960400191505060405180910390fd5b80612afc57600080fd5b600555565b600954604080517f7b29244700000000000000000000000000000000000000000000000000000000815290513392600160a060020a031691637b292447916004808301926020929190829003018186803b158015612b5e57600080fd5b505afa158015612b72573d6000803e3d6000fd5b505050506040513d6020811015612b8857600080fd5b5051600160a060020a031614612b9d57600080fd5b600160a060020a03808416600090815260106020908152604080832054808452600f909252909120600601549091168015612c95576000828152600f602090815260408083208054600a9091015482517f6cbb605000000000000000000000000000000000000000000000000000000000815260048101929092526024820152604481018890529051600160a060020a03851692636cbb6050926064808201939182900301818787803b158015612c5357600080fd5b505af1158015612c67573d6000803e3d6000fd5b505050506040513d6020811015612c7d57600080fd5b50519050612c91858263ffffffff613b5116565b9450505b8215612ca457612ca482614ac3565b6000828152600f6020526040902054841015612ced576000828152600f6020526040902054612cd9908563ffffffff613b5116565b6000838152600f6020526040902055612d20565b6000828152600f60205260408120819055612d074361183c565b9050612d1e836113e883600163ffffffff613bb116565b505b5050505050565b60135460ff1615612d82576040805160e560020a62461bcd02815260206004820152600660248201527f6c6f636b65640000000000000000000000000000000000000000000000000000604482015290519081900360640190fd5b600b546040805160e160020a6331a9108f02815260048101859052905184923392600160a060020a0390911691636352211e91602480820192602092909190829003018186803b158015612dd557600080fd5b505afa158015612de9573d6000803e3d6000fd5b505050506040513d6020811015612dff57600080fd5b5051600160a060020a031614612e1457600080fd5b6000838152600f602052604090206003015415612e7b576040805160e560020a62461bcd02815260206004820152600c60248201527f4e6f2072657374616b696e670000000000000000000000000000000000000000604482015290519081900360640190fd5b3415801590612e8957508134145b612edd576040805160e560020a62461bcd02815260206004820152601260248201527f6d73672e76616c75652069732077726f6e670000000000000000000000000000604482015290519081900360640190fd5b600d546000848152600f60209081526040918290206005810154905483517f20edccbc000000000000000000000000000000000000000000000000000000008152600160a060020a03928316600482015260248101919091526044810187905292519316926320edccbc926064808201939291829003018186803b158015612f6457600080fd5b505afa158015612f78573d6000803e3d6000fd5b505050506040513d6020811015612f8e57600080fd5b5051612fe4576040805160e560020a62461bcd02815260206004820152601b60248201527f6e6f20656e6f756768207374616b6520656c69676962696c6974790000000000604482015290519081900360640190fd5b600254600090612ffa908463ffffffff613bb116565b60028190556000858152600f602052604081205491925090613022908563ffffffff613bb116565b6000868152600f6020526040808220839055600c5481517f532e19a9000000000000000000000000000000000000000000000000000000008152600481018a90529151939450600160a060020a03169263532e19a99260248084019391929182900301818387803b15801561309657600080fd5b505af11580156130aa573d6000803e3d6000fd5b5050600c546000888152600f60205260408082205481517f5616a7cc000000000000000000000000000000000000000000000000000000008152600481018c90526024810191909152604481018890529051600160a060020a039093169450635616a7cc93506064808201939182900301818387803b15801561312c57600080fd5b505af11580156122a1573d6000803e3d6000fd5b6000838152600f6020526040812060060154600160a060020a031633146131b1576040805160e560020a62461bcd02815260206004820152600b60248201527f6e6f7420616c6c6f776564000000000000000000000000000000000000000000604482015290519081900360640190fd5b604051600090600160a060020a0384169085908381818185875af1925050503d80600081146131fc576040519150601f19603f3d011682016040523d82523d6000602084013e613201565b606091505b505090508061325a576040805160e560020a62461bcd02815260206004820152601460248201527f4661696c656420746f207374616b65204e656c61000000000000000000000000604482015290519081900360640190fd5b949350505050565b60135460ff1681565b6000828152600f60205260409020600601548290600160a060020a031633146132de576040805160e560020a62461bcd02815260206004820152601860248201527f496e76616c696420636f6e747261637420616464726573730000000000000000604482015290519081900360640190fd5b60008213156133415760085460ff16613341576040805160e560020a62461bcd02815260206004820152601660248201527f44656c65676174696f6e2069732064697361626c656400000000000000000000604482015290519081900360640190fd5b60008212613382576000838152600f60205260409020600a015461336b908363ffffffff613bb116565b6000848152600f60205260409020600a0155613390565b613390838360001902613395565b505050565b6000828152600f60205260409020600601548290600160a060020a03163314613408576040805160e560020a62461bcd02815260206004820152601860248201527f496e76616c696420636f6e747261637420616464726573730000000000000000604482015290519081900360640190fd5b6000838152600f60205260409020600a015461342a908363ffffffff613b5116565b6000938452600f6020526040909320600a01929092555050565b600b546040805160e160020a6331a9108f02815260048101849052905183923392600160a060020a0390911691636352211e91602480820192602092909190829003018186803b15801561349757600080fd5b505afa1580156134ab573d6000803e3d6000fd5b505050506040513d60208110156134c157600080fd5b5051600160a060020a0316146134d657600080fd5b60135460ff1615613531576040805160e560020a62461bcd02815260206004820152600660248201527f6c6f636b65640000000000000000000000000000000000000000000000000000604482015290519081900360640190fd5b6000828152600f602052604081206003810154905490916135514361183c565b905060008311801561358a575060036000868152600f602052604090206006015460a060020a900460ff16600381111561358757fe5b14155b80156135aa5750806135a760075485613bb190919063ffffffff16565b11155b6135e85760405160e560020a62461bcd02815260040180806020018281038252603881526020018061559f6038913960400191505060405180910390fd5b6000858152600f6020526040902060019081015461360b9163ffffffff613b5116565b15613660576040805160e560020a62461bcd02815260206004820152601f60248201527f5468657265206172652072657761726473206e6f742065787472616374656400604482015290519081900360640190fd5b600b54604080517f42966c68000000000000000000000000000000000000000000000000000000008152600481018890529051600160a060020a03909216916342966c689160248082019260009290919082900301818387803b1580156136c657600080fd5b505af11580156136da573d6000803e3d6000fd5b5050506000868152600f6020908152604082208281556004810183905560068101805460a060020a60ff021916740300000000000000000000000000000000000000001790556005018054600160a060020a031916905590805260109052506000197f6e0956cda88cad152e89927e53611735b61a5c762d1428573c6931b0a5efcb01558115612d2057604051600090339084908381818185875af1925050503d80600081146137a6576040519150601f19603f3d011682016040523d82523d6000602084013e6137ab565b606091505b5050905080612d1e576040805160e560020a62461bcd02815260206004820152601460248201527f4661696c656420746f20636c61696d206e656c61000000000000000000000000604482015290519081900360640190fd5b600b546040805160e160020a6331a9108f02815260048101859052905184923392600160a060020a0390911691636352211e91602480820192602092909190829003018186803b15801561385757600080fd5b505afa15801561386b573d6000803e3d6000fd5b505050506040513d602081101561388157600080fd5b5051600160a060020a03161461389657600080fd5b60006138a14361183c565b6000858152600f60205260409020600801549091508015806138d75750816138d460065483613bb190919063ffffffff16565b11155b61392b576040805160e560020a62461bcd02815260206004820152600860248201527f436f6f6c646f776e000000000000000000000000000000000000000000000000604482015290519081900360640190fd5b6064841115613984576040805160e560020a62461bcd02815260206004820152600f60248201527f496e636f72726563742076616c75650000000000000000000000000000000000604482015290519081900360640190fd5b506000938452600f602052604090932060078101929092555060080155565b600160a060020a031660009081526010602052604090205490565b60075481565b600c54600160a060020a031681565b6139db6141bf565b601454600160a060020a03908116911614613a40576040805160e560020a62461bcd02815260206004820181905260248201527f4f776e61626c653a2063616c6c6572206973206e6f7420746865206f776e6572604482015290519081900360640190fd5b600160a060020a038116613a885760405160e560020a62461bcd0281526004018080602001828103825260268152602001806155796026913960400191505060405180910390fd5b601454604051600160a060020a038084169216907f8be0079c531659141344cd1fd0a4f28419497f9722a3daafe3b4186f6b6457e090600090a360148054600160a060020a031916600160a060020a0392909216919091179055565b6013546101009004600160a060020a03163314613b355760405160e560020a62461bcd02815260040180806020018281038252602681526020018061563f6026913960400191505060405180910390fd5b61297c614c21565b6008546101009004600160a060020a031681565b600082821115613bab576040805160e560020a62461bcd02815260206004820152601e60248201527f536166654d6174683a207375627472616374696f6e206f766572666c6f770000604482015290519081900360640190fd5b50900390565b600082820183811015613c0e576040805160e560020a62461bcd02815260206004820152601b60248201527f536166654d6174683a206164646974696f6e206f766572666c6f770000000000604482015290519081900360640190fd5b9392505050565b6000828152600f6020526040902060068101546003909101829055600160a060020a03168015613c965780600160a060020a03166374bec0c96040518163ffffffff1660e060020a028152600401600060405180830381600087803b158015613c7d57600080fd5b505af1158015613c91573d6000803e3d6000fd5b505050505b6000838152600f602052604090206005015461339090600160a060020a0316614c30565b600082613cc95750600061167a565b82820282848281613cd657fe5b0414613c0e5760405160e560020a62461bcd02815260040180806020018281038252602181526020018061561e6021913960400191505060405180910390fd5b6000808211613d6f576040805160e560020a62461bcd02815260206004820152601a60248201527f536166654d6174683a206469766973696f6e206279207a65726f000000000000604482015290519081900360640190fd5b818381613d7857fe5b049392505050565b600160a060020a03811660009081526010602052604081205480613da8576000915050610ed2565b6000613db34361183c565b9050613dbd6154a9565b6000838152600f6020908152604091829020825161018081018452815481526001820154928101929092526002810154928201929092526003808301546060830152600483015460808301526005830154600160a060020a0390811660a0840152600684015490811660c084015291929160e084019160a060020a90910460ff1690811115613e4857fe5b6003811115613e5357fe5b8152602001600782015481526020016008820154815260200160098201548152602001600a820154815250509050806040015160001480613e975750818160400151105b8015613ea35750805115155b8015613ebe575060608101511580613ebe5750818160600151115b8015613ed9575060018160e001516003811115613ed757fe5b145b95945050505050565b613eea615491565b6000613ef4615491565b613efc615527565b613f0d613f0886614d2b565b614d50565b90506000805b613f1c83614d9a565b156140445780613f4157613f37613f3284614dbb565b614e09565b60ff16845261403c565b8060011415614037576060613f5d613f5885614dbb565b614ec3565b9050805167ffffffffffffffff81118015613f7757600080fd5b50604051908082528060200260200182016040528015613fb157816020015b613f9e615547565b815260200190600190039081613f965790505b50602086015260005b815181101561402c57613fcb615547565b6000613fe9848481518110613fdc57fe5b6020026020010151614fab565b91509150806140065787600099509950505050505050505061404d565b818860200151848151811061401757fe5b60209081029190910101525050600101613fba565b50600192505061403c565b614044565b600101613f13565b50919350909150505b915091565b6000602082518161405f57fe5b06156140b5576040805160e560020a62461bcd02815260206004820152601460248201527f496e76616c69642070726f6f66206c656e677468000000000000000000000000604482015290519081900360640190fd5b600060208351816140c257fe5b0490508060020a851061411f576040805160e560020a62461bcd02815260206004820152601560248201527f4c65616620696e64657820697320746f6f206269670000000000000000000000604482015290519081900360640190fd5b60008660205b855181116141b1578581015192506002880661417157818360405160200180838152602001828152602001925050506040516020818303038152906040528051906020012091506141a3565b828260405160200180838152602001828152602001925050506040516020818303038152906040528051906020012091505b600288049750602001614125565b509094149695505050505050565b3390565b600160a060020a0382166000908152601160205260409020546141ec908263ffffffff613bb116565b600160a060020a0380841660008181526011602052604080822094909455600c5484517fa449d7950000000000000000000000000000000000000000000000000000000081526004810193909352602483018690529351939092169263a449d7959260448084019391929182900301818387803b15801561426c57600080fd5b505af1158015612d1e573d6000803e3d6000fd5b60008061428c8361502f565b600354600c5491925090600160a060020a031660006142bb60016142af4361183c565b9063ffffffff613bb116565b6002549091506142d1908a63ffffffff613bb116565b6002819055506040518061018001604052808a815260200160018152602001828152602001600081526020016000815260200185600160a060020a031681526020018861431f5760006143d0565b600a54600954600d54604080517fc125bdd7000000000000000000000000000000000000000000000000000000008152600481018a9052600160a060020a0389811660248301529384166044820152918316606483015251919092169163c125bdd79160848083019260209291908290030181600087803b1580156143a357600080fd5b505af11580156143b7573d6000803e3d6000fd5b505050506040513d60208110156143cd57600080fd5b50515b600160a060020a031681526020016001815260056020808301829052600060408085018290526001606080870182905260809687018490528a8452600f855292829020875181559387015190840155850151600283015584015160038083019190915592840151600482015560a08401519181018054600160a060020a03938416600160a060020a03199182161790915560c08501516006830180549190941691161780835560e0850151919391929160a060020a60ff02199091169060a060020a90849081111561449e57fe5b021790555061010082015160078201556101208201516008820155610140820151600982015561016090910151600a90910155600b54604080517f40c10f19000000000000000000000000000000000000000000000000000000008152600160a060020a038d8116600483015260248201879052915191909216916340c10f1991604480830192600092919082900301818387803b15801561453f57600080fd5b505af1158015614553573d6000803e3d6000fd5b505050600160a060020a03808616600090815260106020526040808220879055600d5481517fcfacc8dc0000000000000000000000000000000000000000000000000000000081528f85166004820152602481018e905291519316935063cfacc8dc926044808301939282900301818387803b1580156145d257600080fd5b505af11580156145e6573d6000803e3d6000fd5b5050505081600160a060020a03166333a8383c858886858e6002546040518763ffffffff1660e060020a0281526004018087600160a060020a0316600160a060020a0316815260200180602001868152602001858152602001848152602001838152602001828103825287818151815260200191508051906020019080838360005b83811015614680578181015183820152602001614668565b50505050905090810190601f1680156146ad5780820380516001836020036101000a031916815260200191505b50975050505050505050600060405180830381600087803b1580156146d157600080fd5b505af11580156146e5573d6000803e3d6000fd5b505050506146fd600184613bb190919063ffffffff16565b60035561470984615113565b509098975050505050505050565b60148054600160a060020a03838116600160a060020a0319831681179093556040519116919082907f8be0079c531659141344cd1fd0a4f28419497f9722a3daafe3b4186f6b6457e090600090a35050565b614771615491565b6147926040518060800160405280604781526020016155d760479139613ee2565b50905060005b816020015151811015612413576000826020015182815181106147b757fe5b60200260200101516020015190506000836020015183815181106147d757fe5b60200260200101516000015190506147fa82600254613bb190919063ffffffff16565b6002556003546040805161018081018252848152600160208083019190915260008284018190526060830181905260808301819052600160a060020a0380871660a0850152600a54600c54600954600d5488517fc125bdd7000000000000000000000000000000000000000000000000000000008152600481018b905292851660248401529084166044830152831660648201529551949560c0870195919092169363c125bdd7936084808501949293928390030190829087803b1580156148c157600080fd5b505af11580156148d5573d6000803e3d6000fd5b505050506040513d60208110156148eb57600080fd5b5051600160a060020a03168152602001600181526005602080830182905260006040808501829052600160608087018290526080968701849052888452600f855292829020875181559387015190840155850151600283015584015160038083019190915592840151600482015560a08401519181018054600160a060020a03938416600160a060020a03199182161790915560c08501516006830180549190941691161780835560e0850151919391929160a060020a60ff02199091169060a060020a9084908111156149bb57fe5b021790555061010082015160078201556101208201516008820155610140820151600982015561016090910151600a90910155600b54604080517f40c10f19000000000000000000000000000000000000000000000000000000008152600160a060020a03858116600483015260248201859052915191909216916340c10f1991604480830192600092919082900301818387803b158015614a5c57600080fd5b505af1158015614a70573d6000803e3d6000fd5b505050600160a060020a038316600090815260106020526040902082905550614aa081600163ffffffff613bb116565b600355614aac82615113565b505050600101614798565b6013805460ff19169055565b6000818152600f6020526040902060060154600160a060020a03168015614b3b5780600160a060020a03166374bec0c96040518163ffffffff1660e060020a028152600401600060405180830381600087803b158015614b2257600080fd5b505af1158015614b36573d6000803e3d6000fd5b505050505b6000614b464361183c565b9050614b5981600163ffffffff613bb116565b6000848152600f602052604080822060048082019490945560068101805460a060020a60ff02191674020000000000000000000000000000000000000000179055600c5460059091015482517f81dc101b00000000000000000000000000000000000000000000000000000000815294850188905260248501869052600160a060020a03908116604486015291519116926381dc101b92606480830193919282900301818387803b158015614c0d57600080fd5b505af1158015611c20573d6000803e3d6000fd5b6013805460ff19166001179055565b600e8054906000906000198301838110614c4657fe5b600091825260209091200154600e8054600160a060020a0390921692509080614c6b57fe5b60008281526020902081016000199081018054600160a060020a031916905590810190915582015b80156113ed5783600160a060020a031682600160a060020a03161415614cb8576113ed565b600e6001820381548110614cc857fe5b9060005260206000200160009054906101000a9004600160a060020a031682600e6001840381548110614cf757fe5b60009182526020909120018054600160a060020a031916600160a060020a0392909216919091179055915060001901614c93565b614d3361555e565b506040805180820190915281518152602082810190820152919050565b614d58615527565b614d618261522d565b614d6a57600080fd5b6000614d798360200151615267565b60208085015160408051808201909152868152920190820152915050919050565b6000614da461555e565b505080518051602091820151919092015191011190565b614dc361555e565b614dcc82614d9a565b614dd557600080fd5b60208201516000614de5826152ca565b80830160209586015260408051808201909152908152938401919091525090919050565b805160009015801590614e1e57508151602110155b614e2757600080fd5b6000614e368360200151615267565b90508083600001511015614e94576040805160e560020a62461bcd02815260206004820152601a60248201527f6c656e677468206973206c657373207468616e206f6666736574000000000000604482015290519081900360640190fd5b825160208085015183018051928490039291831015614eba57826020036101000a820491505b50949350505050565b6060614ece8261522d565b614ed757600080fd5b6000614ee28361541b565b905060608167ffffffffffffffff81118015614efd57600080fd5b50604051908082528060200260200182016040528015614f3757816020015b614f2461555e565b815260200190600190039081614f1c5790505b5090506000614f498560200151615267565b60208601510190506000805b84811015614fa057614f66836152ca565b9150604051806040016040528083815260200184815250848281518110614f8957fe5b602090810291909101015291810191600101614f55565b509195945050505050565b614fb3615547565b6000614fbd615547565b614fc5615527565b614fce85614d50565b90506000805b614fdd83614d9a565b15614044578061500857614ff8614ff384614dbb565b615477565b600160a060020a03168452615027565b80600114156140375761501d613f3284614dbb565b6020850152600191505b600101614fd4565b6000815160401461508a576040805160e560020a62461bcd02815260206004820152600760248201527f6e6f742070756200000000000000000000000000000000000000000000000000604482015290519081900360640190fd5b81516020830120600160a060020a038116158015906150bf5750600160a060020a038116600090815260106020526040902054155b61167a576040805160e560020a62461bcd02815260206004820152600e60248201527f496e76616c6964207369676e6572000000000000000000000000000000000000604482015290519081900360640190fd5b600e805460018101825560008290527fbb7b4a454dc3493923482f07822329ed19e8244eff582cc204f8554c3620c3fd018054600160a060020a031916600160a060020a0384161790555460001901805b80156151e5576000600e600183038154811061517c57fe5b600091825260209091200154600160a060020a03908116915084168110156151a457506151e5565b80600e83815481106151b257fe5b60009182526020909120018054600160a060020a031916600160a060020a03929092169190911790555060001901615164565b8181146133905782600e82815481106151fa57fe5b9060005260206000200160006101000a815481600160a060020a030219169083600160a060020a03160217905550505050565b805160009061523e57506000610ed2565b6020820151805160001a9060c082101561525d57600092505050610ed2565b5060019392505050565b8051600090811a6080811015615281576000915050610ed2565b60b881108061529c575060c0811080159061529c575060f881105b156152ab576001915050610ed2565b60c08110156152bf5760b519019050610ed2565b60f519019050610ed2565b80516000908190811a60808110156152e55760019150615414565b60b88110156152fa57607e1981019150615414565b60c081101561538357600060b78203600186019550806020036101000a86510491506001810182019350508083101561537d576040805160e560020a62461bcd02815260206004820152601160248201527f6164646974696f6e206f766572666c6f77000000000000000000000000000000604482015290519081900360640190fd5b50615414565b60f88110156153985760be1981019150615414565b600060f78203600186019550806020036101000a865104915060018101820193505080831015615412576040805160e560020a62461bcd02815260206004820152601160248201527f6164646974696f6e206f766572666c6f77000000000000000000000000000000604482015290519081900360640190fd5b505b5092915050565b805160009061542c57506000610ed2565b600080905060006154408460200151615267565b602085015185519181019250015b8082101561546e5761545f826152ca565b6001909301929091019061544e565b50909392505050565b805160009060151461548857600080fd5b61167a82614e09565b60408051808201909152600081526060602082015290565b60405180610180016040528060008152602001600081526020016000815260200160008152602001600081526020016000600160a060020a031681526020016000600160a060020a031681526020016000600381111561550557fe5b8152602001600081526020016000815260200160008152602001600081525090565b604051806040016040528061553a61555e565b8152602001600081525090565b604080518082019091526000808252602082015290565b60405180604001604052806000815260200160008152509056fe4f776e61626c653a206e6577206f776e657220697320746865207a65726f20616464726573736d696e65722073746174757320697320556e7374616b6564206f7220646561637469766174696f6e45706f636820697320746f6f206c6f77f84580f842e0940e27299b195ce2d8d9004ece91da07a93b8499ee8a043c33c1937564800000e09435c7f64a1649d3191588fb558a93a1f1384188368a021e19e0c9bab2400000536166654d6174683a206d756c7469706c69636174696f6e206f766572666c6f774f6e6c7920676f7665726e616e636520636f6e747261637420697320617574686f72697a6564a26469706673582212205de28e5920c90b69f5ed74e7f9e621057f9d2d8aeecb344c7ab1a490450b16ea64736f6c63430006060033",
  "immutableReferences": {},
  "source": "pragma solidity ^0.6.6;\n\nimport {IERC20} from \"@openzeppelin/contracts/token/ERC20/IERC20.sol\";\nimport {Math} from \"@openzeppelin/contracts/math/Math.sol\";\nimport {SafeMath} from \"@openzeppelin/contracts/math/SafeMath.sol\";\nimport {MerkleProof} from \"@openzeppelin/contracts/cryptography/MerkleProof.sol\";\nimport {Merkle} from \"../../common/utils/Merkle.sol\";\nimport {GovernanceLockable} from \"../../common/gov/GovernanceLockable.sol\";\nimport {IGovernance} from \"../../common/gov/IGovernance.sol\";\nimport {OwnableExpand} from \"../../common/utils/OwnableExpand.sol\";\nimport {W3fsStakeManagerStorage} from \"./W3fsStakeManagerStorage.sol\";\nimport {IW3fsStakeManager} from \"./IW3fsStakeManager.sol\";\nimport {W3fsStakingNFT} from \"./W3fsStakingNFT.sol\";\nimport {W3fsStakingInfo} from \"../W3fsStakingInfo.sol\";\nimport {Registry} from \"../../common/misc/Registry.sol\";\nimport {DelegateShareFactory} from \"../delegateShare/DelegateShareFactory.sol\";\nimport {IDelegateShare} from \"../delegateShare/IDelegateShare.sol\";\nimport {IW3fsStorageManager} from \"../../storage/IW3fsStorageManager.sol\";\nimport {System} from \"../../System.sol\";\nimport {RLPDecode} from \"../../common/utils/RLPDecode.sol\";\nimport {BorValidatorSet} from \"../../BorValidatorSet.sol\";\n\n// truffle run contract-size\n// solc --bin-runtime @openzeppelin/=node_modules/@openzeppelin/ solidity-rlp/=node_modules/solidity-rlp/ /=/ contracts/staking/stakeManager/W3fsStakeManager.sol\ncontract W3fsStakeManager is W3fsStakeManagerStorage, IW3fsStakeManager, GovernanceLockable, OwnableExpand, System {\n\n    using SafeMath for uint256;\n    using RLPDecode for *;\n    using Merkle for bytes32;\n\n    bytes public constant INIT_MINERSET_BYTES = hex\"f84580f842e0940e27299b195ce2d8d9004ece91da07a93b8499ee8a043c33c1937564800000e09435c7f64a1649d3191588fb558a93a1f1384188368a021e19e0c9bab2400000\";\n    bool private inited = false;\n\n    event ReceiverRewardEvent(address indexed miner);\n\n\n    constructor() public payable GovernanceLockable(address(0x0)) {\n\n    }\n\n    receive() external payable {\n\n    }\n\n    modifier onlyStaker(uint256 minerId) {\n        require(NFTContract.ownerOf(minerId) == msg.sender);\n        _;\n    }\n\n    modifier onlySystemReward(){\n        require(Registry(registry).getSystemRewardAddress() == msg.sender);\n        _;\n    }\n\n    modifier onlyDelegation(uint256 minerId) {\n        require(storageMiners[minerId].contractAddress == msg.sender, \"Invalid contract address\");\n        _;\n    }\n\n    modifier onlySlashManager() {\n        require(Registry(registry).getW3fsSlashManagerAddress() == msg.sender);\n        _;\n    }\n\n    modifier initializer() {\n        require(!inited, \"already inited\");\n        inited = true;\n        _;\n    }\n\n\n    function _init() private {\n        (IbcMinerSetPackage memory minerSetPackage,) = decodeMinerSetSynPackage(INIT_MINERSET_BYTES);\n        for (uint i; i < minerSetPackage.storageMinerMinSet.length; i++) {\n            // \n            uint256 amount = minerSetPackage.storageMinerMinSet[i].amount;\n            address signer = minerSetPackage.storageMinerMinSet[i].signer;\n            totalStaked = totalStaked.add(amount);\n            uint256 minerId = NFTCounter;\n            storageMiners[minerId] = StorageMiner({\n                reward : INITIALIZED_AMOUNT,\n                amount : amount,\n                activationEpoch : 0,\n                deactivationEpoch : 0,\n                jailTime : 0,\n                signer : signer,\n                contractAddress : delegateShareFactory.create(minerId, address(logger), registry, address(storageManager)),\n                status : Status.Active,\n                commissionRate : 5,\n                lastCommissionUpdate : 0,\n                delegatorsReward : INITIALIZED_AMOUNT,\n                delegatedAmount : 0\n                });\n            NFTContract.mint(signer, minerId);\n            signerToStorageMiner[signer] = minerId;\n            NFTCounter = minerId.add(1);\n            _insertSigner(signer);\n        }\n    }\n\n    function initialize(\n        address _owner,\n        address _registry,\n        address _token,\n        address _NFTContract,\n        address _governance,\n        address _stakingLogger,\n        address _delegateShareFactory,\n        address _storageManager\n    ) external initializer {\n        storageMinerThreshold = 7;\n        NFTCounter = 1;\n        delegationEnabled = true;\n        minDeposit = (10 ** 18);\n        MINER_REWARD = 5 * (10 ** 18);\n        COMMISSION_UPDATE_DELAY = 120;\n        UNSTAKE_CLAIM_DELAY = 5;\n        SPAN_DURATION = 64;\n        _transferOwnership(_owner);\n        governance = IGovernance(_governance);\n        token = IERC20(_token);\n        delegateShareFactory = DelegateShareFactory(_delegateShareFactory);\n        registry = _registry;\n        NFTContract = W3fsStakingNFT(_NFTContract);\n        logger = W3fsStakingInfo(_stakingLogger);\n        storageManager = IW3fsStorageManager(_storageManager);\n        _init();\n    }\n\n\n    function stakeFor(\n        address user,\n        uint256 amount,\n        uint256 fee,\n        uint256 storagePromise,\n        bool acceptDelegation,\n        bytes calldata signerPubkey\n    ) external onlyWhenUnlocked payable virtual override {\n        require(signers.length < storageMinerThreshold, \"no more slots\");\n        require(amount >= minDeposit, \"not enough deposit\");\n        require(msg.value == amount, \"Insufficient amount\");\n        require(amount > fee && fee > 0 , \"fee is bigger than amount\");\n        require(storagePromise >= 2 , \"storagePromise is wrong\");\n        uint256 realAmount = amount.sub(fee);\n        _transferAndTopUp(user, fee);\n        require(storageManager.checkCanStakeMore(user, 0, realAmount) , \"no enough stake eligibility\");\n        _stakeFor(user, realAmount, storagePromise, acceptDelegation, signerPubkey);\n    }\n\n    function _transferAndTopUp(address user, uint256 fee) private {\n        signerToFee[user] = signerToFee[user].add(fee);\n        logger.logTopUpFee(user, fee);\n    }\n\n    function topupFee(address user, uint256 fee) payable external override {\n        require(msg.value == fee , \"fee is wrong\");\n        _transferAndTopUp(user, fee);\n    }\n\n    function claimFee(uint256 accumFeeAmount, uint256 index, bytes memory proof) public {\n        BorValidatorSet borValidatorSet = BorValidatorSet(0x0000000000000000000000000000000000001000);\n        bytes32 accountRootHash = borValidatorSet.getAccountRootHash();\n        require(\n            keccak256(abi.encode(msg.sender, accumFeeAmount)).checkMembership(index, accountRootHash, proof),\n            \"Wrong acc proof\"\n        );\n\n        uint256 withdrawAmount = accumFeeAmount.sub(userFeeExit[msg.sender]);\n        require(signerToFee[msg.sender] >= withdrawAmount, \"no enough fee\");\n        userFeeExit[msg.sender] = accumFeeAmount;\n        signerToFee[msg.sender] = signerToFee[msg.sender].sub(withdrawAmount);\n        (bool success,) = payable(address(uint160(msg.sender))).call{value : withdrawAmount}(\"\");\n        require(success, \"Failed to claim nela\");\n    }\n\n    function _stakeFor(\n        address user,\n        uint256 amount,\n        uint256 storagePromise,\n        bool acceptDelegation,\n        bytes memory signerPubkey\n    ) internal returns (uint256) {\n        address signer = _getAndAssertSigner(signerPubkey);\n        uint256 minerId = NFTCounter;\n        W3fsStakingInfo _logger = logger;\n        uint256 _currentEpoch = getCurrentEpoch(uint256(block.number)).add(1);\n        totalStaked = totalStaked.add(amount);\n        storageMiners[minerId] = StorageMiner({\n            reward : INITIALIZED_AMOUNT,\n            amount : amount,\n            activationEpoch : _currentEpoch,\n            deactivationEpoch : 0,\n            jailTime : 0,\n            signer : signer,\n            contractAddress : acceptDelegation ? delegateShareFactory.create(minerId, address(_logger), registry, address(storageManager)) : address(0x0),\n            status : Status.Active,\n            //  5%\n            commissionRate : 5,\n            lastCommissionUpdate : 0,\n            delegatorsReward : INITIALIZED_AMOUNT,\n            delegatedAmount : 0\n        });\n        // set map user => minerId\n        NFTContract.mint(user, minerId);\n        signerToStorageMiner[signer] = minerId;\n        // update storagepromise\n        storageManager.updateStoragePromise(user, storagePromise);\n        // send staked event\n        _logger.logStaked(signer, signerPubkey, minerId, _currentEpoch, amount, totalStaked);\n        NFTCounter = minerId.add(1);\n        _insertSigner(signer);\n        return minerId;\n    }\n\n\n    //   systemReward\n    function updateRewardsMiner(address minerAddr, uint256 amount) external override onlySystemReward returns (uint256) {\n        uint256 minerId = signerToStorageMiner[minerAddr];\n        require(minerId > 0 , \"no miner\");\n        if(amount > 0) {\n            require(amount > 0 && storageMiners[minerId].reward.sub(INITIALIZED_AMOUNT) > amount, \"the amount is too big !\");\n            storageMiners[minerId].reward = storageMiners[minerId].reward.sub(amount);\n            return amount;\n        } else if (amount == 0) {\n            // update all\n            require(storageMiners[minerId].reward > INITIALIZED_AMOUNT , \"the amount is too big\");\n            uint256 reward = storageMiners[minerId].reward.sub(INITIALIZED_AMOUNT);\n            storageMiners[minerId].reward = INITIALIZED_AMOUNT;\n            return reward;\n        }\n        return 0;\n    }\n\n    function slash(address minerAddr, uint256 slashAmount, bool doJail) external override onlySlashManager {\n        uint256 minerId = signerToStorageMiner[minerAddr];\n        address delegateContract = storageMiners[minerId].contractAddress;\n        if(delegateContract != address(0x0)) {\n            uint256 delSlashedAmount = IDelegateShare(delegateContract).slash(storageMiners[minerId].amount, storageMiners[minerId].delegatedAmount, slashAmount);\n            slashAmount = slashAmount.sub(delSlashedAmount);\n        }\n        if(doJail) {\n            _jail(minerId);\n        }\n        if(storageMiners[minerId].amount > slashAmount) {\n            storageMiners[minerId].amount = storageMiners[minerId].amount.sub(slashAmount);\n        } else {\n            storageMiners[minerId].amount = 0;\n            uint256 currentEpoch = getCurrentEpoch(block.number);\n            _unstake(minerId, currentEpoch.add(1));\n        }\n    }\n\n\n    //  , \n    function receiverReward(address miner) external onlySystem {\n        bool isMiner = _isActiveMiner(miner);\n        if (isMiner) {\n            uint256 minerId = signerToStorageMiner[miner];\n            StorageMiner storage storageMiner = storageMiners[minerId];\n            if (storageMiner.contractAddress != address(0x0)) {\n                // \n                uint256 commissionRate = storageMiner.commissionRate;\n                uint256 delegatedAmount = storageMiner.delegatedAmount;\n                uint256 stakeAmount = storageMiner.amount;\n                (uint256 minerReward, uint256 delegatorsReward) = _increaseReward(commissionRate, stakeAmount, delegatedAmount);\n                storageMiner.reward = storageMiner.reward.add(minerReward);\n                storageMiner.delegatorsReward = storageMiner.delegatorsReward.add(delegatorsReward);\n            } else {\n                //\n                storageMiner.reward = storageMiner.reward.add(MINER_REWARD);\n            }\n            emit ReceiverRewardEvent(miner);\n        }\n    }\n\n    // TODO , \n    function _increaseReward(uint256 commissionRate, uint256 stakeAmount, uint256 delegatedAmount) public view returns (uint256, uint256) {\n        //  ( + )\n        uint256 combinedStakePower = stakeAmount.add(delegatedAmount);\n        // commissionRate\n        uint256 validatorRewardVar = stakeAmount.mul(MINER_REWARD).div(combinedStakePower);\n        if (commissionRate > 0) {\n            validatorRewardVar = validatorRewardVar.add(MINER_REWARD.sub(validatorRewardVar).mul(commissionRate).div(100));\n        }\n        uint256 delegatorsRewardVar = MINER_REWARD.sub(validatorRewardVar);\n        return (validatorRewardVar, delegatorsRewardVar);\n    }\n\n\n    // \n    function restake(uint256 minerId, uint256 amount) public payable onlyWhenUnlocked onlyStaker(minerId) {\n        // \n        require(storageMiners[minerId].deactivationEpoch == 0, \"No restaking\");\n        require(msg.value != 0 && msg.value == amount, \"msg.value is wrong\");\n        // \n        require(storageManager.checkCanStakeMore(storageMiners[minerId].signer, storageMiners[minerId].amount, amount) , \"no enough stake eligibility\");\n        uint256 newTotalStaked = totalStaked.add(amount);\n        totalStaked = newTotalStaked;\n        uint256 newAmount = storageMiners[minerId].amount.add(amount);\n        storageMiners[minerId].amount = newAmount;\n        // \n        logger.logStakeUpdate(minerId);\n        logger.logRestaked(minerId, storageMiners[minerId].amount, newTotalStaked);\n    }\n\n\n    //\n    /**\n        \n         1. deactivationEpoch(unstake)\n         2. \n         3. signers\n    */\n    function unstake(uint256 minerId) external override onlyStaker(minerId) {\n        Status status = storageMiners[minerId].status;\n        require(\n            storageMiners[minerId].deactivationEpoch == 0 && (status == Status.Active || status == Status.Locked)\n        );\n        uint256 currentEpoch = getCurrentEpoch(block.number);\n        _unstake(minerId, currentEpoch.add(1));\n    }\n\n    function _unstake(uint256 minerId, uint256 exitEpoch) internal {\n        address delegationContract = storageMiners[minerId].contractAddress;\n        //require(epoch >= 1, \"too early to execute unstake\");\n        storageMiners[minerId].deactivationEpoch = exitEpoch;\n        // \n        if (delegationContract != address(0)) {\n            // TODO lockExpand\n            IDelegateShare(delegationContract).lockExpand();\n        }\n        // \n        _removeSigner(storageMiners[minerId].signer);\n    }\n\n\n    // \n    function unstakeClaim(uint256 minerId) public onlyStaker(minerId) onlyWhenUnlocked {\n        uint256 deactivationEpoch = storageMiners[minerId].deactivationEpoch;\n        uint256 _amount = storageMiners[minerId].amount;\n        uint256 _currentEpoch = getCurrentEpoch(block.number);\n        require(\n            deactivationEpoch > 0 &&\n            storageMiners[minerId].status != Status.Unstaked &&\n            deactivationEpoch.add(UNSTAKE_CLAIM_DELAY) <= _currentEpoch,\n            \"miner status is Unstaked or deactivationEpoch is too low\");\n        // \n        require(storageMiners[minerId].reward.sub(INITIALIZED_AMOUNT) == 0, \"There are rewards not extracted\");\n        NFTContract.burn(minerId);\n        storageMiners[minerId].amount = 0;\n        storageMiners[minerId].jailTime = 0;\n        storageMiners[minerId].status = Status.Unstaked;\n        storageMiners[minerId].signer = address(0);\n        signerToStorageMiner[storageMiners[minerId].signer] = INCORRECT_VALIDATOR_ID;\n        // \n        if (_amount > 0) {\n            (bool success,) = payable(address(uint160(msg.sender))).call{value : _amount}(\"\");\n            require(success, \"Failed to claim nela\");\n        }\n    }\n\n    // \n    function unjail(uint256 minerId) public onlyStaker(minerId){\n        require(storageMiners[minerId].status == Status.Locked, \"Not jailed\");\n        require(storageMiners[minerId].deactivationEpoch == 0, \"Already unstaking\");\n        uint256 _currentEpoch = getCurrentEpoch(block.number);\n        // \n        require(storageMiners[minerId].jailTime <= _currentEpoch, \"Incomplete jail period\");\n        uint256 amount = storageMiners[minerId].amount;\n        // \n        require(amount >= minDeposit);\n        // \n        address delegationContract = storageMiners[minerId].contractAddress;\n        if (delegationContract != address(0x0)) {\n            IDelegateShare(delegationContract).unlockExpand();\n        }\n        storageMiners[minerId].status = Status.Active;\n        address signer = storageMiners[minerId].signer;\n        logger.logUnjailed(minerId, signer); //\n    }\n\n    function _jail(uint256 minerId) private {\n        address delegationContract = storageMiners[minerId].contractAddress;\n        if (delegationContract != address(0x0)) {\n            IDelegateShare(delegationContract).lockExpand();\n        }\n        uint256 _epoch = getCurrentEpoch(block.number);\n        storageMiners[minerId].jailTime = _epoch.add(1);\n        storageMiners[minerId].status = Status.Locked;\n        logger.logJailed(minerId, _epoch, storageMiners[minerId].signer);\n    }\n\n\n\n    function _removeSigner(address signerToDelete) internal {\n        // \n        uint256 totalSigners = signers.length;\n        // swapSigner \n        address swapSigner = signers[totalSigners - 1];\n        // \n        signers.pop();\n        for (uint256 i = totalSigners - 1; i > 0; --i) {\n            if (swapSigner == signerToDelete) {\n                break;\n            }\n            (swapSigner, signers[i - 1]) = (signers[i - 1], swapSigner);\n        }\n    }\n\n\n    // ========================================  ====================================================\n    function updateMinerState(uint256 minerId, int256 amount) public override onlyDelegation(minerId) {\n        if (amount > 0) {\n            // \n            require(delegationEnabled, \"Delegation is disabled\");\n        }\n        if (amount >= 0) {\n            storageMiners[minerId].delegatedAmount = storageMiners[minerId].delegatedAmount.add(uint256(amount));\n        } else {\n            decreaseMinerDelegatedAmount(minerId, uint256(amount * - 1));\n        }\n    }\n\n    // Reduce the number of mining commissions\n    function decreaseMinerDelegatedAmount(uint256 minerId, uint256 amount) public override onlyDelegation(minerId) {\n        storageMiners[minerId].delegatedAmount = storageMiners[minerId].delegatedAmount.sub(amount);\n    }\n\n\n    //\n    function withdrawDelegatorsReward(uint256 minerId) public override onlyDelegation(minerId) returns (uint256) {\n        uint256 totalReward = storageMiners[minerId].delegatorsReward.sub(INITIALIZED_AMOUNT);\n        storageMiners[minerId].delegatorsReward = INITIALIZED_AMOUNT;\n        return totalReward;\n    }\n\n    // ======================================== delegator ====================================================\n\n\n    function getSorageMinerId(address user) public view returns (uint256) {\n        return NFTContract.tokenOfOwnerByIndex(user, 0);\n    }\n\n\n    function _getAndAssertSigner(bytes memory pub) private view returns (address) {\n        require(pub.length == 64, \"not pub\");\n        address signer = address(uint160(uint256(keccak256(pub))));\n        // check signer exits\n        require(signer != address(0) && signerToStorageMiner[signer] == 0, \"Invalid signer\");\n        return signer;\n    }\n\n    function transferFunds(uint256 minerId, uint256 amount, address delegator) external override returns(bool) {\n        require(storageMiners[minerId].contractAddress == msg.sender , \"not allowed\");\n        (bool success,) = payable(address(uint160(delegator))).call{value : amount}(\"\");\n        require(success, \"Failed to stake Nela\");\n        return success;\n    }\n\n\n    function _insertSigner(address newSigner) internal {\n        signers.push(newSigner);\n\n        uint lastIndex = signers.length - 1;\n        uint i = lastIndex;\n        for (; i > 0; --i) {\n            address signer = signers[i - 1];\n            if (signer < newSigner) {\n                break;\n            }\n            signers[i] = signer;\n        }\n        if (i != lastIndex) {\n            signers[i] = newSigner;\n        }\n    }\n\n\n    // ======================= update param ===========================\n    function updateStorageMinerThreshold(uint256 newValue) public onlyGovernance {\n        require(newValue != 0);\n        logger.logThresholdChange(newValue, storageMinerThreshold);\n        storageMinerThreshold = newValue;\n    }\n\n    function updateSpanDuration(uint256 newSpanDuration) public onlyGovernance {\n        require(newSpanDuration >= 64 && newSpanDuration % 64 == 0, \"spanDuration too low\");\n        SPAN_DURATION = newSpanDuration;\n        // TODO event\n    }\n\n    function updateMinerReward(uint256 newReward) public onlyGovernance {\n        require(newReward != 0);\n        MINER_REWARD = newReward;\n        // TODO event\n    }\n\n    function updateDelay(uint256 new_unstake_claim_delay, uint256 new_commission_update_delay) public onlyGovernance {\n        require(new_unstake_claim_delay > 0 && new_commission_update_delay > 0, \"delay too low\");\n        COMMISSION_UPDATE_DELAY = new_commission_update_delay;\n        UNSTAKE_CLAIM_DELAY = new_unstake_claim_delay;\n        // TODO event\n    }\n\n    // \n    function forceUnstake(uint256 minerId) external onlyGovernance {\n        uint256 currentEpoch = getCurrentEpoch(block.number);\n        _unstake(minerId, currentEpoch.add(1));\n    }\n\n\n    // ======================= update param end ===========================\n\n\n    function updateCommissionRate(uint256 minerId, uint256 newCommissionRate) external onlyStaker(minerId) {\n        uint256 _epoch = getCurrentEpoch(block.number);\n        uint256 _lastCommissionUpdate = storageMiners[minerId].lastCommissionUpdate;\n        //\n        // \n        require(_lastCommissionUpdate == 0 || (_lastCommissionUpdate.add(COMMISSION_UPDATE_DELAY) <= _epoch), \"Cooldown\");\n        require(newCommissionRate <= 100, \"Incorrect value\");\n        storageMiners[minerId].commissionRate = newCommissionRate;\n        storageMiners[minerId].lastCommissionUpdate = _epoch;\n    }\n\n\n    // =======================================  ==========================================\n    function decodeMinerSetSynPackage(bytes memory msgBytes) internal pure returns (IbcMinerSetPackage memory, bool){\n        IbcMinerSetPackage memory minerSetPkg;\n        RLPDecode.Iterator memory iter = msgBytes.toRLPItem().iterator();\n        bool success = false;\n        uint256 idx = 0;\n        while (iter.hasNext()) {\n            if (idx == 0) {\n                minerSetPkg.packageType = uint8(iter.next().toUint());\n            } else if (idx == 1) {\n                RLPDecode.RLPItem[] memory items = iter.next().toList();\n                minerSetPkg.storageMinerMinSet = new StorageMinerMin[](items.length);\n                for (uint j; j < items.length; j++) {\n                    (StorageMinerMin memory val, bool ok) = decodeMiner(items[j]);\n                    if (!ok) {\n                        return (minerSetPkg, false);\n                    }\n                    minerSetPkg.storageMinerMinSet[j] = val;\n                }\n                success = true;\n            } else {\n                break;\n            }\n            idx++;\n        }\n        return (minerSetPkg, success);\n    }\n\n\n    function decodeMiner(RLPDecode.RLPItem memory itemMiner) internal pure returns (StorageMinerMin memory, bool) {\n        StorageMinerMin memory minerMin;\n        RLPDecode.Iterator memory iter = itemMiner.iterator();\n        bool success = false;\n        uint256 idx = 0;\n        while (iter.hasNext()) {\n            if (idx == 0) {\n                minerMin.signer = iter.next().toAddress();\n            } else if (idx == 1) {\n                minerMin.amount = uint256(iter.next().toUint());\n                success = true;\n            } else {\n                break;\n            }\n            idx++;\n        }\n        return (minerMin, success);\n    }\n\n\n    // ======================================= END ==========================================\n    function getCurrentEpoch(uint256 number) public override view returns (uint256) {\n        return number.div(SPAN_DURATION);\n    }\n\n    function getBorMiners() external override view returns (address[] memory, uint256[] memory) {\n        // \n        if (inited) {\n            uint256 minerLength = 0;\n            for (uint i = 1; i <= NFTCounter - 1; i++) {\n                StorageMiner memory miner = storageMiners[i];\n                if (_isActiveMiner(miner.signer)) {\n                    minerLength ++;\n                }\n            }\n            address[] memory addrs = new address[](minerLength);\n            uint256[] memory powers = new uint256[](minerLength);\n            minerLength = 0;\n            for (uint i = 1; i <= NFTCounter - 1; i++) {\n                StorageMiner memory miner = storageMiners[i];\n                if (_isActiveMiner(miner.signer)) {\n                    addrs[minerLength] = miner.signer;\n                    powers[minerLength] = miner.amount + miner.delegatedAmount;\n                    minerLength++;\n                }\n            }\n            return (addrs, powers);\n        } else {\n            // \n            return getInitialValidators();\n        }\n    }\n\n\n    function getInitialValidators() public override view returns (address[] memory, uint256[] memory) {\n        (IbcMinerSetPackage memory minerSetPackage,) = decodeMinerSetSynPackage(INIT_MINERSET_BYTES);\n        uint length = minerSetPackage.storageMinerMinSet.length;\n        address[] memory addrs = new address[](length);\n        uint256[] memory powers = new uint256[](length);\n        for (uint i; i < length; i++) {\n            addrs[i] = minerSetPackage.storageMinerMinSet[i].signer;\n            powers[i] = minerSetPackage.storageMinerMinSet[i].amount;\n        }\n        return (addrs, powers);\n    }\n\n\n    function _isActiveMiner(address minerAddr) private view returns (bool) {\n        uint256 minerId = signerToStorageMiner[minerAddr];\n        if (minerId <= 0) {\n            return false;\n        }\n        uint256 _currentEpoch = getCurrentEpoch(block.number);\n        StorageMiner memory miner = storageMiners[minerId];\n        return ((miner.activationEpoch == 0 || miner.activationEpoch < _currentEpoch) && miner.amount > 0 && (miner.deactivationEpoch == 0 || miner.deactivationEpoch > _currentEpoch) && miner.status == Status.Active);\n    }\n\n    function isActiveMiner(address minerAddr) external override view returns (bool) {\n        return _isActiveMiner(minerAddr);\n    }\n\n\n    function getMinerBaseInfo(uint256 minerId) external view override returns (uint256, uint256, address, address, uint256, uint256) {\n        return (\n            storageMiners[minerId].amount,\n            storageMiners[minerId].delegatedAmount,\n            storageMiners[minerId].signer,\n            storageMiners[minerId].contractAddress,\n            storageMiners[minerId].reward.sub(INITIALIZED_AMOUNT),\n            storageMiners[minerId].delegatorsReward.sub(INITIALIZED_AMOUNT)\n        );\n    }\n\n    function getMinerId(address minerAddr) external view override returns (uint256) {\n        return signerToStorageMiner[minerAddr];\n    }\n\n    function withdrawalDelay() public override view returns (uint256) {\n        return UNSTAKE_CLAIM_DELAY;\n    }\n\n}\n",
  "sourcePath": "/root/testnet/code/w3fs-genesis-contracts-bridge/contracts/staking/stakeManager/W3fsStakeManager.sol",
  "compiler": {
    "name": "solc",
    "version": "0.6.6+commit.6c089d02.Emscripten.clang"
  },
  "schemaVersion": "3.4.10",
  "updatedAt": "2022-11-17T03:12:05.843Z",
  "networkType": "ethereum",
  "devdoc": {
    "methods": {
      "owner()": {
        "details": "Returns the address of the current owner."
      },
      "renounceOwnership()": {
        "details": "Leaves the contract without owner. It will not be possible to call `onlyOwner` functions anymore. Can only be called by the current owner.     * NOTE: Renouncing ownership will leave the contract without an owner, thereby removing any functionality that is only available to the owner."
      },
      "transferOwnership(address)": {
        "details": "Transfers ownership of the contract to a new account (`newOwner`). Can only be called by the current owner."
      }
    }
  },
  "userdoc": {
    "methods": {
      "unstake(uint256)": {
        "notice": " 1. deactivationEpoch(unstake) 2.  3. signers"
      }
    }
  }
}