{
  "contractName": "W3fsStorageManager",
  "abi": [
    {
      "inputs": [],
      "stateMutability": "nonpayable",
      "type": "constructor"
    },
    {
      "anonymous": false,
      "inputs": [
        {
          "indexed": true,
          "internalType": "uint256",
          "name": "newPower",
          "type": "uint256"
        },
        {
          "indexed": true,
          "internalType": "uint256",
          "name": "newStorageSize",
          "type": "uint256"
        },
        {
          "indexed": true,
          "internalType": "address",
          "name": "signer",
          "type": "address"
        },
        {
          "indexed": false,
          "internalType": "uint256",
          "name": "nonce",
          "type": "uint256"
        }
      ],
      "name": "AddNewSealPowerAndSize",
      "type": "event"
    },
    {
      "anonymous": false,
      "inputs": [
        {
          "indexed": true,
          "internalType": "address",
          "name": "previousOwner",
          "type": "address"
        },
        {
          "indexed": true,
          "internalType": "address",
          "name": "newOwner",
          "type": "address"
        }
      ],
      "name": "OwnershipTransferred",
      "type": "event"
    },
    {
      "anonymous": false,
      "inputs": [
        {
          "indexed": true,
          "internalType": "address",
          "name": "signer",
          "type": "address"
        },
        {
          "indexed": true,
          "internalType": "uint256",
          "name": "storageSize",
          "type": "uint256"
        }
      ],
      "name": "UpdatePromise",
      "type": "event"
    },
    {
      "inputs": [],
      "name": "baseStakeAmount",
      "outputs": [
        {
          "internalType": "uint256",
          "name": "",
          "type": "uint256"
        }
      ],
      "stateMutability": "view",
      "type": "function",
      "constant": true
    },
    {
      "inputs": [],
      "name": "delegatedStakeLimit",
      "outputs": [
        {
          "internalType": "uint256",
          "name": "",
          "type": "uint256"
        }
      ],
      "stateMutability": "view",
      "type": "function",
      "constant": true
    },
    {
      "inputs": [],
      "name": "factor",
      "outputs": [
        {
          "internalType": "uint256",
          "name": "",
          "type": "uint256"
        }
      ],
      "stateMutability": "view",
      "type": "function",
      "constant": true
    },
    {
      "inputs": [],
      "name": "governance",
      "outputs": [
        {
          "internalType": "contract IGovernance",
          "name": "",
          "type": "address"
        }
      ],
      "stateMutability": "view",
      "type": "function",
      "constant": true
    },
    {
      "inputs": [],
      "name": "lock",
      "outputs": [],
      "stateMutability": "nonpayable",
      "type": "function"
    },
    {
      "inputs": [],
      "name": "locked",
      "outputs": [
        {
          "internalType": "bool",
          "name": "",
          "type": "bool"
        }
      ],
      "stateMutability": "view",
      "type": "function",
      "constant": true
    },
    {
      "inputs": [],
      "name": "logger",
      "outputs": [
        {
          "internalType": "contract W3fsStakingInfo",
          "name": "",
          "type": "address"
        }
      ],
      "stateMutability": "view",
      "type": "function",
      "constant": true
    },
    {
      "inputs": [],
      "name": "owner",
      "outputs": [
        {
          "internalType": "address",
          "name": "",
          "type": "address"
        }
      ],
      "stateMutability": "view",
      "type": "function",
      "constant": true
    },
    {
      "inputs": [],
      "name": "percentage",
      "outputs": [
        {
          "internalType": "uint256",
          "name": "",
          "type": "uint256"
        }
      ],
      "stateMutability": "view",
      "type": "function",
      "constant": true
    },
    {
      "inputs": [],
      "name": "registry",
      "outputs": [
        {
          "internalType": "address",
          "name": "",
          "type": "address"
        }
      ],
      "stateMutability": "view",
      "type": "function",
      "constant": true
    },
    {
      "inputs": [],
      "name": "renounceOwnership",
      "outputs": [],
      "stateMutability": "nonpayable",
      "type": "function"
    },
    {
      "inputs": [],
      "name": "stakeLimit",
      "outputs": [
        {
          "internalType": "uint256",
          "name": "",
          "type": "uint256"
        }
      ],
      "stateMutability": "view",
      "type": "function",
      "constant": true
    },
    {
      "inputs": [],
      "name": "totalPower",
      "outputs": [
        {
          "internalType": "uint256",
          "name": "",
          "type": "uint256"
        }
      ],
      "stateMutability": "view",
      "type": "function",
      "constant": true
    },
    {
      "inputs": [
        {
          "internalType": "address",
          "name": "newOwner",
          "type": "address"
        }
      ],
      "name": "transferOwnership",
      "outputs": [],
      "stateMutability": "nonpayable",
      "type": "function"
    },
    {
      "inputs": [],
      "name": "unlock",
      "outputs": [],
      "stateMutability": "nonpayable",
      "type": "function"
    },
    {
      "inputs": [
        {
          "internalType": "address",
          "name": "",
          "type": "address"
        }
      ],
      "name": "validatorNonce",
      "outputs": [
        {
          "internalType": "uint256",
          "name": "",
          "type": "uint256"
        }
      ],
      "stateMutability": "view",
      "type": "function",
      "constant": true
    },
    {
      "inputs": [
        {
          "internalType": "address",
          "name": "",
          "type": "address"
        }
      ],
      "name": "validatorPowers",
      "outputs": [
        {
          "internalType": "uint256",
          "name": "",
          "type": "uint256"
        }
      ],
      "stateMutability": "view",
      "type": "function",
      "constant": true
    },
    {
      "inputs": [
        {
          "internalType": "address",
          "name": "",
          "type": "address"
        }
      ],
      "name": "validatorPromise",
      "outputs": [
        {
          "internalType": "uint256",
          "name": "",
          "type": "uint256"
        }
      ],
      "stateMutability": "view",
      "type": "function",
      "constant": true
    },
    {
      "inputs": [
        {
          "internalType": "address",
          "name": "",
          "type": "address"
        },
        {
          "internalType": "uint256",
          "name": "",
          "type": "uint256"
        }
      ],
      "name": "validatorSector",
      "outputs": [
        {
          "internalType": "uint256",
          "name": "SealProofType",
          "type": "uint256"
        },
        {
          "internalType": "uint256",
          "name": "SectorNumber",
          "type": "uint256"
        },
        {
          "internalType": "uint256",
          "name": "TicketEpoch",
          "type": "uint256"
        },
        {
          "internalType": "uint256",
          "name": "SeedEpoch",
          "type": "uint256"
        },
        {
          "internalType": "bytes",
          "name": "SealedCID",
          "type": "bytes"
        },
        {
          "internalType": "bytes",
          "name": "UnsealedCID",
          "type": "bytes"
        },
        {
          "internalType": "bytes",
          "name": "Proof",
          "type": "bytes"
        },
        {
          "internalType": "bool",
          "name": "Check",
          "type": "bool"
        },
        {
          "internalType": "bool",
          "name": "isReal",
          "type": "bool"
        }
      ],
      "stateMutability": "view",
      "type": "function",
      "constant": true
    },
    {
      "inputs": [
        {
          "internalType": "address",
          "name": "",
          "type": "address"
        }
      ],
      "name": "validatorStorageSize",
      "outputs": [
        {
          "internalType": "uint256",
          "name": "",
          "type": "uint256"
        }
      ],
      "stateMutability": "view",
      "type": "function",
      "constant": true
    },
    {
      "inputs": [
        {
          "internalType": "address",
          "name": "_owner",
          "type": "address"
        },
        {
          "internalType": "address",
          "name": "_registry",
          "type": "address"
        },
        {
          "internalType": "address",
          "name": "_governance",
          "type": "address"
        },
        {
          "internalType": "address",
          "name": "_stakingLogger",
          "type": "address"
        }
      ],
      "name": "initialize",
      "outputs": [],
      "stateMutability": "nonpayable",
      "type": "function"
    },
    {
      "inputs": [
        {
          "internalType": "address",
          "name": "validatorAddr",
          "type": "address"
        },
        {
          "internalType": "uint256",
          "name": "amount",
          "type": "uint256"
        },
        {
          "internalType": "uint256",
          "name": "addStakeMount",
          "type": "uint256"
        }
      ],
      "name": "checkCanStakeMore",
      "outputs": [
        {
          "internalType": "bool",
          "name": "",
          "type": "bool"
        }
      ],
      "stateMutability": "view",
      "type": "function",
      "constant": true
    },
    {
      "inputs": [
        {
          "internalType": "uint256",
          "name": "minerId",
          "type": "uint256"
        },
        {
          "internalType": "uint256",
          "name": "addStakeMount",
          "type": "uint256"
        }
      ],
      "name": "checkCandelegatorsMore",
      "outputs": [
        {
          "internalType": "bool",
          "name": "",
          "type": "bool"
        }
      ],
      "stateMutability": "view",
      "type": "function",
      "constant": true
    },
    {
      "inputs": [
        {
          "internalType": "address",
          "name": "validatorAddr",
          "type": "address"
        }
      ],
      "name": "showCanStakeAmount",
      "outputs": [
        {
          "internalType": "uint256",
          "name": "",
          "type": "uint256"
        }
      ],
      "stateMutability": "view",
      "type": "function",
      "constant": true
    },
    {
      "inputs": [
        {
          "internalType": "address",
          "name": "signer",
          "type": "address"
        },
        {
          "internalType": "uint256",
          "name": "storageSize",
          "type": "uint256"
        }
      ],
      "name": "updateStoragePromise",
      "outputs": [],
      "stateMutability": "nonpayable",
      "type": "function"
    },
    {
      "inputs": [
        {
          "internalType": "uint256",
          "name": "newStakeLimit",
          "type": "uint256"
        }
      ],
      "name": "updateStakeLimit",
      "outputs": [],
      "stateMutability": "nonpayable",
      "type": "function"
    },
    {
      "inputs": [
        {
          "internalType": "uint256",
          "name": "newDelegatedStakeLimit",
          "type": "uint256"
        }
      ],
      "name": "updateDelegatedStakeLimit",
      "outputs": [],
      "stateMutability": "nonpayable",
      "type": "function"
    },
    {
      "inputs": [
        {
          "internalType": "uint256",
          "name": "newPercentage",
          "type": "uint256"
        }
      ],
      "name": "updatePercentage",
      "outputs": [],
      "stateMutability": "nonpayable",
      "type": "function"
    },
    {
      "inputs": [
        {
          "internalType": "address",
          "name": "signer",
          "type": "address"
        },
        {
          "internalType": "uint256",
          "name": "sectorNumber",
          "type": "uint256"
        }
      ],
      "name": "getSealInfo",
      "outputs": [
        {
          "components": [
            {
              "internalType": "uint256",
              "name": "SealProofType",
              "type": "uint256"
            },
            {
              "internalType": "uint256",
              "name": "SectorNumber",
              "type": "uint256"
            },
            {
              "internalType": "uint256",
              "name": "TicketEpoch",
              "type": "uint256"
            },
            {
              "internalType": "uint256",
              "name": "SeedEpoch",
              "type": "uint256"
            },
            {
              "internalType": "bytes",
              "name": "SealedCID",
              "type": "bytes"
            },
            {
              "internalType": "bytes",
              "name": "UnsealedCID",
              "type": "bytes"
            },
            {
              "internalType": "bytes",
              "name": "Proof",
              "type": "bytes"
            },
            {
              "internalType": "bool",
              "name": "Check",
              "type": "bool"
            },
            {
              "internalType": "bool",
              "name": "isReal",
              "type": "bool"
            }
          ],
          "internalType": "struct W3fsStorageManager.Sector",
          "name": "",
          "type": "tuple"
        }
      ],
      "stateMutability": "view",
      "type": "function",
      "constant": true
    },
    {
      "inputs": [
        {
          "internalType": "address",
          "name": "signer",
          "type": "address"
        },
        {
          "internalType": "bool",
          "name": "isCheck",
          "type": "bool"
        }
      ],
      "name": "getSealInfoAllBySigner",
      "outputs": [
        {
          "components": [
            {
              "internalType": "uint256",
              "name": "SealProofType",
              "type": "uint256"
            },
            {
              "internalType": "uint256",
              "name": "SectorNumber",
              "type": "uint256"
            },
            {
              "internalType": "uint256",
              "name": "TicketEpoch",
              "type": "uint256"
            },
            {
              "internalType": "uint256",
              "name": "SeedEpoch",
              "type": "uint256"
            },
            {
              "internalType": "bytes",
              "name": "SealedCID",
              "type": "bytes"
            },
            {
              "internalType": "bytes",
              "name": "UnsealedCID",
              "type": "bytes"
            },
            {
              "internalType": "bytes",
              "name": "Proof",
              "type": "bytes"
            },
            {
              "internalType": "bool",
              "name": "Check",
              "type": "bool"
            },
            {
              "internalType": "bool",
              "name": "isReal",
              "type": "bool"
            }
          ],
          "internalType": "struct W3fsStorageManager.Sector[]",
          "name": "",
          "type": "tuple[]"
        }
      ],
      "stateMutability": "view",
      "type": "function",
      "constant": true
    },
    {
      "inputs": [
        {
          "internalType": "bool",
          "name": "isReal",
          "type": "bool"
        },
        {
          "internalType": "address",
          "name": "signer",
          "type": "address"
        },
        {
          "internalType": "bytes",
          "name": "votes",
          "type": "bytes"
        }
      ],
      "name": "addSealInfo",
      "outputs": [],
      "stateMutability": "nonpayable",
      "type": "function"
    },
    {
      "inputs": [
        {
          "internalType": "bytes",
          "name": "data",
          "type": "bytes"
        },
        {
          "internalType": "uint256[3][]",
          "name": "sigs",
          "type": "uint256[3][]"
        }
      ],
      "name": "checkSealSigs",
      "outputs": [],
      "stateMutability": "nonpayable",
      "type": "function"
    },
    {
      "inputs": [
        {
          "internalType": "address",
          "name": "signer",
          "type": "address"
        }
      ],
      "name": "getValidatorPower",
      "outputs": [
        {
          "internalType": "uint256",
          "name": "",
          "type": "uint256"
        }
      ],
      "stateMutability": "view",
      "type": "function",
      "constant": true
    },
    {
      "inputs": [
        {
          "internalType": "bytes",
          "name": "validatorBytes",
          "type": "bytes"
        }
      ],
      "name": "getAllValidatorPower",
      "outputs": [
        {
          "internalType": "address[]",
          "name": "",
          "type": "address[]"
        },
        {
          "internalType": "uint256[]",
          "name": "",
          "type": "uint256[]"
        }
      ],
      "stateMutability": "view",
      "type": "function",
      "constant": true
    }
  ],
  "bytecode": "0x60806040526003805460a060020a60ff02191690553480156200002157600080fd5b506000805461010060a860020a0319168155620000466401000000006200009a810204565b60018054600160a060020a031916600160a060020a038316908117909155604051919250906000907f8be0079c531659141344cd1fd0a4f28419497f9722a3daafe3b4186f6b6457e0908290a3506200009e565b3390565b613d6880620000ae6000396000f3fe608060405234801561001057600080fd5b506004361061020a5760003560e060020a90048063a69df4b51161011e578063db3ad22c116100b1578063f2fde38b11610080578063f2fde38b14610416578063f61aa09d14610429578063f83d08ba1461043c578063f8c8765e14610444578063fd548467146104575761020a565b8063db3ad22c146103e0578063db70e8e8146103e8578063e70c9357146103fb578063f24ccbfe1461040e5761020a565b8063c78ad77f116100ed578063c78ad77f146103aa578063cf309012146103b2578063cfacc8dc146103ba578063d64d3e43146103cd5761020a565b8063a69df4b514610374578063af7c33a31461037c578063bd6e0e511461038f578063c330e9a7146103975761020a565b806354f703f8116101a157806371129559116101705780637112955914610341578063715018a6146103495780637b103999146103515780638da5cb5b14610359578063a1ca459a146103615761020a565b806354f703f8146102ef578063578f5b30146102f75780635aa6e675146103175780635c2930b61461032c5761020a565b806341961249116101dd578063419612491461028c57806345ef79af146102ac578063473691a4146102b45780634cdf3f46146102c75761020a565b80630ce104841461020f5780631f94d1371461023857806320edccbc1461024b5780633b17b9031461026b575b600080fd5b61022261021d3660046131d4565b61046a565b60405161022f9190613c1a565b60405180910390f35b6102226102463660046131d4565b61047c565b61025e610259366004613304565b61048e565b60405161022f91906138a3565b61027e61027936600461350f565b6104d5565b60405161022f9291906137c2565b61029f61029a3660046132a1565b610651565b60405161022f9190613843565b61022261132a565b6102226102c23660046131d4565b611330565b6102da6102d53660046132d9565b61134f565b60405161022f99989796959493929190613c23565b61022261155c565b61030a6103053660046132d9565b611562565b60405161022f9190613c07565b61031f61179c565b60405161022f919061373d565b61033f61033a366004613599565b6117b0565b005b610222611813565b61033f611819565b61031f6118a8565b61031f6118b7565b61022261036f3660046131d4565b6118c7565b61033f6118d9565b61033f61038a366004613479565b611915565b610222611ca6565b6102226103a53660046131d4565b611cac565b610222611d69565b61025e611d6f565b61033f6103c83660046132d9565b611d78565b61033f6103db366004613416565b611e8a565b610222612480565b61033f6103f6366004613599565b612486565b61025e6104093660046135b1565b6124d3565b61031f612647565b61033f6104243660046131d4565b612656565b6102226104373660046131d4565b612720565b61033f612732565b61033f610452366004613246565b61276c565b61033f610465366004613599565b6128b1565b600a6020526000908152604090205481565b600d6020526000908152604090205481565b600060045482840111156104ca5760006104a785611cac565b90506004548101838501116104c05760019150506104ce565b60009150506104ce565b5060015b9392505050565b60608060606104eb6104e6856128fe565b612923565b90506060815167ffffffffffffffff8111801561050757600080fd5b50604051908082528060200260200182016040528015610531578160200160208202803683370190505b5090506060825167ffffffffffffffff8111801561054e57600080fd5b50604051908082528060200260200182016040528015610578578160200160208202803683370190505b50905060005b83518110156106455760606105a585838151811061059857fe5b6020026020010151612923565b90506105c4816000815181106105b757fe5b6020026020010151612a0b565b8483815181106105d057fe5b6020026020010190600160a060020a03169081600160a060020a031681525050600b6000610604836000815181106105b757fe5b600160a060020a0316600160a060020a031681526020019081526020016000205483838151811061063157fe5b60209081029190910101525060010161057e565b50909350915050915091565b600160a060020a038216600090815260106020908152604080832054600f90925282205460609282156107095760005b838110156107075785156106f857600160a060020a0387166000908152600e60209081526040808320601090925282208054919291849081106106c057fe5b6000918252602080832090910154835282019290925260400190206007015460ff161515600114156106f3576001909101905b6106ff565b6001909101905b600101610681565b505b811561079a5760005b8281101561079857851561078957600160a060020a0387166000908152600e60209081526040808320600f909252822080549192918490811061075157fe5b6000918252602080832090910154835282019290925260400190206007015460ff16151560011415610784576001909101905b610790565b6001909101905b600101610712565b505b60608167ffffffffffffffff811180156107b357600080fd5b506040519080825280602002602001820160405280156107ed57816020015b6107da613012565b8152602001906001900390816107d25790505b506000925090508315610d895760005b84811015610d87578615610af657600160a060020a0388166000908152600e602090815260408083206010909252822080549192918490811061083c57fe5b6000918252602080832090910154835282019290925260400190206007015460ff16151560011415610af157600160a060020a0388166000908152600e602090815260408083206010909252822080549192918490811061089957fe5b906000526020600020015481526020019081526020016000206040518061012001604052908160008201548152602001600182015481526020016002820154815260200160038201548152602001600482018054600181600116156101000203166002900480601f01602080910402602001604051908101604052809291908181526020018280546001816001161561010002031660029004801561097f5780601f106109545761010080835404028352916020019161097f565b820191906000526020600020905b81548152906001019060200180831161096257829003601f168201915b505050918352505060058201805460408051602060026001851615610100026000190190941693909304601f8101849004840282018401909252818152938201939291830182828015610a135780601f106109e857610100808354040283529160200191610a13565b820191906000526020600020905b8154815290600101906020018083116109f657829003601f168201915b505050918352505060068201805460408051602060026001851615610100026000190190941693909304601f8101849004840282018401909252818152938201939291830182828015610aa75780601f10610a7c57610100808354040283529160200191610aa7565b820191906000526020600020905b815481529060010190602001808311610a8a57829003601f168201915b50505091835250506007919091015460ff808216151560208401526101009091041615156040909101528251839085908110610adf57fe5b60200260200101819052508260010192505b610d7f565b600160a060020a0388166000908152600e6020908152604080832060109092528220805491929184908110610b2757fe5b906000526020600020015481526020019081526020016000206040518061012001604052908160008201548152602001600182015481526020016002820154815260200160038201548152602001600482018054600181600116156101000203166002900480601f016020809104026020016040519081016040528092919081815260200182805460018160011615610100020316600290048015610c0d5780601f10610be257610100808354040283529160200191610c0d565b820191906000526020600020905b815481529060010190602001808311610bf057829003601f168201915b505050918352505060058201805460408051602060026001851615610100026000190190941693909304601f8101849004840282018401909252818152938201939291830182828015610ca15780601f10610c7657610100808354040283529160200191610ca1565b820191906000526020600020905b815481529060010190602001808311610c8457829003601f168201915b505050918352505060068201805460408051602060026001851615610100026000190190941693909304601f8101849004840282018401909252818152938201939291830182828015610d355780601f10610d0a57610100808354040283529160200191610d35565b820191906000526020600020905b815481529060010190602001808311610d1857829003601f168201915b50505091835250506007919091015460ff808216151560208401526101009091041615156040909101528251839085908110610d6d57fe5b60200260200101819052508260010192505b6001016107fd565b505b821561131e5760005b8381101561131c57861561108b57600160a060020a0388166000908152600e60209081526040808320600f9092528220805491929184908110610dd157fe5b6000918252602080832090910154835282019290925260400190206007015460ff1615156001141561108657600160a060020a0388166000908152600e60209081526040808320600f9092528220805491929184908110610e2e57fe5b906000526020600020015481526020019081526020016000206040518061012001604052908160008201548152602001600182015481526020016002820154815260200160038201548152602001600482018054600181600116156101000203166002900480601f016020809104026020016040519081016040528092919081815260200182805460018160011615610100020316600290048015610f145780601f10610ee957610100808354040283529160200191610f14565b820191906000526020600020905b815481529060010190602001808311610ef757829003601f168201915b505050918352505060058201805460408051602060026001851615610100026000190190941693909304601f8101849004840282018401909252818152938201939291830182828015610fa85780601f10610f7d57610100808354040283529160200191610fa8565b820191906000526020600020905b815481529060010190602001808311610f8b57829003601f168201915b505050918352505060068201805460408051602060026001851615610100026000190190941693909304601f810184900484028201840190925281815293820193929183018282801561103c5780601f106110115761010080835404028352916020019161103c565b820191906000526020600020905b81548152906001019060200180831161101f57829003601f168201915b50505091835250506007919091015460ff80821615156020840152610100909104161515604090910152825183908590811061107457fe5b60200260200101819052508260010192505b611314565b600160a060020a0388166000908152600e60209081526040808320600f90925282208054919291849081106110bc57fe5b906000526020600020015481526020019081526020016000206040518061012001604052908160008201548152602001600182015481526020016002820154815260200160038201548152602001600482018054600181600116156101000203166002900480601f0160208091040260200160405190810160405280929190818152602001828054600181600116156101000203166002900480156111a25780601f10611177576101008083540402835291602001916111a2565b820191906000526020600020905b81548152906001019060200180831161118557829003601f168201915b505050918352505060058201805460408051602060026001851615610100026000190190941693909304601f81018490048402820184019092528181529382019392918301828280156112365780601f1061120b57610100808354040283529160200191611236565b820191906000526020600020905b81548152906001019060200180831161121957829003601f168201915b505050918352505060068201805460408051602060026001851615610100026000190190941693909304601f81018490048402820184019092528181529382019392918301828280156112ca5780601f1061129f576101008083540402835291602001916112ca565b820191906000526020600020905b8154815290600101906020018083116112ad57829003601f168201915b50505091835250506007919091015460ff80821615156020840152610100909104161515604090910152825183908590811061130257fe5b60200260200101819052508260010192505b600101610d92565b505b93505050505b92915050565b60045481565b600160a060020a0381166000908152600b60205260409020545b919050565b600e60205281600052604060002060205280600052604060002060009150915050806000015490806001015490806002015490806003015490806004018054600181600116156101000203166002900480601f0160208091040260200160405190810160405280929190818152602001828054600181600116156101000203166002900480156114205780601f106113f557610100808354040283529160200191611420565b820191906000526020600020905b81548152906001019060200180831161140357829003601f168201915b5050505060058301805460408051602060026001851615610100026000190190941693909304601f81018490048402820184019092528181529495949350908301828280156114b05780601f10611485576101008083540402835291602001916114b0565b820191906000526020600020905b81548152906001019060200180831161149357829003601f168201915b5050505060068301805460408051602060026001851615610100026000190190941693909304601f81018490048402820184019092528181529495949350908301828280156115405780601f1061151557610100808354040283529160200191611540565b820191906000526020600020905b81548152906001019060200180831161152357829003601f168201915b5050506007909301549192505060ff8082169161010090041689565b60055481565b61156a613012565b600160a060020a0383166000908152600e602090815260408083208584528252918290208251610120810184528154815260018083015482850152600280840154838701526003840154606084015260048401805487519381161561010002600019011691909104601f8101869004860283018601909652858252919492936080860193919291908301828280156116435780601f1061161857610100808354040283529160200191611643565b820191906000526020600020905b81548152906001019060200180831161162657829003601f168201915b505050918352505060058201805460408051602060026001851615610100026000190190941693909304601f81018490048402820184019092528181529382019392918301828280156116d75780601f106116ac576101008083540402835291602001916116d7565b820191906000526020600020905b8154815290600101906020018083116116ba57829003601f168201915b505050918352505060068201805460408051602060026001851615610100026000190190941693909304601f810184900484028201840190925281815293820193929183018282801561176b5780601f106117405761010080835404028352916020019161176b565b820191906000526020600020905b81548152906001019060200180831161174e57829003601f168201915b50505091835250506007919091015460ff808216151560208401526101009091041615156040909101529392505050565b6000546101009004600160a060020a031681565b6000546101009004600160a060020a031633146117eb5760405160e560020a62461bcd0281526004016117e290613baa565b60405180910390fd5b6000811161180e5760405160e560020a62461bcd0281526004016117e290613ace565b600755565b60085481565b611821612a25565b600154600160a060020a039081169116146118515760405160e560020a62461bcd0281526004016117e290613a62565b600154604051600091600160a060020a0316907f8be0079c531659141344cd1fd0a4f28419497f9722a3daafe3b4186f6b6457e0908390a36001805473ffffffffffffffffffffffffffffffffffffffff19169055565b601154600160a060020a031681565b600154600160a060020a03165b90565b600c6020526000908152604090205481565b6000546101009004600160a060020a0316331461190b5760405160e560020a62461bcd0281526004016117e290613baa565b611913612a29565b565b60008080808080611928898b018b61320c565b935093509350935060006040518060400160405280600181526020017f01000000000000000000000000000000000000000000000000000000000000008152508b8b60405160200161197c93929190613716565b60408051601f198184030181529082905280516020909101206003547f0c35b1cb0000000000000000000000000000000000000000000000000000000083529092506060918291600160a060020a031690630c35b1cb906119e1908790600401613c1a565b60006040518083038186803b1580156119f957600080fd5b505afa158015611a0d573d6000803e3d6000fd5b505050506040513d6000823e601f3d908101601f19168201604052611a359190810190613338565b909250905060005b8151811015611a7657611a6c828281518110611a5557fe5b60200260200101518b612a3590919063ffffffff16565b9950600101611a3d565b5060005b8a811015611b42576000611ac8858e8e85818110611a9457fe5b9050606002016003806020026040519081016040528092919082600360200280828437600092019190915250612a5d915050565b905060005b8451811015611b3857848181518110611ae257fe5b6020026020010151600160a060020a031682600160a060020a03161415611b3057611b29848281518110611b1257fe5b60200260200101518c612a3590919063ffffffff16565b9a50611b38565b600101611acd565b5050600101611a7a565b50611b656003611b598b600263ffffffff612b4516565b9063ffffffff612b8216565b881015611b875760405160e560020a62461bcd0281526004016117e290613b3c565b600160a060020a0387166000908152600e602090815260408083208884529091529020600781015460ff16158015611bbf5750805487145b8015611be1575060068101546002600019610100600184161502019091160415155b15611c9657600080611bf289612bb7565b600160a060020a038c166000908152600b60205260409020549193509150611c20908363ffffffff612a3516565b600160a060020a038b166000908152600b6020908152604080832093909355600c90522054611c55908263ffffffff612a3516565b600160a060020a038b166000908152600c6020526040902055600954611c81908363ffffffff612a3516565b600955505060078101805460ff191660011790555b5050505050505050505050505050565b60065481565b600854600160a060020a0382166000908152600d6020908152604080832054600c9092528220549192600192909190611ce486612c6e565b611cf557600094505050505061134a565b633b9aca008110611d1f57611d15816402540be40063ffffffff612b8216565b6007019350611d4b565b6301e848008110611d335760049350611d4b565b6207d0008110611d465760029350611d4b565b600193505b600854611d5f90859063ffffffff612b4516565b9695505050505050565b60075481565b60005460ff1681565b611d806118b7565b600160a060020a031633600160a060020a03161480611e3a5750601154604080517f6ddb63ab00000000000000000000000000000000000000000000000000000000815290513392600160a060020a031691636ddb63ab916004808301926020929190829003018186803b158015611df757600080fd5b505afa158015611e0b573d6000803e3d6000fd5b505050506040513d601f19601f82011682018060405250810190611e2f91906131f0565b600160a060020a0316145b611e4357600080fd5b600160a060020a0382166000818152600d6020526040808220849055518392917fc1c594ec6d2acc15c3f7a06152f646bcf01e56ee0193482de75c51e606c7c1ca91a35050565b601154604080517f6ddb63ab00000000000000000000000000000000000000000000000000000000815290518592600160a060020a031691636ddb63ab916004808301926020929190829003018186803b158015611ee757600080fd5b505afa158015611efb573d6000803e3d6000fd5b505050506040513d601f19601f82011682018060405250810190611f1f91906131f0565b600160a060020a03166351882bbc826040518263ffffffff1660e060020a028152600401611f4d919061373d565b60206040518083038186803b158015611f6557600080fd5b505afa158015611f79573d6000803e3d6000fd5b505050506040513d601f19601f82011682018060405250810190611f9d91906133fa565b611fbc5760405160e560020a62461bcd0281526004016117e290613960565b600160a060020a0384163314611fe75760405160e560020a62461bcd0281526004016117e290613b73565b606061202b6104e685858080601f0160208091040260200160405190810160405280939291908181526020018383808284376000920191909152506128fe92505050565b905080516001146120515760405160e560020a62461bcd0281526004016117e290613a97565b60005b815181101561247757606061206e83838151811061059857fe5b600160a060020a0388166000908152600e602052604081208251929350916120aa908490600190811061209d57fe5b6020026020010151612cda565b8152602081019190915260400160002054156120db5760405160e560020a62461bcd0281526004016117e2906139ce565b6040518061012001604052806120f78360008151811061209d57fe5b815260200161210c8360018151811061209d57fe5b81526020016121218360028151811061209d57fe5b81526020016121368360038151811061209d57fe5b81526020016121588360048151811061214b57fe5b6020026020010151612d28565b815260200161216d8360058151811061214b57fe5b81526020016121828360068151811061214b57fe5b8152600060208201526040018961219a57600061219d565b60015b15159052600160a060020a0388166000908152600e6020526040812083519091906121cf908590600190811061209d57fe5b8152602001908152602001600020600082015181600001556020820151816001015560408201518160020155606082015181600301556080820151816004019080519060200190612221929190613062565b5060a0820151805161223d916005840191602090910190613062565b5060c08201518051612259916006840191602090910190613062565b5060e082015160079190910180546101009384015160ff199091169215159290921761ff00191691151590920217905587156122d557600160a060020a038716600090815260106020526040902081516122ba908390600190811061209d57fe5b81546001810183556000928352602090922090910155612317565b600160a060020a0387166000908152600f602052604090208151612300908390600190811061209d57fe5b815460018101835560009283526020909220909101555b600160a060020a0387166000908152600a602052604090205461234190600163ffffffff612a3516565b600160a060020a0388166000908152600a6020908152604080832093909355600b90522054612378906107d063ffffffff612a3516565b600160a060020a038089166000908152600b602052604081209290925560025483519116916368e169df918a916123b29186919061209d57fe5b6123c28560018151811061209d57fe5b6123d28660028151811061209d57fe5b6123e28760038151811061209d57fe5b6123f28860048151811061214b57fe5b6124028960058151811061214b57fe5b6124128a60068151811061214b57fe5b6040518963ffffffff1660e060020a028152600401612438989796959493929190613751565b600060405180830381600087803b15801561245257600080fd5b505af1158015612466573d6000803e3d6000fd5b505060019093019250612054915050565b50505050505050565b60095481565b6000546101009004600160a060020a031633146124b85760405160e560020a62461bcd0281526004016117e290613baa565b683635c9adc5dea000008110156124ce57600080fd5b600455565b6000806000601160009054906101000a9004600160a060020a0316600160a060020a0316636ddb63ab6040518163ffffffff1660e060020a02815260040160206040518083038186803b15801561252957600080fd5b505afa15801561253d573d6000803e3d6000fd5b505050506040513d601f19601f8201168201806040525081019061256191906131f0565b600160a060020a03166314e4e15e866040518263ffffffff1660e060020a02815260040161258f9190613c1a565b60c06040518083038186803b1580156125a757600080fd5b505afa1580156125bb573d6000803e3d6000fd5b505050506040513d601f19601f820116820180604052508101906125df91906135d2565b5050509250925050600654848301111561263c5760006125fe82611cac565b905061261560055482612b4590919063ffffffff16565b90506006548101858401116126305760019350505050611324565b60009350505050611324565b600192505050611324565b600254600160a060020a031681565b61265e612a25565b600154600160a060020a0390811691161461268e5760405160e560020a62461bcd0281526004016117e290613a62565b600160a060020a0381166126b75760405160e560020a62461bcd0281526004016117e2906138cc565b600154604051600160a060020a038084169216907f8be0079c531659141344cd1fd0a4f28419497f9722a3daafe3b4186f6b6457e090600090a36001805473ffffffffffffffffffffffffffffffffffffffff1916600160a060020a0392909216919091179055565b600b6020526000908152604090205481565b6000546101009004600160a060020a031633146127645760405160e560020a62461bcd0281526004016117e290613baa565b611913612da5565b60035474010000000000000000000000000000000000000000900460ff16156127aa5760405160e560020a62461bcd0281526004016117e290613b05565b6003805474ff000000000000000000000000000000000000000019167401000000000000000000000000000000000000000017905569043c33c1937564800000600455690a968163f0a57b400000600655600560078181559055686c6b935b8bbd40000060085560118054600160a060020a0380861673ffffffffffffffffffffffffffffffffffffffff1990921691909117909155600080549184166101000274ffffffffffffffffffffffffffffffffffffffff001990921691909117905561287484612db4565b60028054600160a060020a0390921673ffffffffffffffffffffffffffffffffffffffff1992831617905560038054909116611000179055505050565b6000546101009004600160a060020a031633146128e35760405160e560020a62461bcd0281526004016117e290613baa565b683635c9adc5dea000008110156128f957600080fd5b600655565b6129066130e0565b506040805180820190915281518152602082810190820152919050565b606061292e82612e13565b61293757600080fd5b600061294283612e43565b905060608167ffffffffffffffff8111801561295d57600080fd5b5060405190808252806020026020018201604052801561299757816020015b6129846130e0565b81526020019060019003908161297c5790505b50905060006129a98560200151612e9f565b60208601510190506000805b84811015612a00576129c683612f02565b91506040518060400160405280838152602001848152508482815181106129e957fe5b6020908102919091010152918101916001016129b5565b509195945050505050565b8051600090601514612a1c57600080fd5b61132482612cda565b3390565b6000805460ff19169055565b6000828201838110156104ce5760405160e560020a62461bcd0281526004016117e290613929565b805160208201516040830151600092919060ff167f7fffffffffffffffffffffffffffffff5d576e7357a4501ddfe92f46681b20a0821115612aa55760009350505050611324565b601b8160ff161015612ab557601b015b8060ff16601b14158015612acd57508060ff16601c14155b15612ade5760009350505050611324565b600060018783868660405160008152602001604052604051612b0394939291906138ae565b6020604051602081039080840390855afa158015612b25573d6000803e3d6000fd5b5050604051601f190151915050600160a060020a03811661131e57600080fd5b600082612b5457506000611324565b82820282848281612b6157fe5b04146104ce5760405160e560020a62461bcd0281526004016117e290613a05565b6000808211612ba65760405160e560020a62461bcd0281526004016117e290613997565b818381612baf57fe5b049392505050565b6000808080841580612bc95750846005145b15612bdb57506103e890506002612c64565b8460011480612bea5750846006145b15612bfd57506113889050611f40612c64565b8460021480612c0c5750846007145b15612c20575061271090506207d000612c64565b8460031480612c2f5750846008145b15612c44575061753090506301e84800612c64565b8460041480612c535750846009145b15612c645750619c4090506303d090005b9092509050915091565b600160a060020a0381166000908152600d6020908152604080832054600c9092528220546007548390612ca890849063ffffffff612b4516565b90506000612cbd83606463ffffffff612b4516565b905081811015612cce576000611d5f565b60019695505050505050565b805160009015801590612cef57508151602110155b612cf857600080fd5b600080612d0484612f9b565b815191935091506020821015612d205760208290036101000a90045b949350505050565b8051606090612d3657600080fd5b600080612d4284612f9b565b9150915060608167ffffffffffffffff81118015612d5f57600080fd5b506040519080825280601f01601f191660200182016040528015612d8a576020820181803683370190505b50905060208101612d9c848285612fc1565b50949350505050565b6000805460ff19166001179055565b60018054600160a060020a0383811673ffffffffffffffffffffffffffffffffffffffff19831681179093556040519116919082907f8be0079c531659141344cd1fd0a4f28419497f9722a3daafe3b4186f6b6457e090600090a35050565b8051600090612e245750600061134a565b6020820151805160001a9060c08210156104ca5760009250505061134a565b8051600090612e545750600061134a565b60008090506000612e688460200151612e9f565b602085015185519181019250015b80821015612e9657612e8782612f02565b60019093019290910190612e76565b50909392505050565b8051600090811a6080811015612eb957600091505061134a565b60b8811080612ed4575060c08110801590612ed4575060f881105b15612ee357600191505061134a565b60c0811015612ef75760b51901905061134a565b60f51901905061134a565b80516000908190811a6080811015612f1d5760019150612f94565b60b8811015612f3257607e1981019150612f94565b60c0811015612f5f5760b78103600185019450806020036101000a85510460018201810193505050612f94565b60f8811015612f745760be1981019150612f94565b60f78103600185019450806020036101000a855104600182018101935050505b5092915050565b6000806000612fad8460200151612e9f565b602085015194519481019594039392505050565b80612fcb5761300d565b5b60208110612feb578251825260209283019290910190601f1901612fcc565b801561300d578251825160208390036101000a60001901801990921691161782525b505050565b604051806101200160405280600081526020016000815260200160008152602001600081526020016060815260200160608152602001606081526020016000151581526020016000151581525090565b828054600181600116156101000203166002900490600052602060002090601f016020900481019282601f106130a357805160ff19168380011785556130d0565b828001600101855582156130d0579182015b828111156130d05782518255916020019190600101906130b5565b506130dc9291506130fa565b5090565b604051806040016040528060008152602001600081525090565b6118c491905b808211156130dc5760008155600101613100565b805161132481613d0c565b600082601f83011261312f578081fd5b815161314261313d82613cbc565b613c95565b81815291506020808301908481018184028601820187101561316357600080fd5b60005b8481101561318257815184529282019290820190600101613166565b505050505092915050565b60008083601f84011261319e578182fd5b50813567ffffffffffffffff8111156131b5578182fd5b6020830191508360208285010111156131cd57600080fd5b9250929050565b6000602082840312156131e5578081fd5b81356104ce81613d0c565b600060208284031215613201578081fd5b81516104ce81613d0c565b60008060008060808587031215613221578283fd5b843561322c81613d0c565b966020860135965060408601359560600135945092505050565b6000806000806080858703121561325b578384fd5b843561326681613d0c565b9350602085013561327681613d0c565b9250604085013561328681613d0c565b9150606085013561329681613d0c565b939692955090935050565b600080604083850312156132b3578182fd5b82356132be81613d0c565b915060208301356132ce81613d24565b809150509250929050565b600080604083850312156132eb578182fd5b82356132f681613d0c565b946020939093013593505050565b600080600060608486031215613318578283fd5b833561332381613d0c565b95602085013595506040909401359392505050565b6000806040838503121561334a578182fd5b825167ffffffffffffffff80821115613361578384fd5b81850186601f820112613372578485fd5b8051925061338261313d84613cbc565b80848252602080830192508084018a8283890287010111156133a2578889fd5b8894505b868510156133cc576133b88b82613114565b8452600194909401939281019281016133a6565b5088015190965093505050808211156133e3578283fd5b506133f08582860161311f565b9150509250929050565b60006020828403121561340b578081fd5b81516104ce81613d24565b6000806000806060858703121561342b578384fd5b843561343681613d24565b9350602085013561344681613d0c565b9250604085013567ffffffffffffffff811115613461578283fd5b61346d8782880161318d565b95989497509550505050565b6000806000806040858703121561348e578182fd5b843567ffffffffffffffff808211156134a5578384fd5b6134b18883890161318d565b909650945060208701359150808211156134c9578384fd5b81870188601f8201126134da578485fd5b80359250818311156134ea578485fd5b8860206060850283010111156134fe578485fd5b959894975050602090940194505050565b60006020808385031215613521578182fd5b823567ffffffffffffffff80821115613538578384fd5b81850186601f820112613549578485fd5b8035925081831115613559578485fd5b61356b601f8401601f19168501613c95565b91508282528684848301011115613580578485fd5b8284820185840137509081019091019190915292915050565b6000602082840312156135aa578081fd5b5035919050565b600080604083850312156135c3578182fd5b50508035926020909101359150565b60008060008060008060c087890312156135ea578384fd5b8651955060208701519450604087015161360381613d0c565b606088015190945061361481613d0c565b809350506080870151915060a087015190509295509295509295565b600160a060020a03169052565b15159052565b6000815180845261365b816020860160208601613cdc565b601f01601f19169290920160200192915050565b60006101208251845260208301516020850152604083015160408501526060830151606085015260808301518160808601526136ad82860182613643565b60a0850151925085810360a08701526136c68184613643565b91505060c0840151915084810360c08601526136e28183613643565b60e085015192506136f660e087018461363d565b610100925082850151915061370d8387018361363d565b95945050505050565b60008451613728818460208901613cdc565b80830184868237909301908152949350505050565b600160a060020a0391909116815260200190565b6000610100600160a060020a038b1683528960208401528860408401528760608401528660808401528060a084015261378c81840187613643565b83810360c085015261379e8187613643565b91505082810360e08401526137b38185613643565b9b9a5050505050505050505050565b604080825283519082018190526000906020906060840190828701845b82811015613802576137f2848351613630565b92840192908401906001016137df565b50505083810382850152845180825285830191830190845b818110156138365783518352928401929184019160010161381a565b5090979650505050505050565b6000602080830181845280855180835260408601915060408482028701019250838701855b8281101561389657603f1988860301845261388485835161366f565b94509285019290850190600101613868565b5092979650505050505050565b901515815260200190565b93845260ff9290921660208401526040830152606082015260800190565b60208082526026908201527f4f776e61626c653a206e6577206f776e657220697320746865207a65726f206160408201527f6464726573730000000000000000000000000000000000000000000000000000606082015260800190565b6020808252601b908201527f536166654d6174683a206164646974696f6e206f766572666c6f770000000000604082015260600190565b60208082526008908201527f6f6e206d696e6572000000000000000000000000000000000000000000000000604082015260600190565b6020808252601a908201527f536166654d6174683a206469766973696f6e206279207a65726f000000000000604082015260600190565b6020808252600e908201527f616c726561647920657869737473000000000000000000000000000000000000604082015260600190565b60208082526021908201527f536166654d6174683a206d756c7469706c69636174696f6e206f766572666c6f60408201527f7700000000000000000000000000000000000000000000000000000000000000606082015260800190565b6020808252818101527f4f776e61626c653a2063616c6c6572206973206e6f7420746865206f776e6572604082015260600190565b6020808252600f908201527f6c656e6774682069732077726f6e670000000000000000000000000000000000604082015260600190565b60208082526016908201527f6e657750657263656e746167652069732077726f6e6700000000000000000000604082015260600190565b6020808252600e908201527f616c726561647920696e69746564000000000000000000000000000000000000604082015260600190565b60208082526014908201527f322f332b3120506f776572207265717569726564000000000000000000000000604082015260600190565b6020808252600f908201527f7369676e65722069732077726f6e670000000000000000000000000000000000604082015260600190565b60208082526026908201527f4f6e6c7920676f7665726e616e636520636f6e7472616374206973206175746860408201527f6f72697a65640000000000000000000000000000000000000000000000000000606082015260800190565b6000602082526104ce602083018461366f565b90815260200190565b60006101208b83528a6020840152896040840152886060840152806080840152613c4f81840189613643565b83810360a0850152613c618189613643565b91505082810360c0840152613c768187613643565b94151560e0840152505090151561010090910152979650505050505050565b60405181810167ffffffffffffffff81118282101715613cb457600080fd5b604052919050565b600067ffffffffffffffff821115613cd2578081fd5b5060209081020190565b60005b83811015613cf7578181015183820152602001613cdf565b83811115613d06576000848401525b50505050565b600160a060020a0381168114613d2157600080fd5b50565b8015158114613d2157600080fdfea2646970667358221220307e28b7d30ccceca8ddc6e7a8bc1a2b944958b15bd647afd265b5e8a81b306d64736f6c63430006060033",
  "immutableReferences": {},
  "source": "pragma solidity ^0.6.6;\npragma experimental ABIEncoderV2;\n\nimport {IW3fsStorageManager} from \"./IW3fsStorageManager.sol\";\nimport {SafeMath} from \"@openzeppelin/contracts/math/SafeMath.sol\";\nimport {RLPReader} from \"solidity-rlp/contracts/RLPReader.sol\";\nimport {Registry} from \"../common/misc/Registry.sol\";\nimport {System} from \"../System.sol\";\nimport {GovernanceLockable} from \"../common/gov/GovernanceLockable.sol\";\nimport {IGovernance} from \"../common/gov/IGovernance.sol\";\nimport {OwnableExpand} from \"../common/utils/OwnableExpand.sol\";\nimport {IW3fsStakeManager} from \"../staking/stakeManager/IW3fsStakeManager.sol\";\nimport {ECVerify} from \"../ECVerify.sol\";\nimport {W3fsStakingInfo} from \"../staking/W3fsStakingInfo.sol\";\nimport {BorValidatorSet} from \"../BorValidatorSet.sol\";\n\n\n// solc --bin-runtime @openzeppelin/=node_modules/@openzeppelin/ solidity-rlp/=node_modules/solidity-rlp/ /=/ contracts/storage/W3fsStorageManager.sol\ncontract W3fsStorageManager is IW3fsStorageManager, GovernanceLockable, OwnableExpand {\n    using SafeMath for uint256;\n    using RLPReader for bytes;\n    using RLPReader for RLPReader.RLPItem;\n\n    uint256 internal constant KB_2 = 2;\n    uint256 internal constant MB_8 = 8 * (10 ** 3);\n    uint256 internal constant MB_512 = 512 * (10 ** 3);\n    uint256 internal constant GB_32 = 32 * (10 ** 6);\n    uint256 internal constant GB_64 = 64 * (10 ** 6);\n    uint256 internal constant TB_1 = 1 * (10 ** 9);\n    uint256 internal constant TB_10 = 10 * (10 ** 9);\n\n    struct Vote {\n        uint256 sectorInx;\n        uint256 sealProofType;\n        bytes sealedCID;\n        bytes proof;\n    }\n\n    struct Sector {\n        uint256 SealProofType;\n        uint256 SectorNumber;\n        uint256 TicketEpoch;\n        uint256 SeedEpoch;\n        bytes SealedCID;\n        bytes UnsealedCID;\n        bytes Proof;\n        bool Check;\n        bool isReal;\n    }\n    W3fsStakingInfo public logger;\n    BorValidatorSet borValidatorSet;\n    bool private inited = false;\n    uint256 public stakeLimit;                                // min can stake\n    uint256 public factor;\n    uint256 public delegatedStakeLimit;\n    uint256 public percentage;\n    uint256 public baseStakeAmount;                           // base stake amount\n    uint256 public totalPower;\n    mapping(address => uint256) public validatorNonce;\n    mapping(address => uint256) public validatorPowers;        // Current miner computing power\n    mapping(address => uint256) public validatorStorageSize;  // Current miner computing storage size\n    mapping(address => uint256) public validatorPromise;      // current miner computing promise size\n    //mapping(address => Vote[]) public validatorVotes;                    // address sealing vote\n    mapping(address => mapping(uint256 => Sector)) public validatorSector;\n    mapping(address => uint256[]) randSeadMap;                           // rand sead\n    mapping(address => uint256[]) realSeadMap;                           // real sead\n    address public registry;\n\n    event UpdatePromise(address indexed signer, uint256 indexed storageSize);\n    event AddNewSealPowerAndSize(uint256 indexed newPower, uint256 indexed newStorageSize, address indexed signer, uint256 nonce);\n\n    modifier onlyStakeManagerOrOwner() {\n        require(msg.sender == owner() || Registry(registry).getW3fsStakeManagerAddress() == msg.sender);\n        _;\n    }\n\n    modifier onlyMiner(address signer) {\n        require(IW3fsStakeManager(Registry(registry).getW3fsStakeManagerAddress()).isActiveMiner(signer), \"on miner\");\n        _;\n    }\n\n    modifier initializer() {\n        require(!inited, \"already inited\");\n        inited = true;\n        _;\n    }\n\n    constructor() public GovernanceLockable(address(0x0)) {\n    }\n\n    function initialize(address _owner, address _registry, address _governance, address _stakingLogger) external initializer {\n        stakeLimit = 20000 * (10 ** 18);\n        delegatedStakeLimit = 50000 * (10 ** 18);\n        percentage = 5;\n        factor = 7;\n        baseStakeAmount = 2000 * (10 ** 18);\n        registry = _registry;\n        governance = IGovernance(_governance);\n        _transferOwnership(_owner);\n        logger = W3fsStakingInfo(_stakingLogger);\n        borValidatorSet = BorValidatorSet(0x0000000000000000000000000000000000001000);\n    }\n\n\n    function checkCanStakeMore(address validatorAddr, uint256 amount, uint256 addStakeMount) external override view returns (bool) {\n        if (amount + addStakeMount > stakeLimit) {\n            uint256 canStakeAmountLimit = showCanStakeAmount(validatorAddr);\n            if (amount + addStakeMount <= canStakeAmountLimit + stakeLimit) {\n                return true;\n            }\n            return false;\n        } else {\n            return true;\n        }\n    }\n\n\n    function checkCandelegatorsMore(uint256 minerId, uint256 addStakeMount) external override view returns (bool) {\n        (, uint256 delegatedAmount, address validatorAddr, , ,) = IW3fsStakeManager(Registry(registry).getW3fsStakeManagerAddress()).getMinerBaseInfo(minerId);\n        if (delegatedAmount + addStakeMount > delegatedStakeLimit) {\n            uint256 canStakeAmountLimit = showCanStakeAmount(validatorAddr);\n            canStakeAmountLimit = canStakeAmountLimit.mul(factor);\n            if (delegatedAmount + addStakeMount <= canStakeAmountLimit + delegatedStakeLimit) {\n                return true;\n            }\n            return false;\n        } else {\n            return true;\n        }\n    }\n\n\n    function showCanStakeAmount(address validatorAddr) public override view returns (uint256) {\n        uint256 basePloidy = 1;\n        uint256 resultAmount = baseStakeAmount;\n        uint256 promiseStorage = validatorPromise[validatorAddr];\n        uint realStorage = validatorStorageSize[validatorAddr];\n        if (promiseStorage < 0 || realStorage < 0) {\n            return 0;\n        }\n        if (!checkEnoughStorage(validatorAddr)) {\n            return 0;\n        }\n        if (realStorage >= TB_1) {\n            basePloidy = 7 + realStorage.div(TB_10);\n        } else if (realStorage >= GB_32) {\n            basePloidy = 4;\n        } else if (realStorage >= MB_512) {\n            basePloidy = 2;\n        } else {\n            basePloidy = 1;\n        }\n        resultAmount = basePloidy.mul(baseStakeAmount);\n        return resultAmount;\n    }\n\n\n    function checkEnoughStorage(address validatorAddr) private view returns (bool) {\n        uint256 promiseStorage = validatorPromise[validatorAddr];\n        uint256 realStorage = validatorStorageSize[validatorAddr];\n        uint256 p_temp = promiseStorage.mul(percentage);\n        uint256 r_temp = realStorage.mul(100);\n        return r_temp >= p_temp ? true : false;\n    }\n\n\n    function updateStoragePromise(address signer, uint256 storageSize) external override onlyStakeManagerOrOwner {\n        validatorPromise[signer] = storageSize;\n        emit UpdatePromise(signer, storageSize);\n    }\n\n\n    function updateStakeLimit(uint256 newStakeLimit) external override onlyGovernance {\n        require(newStakeLimit >= 1000 * (10 ** 18));\n        stakeLimit = newStakeLimit;\n    }\n\n    function updateDelegatedStakeLimit(uint256 newDelegatedStakeLimit) external override onlyGovernance {\n        require(newDelegatedStakeLimit >= 1000 * (10 ** 18));\n        delegatedStakeLimit = newDelegatedStakeLimit;\n    }\n\n    function updatePercentage(uint256 newPercentage) external override onlyGovernance {\n        require(newPercentage > 0, \"newPercentage is wrong\");\n        percentage = newPercentage;\n    }\n\n    function getSealInfo(address signer, uint256 sectorNumber) public view returns (Sector memory) {\n        return validatorSector[signer][sectorNumber];\n    }\n\n\n\n    function getSealInfoAllBySigner(address signer, bool isCheck) public view returns (Sector[] memory) {\n        uint256 realSize = realSeadMap[signer].length;\n        uint256 randSize = randSeadMap[signer].length;\n        uint256 count = 0;\n        if (realSize > 0) {\n            for (uint256 i = 0; i < realSize; i++) {\n                if(isCheck) {\n                    if (validatorSector[signer][realSeadMap[signer][i]].Check == true) {\n                        count++;\n                    }\n                }else {\n                    count++;\n                }\n            }\n        }\n        if (randSize > 0) {\n            for (uint256 i = 0; i < randSize; i++) {\n                if (isCheck) {\n                    if (validatorSector[signer][randSeadMap[signer][i]].Check == true) {\n                        count++;\n                    }\n                }else {\n                    count++;\n                }\n            }\n        }\n        Sector[] memory sectors = new Sector[](count);\n        count = 0;\n        if (realSize > 0) {\n            for (uint256 i = 0; i < realSize; i++) {\n                if(isCheck) {\n                    if(validatorSector[signer][realSeadMap[signer][i]].Check == true) {\n                        sectors[count] = validatorSector[signer][realSeadMap[signer][i]];\n                        count = count + 1;\n                    }\n                }else {\n                    sectors[count] = validatorSector[signer][realSeadMap[signer][i]];\n                    count = count + 1;\n                }\n            }\n        }\n        if (randSize > 0) {\n            for (uint256 i = 0; i < randSize; i++) {\n                if(isCheck) {\n                    if (validatorSector[signer][randSeadMap[signer][i]].Check == true) {\n                        sectors[count] = validatorSector[signer][randSeadMap[signer][i]];\n                        count = count + 1;\n                    }\n                }else {\n                    sectors[count] = validatorSector[signer][randSeadMap[signer][i]];\n                    count = count + 1;\n                }\n            }\n        }\n        return sectors;\n    }\n\n    function addSealInfo(bool isReal, address signer, bytes calldata votes) external onlyMiner(signer) {\n        require(signer == msg.sender, \"signer is wrong\");\n        RLPReader.RLPItem[] memory votesItems = votes.toRlpItem().toList();\n        require(votesItems.length == 1, \"length is wrong\");\n        for (uint256 i = 0; i < votesItems.length ; i++) {\n            RLPReader.RLPItem[] memory v = votesItems[i].toList();\n            require(validatorSector[signer][v[1].toUint()].SealProofType == 0 , \"already exists\");\n            validatorSector[signer][v[1].toUint()] = Sector({\n                SealProofType : v[0].toUint(),\n                SectorNumber : v[1].toUint(),\n                TicketEpoch : v[2].toUint(),\n                SeedEpoch : v[3].toUint(),\n                SealedCID : v[4].toBytes(),\n                UnsealedCID : v[5].toBytes(),\n                Proof : v[6].toBytes(),\n                Check : false,\n                isReal : isReal ? true : false\n            });\n            if (isReal) {\n                realSeadMap[signer].push(v[1].toUint());\n            } else {\n                randSeadMap[signer].push(v[1].toUint());\n            }\n            validatorNonce[signer] = validatorNonce[signer].add(1);\n            validatorPowers[signer] = validatorPowers[signer].add(2000);\n            //emit AddSector(signer, v[0].toUint(), v[1].toUint(), v[2].toUint(), v[3].toUint(), v[4].toBytes(), v[5].toBytes(), v[6].toBytes());\n            logger.logAddSector(signer, v[0].toUint(), v[1].toUint(), v[2].toUint(), v[3].toUint(), v[4].toBytes(), v[5].toBytes(), v[6].toBytes());\n        }\n    }\n\n    function checkSealSigs(bytes calldata data, uint[3][] calldata sigs) external override {\n        uint256 _totalPower;\n        uint256 _sigPower;\n        (address signer, uint256 sealProofType, uint256 sectorNumber, uint256 blockNumber) = abi.decode(data, (address, uint256, uint256, uint256));\n        /**\n                prefix 01 to data\n                01 represents positive vote on data and 00 is negative vote\n                malicious validator can try to send 2/3 on negative vote so 01 is appended\n        */\n        bytes32 voteHash = keccak256(abi.encodePacked(bytes(hex\"01\"), data));\n        (address[] memory validators, uint256[] memory powers) = borValidatorSet.getBorValidators(blockNumber);\n        for (uint256 i = 0 ; i < powers.length ; ++i) {\n            _totalPower = _totalPower.add(powers[i]);\n        }\n        for (uint256 i = 0; i < sigs.length; ++i) {\n            address _signer = ECVerify.ecrecovery2(voteHash, sigs[i]);\n            for(uint256 j = 0 ; j < validators.length ; ++j) {\n                if(_signer == validators[j]) {\n                    _sigPower = _sigPower.add(powers[j]);\n                    break;\n                }\n            }\n        }\n        require(_sigPower >= _totalPower.mul(2).div(3), \"2/3+1 Power required\");\n        Sector storage sector = validatorSector[signer][sectorNumber];\n        if (sector.Check == false && sector.SealProofType == sealProofType && bytes(sector.Proof).length > 0) {\n            // add power\n            (uint256 newPower, uint256 storageSize) = getPowerByProofType(sealProofType);\n            validatorPowers[signer] = validatorPowers[signer].add(newPower);\n            validatorStorageSize[signer] = validatorStorageSize[signer].add(storageSize);\n            totalPower = totalPower.add(newPower);\n            sector.Check = true;\n            // TODO save event log ...\n        }\n    }\n\n\n    function _removeRealSeadMap(address signer, uint256 sectorNumberToDel) internal {\n        uint256[] storage sectorNumbers = realSeadMap[signer];\n        uint256 totalSigners = sectorNumbers.length;\n        uint256 swapSectorNumber = sectorNumbers[totalSigners - 1];\n        sectorNumbers.pop();\n        for (uint256 i = totalSigners - 1; i > 0; --i) {\n            if (swapSectorNumber == sectorNumberToDel) {\n                break;\n            }\n            (swapSectorNumber, sectorNumbers[i - 1]) = (sectorNumbers[i - 1], swapSectorNumber);\n        }\n    }\n\n    function _removeRandSeadMap(address signer, uint256 sectorNumberToDel) internal {\n        uint256[] storage sectorNumbers = randSeadMap[signer];\n        uint256 totalSigners = sectorNumbers.length;\n        uint256 swapSectorNumber = sectorNumbers[totalSigners - 1];\n        sectorNumbers.pop();\n        for (uint256 i = totalSigners - 1; i > 0; --i) {\n            if (swapSectorNumber == sectorNumberToDel) {\n                break;\n            }\n            (swapSectorNumber, sectorNumbers[i - 1]) = (sectorNumbers[i - 1], swapSectorNumber);\n        }\n    }\n\n\n    // get power by sealProofType\n    function getPowerByProofType(uint256 sealProofType) private pure returns (uint256, uint256) {\n        uint256 power;\n        uint256 size;\n        if (sealProofType == 0 || sealProofType == 5) {\n            // 2KiB - 1024\n            //sealSize = 2 ** 10;\n            power = 1000;\n            size = 2;\n        } else if (sealProofType == 1 || sealProofType == 6) {\n            // 8MiB - 8388608\n            //sealSize = 8 * 2 ** 20;\n            power = 5000;\n            size = 8 * 1000;\n        } else if (sealProofType == 2 || sealProofType == 7) {\n            // 512MiB - 536870912\n            //sealSize = 512 * 2 ** 20;\n            power = 10000;\n            size = 512 * 1000;\n        } else if (sealProofType == 3 || sealProofType == 8) {\n            // 32GiB - 34359738368\n            //sealSize = 32 * 2 ** 30;\n            power = 30000;\n            size = 32 * 1000 * 1000;\n        } else if (sealProofType == 4 || sealProofType == 9) {\n            // 64GiB\n            power = 40000;\n            size = 64 * 1000 * 1000;\n        }\n        return (power, size);\n    }\n\n    function getValidatorPower(address signer) external override view returns (uint256) {\n        return validatorPowers[signer];\n    }\n\n    function getAllValidatorPower(bytes memory validatorBytes) public view returns (address[] memory, uint256[] memory) {\n        RLPReader.RLPItem[] memory validatorItems = validatorBytes.toRlpItem().toList();\n        address[] memory addrs = new address[](validatorItems.length);\n        uint256[] memory powers = new uint256[](validatorItems.length);\n        for (uint256 i = 0; i < validatorItems.length; i++) {\n            RLPReader.RLPItem[] memory v = validatorItems[i].toList();\n            addrs[i] = v[0].toAddress();\n            powers[i] = validatorPowers[v[0].toAddress()];\n        }\n        return (addrs, powers);\n    }\n\n}\n",
  "sourcePath": "/root/testnet/code/w3fs-genesis-contracts-bridge/contracts/storage/W3fsStorageManager.sol",
  "compiler": {
    "name": "solc",
    "version": "0.6.6+commit.6c089d02.Emscripten.clang"
  },
  "schemaVersion": "3.4.10",
  "updatedAt": "2022-11-17T03:12:05.959Z",
  "networkType": "ethereum",
  "devdoc": {
    "methods": {
      "owner()": {
        "details": "Returns the address of the current owner."
      },
      "renounceOwnership()": {
        "details": "Leaves the contract without owner. It will not be possible to call `onlyOwner` functions anymore. Can only be called by the current owner.     * NOTE: Renouncing ownership will leave the contract without an owner, thereby removing any functionality that is only available to the owner."
      },
      "transferOwnership(address)": {
        "details": "Transfers ownership of the contract to a new account (`newOwner`). Can only be called by the current owner."
      }
    }
  },
  "userdoc": {
    "methods": {}
  }
}