{
  "contractName": "W3fsStakingNFT",
  "abi": [
    {
      "inputs": [
        {
          "internalType": "string",
          "name": "name",
          "type": "string"
        },
        {
          "internalType": "string",
          "name": "symbol",
          "type": "string"
        }
      ],
      "stateMutability": "nonpayable",
      "type": "constructor"
    },
    {
      "anonymous": false,
      "inputs": [
        {
          "indexed": true,
          "internalType": "address",
          "name": "owner",
          "type": "address"
        },
        {
          "indexed": true,
          "internalType": "address",
          "name": "approved",
          "type": "address"
        },
        {
          "indexed": true,
          "internalType": "uint256",
          "name": "tokenId",
          "type": "uint256"
        }
      ],
      "name": "Approval",
      "type": "event"
    },
    {
      "anonymous": false,
      "inputs": [
        {
          "indexed": true,
          "internalType": "address",
          "name": "owner",
          "type": "address"
        },
        {
          "indexed": true,
          "internalType": "address",
          "name": "operator",
          "type": "address"
        },
        {
          "indexed": false,
          "internalType": "bool",
          "name": "approved",
          "type": "bool"
        }
      ],
      "name": "ApprovalForAll",
      "type": "event"
    },
    {
      "anonymous": false,
      "inputs": [
        {
          "indexed": true,
          "internalType": "address",
          "name": "previousOwner",
          "type": "address"
        },
        {
          "indexed": true,
          "internalType": "address",
          "name": "newOwner",
          "type": "address"
        }
      ],
      "name": "OwnershipTransferred",
      "type": "event"
    },
    {
      "anonymous": false,
      "inputs": [
        {
          "indexed": true,
          "internalType": "address",
          "name": "from",
          "type": "address"
        },
        {
          "indexed": true,
          "internalType": "address",
          "name": "to",
          "type": "address"
        },
        {
          "indexed": true,
          "internalType": "uint256",
          "name": "tokenId",
          "type": "uint256"
        }
      ],
      "name": "Transfer",
      "type": "event"
    },
    {
      "inputs": [
        {
          "internalType": "address",
          "name": "to",
          "type": "address"
        },
        {
          "internalType": "uint256",
          "name": "tokenId",
          "type": "uint256"
        }
      ],
      "name": "approve",
      "outputs": [],
      "stateMutability": "nonpayable",
      "type": "function"
    },
    {
      "inputs": [
        {
          "internalType": "address",
          "name": "owner",
          "type": "address"
        }
      ],
      "name": "balanceOf",
      "outputs": [
        {
          "internalType": "uint256",
          "name": "",
          "type": "uint256"
        }
      ],
      "stateMutability": "view",
      "type": "function",
      "constant": true
    },
    {
      "inputs": [],
      "name": "baseURI",
      "outputs": [
        {
          "internalType": "string",
          "name": "",
          "type": "string"
        }
      ],
      "stateMutability": "view",
      "type": "function",
      "constant": true
    },
    {
      "inputs": [
        {
          "internalType": "uint256",
          "name": "tokenId",
          "type": "uint256"
        }
      ],
      "name": "getApproved",
      "outputs": [
        {
          "internalType": "address",
          "name": "",
          "type": "address"
        }
      ],
      "stateMutability": "view",
      "type": "function",
      "constant": true
    },
    {
      "inputs": [
        {
          "internalType": "address",
          "name": "owner",
          "type": "address"
        },
        {
          "internalType": "address",
          "name": "operator",
          "type": "address"
        }
      ],
      "name": "isApprovedForAll",
      "outputs": [
        {
          "internalType": "bool",
          "name": "",
          "type": "bool"
        }
      ],
      "stateMutability": "view",
      "type": "function",
      "constant": true
    },
    {
      "inputs": [],
      "name": "name",
      "outputs": [
        {
          "internalType": "string",
          "name": "",
          "type": "string"
        }
      ],
      "stateMutability": "view",
      "type": "function",
      "constant": true
    },
    {
      "inputs": [],
      "name": "owner",
      "outputs": [
        {
          "internalType": "address",
          "name": "",
          "type": "address"
        }
      ],
      "stateMutability": "view",
      "type": "function",
      "constant": true
    },
    {
      "inputs": [
        {
          "internalType": "uint256",
          "name": "tokenId",
          "type": "uint256"
        }
      ],
      "name": "ownerOf",
      "outputs": [
        {
          "internalType": "address",
          "name": "",
          "type": "address"
        }
      ],
      "stateMutability": "view",
      "type": "function",
      "constant": true
    },
    {
      "inputs": [],
      "name": "renounceOwnership",
      "outputs": [],
      "stateMutability": "nonpayable",
      "type": "function"
    },
    {
      "inputs": [
        {
          "internalType": "address",
          "name": "from",
          "type": "address"
        },
        {
          "internalType": "address",
          "name": "to",
          "type": "address"
        },
        {
          "internalType": "uint256",
          "name": "tokenId",
          "type": "uint256"
        }
      ],
      "name": "safeTransferFrom",
      "outputs": [],
      "stateMutability": "nonpayable",
      "type": "function"
    },
    {
      "inputs": [
        {
          "internalType": "address",
          "name": "from",
          "type": "address"
        },
        {
          "internalType": "address",
          "name": "to",
          "type": "address"
        },
        {
          "internalType": "uint256",
          "name": "tokenId",
          "type": "uint256"
        },
        {
          "internalType": "bytes",
          "name": "_data",
          "type": "bytes"
        }
      ],
      "name": "safeTransferFrom",
      "outputs": [],
      "stateMutability": "nonpayable",
      "type": "function"
    },
    {
      "inputs": [
        {
          "internalType": "address",
          "name": "operator",
          "type": "address"
        },
        {
          "internalType": "bool",
          "name": "approved",
          "type": "bool"
        }
      ],
      "name": "setApprovalForAll",
      "outputs": [],
      "stateMutability": "nonpayable",
      "type": "function"
    },
    {
      "inputs": [
        {
          "internalType": "bytes4",
          "name": "interfaceId",
          "type": "bytes4"
        }
      ],
      "name": "supportsInterface",
      "outputs": [
        {
          "internalType": "bool",
          "name": "",
          "type": "bool"
        }
      ],
      "stateMutability": "view",
      "type": "function",
      "constant": true
    },
    {
      "inputs": [],
      "name": "symbol",
      "outputs": [
        {
          "internalType": "string",
          "name": "",
          "type": "string"
        }
      ],
      "stateMutability": "view",
      "type": "function",
      "constant": true
    },
    {
      "inputs": [
        {
          "internalType": "uint256",
          "name": "index",
          "type": "uint256"
        }
      ],
      "name": "tokenByIndex",
      "outputs": [
        {
          "internalType": "uint256",
          "name": "",
          "type": "uint256"
        }
      ],
      "stateMutability": "view",
      "type": "function",
      "constant": true
    },
    {
      "inputs": [
        {
          "internalType": "address",
          "name": "owner",
          "type": "address"
        },
        {
          "internalType": "uint256",
          "name": "index",
          "type": "uint256"
        }
      ],
      "name": "tokenOfOwnerByIndex",
      "outputs": [
        {
          "internalType": "uint256",
          "name": "",
          "type": "uint256"
        }
      ],
      "stateMutability": "view",
      "type": "function",
      "constant": true
    },
    {
      "inputs": [
        {
          "internalType": "uint256",
          "name": "tokenId",
          "type": "uint256"
        }
      ],
      "name": "tokenURI",
      "outputs": [
        {
          "internalType": "string",
          "name": "",
          "type": "string"
        }
      ],
      "stateMutability": "view",
      "type": "function",
      "constant": true
    },
    {
      "inputs": [],
      "name": "totalSupply",
      "outputs": [
        {
          "internalType": "uint256",
          "name": "",
          "type": "uint256"
        }
      ],
      "stateMutability": "view",
      "type": "function",
      "constant": true
    },
    {
      "inputs": [
        {
          "internalType": "address",
          "name": "from",
          "type": "address"
        },
        {
          "internalType": "address",
          "name": "to",
          "type": "address"
        },
        {
          "internalType": "uint256",
          "name": "tokenId",
          "type": "uint256"
        }
      ],
      "name": "transferFrom",
      "outputs": [],
      "stateMutability": "nonpayable",
      "type": "function"
    },
    {
      "inputs": [
        {
          "internalType": "address",
          "name": "newOwner",
          "type": "address"
        }
      ],
      "name": "transferOwnership",
      "outputs": [],
      "stateMutability": "nonpayable",
      "type": "function"
    },
    {
      "inputs": [
        {
          "internalType": "address",
          "name": "to",
          "type": "address"
        },
        {
          "internalType": "uint256",
          "name": "tokenId",
          "type": "uint256"
        }
      ],
      "name": "mint",
      "outputs": [],
      "stateMutability": "nonpayable",
      "type": "function"
    },
    {
      "inputs": [
        {
          "internalType": "uint256",
          "name": "tokenId",
          "type": "uint256"
        }
      ],
      "name": "burn",
      "outputs": [],
      "stateMutability": "nonpayable",
      "type": "function"
    }
  ],
  "bytecode": "0x60806040523480156200001157600080fd5b506040516200274638038062002746833981810160405260408110156200003757600080fd5b81019080805160405193929190846401000000008211156200005857600080fd5b9083019060208201858111156200006e57600080fd5b82516401000000008111828201881017156200008957600080fd5b82525081516020918201929091019080838360005b83811015620000b85781810151838201526020016200009e565b50505050905090810190601f168015620000e65780820380516001836020036101000a031916815260200191505b50604052602001805160405193929190846401000000008211156200010a57600080fd5b9083019060208201858111156200012057600080fd5b82516401000000008111828201881017156200013b57600080fd5b82525081516020918201929091019080838360005b838110156200016a57818101518382015260200162000150565b50505050905090810190601f168015620001985780820380516001836020036101000a031916815260200191505b5060405250839150829050620001d77f01ffc9a70000000000000000000000000000000000000000000000000000000064010000000062000312810204565b8151620001ec906006906020850190620003e6565b50805162000202906007906020840190620003e6565b50620002377f80ac58cd0000000000000000000000000000000000000000000000000000000064010000000062000312810204565b6200026b7f5b5e139f0000000000000000000000000000000000000000000000000000000064010000000062000312810204565b6200029f7f780e9d630000000000000000000000000000000000000000000000000000000064010000000062000312810204565b50506000620002bc620003e1640100000000026401000000009004565b600a8054600160a060020a031916600160a060020a038316908117909155604051919250906000907f8be0079c531659141344cd1fd0a4f28419497f9722a3daafe3b4186f6b6457e0908290a350505062000488565b7fffffffff000000000000000000000000000000000000000000000000000000008082161415620003a457604080517f08c379a000000000000000000000000000000000000000000000000000000000815260206004820152601c60248201527f4552433136353a20696e76616c696420696e7465726661636520696400000000604482015290519081900360640190fd5b7fffffffff00000000000000000000000000000000000000000000000000000000166000908152602081905260409020805460ff19166001179055565b335b90565b828054600181600116156101000203166002900490600052602060002090601f016020900481019282601f106200042957805160ff191683800117855562000459565b8280016001018555821562000459579182015b82811115620004595782518255916020019190600101906200043c565b50620004679291506200046b565b5090565b620003e391905b8082111562000467576000815560010162000472565b6122ae80620004986000396000f3fe608060405234801561001057600080fd5b506004361061015f576000357c0100000000000000000000000000000000000000000000000000000000900480636352211e116100d557806395d89b411161009957806395d89b411461040b578063a22cb46514610413578063b88d4fde14610441578063c87b56dd14610507578063e985e9c514610524578063f2fde38b146105525761015f565b80636352211e146103b05780636c0360eb146103cd57806370a08231146103d5578063715018a6146103fb5780638da5cb5b146104035761015f565b806323b872dd1161012757806323b872dd146102b25780632f745c59146102e857806340c10f191461031457806342842e0e1461034057806342966c68146103765780634f6ccce7146103935761015f565b806301ffc9a71461016457806306fdde03146101b4578063081812fc14610231578063095ea7b31461026a57806318160ddd14610298575b600080fd5b6101a06004803603602081101561017a57600080fd5b50357bffffffffffffffffffffffffffffffffffffffffffffffffffffffff1916610578565b604080519115158252519081900360200190f35b6101bc6105b0565b6040805160208082528351818301528351919283929083019185019080838360005b838110156101f65781810151838201526020016101de565b50505050905090810190601f1680156102235780820380516001836020036101000a031916815260200191505b509250505060405180910390f35b61024e6004803603602081101561024757600080fd5b5035610647565b60408051600160a060020a039092168252519081900360200190f35b6102966004803603604081101561028057600080fd5b50600160a060020a0381351690602001356106ac565b005b6102a061078d565b60408051918252519081900360200190f35b610296600480360360608110156102c857600080fd5b50600160a060020a0381358116916020810135909116906040013561079e565b6102a0600480360360408110156102fe57600080fd5b50600160a060020a0381351690602001356107f8565b6102966004803603604081101561032a57600080fd5b50600160a060020a038135169060200135610829565b6102966004803603606081101561035657600080fd5b50600160a060020a038135811691602081013590911690604001356108e4565b6102966004803603602081101561038c57600080fd5b50356108ff565b6102a0600480360360208110156103a957600080fd5b5035610970565b61024e600480360360208110156103c657600080fd5b503561098c565b6101bc6109ba565b6102a0600480360360208110156103eb57600080fd5b5035600160a060020a0316610a1b565b610296610a86565b61024e610b42565b6101bc610b51565b6102966004803603604081101561042957600080fd5b50600160a060020a0381351690602001351515610bb2565b6102966004803603608081101561045757600080fd5b600160a060020a0382358116926020810135909116916040820135919081019060808101606082013564010000000081111561049257600080fd5b8201836020820111156104a457600080fd5b803590602001918460018302840111640100000000831117156104c657600080fd5b91908080601f016020809104026020016040519081016040528093929190818152602001838380828437600092019190915250929550610cba945050505050565b6101bc6004803603602081101561051d57600080fd5b5035610d1b565b6101a06004803603604081101561053a57600080fd5b50600160a060020a0381358116916020013516610fa1565b6102966004803603602081101561056857600080fd5b5035600160a060020a0316610fcf565b7bffffffffffffffffffffffffffffffffffffffffffffffffffffffff19811660009081526020819052604090205460ff165b919050565b60068054604080516020601f600260001961010060018816150201909516949094049384018190048102820181019092528281526060939092909183018282801561063c5780601f106106115761010080835404028352916020019161063c565b820191906000526020600020905b81548152906001019060200180831161061f57829003601f168201915b505050505090505b90565b6000610652826110e5565b6106905760405160e560020a62461bcd02815260040180806020018281038252602c815260200180612183602c913960400191505060405180910390fd5b50600090815260046020526040902054600160a060020a031690565b60006106b78261098c565b905080600160a060020a031683600160a060020a0316141561070d5760405160e560020a62461bcd0281526004018080602001828103825260218152602001806122276021913960400191505060405180910390fd5b80600160a060020a031661071f6110f8565b600160a060020a0316148061074057506107408161073b6110f8565b610fa1565b61077e5760405160e560020a62461bcd0281526004018080602001828103825260388152602001806120d66038913960400191505060405180910390fd5b61078883836110fc565b505050565b60006107996002611177565b905090565b6107af6107a96110f8565b82611182565b6107ed5760405160e560020a62461bcd0281526004018080602001828103825260318152602001806122486031913960400191505060405180910390fd5b610788838383611229565b600160a060020a0382166000908152600160205260408120610820908363ffffffff61138d16565b90505b92915050565b6108316110f8565b600160a060020a0316610842610b42565b600160a060020a03161461088e576040805160e560020a62461bcd02815260206004820181905260248201526000805160206121af833981519152604482015290519081900360640190fd5b61089782610a1b565b156108d65760405160e560020a62461bcd0281526004018080602001828103825260328152602001806120546032913960400191505060405180910390fd5b6108e08282611399565b5050565b61078883838360405180602001604052806000815250610cba565b6109076110f8565b600160a060020a0316610918610b42565b600160a060020a031614610964576040805160e560020a62461bcd02815260206004820181905260248201526000805160206121af833981519152604482015290519081900360640190fd5b61096d816114d9565b50565b60008061098460028463ffffffff6115b216565b509392505050565b600061082382604051806060016040528060298152602001612138602991396002919063ffffffff6115ce16565b60098054604080516020601f600260001961010060018816150201909516949094049384018190048102820181019092528281526060939092909183018282801561063c5780601f106106115761010080835404028352916020019161063c565b6000600160a060020a038216610a655760405160e560020a62461bcd02815260040180806020018281038252602a81526020018061210e602a913960400191505060405180910390fd5b600160a060020a038216600090815260016020526040902061082390611177565b610a8e6110f8565b600160a060020a0316610a9f610b42565b600160a060020a031614610aeb576040805160e560020a62461bcd02815260206004820181905260248201526000805160206121af833981519152604482015290519081900360640190fd5b600a54604051600091600160a060020a0316907f8be0079c531659141344cd1fd0a4f28419497f9722a3daafe3b4186f6b6457e0908390a3600a805473ffffffffffffffffffffffffffffffffffffffff19169055565b600a54600160a060020a031690565b60078054604080516020601f600260001961010060018816150201909516949094049384018190048102820181019092528281526060939092909183018282801561063c5780601f106106115761010080835404028352916020019161063c565b610bba6110f8565b600160a060020a031682600160a060020a03161415610c23576040805160e560020a62461bcd02815260206004820152601960248201527f4552433732313a20617070726f766520746f2063616c6c657200000000000000604482015290519081900360640190fd5b8060056000610c306110f8565b600160a060020a03908116825260208083019390935260409182016000908120918716808252919093529120805460ff191692151592909217909155610c746110f8565b6040805184151581529051600160a060020a0392909216917f17307eab39ab6107e8899845ad3d59bd9653f200f220920489ca2b5937696c319181900360200190a35050565b610ccb610cc56110f8565b83611182565b610d095760405160e560020a62461bcd0281526004018080602001828103825260318152602001806122486031913960400191505060405180910390fd5b610d15848484846115e5565b50505050565b6060610d26826110e5565b610d645760405160e560020a62461bcd02815260040180806020018281038252602f8152602001806121f8602f913960400191505060405180910390fd5b60008281526008602090815260409182902080548351601f6002600019610100600186161502019093169290920491820184900484028101840190945280845260609392830182828015610df95780601f10610dce57610100808354040283529160200191610df9565b820191906000526020600020905b815481529060010190602001808311610ddc57829003601f168201915b505050505090506060610e0a6109ba565b9050805160001415610e1e575090506105ab565b815115610edf5780826040516020018083805190602001908083835b60208310610e595780518252601f199092019160209182019101610e3a565b51815160209384036101000a600019018019909216911617905285519190930192850191508083835b60208310610ea15780518252601f199092019160209182019101610e82565b6001836020036101000a03801982511681845116808217855250505050505090500192505050604051602081830303815290604052925050506105ab565b80610ee98561163a565b6040516020018083805190602001908083835b60208310610f1b5780518252601f199092019160209182019101610efc565b51815160209384036101000a600019018019909216911617905285519190930192850191508083835b60208310610f635780518252601f199092019160209182019101610f44565b6001836020036101000a0380198251168184511680821785525050505050509050019250505060405160208183030381529060405292505050919050565b600160a060020a03918216600090815260056020908152604080832093909416825291909152205460ff1690565b610fd76110f8565b600160a060020a0316610fe8610b42565b600160a060020a031614611034576040805160e560020a62461bcd02815260206004820181905260248201526000805160206121af833981519152604482015290519081900360640190fd5b600160a060020a03811661107c5760405160e560020a62461bcd02815260040180806020018281038252602681526020018061202e6026913960400191505060405180910390fd5b600a54604051600160a060020a038084169216907f8be0079c531659141344cd1fd0a4f28419497f9722a3daafe3b4186f6b6457e090600090a3600a805473ffffffffffffffffffffffffffffffffffffffff1916600160a060020a0392909216919091179055565b600061082360028363ffffffff61176816565b3390565b6000818152600460205260409020805473ffffffffffffffffffffffffffffffffffffffff1916600160a060020a038416908117909155819061113e8261098c565b600160a060020a03167f8c5be1e5ebec7d5bd14f71427d1e84f3dd0314c0f7b2291e5b200ac8c7c3b92560405160405180910390a45050565b600061082382611774565b600061118d826110e5565b6111cb5760405160e560020a62461bcd02815260040180806020018281038252602c8152602001806120aa602c913960400191505060405180910390fd5b60006111d68361098c565b905080600160a060020a031684600160a060020a03161480611211575083600160a060020a031661120684610647565b600160a060020a0316145b8061122157506112218185610fa1565b949350505050565b82600160a060020a031661123c8261098c565b600160a060020a0316146112845760405160e560020a62461bcd0281526004018080602001828103825260298152602001806121cf6029913960400191505060405180910390fd5b600160a060020a0382166112cc5760405160e560020a62461bcd0281526004018080602001828103825260248152602001806120866024913960400191505060405180910390fd5b6112d7838383610788565b6112e26000826110fc565b600160a060020a038316600090815260016020526040902061130a908263ffffffff61177816565b50600160a060020a0382166000908152600160205260409020611333908263ffffffff61178416565b506113466002828463ffffffff61179016565b508082600160a060020a031684600160a060020a03167fddf252ad1be2c89b69c2b068fc378daa952ba7f163c4a11628f55a4df523b3ef60405160405180910390a4505050565b600061082083836117a6565b600160a060020a0382166113f7576040805160e560020a62461bcd02815260206004820181905260248201527f4552433732313a206d696e7420746f20746865207a65726f2061646472657373604482015290519081900360640190fd5b611400816110e5565b15611455576040805160e560020a62461bcd02815260206004820152601c60248201527f4552433732313a20746f6b656e20616c7265616479206d696e74656400000000604482015290519081900360640190fd5b61146160008383610788565b600160a060020a0382166000908152600160205260409020611489908263ffffffff61178416565b5061149c6002828463ffffffff61179016565b506040518190600160a060020a038416906000907fddf252ad1be2c89b69c2b068fc378daa952ba7f163c4a11628f55a4df523b3ef908290a45050565b60006114e48261098c565b90506114f281600084610788565b6114fd6000836110fc565b600082815260086020526040902054600260001961010060018416150201909116041561153b57600082815260086020526040812061153b91611f80565b600160a060020a0381166000908152600160205260409020611563908363ffffffff61177816565b5061157560028363ffffffff61180d16565b506040518290600090600160a060020a038416907fddf252ad1be2c89b69c2b068fc378daa952ba7f163c4a11628f55a4df523b3ef908390a45050565b60008080806115c18686611819565b9097909650945050505050565b60006115db848484611897565b90505b9392505050565b6115f0848484611229565b6115fc84848484611964565b610d155760405160e560020a62461bcd028152600401808060200182810382526032815260200180611ffc6032913960400191505060405180910390fd5b60608161167b575060408051808201909152600181527f300000000000000000000000000000000000000000000000000000000000000060208201526105ab565b8160005b811561169357600101600a8204915061167f565b60608167ffffffffffffffff811180156116ac57600080fd5b506040519080825280601f01601f1916602001820160405280156116d7576020820181803683370190505b50859350905060001982015b831561175f57600a84066030017f0100000000000000000000000000000000000000000000000000000000000000028282806001900393508151811061172557fe5b60200101907effffffffffffffffffffffffffffffffffffffffffffffffffffffffffffff1916908160001a905350600a840493506116e3565b50949350505050565b60006108208383611b55565b5490565b60006108208383611b6d565b60006108208383611c33565b60006115db8484600160a060020a038516611c7d565b815460009082106117eb5760405160e560020a62461bcd028152600401808060200182810382526022815260200180611fda6022913960400191505060405180910390fd5b8260000182815481106117fa57fe5b9060005260206000200154905092915050565b60006108208383611d14565b8154600090819083106118605760405160e560020a62461bcd0281526004018080602001828103825260228152602001806121616022913960400191505060405180910390fd5b600084600001848154811061187157fe5b906000526020600020906002020190508060000154816001015492509250509250929050565b600082815260018401602052604081205482816119355760405160e560020a62461bcd0281526004018080602001828103825283818151815260200191508051906020019080838360005b838110156118fa5781810151838201526020016118e2565b50505050905090810190601f1680156119275780820380516001836020036101000a031916815260200191505b509250505060405180910390fd5b5084600001600182038154811061194857fe5b9060005260206000209060020201600101549150509392505050565b600061197884600160a060020a0316611de8565b61198457506001611221565b6060611aed7f150b7a02000000000000000000000000000000000000000000000000000000006119b26110f8565b8887876040516024018085600160a060020a0316600160a060020a0316815260200184600160a060020a0316600160a060020a0316815260200183815260200180602001828103825283818151815260200191508051906020019080838360005b83811015611a2b578181015183820152602001611a13565b50505050905090810190601f168015611a585780820380516001836020036101000a031916815260200191505b5095505050505050604051602081830303815290604052907bffffffffffffffffffffffffffffffffffffffffffffffffffffffff19166020820180517bffffffffffffffffffffffffffffffffffffffffffffffffffffffff8381831617835250505050604051806060016040528060328152602001611ffc60329139600160a060020a038816919063ffffffff611dee16565b90506000818060200190516020811015611b0657600080fd5b50517bffffffffffffffffffffffffffffffffffffffffffffffffffffffff19167f150b7a02000000000000000000000000000000000000000000000000000000001492505050949350505050565b60009081526001919091016020526040902054151590565b60008181526001830160205260408120548015611c295783546000198083019190810190600090879083908110611ba057fe5b9060005260206000200154905080876000018481548110611bbd57fe5b600091825260208083209091019290925582815260018981019092526040902090840190558654879080611bed57fe5b60019003818190600052602060002001600090559055866001016000878152602001908152602001600020600090556001945050505050610823565b6000915050610823565b6000611c3f8383611b55565b611c7557508154600181810184556000848152602080822090930184905584548482528286019093526040902091909155610823565b506000610823565b600082815260018401602052604081205480611ce25750506040805180820182528381526020808201848152865460018181018955600089815284812095516002909302909501918255915190820155865486845281880190925292909120556115de565b82856000016001830381548110611cf557fe5b90600052602060002090600202016001018190555060009150506115de565b60008181526001830160205260408120548015611c295783546000198083019190810190600090879083908110611d4757fe5b9060005260206000209060020201905080876000018481548110611d6757fe5b600091825260208083208454600290930201918255600193840154918401919091558354825289830190526040902090840190558654879080611da657fe5b60008281526020808220600260001990940193840201828155600190810183905592909355888152898201909252604082209190915594506108239350505050565b3b151590565b60606115db848460008585611e0285611de8565b611e56576040805160e560020a62461bcd02815260206004820152601d60248201527f416464726573733a2063616c6c20746f206e6f6e2d636f6e7472616374000000604482015290519081900360640190fd5b6000606086600160a060020a031685876040518082805190602001908083835b60208310611e955780518252601f199092019160209182019101611e76565b6001836020036101000a03801982511681845116808217855250505050505090500191505060006040518083038185875af1925050503d8060008114611ef7576040519150601f19603f3d011682016040523d82523d6000602084013e611efc565b606091505b5091509150611f0c828286611f17565b979650505050505050565b60608315611f265750816115de565b825115611f365782518084602001fd5b60405160e560020a62461bcd0281526020600482018181528451602484015284518593919283926044019190850190808383600083156118fa5781810151838201526020016118e2565b50805460018160011615610100020316600290046000825580601f10611fa6575061096d565b600091825260209182902061096d9261064492601f01048101905b80821115611fd55760008155600101611fc1565b509056fe456e756d657261626c655365743a20696e646578206f7574206f6620626f756e64734552433732313a207472616e7366657220746f206e6f6e20455243373231526563656976657220696d706c656d656e7465724f776e61626c653a206e6577206f776e657220697320746865207a65726f206164647265737353746f726167654d696e657273204d555354204e4f54206f776e206d756c7469706c65207374616b6520706f736974696f6e4552433732313a207472616e7366657220746f20746865207a65726f20616464726573734552433732313a206f70657261746f7220717565727920666f72206e6f6e6578697374656e7420746f6b656e4552433732313a20617070726f76652063616c6c6572206973206e6f74206f776e6572206e6f7220617070726f76656420666f7220616c6c4552433732313a2062616c616e636520717565727920666f7220746865207a65726f20616464726573734552433732313a206f776e657220717565727920666f72206e6f6e6578697374656e7420746f6b656e456e756d657261626c654d61703a20696e646578206f7574206f6620626f756e64734552433732313a20617070726f76656420717565727920666f72206e6f6e6578697374656e7420746f6b656e4f776e61626c653a2063616c6c6572206973206e6f7420746865206f776e65724552433732313a207472616e73666572206f6620746f6b656e2074686174206973206e6f74206f776e4552433732314d657461646174613a2055524920717565727920666f72206e6f6e6578697374656e7420746f6b656e4552433732313a20617070726f76616c20746f2063757272656e74206f776e65724552433732313a207472616e736665722063616c6c6572206973206e6f74206f776e6572206e6f7220617070726f766564a26469706673582212205e5f6769dfd7d5bd8f1fe1ddef5d496f7c3b9ebadb2618057cd8da7e923c123864736f6c63430006060033",
  "immutableReferences": {},
  "source": "pragma solidity ^0.6.6;\n\nimport {ERC721} from \"@openzeppelin/contracts/token/ERC721/ERC721.sol\";\nimport {Ownable} from \"@openzeppelin/contracts/access/Ownable.sol\";\n\ncontract W3fsStakingNFT is ERC721, Ownable {\n\n    constructor(string memory name, string memory symbol) public ERC721(name, symbol){\n\n    }\n\n    function mint(address to, uint256 tokenId) public onlyOwner {\n        require(balanceOf(to) == 0, \"StorageMiners MUST NOT own multiple stake position\");\n        _mint(to, tokenId);\n    }\n\n    function burn(uint256 tokenId) public onlyOwner {\n        _burn(tokenId);\n    }\n\n    function _transferFrom(address from, address to, uint256 tokenId) internal {\n        require(balanceOf(to) == 0, \"StorageMiners MUST NOT own multiple stake position\");\n        transferFrom(from, to, tokenId);\n    }\n\n}\n",
  "sourcePath": "/root/testnet/code/w3fs-genesis-contracts-bridge/contracts/staking/stakeManager/W3fsStakingNFT.sol",
  "compiler": {
    "name": "solc",
    "version": "0.6.6+commit.6c089d02.Emscripten.clang"
  },
  "schemaVersion": "3.4.10",
  "updatedAt": "2022-11-17T03:12:05.767Z",
  "networkType": "ethereum",
  "devdoc": {
    "methods": {
      "approve(address,uint256)": {
        "details": "See {IERC721-approve}."
      },
      "balanceOf(address)": {
        "details": "See {IERC721-balanceOf}."
      },
      "baseURI()": {
        "details": "Returns the base URI set via {_setBaseURI}. This will be automatically added as a prefix in {tokenURI} to each token's URI, or to the token ID if no specific URI is set for that token ID."
      },
      "getApproved(uint256)": {
        "details": "See {IERC721-getApproved}."
      },
      "isApprovedForAll(address,address)": {
        "details": "See {IERC721-isApprovedForAll}."
      },
      "name()": {
        "details": "See {IERC721Metadata-name}."
      },
      "owner()": {
        "details": "Returns the address of the current owner."
      },
      "ownerOf(uint256)": {
        "details": "See {IERC721-ownerOf}."
      },
      "renounceOwnership()": {
        "details": "Leaves the contract without owner. It will not be possible to call `onlyOwner` functions anymore. Can only be called by the current owner.     * NOTE: Renouncing ownership will leave the contract without an owner, thereby removing any functionality that is only available to the owner."
      },
      "safeTransferFrom(address,address,uint256)": {
        "details": "See {IERC721-safeTransferFrom}."
      },
      "safeTransferFrom(address,address,uint256,bytes)": {
        "details": "See {IERC721-safeTransferFrom}."
      },
      "setApprovalForAll(address,bool)": {
        "details": "See {IERC721-setApprovalForAll}."
      },
      "supportsInterface(bytes4)": {
        "details": "See {IERC165-supportsInterface}.     * Time complexity O(1), guaranteed to always use less than 30 000 gas."
      },
      "symbol()": {
        "details": "See {IERC721Metadata-symbol}."
      },
      "tokenByIndex(uint256)": {
        "details": "See {IERC721Enumerable-tokenByIndex}."
      },
      "tokenOfOwnerByIndex(address,uint256)": {
        "details": "See {IERC721Enumerable-tokenOfOwnerByIndex}."
      },
      "tokenURI(uint256)": {
        "details": "See {IERC721Metadata-tokenURI}."
      },
      "totalSupply()": {
        "details": "See {IERC721Enumerable-totalSupply}."
      },
      "transferFrom(address,address,uint256)": {
        "details": "See {IERC721-transferFrom}."
      },
      "transferOwnership(address)": {
        "details": "Transfers ownership of the contract to a new account (`newOwner`). Can only be called by the current owner."
      }
    }
  },
  "userdoc": {
    "methods": {}
  }
}